:020000040800F2
:10000000101B0020411F0008F1010008F301000847
:10001000F7010008FB010008FF01000800000000D4
:1000200000000000000000000000000003020008C3
:100030000502000800000000F74700085B430008C5
:100040005B1F00085B1F00085B1F00085B1F0008A8
:100050005B1F00085B1F00085B1F00085B1F000898
:100060005B1F00085B1F00085B1F00085B1F000888
:100070005B1F00085B1F00085B1F00085B1F000878
:10008000C31D00085B1F00085B1F00085B1F000802
:100090005B1F00085B1F00085B1F00085B1F000858
:1000A0005B1F00085B1F00085B1F00085B1F000848
:1000B0005B1F00085B1F00085B1F00085B1F000838
:1000C0005B1F00085B1F00085B1F00085B1F000828
:1000D0005B1F00085B1F0008631D0008B51E0008B9
:1000E0005B1F00085B1F00085B1F00085B1F000808
:1000F0005B1F00085B1F00085B1F00085B1F0008F8
:100100005B1F00085B1F00085B1F00085B1F0008E7
:100110005B1F00085B1F00085B1F00085B1F0008D7
:100120005B1F00085B1F00085B1F00085B1F0008C7
:1001300000F002F800F04DF80AA090E8000C8244AC
:100140008344AAF10107DA4501D100F042F8AFF289
:10015000090EBAE80F0013F0010F18BFFB1A43F0A5
:10016000010318471875000038750000103A24BFC5
:1001700078C878C1FAD8520724BF30C830C144BF0C
:1001800004680C607047000000230024002500264E
:10019000103A28BF78C1FBD8520728BF30C148BFEA
:1001A0000B607047662907F00A81642904F0E08338
:1001B000732904F0C887002070471FB505F02EF89A
:1001C00004000020002106F011FAE0601FBD10B508
:1001D00010BD05F05DF91146FFF7EFFF04F07CFA62
:1001E00005F07BF903B4FFF7F2FF03BC01F004FE56
:1001F000704700BFFEE700BFFEE700BFFEE700BF9D
:10020000FEE77047704700000CB500200190009099
:100210006C48006840F480306A49086000BF694853
:10022000006800F4003000900198401C0190009894
:1002300018B90198B0F5A06FF1D16248006800F4D8
:10024000003010B10120009001E0002000900098E3
:10025000012843D15C48006840F010005A4908600A
:100260000846006820F0030008600846006840F077
:100270000200086053484068524948600846406898
:1002800048600846406840F480604860084640681E
:1002900020F47C1048600846406840F4E81048604C
:1002A0000846006840F08070086000BF454800685C
:1002B00000F000700028F9D04248406820F00300A8
:1002C000404948600846406840F00200486000BF6E
:1002D0003C48406800F00C000828F9D10CBD10B56E
:1002E000FFF792FF10BD10B53648006840F00100DE
:1002F000344908600846406834490840314948603C
:1003000008460068324908402E49086008460068DF
:1003100020F4802008600846406820F4FE00486011
:100320004FF41F008860FFF7DAFF4FF000602949A3
:10033000086010BD10B5002100200022214B5B6831
:1003400003F00C0121B1042906D0082928D107E0C7
:10035000214B224C236027E01F4B204C236023E0DD
:10036000184B5B6803F47010164B5B6803F4803223
:10037000022303EB904022B9194B4343174C2360EF
:100380000DE0104B5B6803F4003323B1144B43437F
:10039000124C236003E0104B4343104C236003E0F6
:1003A0000D4B0E4C236000BF00BF064B5B68C3F3D0
:1003B00003130C4CE15C094B1B68CB40074C2360DA
:1003C00010BD000000100240002002400000FFF8B5
:1003D000FFFFF6FE08ED00E000127A0000000020AA
:1003E00000093D000400002030B589B005460C46E8
:1003F0000121480302F04EF90121112002F04AF9CF
:100400004FF47070ADF8200018208DF82300032001
:100410008DF8220008A9F04801F080FEADF81850D0
:10042000ADF814400020ADF81A00ADF8160005A98B
:10043000EA4802F06BFC7020ADF804000120ADF832
:1004400006000020ADF80A00ADF80C0001A9E34851
:1004500002F099FC01A9E14802F0D7FC01A9DF48AC
:1004600002F020FD01A9DD4802F067FD0121DB4813
:1004700002F0B4FF0821D94803F0D4F80821D74886
:1004800003F0D9F80821D54803F0E2F80821D34851
:1004900003F0E7F80121D14803F094F80121CF4897
:1004A00002F090FF0021CD4803F024FA0021CB4850
:1004B00003F022FA0021C94803F020FA0021C748BE
:1004C00003F01EFA09B030BD30B589B005460C46C0
:1004D0000121C80202F0DEF80121052002F0DAF85D
:1004E0004FF47060ADF8200018208DF82300032031
:1004F0008DF8220008A9BA4801F010FEADF8185096
:10050000ADF814400020ADF81A00ADF8160005A9AA
:10051000B44802F0FBFB7020ADF804000120ADF8F8
:1005200006000020ADF80A00ADF80C0001A9AD48A6
:1005300002F029FC01A9AB4802F067FC01A9A94817
:1005400002F0B0FC01A9A74802F0F7FC0121A54880
:1005500002F044FF0821A34803F064F80821A148F1
:1005600003F069F808219F4803F072F808219D48BC
:1005700003F077F801219B4803F024F80121994802
:1005800002F020FF0021974803F0B4F900219548BC
:1005900003F0B2F90021934803F0B0F9002191482B
:1005A00003F0AEF909B030BD00B587B001210846AF
:1005B00002F070F80121022002F079F801210420F4
:1005C00002F068F8C020ADF8180048208DF81B0034
:1005D00003208DF81A0006A9814801F09FFD012231
:1005E00040217F4801F04BFE012280217C4801F030
:1005F00046FE44F62060ADF810000020ADF80C0077
:10060000ADF81200ADF80E0003A9774802F07EFBAA
:100610000A231A460321744802F087FF684602F055
:10062000B4FE0820ADF8080069466F4802F001FEEC
:1006300001216D4803F08CF9012211466A4802F04D
:10064000DCFE00206849243108800121664802F060
:10065000B9FE07B000BD00B587B00121084602F021
:1006600019F80121042002F022F80121082002F0EB
:1006700011F8C020ADF8180048208DF81B000320A9
:100680008DF81A0006A9594801F048FD01224021C1
:10069000564801F0F4FD01228021544801F0EFFD9D
:1006A00044F62060ADF810000020ADF80C00ADF865
:1006B0001200ADF80E0003A94D4802F027FB0A23F3
:1006C0001A4603214A4802F030FF684602F05DFEF8
:1006D0000820ADF808006946454802F0AAFD01214E
:1006E000434803F035F901221146414802F085FEE6
:1006F00000203F492431088001213D4802F062FE7C
:1007000007B000BD00B587B00121084601F0C2FF67
:100710000121082001F0CBFF0121042001F0BAFFE4
:100720000320ADF8180048208DF81B0003208DF839
:100730001A0006A92A4801F0F1FC012211462848B6
:1007400001F09DFD01220221254801F098FD44F6AB
:100750002060ADF810000020ADF80C00ADF81200DC
:10076000ADF80E0003A9234802F0D0FA0A231A4676
:100770000321204802F0D9FE684602F006FE082058
:10078000ADF8080069461B4802F053FD01211948E5
:1007900003F0DEF801221146164802F02EFE00207A
:1007A0001449243108800121124802F00BFE07B0E1
:1007B00000BD10B5FFF74FFF1D2140F2AF40FFF71E
:1007C00083FEFFF7F1FEFFF79DFF1D2140F2AF40D2
:1007D000FFF70AFE10BD0000001001400034014088
:1007E00000080140002C014000040040000C0140C2
:1007F00000080040000C00402DE9FC5F8246BAF181
:10080000000F08DBBAF5FA7F01DD4FF4FA7A012018
:10081000FD49087009E0CAF1000ABAF5FA7F01DD66
:100820004FF4FA7A0020F84908704FEA8A00C0EBCA
:10083000C000C00000EB400101EBC000432190FB71
:10084000F1FB584606F01FF90646F04AF04B05F05A
:1008500093FF04460022EF4B05F08EFF80460022F6
:10086000ED4B05F0D9FECDE9000106F0DDF8E649D3
:100870004860BDE8FC9F2DE9FC5F8246BAF1000F9D
:1008800008DBBAF5FA7F01DD4FF4FA7A0120E3497B
:10089000087009E0CAF1000ABAF5FA7F01DD4FF4E9
:1008A000FA7A0020DD4908704FEA8A00C0EBC000E8
:1008B000C00000EB400101EBC000432190FBF1FBC5
:1008C000584606F0E0F80646D04AD14B05F054FFF2
:1008D00004460022CF4B05F04FFF80460022CE4B4E
:1008E00005F09AFECDE9000106F09EF8CB4948607C
:1008F000BDE8FC9F2DE9FC5F8246BAF1000F08DBE2
:10090000BAF5FA7F01DD4FF4FA7A0120C449087084
:1009100009E0CAF1000ABAF5FA7F01DD4FF4FA7A6C
:100920000020BF4908704FEA8A00C0EBC000C00039
:1009300000EB400101EBC000432190FBF1FB584666
:1009400006F0A1F80646B14AB14B05F015FF044682
:100950000022B04B05F010FF80460022AE4B05F0A0
:100960005BFECDE9000106F05FF8AD494860BDE8E7
:10097000FC9F70B504460D465DB14FF49661A948E1
:1009800002F0B8FFC4F5966081B2A64802F0B4FF49
:100990000AE0C4F5966081B2A24802F0ABFF4FF4C2
:1009A0009661A04802F0A8FF70BD70B504460D46E0
:1009B0005DB14FF496619C4802F0A0FFC4F59660CB
:1009C00081B2994802F09CFF0AE0C4F5966081B2BA
:1009D000954802F093FF4FF49661934802F090FF20
:1009E00070BD70B504460D465DB1C4F5966081B228
:1009F0008D4802F07FFF4FF496618B4802F07CFF38
:100A00000AE04FF49661884802F074FFC4F59660DE
:100A100081B2854802F070FF70BD7B48806810F598
:100A2000966F02DA81487849886077488068B0F527
:100A3000966F03DD4FF4966073498860774880684D
:100A400010F5966F02DA79487449886073488068B7
:100A5000B0F5966F03DD4FF496607049886070487A
:100A6000806810F5966F02DA70486D4988606C48AE
:100A70008068B0F5966F03DD4FF496606849886032
:100A800070472DE9F04704460D46281B06F0D8FABA
:100A900067490860084601686648006806F01CFB64
:100AA0008046654801686248006806F013FC81468C
:100AB00062480168484606F00FFB0746414606F0CB
:100AC00001FA06465E480168304606F0FBF95C49CB
:100AD00008605C495A48006806F0CAFB03D25948CE
:100AE0005749086008E000215548006806F0C0FA40
:100AF00002D20020524908604D4800684E49086003
:100B00004F48006806F080FABDE8F08701460029EA
:100B100001DA002000E0084670472DE9F04704465E
:100B20000D46281B06F08CFA474908600846016804
:100B30004648006806F0D0FA8046454801684248B9
:100B4000006806F0C7FB814642480168484606F047
:100B5000C3FA0746414606F0B5F906463E48016825
:100B6000304606F0AFF93C49086036493A4800681B
:100B700006F07EFB03D233483749086008E00021C5
:100B80003548006806F074FA02D200203249086045
:100B90002D4800682E4908602F48006806F034FA96
:100BA000BDE8F0872DE9F04704460D46281B06F006
:100BB00047FA2A490860084601682948006806F093
:100BC0008BFA8046274801682448006806F082FBBB
:100BD000814625480168484606F07EFA07464146A8
:100BE00006F070F9064621480168304606F06AF9B9
:100BF0001E49086013491D48006806F039FB37D2CA
:100C000010481A4908603CE0E4000020F1D4C853C1
:100C1000FB210940000059400000E03FF80000209F
:100C20000C010020002C01400034014050FBFFFF6C
:100C30006800002040000020700000203C000020E0
:100C40006C000020000096445C000020380000206A
:100C500064000020340000206000002050000020CC
:100C600030000020580000202C00002054000020FC
:100C70000021FE48006806F0FBF902D20020FB4983
:100C80000860FB480068FB490860F848006806F007
:100C9000BBF9BDE8F08770B50025F748007CC0B10E
:100CA0000021F64802F026FE0021F44802F024FE5E
:100CB0000021F24802F022FE0021F04802F020FE5E
:100CC0000021EF4802F016FE0021ED4802F014FE6C
:100CD00070BDEC48B0F90240EB4A5168002C01DBD2
:100CE000224600E062421046FFF75CFF0646FFF72F
:100CF0000DFFE5498860E348B0F90440E34A5168D4
:100D0000002C01DB224600E062421046FFF705FF9F
:100D10000646FFF7FBFEDD498860DA48B0F9064079
:100D2000DB4A5168002C01DB224600E0624210469B
:100D3000FFF7A7FE0646FFF7E9FED5498860FFF7F3
:100D40006CFED14A11789068FFF74BFECF4A1178BC
:100D50009068FFF72AFECE4A11789068FFF709FEE7
:100D600000BFB5E72DE9F04704460D46281B06F005
:100D700067F9C849086008460168C748006806F076
:100D8000A1F8C5490860C5480168C248006806F076
:100D9000A1FA8046C2480168404606F09DF9064621
:100DA000BD480168BF48006806F096F98046B9481A
:100DB0000168BD48006806F08FF98146414606F09B
:100DC00081F80746314606F07DF8B8490860B14819
:100DD0000068B2490860B548006806F015F9BDE83A
:100DE000F0872DE9F04104460021206806F040F923
:100DF00003D2206880F0004020600021606806F087
:100E000037F903D2606880F0004060600021A0687C
:100E100006F02EF903D2A06880F00040A060002107
:100E2000E06806F025F903D2E06880F00040E06059
:100E30002069E0612169206A06F044F820620021FF
:100E4000E06806F0ADF813D0E168206A06F010FA09
:100E500002D2E06820620BE0E06880F0004528469E
:100E6000216A06F005FA03D2E06880F000402062B3
:100E7000A169206906F02EFA60622069A061616AAA
:100E8000A06806F029F90646216A606806F024F990
:100E90000746E169206806F01FF98046394606F0EA
:100EA00011F80546314606F00DF86061BDE8F081A5
:100EB0002DE9F04F93B08346894614469A469D210A
:100EC00004FB01F005F0DFFDCDE91001504605F00F
:100ED000DAFD074605F03AFB05460E46484605F0A2
:100EE000D2FD2A463346CDE9080105F0F7FDCDE9EC
:100EF0000C01504605F0C7FD074605F0D9FA054636
:100F00000E46584605F0BFFD2A463346CDE9080196
:100F100005F0E4FDCDE90A01DDE90C2305F07CFBD9
:100F2000CDE90E01DDE9102305F076FB604A03C22E
:100F30009D2104FB01F005F0A6FDCDE9100150460E
:100F400005F0A1FD074605F0B3FACDE900015948C7
:100F5000594905F0FBFA0546DDE9002305F0BEFD21
:100F6000CDE90401504605F08EFD074605F0EEFA86
:100F7000CDE900014F48504905F09AFA81F000414F
:100F80000546DDE9002305F0A9FDCDE90201DDE913
:100F9000042305F0ADFECDE90801484605F073FDD8
:100FA000CDE90601DDE9082305F098FDCDE90C0146
:100FB000504605F068FDCDE9000105F0C7FA054689
:100FC0000E463C483D4905F0C1FA2A463346CDE974
:100FD000020105F083FD07468846504605F053FDA3
:100FE000CDE9000105F064FA05460E463148324964
:100FF00005F05EFA81F000412A463346CDE9020150
:1010000005F06CFD3A464346CDE9040105F004FBCA
:10101000CDE90801584605F036FDCDE90601DDE9C8
:10102000082305F05BFDCDE90A01DDE90C2305F09D
:10103000F3FACDE90E01DDE9102305F0EDFA204ABF
:1010400003C29D2104FB01F005F01DFDCDE9100157
:10105000504605F018FDCDE9000105F029FA0546D6
:101060000E461448154905F023FA2BE054000020E1
:1010700050000020580000202001002000340140D2
:10108000002C01405C010020E4000020F80000205A
:101090000C010020740000207C0000208000002053
:1010A0004C00002048000020440000207800002070
:1010B00088000020A138DB3752C1F03F52C1E03F29
:1010C0009000002007462A46334605F007FDCDE98B
:1010D0000401504605F0D7FC074605F037FA0546EF
:1010E0000E464348434905F031FA81F000412A4653
:1010F0003346CDE9000105F0F1FCCDE90201DDE95F
:10110000042305F089FACDE90801484605F0BBFC47
:10111000CDE90601DDE9082305F0E0FCCDE90C018D
:10112000504605F0B0FCCDE9000105F00FFA054688
:101130000E462F482F4905F0BBF92A463346CDE924
:10114000020105F0CBFCCDE90401504605F09BFC03
:10115000CDE9000105F0ACF905460E4624482549C5
:1011600005F0F4F981F000412A463346CDE9020149
:1011700005F0B4FC0746DDE9042305F04DFACDE99E
:101180000801584605F07FFCCDE90601DDE908239A
:1011900005F0A4FCCDE90A01DDE90C2305F03CFAD9
:1011A000CDE90E01DDE9102305F036FA124A03C23B
:1011B000124903C905F038FC0546FFF71DFB10492D
:1011C000D1E9005181F00041284605F02DFC074689
:1011D000FFF751FB0849D1E9005181F00041284651
:1011E00005F022FC0746FFF785FB13B0BDE8F08F42
:1011F000A138DB3752C1E03F980000208800002072
:101200009000002070B5002500244AF2A5509F49A7
:1012100008800A20488064208880C88000200881D7
:1012200048818881C8810320088200BF05E0974873
:1012300030F914000544601CC4B29448B0F90200AF
:10124000401EA042F3DC28B29049C881084680784D
:101250004006010E8D4800F0ADFC70BD70B5002554
:1012600000244AF2A550894908808948407C08300A
:1012700048808848408888808648C088C88040F276
:101280000710088143204881382088818048407CAD
:1012900030B1032805D0062819D009287DD141E0B6
:1012A00070BD1D21D02000F059FC00B27749C881E3
:1012B0001F21D02000F052FC00B274490882212185
:1012C000D02000F04BFC00B2704948826DE01D2137
:1012D000D02000F043FC00B26C49C8811F21D0200F
:1012E00000F03CFC00B2694908822121D02000F0C6
:1012F00035FC00B2654948823221A62000F02EFC60
:1013000000B2624988823421A62000F027FC00B296
:101310005E49C8823621A62000F020FC00B25B495D
:10132000088342E01D21D02000F018FC00B257498C
:10133000C8811F21D02000F011FC00B2534908825F
:101340002121D02000F00AFC00B25049488232210D
:10135000A62000F003FC00B24C4988823421A6206C
:1013600000F0FCFB00B24949C8823621A62000F0FB
:10137000F5FB00B24549088300211A2000F001FC6A
:1013800000B24249488302211A2000F0FAFB00B261
:101390003E49888304211A2000E005E000F0F1FBBB
:1013A00000B23A49C88300E000BF00BF002405E056
:1013B000364830F914000544601CC4B23348B0F913
:1013C0000200401EA042F3DC29B23048B0F902000E
:1013D000401E2E4A22F81010104680784006010E5A
:1013E000104600F0E7FB00BF5AE770B500252A4819
:1013F000B0F900002949884246D12748807814284E
:1014000042D1002405E0244830F914000544601C52
:10141000C4B22149887800EBD0714910491EA1421D
:10142000F1DC1D48B0F91200A8422DD11A4800790C
:1014300030B1012805D0022804D0032819D10CE0CE
:1014400017E016E01449B1F90600FFF7D5F9124983
:10145000B1F90800FFF70FFA0BE00F4EB6F90C30A8
:10146000B6F90A20B6F90810B6F90600FFF720FD14
:1014700000BF00BF0848C07B054908740648007CCF
:1014800088740548007C487470BD00001403002077
:10149000200100205C01002078030020A5A5FFFFAB
:1014A00010B54FF08042928C12B2A04B1A811A46AE
:1014B0009169B2F90830B2F9102040F27124624308
:1014C00003EB4210421A12B2984B1A8013E0974A6B
:1014D000128A521E12B2954B1A821A46B2F908307D
:1014E000B2F9102040F27124624303EB4210421A19
:1014F00012B28E4B1A808D4AB2F9002042F210735C
:101500009A42E4DC13E0894A128A521C12B2874BD9
:101510001A821A46B2F90830B2F9102040F271244A
:10152000624303EB4210421A12B2804B1A807F4A88
:10153000B2F900207E4B9A42E5DB7C4A906110BDF7
:1015400010B57C4A128812B2784B5A811A46D1697A
:10155000B2F90A30B2F9122040F27124624303EB6F
:101560004210421A12B2714B5A8013E06F4A528AEB
:10157000521E12B26D4B5A821A46B2F90A30B2F9B3
:10158000122040F27124624303EB4210421A12B25D
:10159000664B5A80654AB2F9022042F210739A42B1
:1015A000E4DC13E0614A528A521C12B25F4B5A8249
:1015B0001A46B2F90A30B2F9122040F2712462439D
:1015C00003EB4210421A12B2584B5A80574AB2F9F2
:1015D0000220574B9A42E5DB544AD06110BD10B54A
:1015E000554A128812B2514B9A811A46116AB2F9C1
:1015F0000C30B2F9142040F27124624303EB421024
:10160000421A12B2494B9A8013E0484A928A521EFB
:1016100012B2464B9A821A46B2F90C30B2F9142033
:1016200040F27124624303EB4210421A12B23F4B64
:101630009A803E4AB2F9042042F210739A42E4DCE6
:1016400013E03A4A928A521C12B2384B9A821A46D6
:10165000B2F90C30B2F9142040F27124624303EB6A
:101660004210421A12B2314B9A80304AB2F9042029
:101670002F4B9A42E5DB2D4A106210BD10B52F4A60
:10168000128812B2294BDA811A46516AB2F90E3029
:10169000B2F9162040F27124624303EB4210421A61
:1016A00012B2224BDA8013E0204AD28A521E12B2C2
:1016B0001E4BDA821A46B2F90E30B2F9162040F209
:1016C0007124624303EB4210421A12B2174BDA80C4
:1016D000164AB2F9062042F210739A42E4DC13E093
:1016E000124AD28A521C12B2104BDA821A46B2F94E
:1016F0000E30B2F9162040F27124624303EB42101F
:10170000421A12B2094BDA80084AB2F90620084B95
:101710009A42E5DB054A506210BD00B5FFF710FFA5
:10172000FFF7ACFFFFF75BFF00BD00005C0100208E
:10173000F0D8FFFF2404004024080040240C00409F
:1017400008B50121082000F0A5FF2020ADF8000019
:1017500003208DF8020014208DF803006946DD484F
:1017600000F0DCFC0121DC4800F0A9FD1020ADF800
:10177000000003208DF8020014208DF80300694654
:10178000D44800F0CBFC08BD002100BF48E000BFFA
:1017900000BF00BF00BF00BF00BF00BF00BF00BF51
:1017A00000BF00BF00BF00BF00BF00BF00BF00BF41
:1017B00000BF00BF00BF00BF00BF00BF00BF00BF31
:1017C00000BF00BF00BF00BF00BF00BF00BF00BF21
:1017D00000BF00BF00BF00BF00BF00BF00BF00BF11
:1017E00000BF00BF00BF00BF00BF00BF00BF00BF01
:1017F00000BF00BF00BF00BF00BF00BF00BF00BFF1
:1018000000BF00BF00BF00BF00BF00BF00BF00BFE0
:1018100000BF00BF00BF00BF00BF00BF00BF491C2A
:101820008142B4D3704700B52020AA491031086026
:10183000102008600220FFF7A7FFA64808300068C4
:1018400008B9012000E0002000F0200008B10020CD
:1018500000BD20209F49143108600220FFF794FF4B
:101860009C480830006800F0200008B10020EFE735
:1018700020209849143108600220FFF785FF0120DD
:10188000E6E700B510209349143108600220FFF705
:101890007BFF20208F49143108600220FFF774FF7E
:1018A00010208C49103108600220FFF76DFF2020C6
:1018B0008849103108600220FFF766FF00BD00B5BF
:1018C00010208449143108600220FFF75DFF2020BA
:1018D0008049143108600220FFF756FF10207D492F
:1018E000103108600220FFF74FFF102079491431B2
:1018F00008600220FFF748FF00BD00B510207549C1
:10190000143108600220FFF73FFF20207149103199
:1019100008600220FFF738FF10206E491031086080
:101920000220FFF731FF10206A49143108600220BD
:10193000FFF72AFF00BD00B510206649143108608A
:101940000220FFF721FF20206249103108600220A9
:10195000FFF71AFF10205F49103108600220FFF7DF
:1019600013FF5C480830006800F0200040B11020F0
:101970005849143108600220FFF706FF002000BD1F
:1019800010205449143108600220FFF7FDFE0120A9
:10199000F5E710B5034608241EE010204D49143128
:1019A00008600220FFF7F0FE03F0800020B1202045
:1019B00048491031086003E020204649143108608E
:1019C0005806030E0220FFF7DFFE102041491031B8
:1019D00008600220FFF7D8FE2000A4F10101CCB27C
:1019E000DBD110203B491431086010BD10B508242C
:1019F0000023202037491031086017E05806030EF5
:101A000010203449143108600220FFF7BDFE102079
:101A10003049103108600220FFF7B6FE2D4808302B
:101A2000006800F0200008B143F001032000A4F199
:101A30000101CCB2E2D110202649143108601846C9
:101A400010BD70B506460C461546FFF7ECFE08B90A
:101A5000002070BD3046FFF79CFFFFF76CFF18B900
:101A6000FFF70FFF0020F4E72046FFF792FFFFF794
:101A700062FF2846FFF78DFFFFF75DFFFFF701FFCD
:101A80000120E6E770B504460D46FFF7CCFE08B925
:101A9000002070BD2046FFF77CFFFFF74CFF18B910
:101AA000FFF7EFFE0020F4E72846FFF772FFFFF78D
:101AB00042FFFFF7B8FE611CC8B2FFF76AFFFFF7ED
:101AC0003AFFFFF793FF0646FFF717FFFFF7D9FE30
:101AD0003046DEE7000C01400002300010B5FFF791
:101AE0002FFE01220B211A20FFF7ABFF40222021FD
:101AF0001A20FFF7A6FF012221211A20FFF7A1FFDC
:101B00000D2209211A20FFF79CFF0B223121A6206C
:101B1000FFF797FF08222D21A620FFF792FF8022D2
:101B20002E21A620FFF78DFF80223E21D020FFF737
:101B300088FF07221521D020FFF783FF1E221621E0
:101B4000D020FFF77EFF00221721D020FFF779FF7A
:101B500000223E21D020FFF774FF10BD2DE9F04197
:101B600005460C4621462846FFF78CFF0646601CBA
:101B7000C1B22846FFF786FF074607EB0620BDE8FF
:101B8000F0812DE9F04105460C4621462846FFF735
:101B900079FF0746601CC1B22846FFF773FF06466F
:101BA00007EB0620BDE8F08110B54FF4A06000F00F
:101BB000E7F910BD70B505460C460021884801F0D4
:101BC000ACFFC82C01D9002070BD224629468548AB
:101BD00002F0ACFF2146824801F0B4FF01218048A9
:101BE00001F09BFF0120EFE700B58BB00121084613
:101BF00000F043FD7A48143801F0C2FE784801F045
:101C0000BFFE794800907948019000200290C820DA
:101C100003900020049080200590002006900790FB
:101C200008904FF44050099000200A9069466C4893
:101C3000143801F047FF01216948143801F06DFFA5
:101C40006948009067480190102002900920039095
:101C500000200490802005900020069007900890B6
:101C60004FF48050099000200A9069465C4801F0CA
:101C700029FF012240215C48001F00F06FFE012275
:101C800080215948001F00F069FE0BB000BD08B567
:101C900010208DF8000000208DF8010001208DF843
:101CA00002008DF80300684600F06FF926208DF8D9
:101CB000000000208DF8010002208DF802000120B4
:101CC0008DF80300684600F060F908BD10B586B0D5
:101CD00004460121480400F0EAFC0121052000F03F
:101CE000D9FC0420ADF8140018208DF8170003204B
:101CF0008DF8160005A93E4800F010FA0820ADF84E
:101D0000140004208DF8170005A9394800F006FAE0
:101D100001940020ADF80800ADF80A00ADF80C0001
:101D2000ADF810000C20ADF80E0001A92E48001FE0
:101D300000F057FDFFF7ABFFFFF756FF012240F21F
:101D400024412948001F00F0E4FD01212648001F1E
:101D500000F0D3FD40212448001F00F0B6FE06B07D
:101D600010BD70B502F08BFB40F224411E48001FED
:101D700000F0B4FE10B31C48001F0088C4B21A481B
:101D80000088C4B200211648143801F0C6FE144879
:101D9000143801F0D9FE05462A461449154802F0C8
:101DA000C5FEC8210E48143801F0CCFE01210C48B4
:101DB000143801F0B2FEFFF718FB00BF02F06EFB13
:101DC00070BD10B502F05BFB4FF4001001F0C0FED7
:101DD00018B14FF4001001F0EEFE02F05FFB10BDF1
:101DE000800002404C020020044400408401002096
:101DF0000008014078030020014600BF704700BF83
:101E00004B4A128802F04002002AF9D0C2B2484B75
:101E10001B1D1A80704710B586B0044601210820AA
:101E200000F038FC0121880400F041FC4FF4806090
:101E3000ADF8140003208DF8160018208DF8170057
:101E400005A93C4800F06AF94FF40060ADF81400B1
:101E500004208DF8170005A9364800F05FF9272007
:101E60008DF8000003208DF801008DF8020001209C
:101E70008DF80300684600F088F801940020ADF862
:101E80000800ADF80A00ADF80C00ADF810000C2009
:101E9000ADF80E0001A9264800F0A3FC012240F293
:101EA0002551234800F035FD0121214800F025FD92
:101EB00006B010BD10B540F225511D4800F00EFED1
:101EC00010B31B4800F08AFDC4B21B48008800F420
:101ED0000040C8B91848008800F4804060B10A2C5E
:101EE00003D000201449088020E01348008840F403
:101EF00000401149088019E00D2C06D10E480088D9
:101F000040F480400C49088010E00B480088C0F382
:101F10000D000A490C5408480088401C06490880F6
:101F200008460088C72801DD0020088010BD000099
:101F300000480040000C0140A4000020DC03002009
:101F40000948804709480047FEE7FEE7FEE7FEE74D
:101F5000FEE7FEE7FEE7FEE7FEE7FEE70448054989
:101F6000054A064B70470000E702000831010008EF
:101F700010150020101B0020101700201017002043
:101F800031490143314A1160704770B50021002387
:101F90000F22C47804B32D4C246804F4E064C4F523
:101FA000E064210AC1F10403CA40447804FA03F151
:101FB0008478144021430901254C0678A155047802
:101FC00004F01F050124AC4005786D11AD0005F14A
:101FD000E025C5F8004109E0047804F01F0501245C
:101FE000AC401C4D0678761145F8264070BD1A4A63
:101FF0000A400243154B1B1F1A60704739B1134A40
:10200000121D12680243114B1B1D1A6006E00F4A95
:10201000121D126882430D4B1B1D1A607047042865
:1020200008D14FF0E021096941F004014FF0E022AE
:10203000116107E04FF0E021096921F004014FF040
:10204000E0221161704700000000FA050CED00E08D
:1020500000E400E080E100E080FFFF1F10B50446CF
:10206000CC48844208D10121042000F02DFB00213E
:10207000042000F029FB46E0C748844208D1012132
:10208000082000F021FB0021082000F01DFB3AE0B1
:10209000C248844208D10121102000F015FB002124
:1020A000102000F011FB2EE0BD48844208D1012130
:1020B000202000F009FB0021202000F005FB22E099
:1020C000B848844208D10121402000F0FDFA0021E7
:1020D000402000F0F9FA16E0B348844208D101210B
:1020E000802000F0F1FA0021802000F0EDFA0AE0F3
:1020F000AE48844207D10121801500F0E5FA0021A5
:10210000A01500F0E1FA10BD10B50121084600F05D
:10211000DBFA0021012000F0D7FA10BD2DE9F041D3
:10212000024600250026002000230024002791F805
:1021300003C00CF00F0591F803C00CF0100CBCF1BB
:10214000000F03D091F802C04CEA050591F800C0D9
:10215000BCF1000F31D0146800202BE04FF0010CCF
:102160000CFA00F3B1F800C00CEA03069E4220D13D
:1021700083004FF00F0C0CFA03F7BC4305FA03FC85
:102180004CEA040491F803C0BCF1280F06D14FF0CB
:10219000010C0CFA00FCC2F814C00AE091F803C06C
:1021A000BCF1480F05D14FF0010C0CFA00FCC2F84D
:1021B00010C0401C0828D1D31460B1F800C0BCF195
:1021C000FF0F34DD546800202EE000F1080C4FF0C2
:1021D000010808FA0CF3B1F800C00CEA03069E42AD
:1021E00021D183004FF00F0C0CFA03F7BC4305FA22
:1021F00003FC4CEA040491F803C0BCF1280F05D19C
:1022000000F1080C08FA0CF8C2F8148091F803C029
:10221000BCF1480F07D100F1080C4FF0010808FA93
:102220000CF8C2F81080401C0828CED35460BDE8DA
:10223000F0814FF6FF710180022181700421C1708D
:1022400070470246002093680B400BB1012000E06C
:10225000002070470146886880B27047024600201F
:10226000D3680B400BB1012000E00020704701460D
:10227000C86880B2704701617047416170470AB118
:10228000016100E041617047C16070474FF48032E6
:102290000A43826181618261826982697047024674
:1022A0000020434B18684FF68073184040EA021034
:1022B00008433F4B186070473E49C8617047F0B50E
:1022C0000A46002300240021002500F00046B6F154
:1022D000004F02D1364EF16901E0354E7168C0F30E
:1022E000034583B200F44016B6F5401F08D121F033
:1022F00070612F4E766826F070662D4F7E6012E07A
:1023000000F48016B6F5801F06D1032606FA05F400
:10231000A14341F0706106E0460D360103FA06F66E
:10232000B14341F0706122B1460D360103FA06F661
:10233000314300F00046B6F1004F02D11C4EF1616E
:1023400001E01B4E7160F0BD30B500228B071C0F01
:102350000F2303FA04F2164B08338C1053F8243081
:102360009343134C08348D1044F8253023468C10C9
:1023700053F824308C07240F00FA04F423430C4C48
:1023800008348D1044F8253030BD0A49DC3108602E
:102390007047000000080140000C0140001001409F
:1023A0000014014000180140001C014000200140C1
:1023B0000000014000002042DF48006840F00100BA
:1023C000DD49086008464068DC490840DA49486051
:1023D00008460068DA490840D7490860084600689E
:1023E00020F4802008600846406820F4FE00486021
:1023F0004FF41F0088607047CF49096821F480318D
:10240000CD4A11601146096821F480211160B0F5B0
:10241000803F03D0B0F5802F0ED106E0C649096891
:1024200041F48031C44A116007E0C349096841F4AE
:10243000A021C14A116000E000BF00BF704710B585
:1024400001460022002300204A11012A02D1BA4C81
:10245000236806E0022A02D1B74C236A01E0B64C99
:10246000636A01F01F02012494401C400CB101205A
:1024700000E0002010BD38B50020009000240025A9
:1024800000BF3120FFF7DBFF05460098401C00909D
:102490000098B0F5A06F01D0002DF2D03120FFF7E9
:1024A000CEFF08B1012400E00024204638BD0146DB
:1024B0000020A14A106820F0F80040EAC100106036
:1024C0007047A04908607047024600209A4B586840
:1024D00020F47C1042EA01031843974B5860704780
:1024E00098490866704701460020934A506820F0DA
:1024F00003000843506070478F48406800F00C00AC
:102500007047014600208C4A506820F0F0000843D4
:102510005060704701460020874A506820F4E06010
:1025200008435060704701460020834A506820F4F9
:10253000605040EAC1005060704729B17E4A527A2B
:1025400002437D4B5A7204E07B4A527A82437A4BB3
:102550005A7270477B49D8310860704701460020A5
:10256000754A506820F4404008435060704700218D
:10257000714A20321170704A82F82010012802D06E
:1025800004280AD104E001216B4A2032117005E0D1
:102590000521694A2032117000E000BF00BF70477A
:1025A0006949086070476449096A0143624A1162D7
:1025B0007047654944390860704730B500210022F2
:1025C000002400235C4D6D6805F00C0121B1042945
:1025D00005D0082923D105E05C4D056022E05B4D64
:1025E00005601FE0544D6D6805F47012524D6D6822
:1025F00005F48034022505EB92421CB9544D554335
:1026000005600BE04C4D6D6805F400351DB1504D73
:102610005543056002E04D4D5543056002E04B4DCA
:10262000056000BF00BF444D6D6805F0F001090969
:10263000484D6B5C0568DD4045603F4D6D6805F4B5
:10264000E061090A434D6B5C4568DD4085603A4DA9
:102650006D6805F46051C90A3E4D6B5C4568DD400C
:10266000C560354D6D6805F44041890B3A4D6B5C92
:10267000C568B5FBF3F5056130BD29B12E4A526935
:1026800002432D4B5A6104E02B4A526982432A4B84
:102690005A61704729B1284A92690243264B9A61D0
:1026A00004E0254A92698243234B9A61704729B11D
:1026B000214AD2690243204BDA6104E01E4AD26902
:1026C00082431D4BDA61704729B11B4AD26802432D
:1026D000194BDA6004E0184AD2688243164BDA607C
:1026E000704729B1144A12690243134B1A6104E07E
:1026F000114A12698243104B1A61704712494039DE
:10270000086070470F49C86470470B49C87170472B
:102710000948406A40F080700749486270470146A6
:102720000020054A92680A400AB1012000E000201A
:102730007047014988727047001002400000FFF89E
:10274000FFFFF6FE000042428004424200127A007F
:1027500000093D00A6000020B600002010B5044688
:10276000FB48844209D101218803FFF7ADFF002116
:102770004FF48040FFF7A8FF32E0F648844209D1C9
:1027800001214804FFF7ADFF00214FF40030FFF7AF
:10279000A8FF25E0F048844209D101218804FFF711
:1027A000A0FF00214FF48020FFF79BFF18E0EB48CB
:1027B000844209D10121C804FFF793FF00214FF49F
:1027C0000020FFF78EFF0BE0E548844208D101218D
:1027D0000805FFF786FF00214FF48010FFF781FF07
:1027E00010BD2DE9F04786B005460E460024A246EE
:1027F00000BFA1460027B08900B100BF2F462C8A38
:102800004CF6FF700440F08804432C82AC894EF6ED
:10281000F3100440B08831890843718908430443A8
:10282000AC81AC8A4FF6FF400440B0890443AC82CF
:1028300001A8FFF7C2FEC648874202D1DDF810A00A
:1028400001E0DDF80CA0A88900F4004040B10AEBDB
:10285000CA0000EB0A1031684900B0FBF1F807E04C
:102860000AEBCA0000EB0A1031688900B0FBF1F8EE
:102870006420B8FBF0F004012009642101FB1089F9
:10288000A88900F4004040B1322000EBC900B0FB41
:10289000F1F000F00700044308E0322000EB0910DB
:1028A0006421B0FBF1F000F00F0004432C8106B06E
:1028B000BDE8F0874FF41651016000218180C1808E
:1028C00001810C21418100218181704710B50246B0
:1028D0000020108A4FF2FF0318400B884C882343D6
:1028E0008C882343CC8823431843108210BD0021D9
:1028F000018041808180C180704721B1828942F48A
:102900000052828104E082894DF6FF731A40828171
:102910007047F0B50346002400260025002040F64D
:102920006A17B94200D100BF1846C1F3421401F042
:102930001F06012707FA06F5012C01D10C3004E02F
:10294000022C01D1103000E014301AB107682F4377
:10295000076002E00768AF430760F0BD1AB1838AE1
:102960000B43838202E0838A8B4383827047028A0F
:102970004FF6F0731A400282028A0A4302827047BD
:1029800082894FF2FF731A40828182890A438281D1
:10299000704721B1828942F00202828104E082897B
:1029A0004FF6FD731A4082817047028A4FF6DF733B
:1029B0001A400282028A0A430282704721B1028AC7
:1029C00042F48042028204E0028A4BF6FF731A400E
:1029D00002827047C1F308028280704701468888EE
:1029E000C0F308007047818941F00101818170477F
:1029F000028BD2B20283028B42EA01220283704729
:102A0000028B02F47F420283028B0A4302837047E7
:102A100021B1828A42F02002828204E0828A4FF64B
:102A2000DF731A408282704721B1828A42F010021D
:102A3000828204E0828A4FF6EF731A4082827047E6
:102A400021B1828A42F00802828204E0828A4FF633
:102A5000F7731A408282704721B1828942F40042A2
:102A6000828103E08289C2F30E028281704721B124
:102A7000828A42F40062828204E0828A4FF2FF730B
:102A80001A4082827047828A4FF6FB731A40828214
:102A9000828A0A438282704721B1828A42F002020E
:102AA000828204E0828A4FF6FD731A408282704768
:102AB00002460020B1F5007F00D100BF13880B4013
:102AC0000BB1012000E00020704701F40072B2F564
:102AD000007F00D100BFCA430280704770B5024634
:102AE000002400230025002040F66A16B14200D1E0
:102AF00000BFC1F3421501F01F03012606FA03F3DC
:102B0000012D02D19689334006E0022D02D1168AAA
:102B1000334001E0968A33400C12012606FA04F491
:102B20001688344013B10CB1012000E0002070BDC4
:102B300010B50022002340F66A14A14200D100BF64
:102B40000A1201249440A3B2DC43048010BD0000AB
:102B5000003801400044004000480040004C004064
:102B60000050004010B50446FE48844208D10121BF
:102B7000C014FFF7A9FD0021E014FFF7A5FDC4E094
:102B8000B4F1804F08D101210846FFF7AAFD0021CA
:102B90000120FFF7A6FDB8E0F348844208D10121E7
:102BA0000220FFF79EFD00210220FFF79AFDACE016
:102BB000EE48844208D101210420FFF792FD002154
:102BC0000420FFF78EFDA0E0E948844208D10121EE
:102BD0000820FFF786FD00210820FFF782FD94E022
:102BE000E448844208D101211020FFF77AFD00213A
:102BF0001020FFF776FD88E0DF48844208D10121EC
:102C00002020FFF76EFD00212020FFF76AFD7CE009
:102C1000DA48844208D101214014FFF755FD002114
:102C20006014FFF751FD70E0D548844209D10121BD
:102C3000C804FFF749FD00214FF40020FFF744FDD1
:102C400063E0D048844209D101210805FFF73CFD2B
:102C500000214FF48010FFF737FD56E0CA48844248
:102C600009D101214805FFF72FFD00214FF4001085
:102C7000FFF72AFD49E0C548844208D101214020E0
:102C8000FFF72FFD00214020FFF72BFD3DE0C0485E
:102C9000844208D101218020FFF723FD00218020FC
:102CA000FFF71FFD31E0BB48844208D101218015A8
:102CB000FFF717FD0021A015FFF713FD25E0B6482B
:102CC000844209D101210804FFF7FEFC00214FF4E2
:102CD0008030FFF7F9FC18E0B048844209D10121A7
:102CE0004804FFF7F1FC00214FF40030FFF7ECFC43
:102CF0000BE0AB48844208D101218804FFF7E4FCD3
:102D000000214FF48020FFF7DFFC10BD0022028875
:102D1000944B98420ED0994B98420BD0B0F1804F13
:102D200008D0914B984205D0904B984202D0904BDE
:102D3000984204D14FF68F731A404B881A438D4B3B
:102D4000984207D08C4B984204D04FF6FF431A406C
:102D5000CB881A4302808B8883850B880385814B3F
:102D600098420BD0854B984208D08B4B984205D0A7
:102D70008A4B984202D08A4B984201D10B7A038643
:102D800001238382704770B5002400220023058C44
:102D90004FF6FE7635400584028C8388048B4FF60F
:102DA0008F752C40B51E2C400D882C43751E2A4073
:102DB0000D892A434D882A436A4DA8420BD06F4D96
:102DC000A84208D0744DA84205D0744DA84202D044
:102DD000734DA84213D14FF6F7752A404D892A4307
:102DE0004FF6FB752A408D882A434FF6FF652B402E
:102DF0004FF6FF552B408D892B43CD892B43838084
:102E00000483CD888586028470BD70B500240022BD
:102E10000023058C4FF6EF7635400584028C8388BD
:102E2000048B48F6FF752C404FF6FF452C400D886B
:102E30004FF6FF7606EA05252C434FF6DF752A404C
:102E40000D8906EA05152A434D8806EA05152A4329
:102E5000444DA84202D0494DA8421DD14FF67F757E
:102E60002A404D894FF6FF7606EA05152A434FF6AC
:102E7000BF752A408D8806EA05152A434FF6FF35AF
:102E80002B404FF2FF752B408D8906EA85052B43B9
:102E9000CD8906EA85052B4383800483CD88058789
:102EA000028470BD70B5002400220023058C4FF60B
:102EB000FF6635400584028C8388848B4FF68F75BE
:102EC0002C404FF6FC752C400D882C434FF6FF55D7
:102ED0002A400D894FF6FF7606EA05252A434D88DC
:102EE00006EA05252A431F4DA84202D0234DA842D9
:102EF0001DD14FF2FF752A404D894FF6FF7606EA45
:102F000005252A434FF6FF352A408D8806EA052518
:102F10002A434EF6FF752B404DF6FF752B408D89E9
:102F200006EA05152B43CD8906EA05152B43838058
:102F30008483CD888587028470BD70B5002200230C
:102F40000024058C4EF6FF7635400584038C84887A
:102F5000828B48F6FF752A404FF6FF452A400D88C0
:102F600020E00000002C0140000400400008004068
:102F7000000C0040001000400014004000340140EC
:102F8000004C014000500140005401400018004036
:102F9000001C00400020004000400140004401406F
:102FA000004801404FF6FF7606EA05252A434DF614
:102FB000FF752B400D8906EA05352B434D8806EA3F
:102FC00005352B43FA4DA84202D0FA4DA84208D14C
:102FD0004BF6FF752C408D894FF6FF7606EA851576
:102FE0002C4384808283CD88A0F84050038470BD38
:102FF000828B4FF2FF331A408283828B4FF6FF732E
:1030000003EA01231A4382837047F0B50C46154644
:10301000002200210026078C4EF6FF7C07EA0C07F1
:103020000784828B018C4FF6FF7707EA043640F65F
:10303000FF473A404FF6FF7707EA05273A434FF636
:10304000FF7707EA03373A43D94FB8420ED0D94F3A
:10305000B8420BD0B0F1804F08D0D74FB84205D05E
:10306000D64FB84202D0D64FB84206D14DF6FF77C0
:10307000394046F48057394305E047F6FF57394059
:1030800044F48057394382830184F0BD828B4FF62C
:10309000F3731A408283828B0A4382837047F0B5B0
:1030A0000C461546002200210026078C4FF6FF6CC7
:1030B00007EA0C070784828B018C4FF6FF7707EA3B
:1030C00004264FF60C773A404FF6FF7707EA0317CE
:1030D0002F433A43B64FB8420ED0B64FB8420BD04A
:1030E000B0F1804F08D0B44FB84205D0B34FB842CA
:1030F00002D0B34FB84206D14FF6FF57394046F4DD
:103100008077394305E04FF2FF57394044F4807728
:10311000394382830184F0BD028B4FF2FF331A40A2
:103120000283028B4FF6FF7303EA01231A430283E3
:103130007047F0B50C461546002200210026078C8A
:103140004FF6EF7C07EA0C070784028B018C4FF6E1
:10315000FF7707EA041640F6FF473A404FF6FF773D
:1031600007EA03373A434FF6FF7707EA05273A4362
:103170008F4FB8420ED08F4FB8420BD0B0F1804F76
:1031800008D08D4FB84205D08C4FB84202D08C4F3A
:10319000B84206D14FF6DF77394046F01007394381
:1031A00005E04FF65F77394044F01007394302835A
:1031B0000184F0BD028B4FF6F3731A400283028B39
:1031C0000A4302837047F0B50C46154600220021E1
:1031D000068C4FF6FE773E400684028B018C4FF63C
:1031E0000C7632407E1C06EA03162E433243704EA4
:1031F000B0420ED06F4EB0420BD0B0F1804F08D02D
:103200006D4EB04205D06D4EB04202D06C4EB04211
:1032100006D14FF6FD76314044F00106314305E01A
:103220004FF6F576314044F00106314302830184C4
:10323000F0BD70B505460C465D4885420ED05D4830
:1032400085420BD0B5F1804F08D05B48854205D050
:103250005A48854202D05A48854200D100E000BF5A
:10326000208850B92389A28861882846FFF7ABFFE0
:10327000E1882846FFF79EFF25E0208804280AD130
:103280002389A28861882846FFF753FFE1882846F2
:10329000FFF742FF17E0208808280AD12389A28877
:1032A00061882846FFF7FBFEE1882846FFF7EEFE1F
:1032B00009E02389A28861882846FFF7A6FEE188F5
:1032C0002846FFF795FE70BD2DE9F04105460C46F6
:1032D00000260127608808B9022600E00026A088A1
:1032E000012801D1022700E001272088A0B9238905
:1032F000A28861882846FFF766FFE1882846FFF725
:1033000059FF23893A4631462846FFF712FFE188E4
:103310002846FFF701FF13E02389A2886188284629
:10332000FFF707FFE1882846FFF7F6FE23893A46B4
:1033300031462846FFF747FFE1882846FFF73AFF66
:10334000BDE8F0810A884B881A438B881A43CB88E2
:103350001A430B891A434B891A438B891A43A0F8E5
:10336000442070474FF6FF71818000210180C180A9
:103370004180017270470021018041808180C180BD
:10338000018141818181C18170470021018041809B
:10339000012181800021C1800181704700210180CD
:1033A00041808180C180018141818181704700001D
:1033B000002C01400034014000040040000800409F
:1033C000000C004021B1028842F00102028004E0BA
:1033D00002884FF6FE731A400280704731B1B0F890
:1033E000442042F40042A0F8442005E0B0F8442014
:1033F000C2F30E02A0F8442070471AB183890B4330
:10340000838102E083898B43838170478182704787
:1034100041EA0203A0F8483070471AB183890B4390
:10342000838102E083898B438381704701894FF652
:10343000F8721140018170470A46002101894FF658
:103440008F73194011430181704730B504460D4612
:1034500029462046FFF7F0FF208940F00700208131
:1034600030BD2DE9F04104460D4616461F46602D3D
:1034700006D13B46012231462046FFF75AFE05E0C1
:103480003B46012231462046FFF79DFE2946204655
:10349000FFF7D2FF208940F007002081BDE8F081CE
:1034A00030B50C4600210189C9B24FF6FF7505EA17
:1034B0000325154325432943018130BD2DE9F04102
:1034C00005460E4617469846002443463A4631467E
:1034D0002846FFF7E5FF2C894FF6F870044044F0CA
:1034E00007044FF68F70044044F070042C81BDE84F
:1034F000F081F0B504460D4616461F463B4632465F
:1035000029462046FFF7CCFF208940F480402081E7
:10351000F0BD0185828270470A46002101884FF67E
:103520008F731940114301807047F0B50C46154662
:103530001E460021002200230189028B038C4FF6D6
:10354000F877394021434FF6FC473A4040F20117E3
:103550003A434FF6DD773B404FF6FF7707EA061711
:103560002F433B43018102830384F0BD0A460021BF
:10357000018B4FF68F7319401143018370470A4640
:103580000021018B48F6FF7319404FF6FF7303EAE1
:1035900002231943018370470A460021818B4FF6AD
:1035A0008F7319401143818370470A460021818B34
:1035B00048F6FF7319404FF6FF7303EA02231943DD
:1035C0008183704721B1028842F08002028004E0CA
:1035D00002884FF67F731A400280704721B18288BB
:1035E00042F00402828004E082884FF6FB731A40A6
:1035F0008280704721B1828842F00802828004E014
:1036000082884FF6F7731A408280704721B1828812
:1036100042F00102828004E082884FF6FE731A4075
:10362000828070470A460021018B4FF6F7731940DC
:103630001143018370470A460021018B4FF2FF734B
:1036400019404FF6FF7303EA0223194301837047C1
:103650000A460021818B4FF6F7731940114381838D
:1036600070470A460021818B4FF2FF7319404FF6D5
:10367000FF7303EA02231943818370470A4600213E
:10368000018B4FF6FB7319401143018370470A46C3
:103690000021018B4FF6FF3319404FF6FF7303EA09
:1036A00002231943018370470A460021818B4FF69C
:1036B000FB7319401143818370470A460021818BB7
:1036C0004FF6FF3319404FF6FF7303EA0223194305
:1036D000818370470A460021018B4FF67F731940A2
:1036E0001143018370470A460021018BC1F30E018B
:1036F0004FF6FF7303EA02231943018370470A461A
:103700000021818B4FF67F731940114381837047ED
:103710000A460021818BC1F30E014FF6FF7303EAC5
:1037200002231943818370470A460021018C4FF61A
:10373000FD7319401143018470470A460021018C32
:103740004FF6F77319401143018470470A46002170
:10375000018C4FF6DF7319404FF6FF7303EA021333
:103760001943018470470A460021018C4FF67F738C
:1037700019404FF6FF7303EA02131943018470479F
:103780000A460021018C4FF6FF5319404FF6FF7394
:1037900003EA02231943018470470A460021018C81
:1037A0004FF2FF7319404FF6FF7303EA02231943E8
:1037B000018470470A460021018C4DF6FF731940C1
:1037C0004FF6FF7303EA023319430184704730B5A3
:1037D000002301248C40A3B2048C9C430484048CF9
:1037E00002FA01F5ADB22C43048430BD30B500239C
:1037F00004248C40A3B2048C9C430484048C02FAFD
:1038000001F5ADB22C43048430BD70B503460020F1
:1038100000241846183001258D40ACB21D8CA543FC
:103820001D8409B1082909D100EB6100056825F064
:10383000700505600568154305600EE00D1FC5F3B2
:103840004E052844056825F4E045056005684FF6F7
:10385000FF7606EA02263543056070BD21B1028875
:1038600042F00202028004E002884FF6FD731A4023
:103870000280704721B1028842F00402028004E015
:1038800002884FF6FB731A400280704721B182888C
:1038900042F08002828004E082884FF67F731A40F3
:1038A0008280704702884FF6F7731A4002800288C0
:1038B0000A430280704782884FF68F731A408280D5
:1038C00082880A438280704702894FF6F8731A4053
:1038D000028102890A430281704702894FF67F7391
:1038E0001A40028102890A4302817047818470472D
:1038F000818570478186704701877047818770474F
:10390000A0F84010704702884FF6FF431A4002802B
:1039100002880A43028070470146888E704701463C
:10392000088F70470146888F70470146B1F8400004
:1039300070470146888C70470146088D70470246E3
:103940000020138A0B400BB1012000E000207047DB
:10395000CA430282704730B502460020002300248B
:10396000158A05EA0103958905EA010413B10CB132
:10397000012000E0002030BDCA43028270470000F1
:1039800001684FF6FE721140016000210160416044
:103990008160C1608D49884208D18C4908394968E5
:1039A00041F00F01894A083A51608AE08749143191
:1039B000884208D185490839496841F0F001834AB5
:1039C000083A51607DE081492831884208D17F4919
:1039D0000839496841F470617C4A083A516070E0E6
:1039E0007A493C31884208D178490839496841F41C
:1039F0007041764A083A516063E074495031884218
:103A000008D172490839496841F470216F4A083A6F
:103A1000516056E06D496431884208D16B490839DC
:103A2000496841F47001694A083A516049E06749C0
:103A30007831884208D165490839496841F0706198
:103A4000624A083A51603CE06149884206D1011F50
:103A5000096841F00F01021F116032E05C49143126
:103A6000884208D15A49091F096841F0F001584AB3
:103A7000121F116025E056492831884208D1544967
:103A8000091F096841F47061514A121F116018E062
:103A90004F493C31884208D14D49091F096841F41A
:103AA00070414B4A121F11600BE049495031884266
:103AB00007D14749091F096841F47021444A121F80
:103AC0001160704710B50022026847F6F0739A4300
:103AD0000C6A8B6823430C6923434C6923438C692C
:103AE0002343CC6923434C6A23438C6A23431A4300
:103AF0000260CB6843600B6883604B68C36010BD95
:103B00000021016041608160C160016141618161AA
:103B1000C161016241628162704721B1026842F075
:103B20000102026004E002684FF6FE731A40026070
:103B300070471AB103680B43036002E003688B43CC
:103B400003607047416070470146486880B2704723
:103B500001460020002201F080531BB11C4B083BA2
:103B60001A6802E0194B083B1A6802EA01030BB11C
:103B7000012000E00020704700F0805119B1144985
:103B8000091F086002E01149083948607047014682
:103B90000020002201F080531BB10D4B083B1A6836
:103BA00002E00A4B083B1A6802EA01030BB101204C
:103BB00000E00020704700F0805119B10449091F4E
:103BC000086002E001490839486070470800024077
:103BD0000804024010B5024608464FF080730360A7
:103BE000031F18461A606FF00104031F18461C607B
:103BF0004FF01234031F18461C604FF00334031FAC
:103C000018461C604FF00234031F18461C606410F5
:103C1000031F18461C600024031F18461C604FF049
:103C20001134031F18461C604FF01034031F184650
:103C30001C604FF00934031F18461C604FF0083415
:103C4000031F18461C604FF00734031F18461C6002
:103C50004FF00634031F18461C604FF00534031F55
:103C600018461C604FF00434031F18461C6010BD3A
:103C700010B5044600F0ACFD0020F8490861F84892
:103C80000068C008F749B0FBF1F060434FF0E02155
:103C900048610020F449096808704FF0E02188610C
:103CA0000320086100F096FD10BD01B500F090FD05
:103CB0004FF47A7100984843B0FBF1F0401CEB4997
:103CC0000968C86200F0E5FD00F084FD00BFE74828
:103CD0000068C06A0028FAD108BD10B5DF48007836
:103CE00001281DD100F074FDDC488078002815DD26
:103CF000DA488078401ED94988700846807850B9E3
:103D00000846407820B900F065FD00F0C2FD07E0EC
:103D100000F060FD04E000F05DFD01E000F05AFD00
:103D200010BD70B505460E4600F052FDCF48006844
:103D30004068A84218D1C948407878BBC748807805
:103D400060BBCA480068008900EB800101EBC0003D
:103D5000C74901EB800080F82A60C6480068C34963
:103D6000086000F096FD19E0012414E004EB8400E3
:103D700000EBC400BE4901EB80004068A84208D1B6
:103D800004EB840000EBC40001EB800080F82A60A3
:103D900003E0601CC4B2102CE8DB00BF00F01AFD89
:103DA00070BD10B5AD48007801280FD100F010FDAE
:103DB000AA48407840B9A9488078FF2804D2A7488B
:103DC0008078401CA549887000F004FD10BD8AB0C1
:103DD0002FE1FFF7E6FFA848007801287EDDA6481E
:103DE0000078401EA449491C085C2F2876D1481E43
:103DF0000078801E085C2F28F8D10020491E08702A
:103E00009EA19D48401C00F08BFE8146CDF800909D
:103E100001240AE0B9F1000F05D098A1002000F0BC
:103E20007FFE4DF82400601CC4B20A2CF2DB94A182
:103E3000009800F0C1FE0028D8D192A1019800F0AE
:103E4000BBFE10B901209149487091A1019800F082
:103E5000B3FE10B902208D4948708FA1019800F07F
:103E6000ABFE10B90320894948708BA1029800F07D
:103E7000A3FE10B90120854988708AA1029800F03C
:103E80009BFE10B902208149887080484078012843
:103E900004D002282DD003282AD155E07B48807811
:103EA000012802D0022822D100E020E001241BE0FA
:103EB00004EB840202EBC4026D4B03EB820202F1BD
:103EC0000A01039800F078FE60B904EB840101EB6D
:103ED000C401674A02EB8101486800E0A3E00121C8
:103EE000FFF71FFF601CC4B2102CE1DB00BF00BF56
:103EF00098E066488078012802D0022822D100E0AC
:103F000020E001241AE004EB840202EBC402584BC7
:103F100003EB820202F10A01039800F04DFE58B94A
:103F200004EB840101EBC401514A02EB81014868B2
:103F30000221FFF7F6FE03E0601CC4B2102CE2DBA6
:103F400000BF00BF00BF6DE058A000F0DBFC43489D
:103F5000016965A000F0D6FC6AA000F0D3FC012442
:103F600050E0012C1CD104EB840000EBC40040495C
:103F700001EB8000006B4FF47A71484337490969BF
:103F8000B0FBF1FA504602F095FD07460022624B65
:103F900002F0F2FB05462A460B4660A000F0B2FC98
:103FA00004EB840000EBC400314901EB8000807A0F
:103FB00030B3012C24DD04EB840000EBC40001EBE2
:103FC0008000006B4FF47A71484324490969B0FBC3
:103FD000F1FA504602F06EFD054600224E4B02F00B
:103FE000CBFB07460B4604EB840000EBC400204AE1
:103FF00002EB800000F10A013A464FA000F082FC7B
:10400000601CC4B2102CACDB50A000F07BFC1F483D
:104010008078012802D0022802D100E000E000BF31
:1040200000BF00BF00BFFFF758FE4FF47A70FFF7E4
:104030003CFECEE610B500F0CBFB5249AFF271204A
:10404000FFF7C8FD0A4948630121094880F85E105E
:10405000AFF28521816300F0BDFB10BD5C0700203D
:104060000000002040420F00BC000020D0000020D3
:1040700070070020D4000020380700202F00000027
:10408000636D64006F70656E00000000D800002052
:10409000636C6F73650000007461736B6D616E61BA
:1040A000676500007461736B000000002A2A2A2AE9
:1040B0002A2A2A2A2A2A2A2A2A2A2A2A2A2A2AC8C2
:1040C000CECEF1B9DCC0EDC6F72A2A2A2A2A2A2A3E
:1040D0002A2A2A2A2A2A2A2A2A2A2A2A2A2A2A204A
:1040E000200D0D0A0000000020205461736B5469FC
:1040F0006D65536C696365436F756E743A20256412
:10410000200D0A002020435055D5BCD3C3C2CAA3FA
:10411000BA0D0D0A00000000000024402020546168
:10412000736B5F4D616E616765203A2025302E31DB
:10413000662525200D0A000020202573203A202521
:10414000302E31662525200D0A0000002A2A2A2A51
:104150002A2A2A2A2A2A2A2A2A2A2A2A2A2A2A2ABF
:104160002A2A2A2A2A2A2A2A2A2A2A2A2A2A2A2AAF
:104170002A2A2A2A2A2A2A2A2A2A2A2A2A2A2A20A9
:10418000200D0A00E406002000BFFEE710B500F095
:104190001FFBF749AFF20F00FFF71CFDF549086060
:1041A000012081F82A00AFF21F00486000F012FBE6
:1041B00010BD10B500F00CFB002404E00020EE4917
:1041C00041F82400641C082CF8D3002404E00021EA
:1041D000E94820300155641C082CF8D3002404E081
:1041E0000021E54828300155641C082CF8D3002430
:1041F00005E0E249E048303040F82410641C082C07
:10420000F7D3002433E0002004EB840101EBC40168
:10421000D84A42F8210004EB840101EBC40102EB0F
:104220008101486004EB840101EBC40102EB8101D0
:10423000088104EB840101EBC40102EB8101887267
:1042400004EB840101EBC40102EB8101C86204EBC1
:10425000840101EBC40102EB8101086304EB8401DA
:1042600001EBC40102EB810181F82A00641C102CCF
:10427000C9D30020C2490861C2490870C049C87248
:1042800001208872FFF782FFFFF7D4FE0020BC49AF
:104290000881BD480068BD490860B648BA49086051
:1042A0003430BB4908600120B54908704FF47A707A
:1042B000FFF7DEFC00F08EFA10BD2DE9F047054651
:1042C0000F469046994600F083FA022401E0601CF4
:1042D00084B204EB840000EBC400A64951F820002E
:1042E0000028F4D100260FE0287800B90EE015F878
:1042F000011B04EB840000EBC4009E4A02EB80002B
:104300000A308155701C86B2202EEDDB00BF41467D
:104310003846FFF75FFC04EB840101EBC401954ACA
:1043200042F8210004EB840000EBC400114601EBCD
:10433000800080F82A9004EB840000EBC40001EBBD
:104340008000476004EB840000EBC40001EB8000B8
:10435000048100F03FFABDE8F08710B500F038FAAC
:104360000821102001F07AFC00F034FA10BD10B5DD
:104370000246012114E001EB810303EBC1037D4CF4
:1043800004EB83035B68934208D101EB810303EBE9
:10439000C10304EB830393F82A0003E04B1CD9B25A
:1043A0001029E8DB00BF10BD70B5054600F010FA1B
:1043B000754800684068A84225D0012420E004EB3D
:1043C000840000EBC4006B4901EB80004068A84208
:1043D00014D16D480068007A6949C87204EB840002
:1043E00000EBC400634901EB8000674908600020CE
:1043F0004FF0E021886100F04CFA03E0601CC4B289
:10440000102CDCDB00BF00F0E5F970BD70B505468F
:1044100000F0DEF95C4800684068A8422CD0012416
:1044200027E004EB840000EBC400524901EB80005C
:104430004068A8421BD152480481008900EB8001EA
:1044400001EBC0004B4901EB80005149086004EBCF
:10445000840000EBC400474901EB80004A49086032
:1044600000204FF0E021886100F013FA03E0601CA7
:10447000C4B2102CD5DB00BF00F0ACF970BD10B594
:1044800000F0A6F93E484078FF2804DA3C4840781E
:10449000401C3B49487000F09DF910BD10B500F07C
:1044A00097F937484078002804DD35484078401EA9
:1044B0003349487000F08EF910BD10B5FFF7DFFFEB
:1044C000FFF76FFCFFF709FCFFF7E8FF10BD0122C3
:1044D000294920310A54704700BF27492031095C1F
:1044E0000029FAD00022244920310A54704710B51F
:1044F0000446FFF756FC2448006800892549095DF9
:10450000884203D100211C4828300155FFF7E5FB04
:1045100010BD10B5044600BF17482830005D0128C3
:10452000FAD0FFF73EFC0121134828300155164808
:104530000068007A17490855FFF7CFFB10BD0E4AF7
:10454000303242F820107047014600BF0A4A30322C
:1045500052F821201268094B1B689A42F6D0064A8D
:10456000303252F82100054B42F8213070470000EC
:10457000E404002070070020E8060020C0000020AE
:104580005C07002038070020D0000020CC0000206D
:10459000D4000020C40000202848006970474FF074
:1045A000E02080697047F0B503464FF0E02675695A
:1045B000366926F002064FF0E0273E61204E36684D
:1045C000F608204FB6FBF7F606FB03F400224FF087
:1045D000E026B16910E04FF0E026B06988420BD0C8
:1045E000884202D20E1A324402E02E1A0E4432449D
:1045F0000146A24200D300E0EDE700BF4FF0E02605
:10460000366946F002064FF0E0273E61F0BD4FF4F8
:104610007A7141434FF47A72B1FBF2F1491C0A4AB4
:104620001268D16200BF08490968C96A0129FAD82D
:104630000021054A1268D162704700005C07002023
:104640000000002040420F00D000002003E041F2B3
:104650008830FFF72AFBFAE71FB529E03A48B0F99E
:104660000260B0F90650B0F9044038484068002CA8
:1046700001DB214600E06142354A9268002D01DBF2
:104680002B4600E06B42CDE90032CDE902102F4805
:104690008368002E01DB304600E0704202462D4860
:1046A00081682DA000F02EF94FF47A70FFF7FDFA23
:1046B000D4E702E01420FFF7F8FAFBE704E0FCF788
:1046C000EAFA0A20FFF7F1FAF9E704E0FDF725F826
:1046D0000A20FFF7EAFAF9E710B5FDF765FA4FF49B
:1046E000E130FDF798FB4FF4E130FDF7EFFAFCF70E
:1046F00060F8FDF7F3F9FFF75CFD0123254AAFF2FF
:10470000350125A0FFF7D9FD0123254AAFF253015A
:1047100024A0FFF7D2FD0123244AAFF2690124A0AF
:10472000FFF7CBFD0123244AAFF2D30123A0FFF70B
:10473000C4FD0123234AAFF2EB0123A0FFF7BDFD27
:1047400000F04AF8002010BD5C010020E4000020C9
:104750000C010020F800002050574D3A256420201D
:1047600052696768743A25640950574D3A256420A8
:10477000204C6566743A25640950574D3A25640902
:1047800054687265653A25640961696D3A25640D5E
:104790000A000000AC0C00205461736B3100000073
:1047A000AC0E00205461736B32000000AC1000208E
:1047B0005461736B33000000AC1200205461736BC2
:1047C00034000000AC1400205461736B350000000D
:1047D00072B6704762B6704772B645484FF0FF0137
:1047E00001704FF0000484F30988424C4FF080556B
:1047F000256062B6FEE772B6EFF3098010B3A0F150
:104800002000046000F10400056000F1040006606F
:1048100000F10400076000F10400C0F8008000F11E
:104820000400C0F8009000F10400C0F800A000F1FE
:104830000400C0F800B000F10400A0F120002E49EF
:10484000096808602C482D490A68026010680468ED
:1048500000F10400056800F10400066800F104009E
:10486000076800F10400D0F8008000F10400D0F8DF
:10487000009000F10400D0F800A000F10400D0F88E
:1048800000B000F1040080F309884EF0040E62B617
:10489000704730B4174C4FF08055256030BC7047DE
:1048A00072B6EFF30980A0F12000046000F104006B
:1048B000056000F10400066000F10400076000F1EB
:1048C0000400C0F8008000F10400C0F8009000F17E
:1048D0000400C0F800A000F10400C0F800B000F12E
:1048E0000400A0F12000FFF7E8FD03490968086013
:1048F00022ED00E004ED00E0CC000020D00000201C
:10490000704700000FB4044910B503AA029800F0E4
:104910001FFC10BC5DF814FBA000002070B50C4615
:104920000546012A05D02878800600D5EA690023CB
:1049300002E0012305E05B1C934202D2E05C002808
:10494000F9D1A869E618C01AA861286A1844286233
:104950002846AFF3008004E0D5E9012114F8010BEB
:104960009047B442F8D32846AFF3008070BD0000F2
:104970002DE9F0410646002410687529314616A538
:1049800010D0AFF30080002802DA404213A507E000
:1049900031688A0701D512A502E0490704D511A59F
:1049A000012401E0AFF3008000210A2206F1240770
:1049B00009E0B0FBF2FCB0FBF2F302FB1C0030306C
:1049C00078541846491C0028F3D123462A4630461D
:1049D000BDE8F04100F03FB9000000002D000000EC
:1049E0002B000000200000002DE9F05F89460446FE
:1049F0004FF0000ADFF824B1FB44C0F820A02046A5
:104A0000E168884700287DD0252806D0D4E9012117
:104A10009047206A401C2062F1E700255F4620464F
:104A2000E16888472028064607DB312E05D2B819F1
:104A300010F8200C08B10543F1E7A80701D525F0CF
:104A40000405C4F81CA00027C4F818A02A2E09D019
:104A5000304601F025FD38B304EB8708303EC8F836
:104A6000186019E059F8041B204604EB8702916195
:104A7000E1688847012F064618D1E069002820DA4E
:104A800025F020051DE0D8F8180000EB800006EBAB
:104A900040003038C8F818002046E16888470646CC
:104AA00001F0FEFC0028EED1012F0AD02E2E08D1F5
:104AB0002046E16888477F1C0646022F45F0200506
:104AC000C4DBA069002803DA404245F00105A0617B
:104AD000E80701D025F01005A6B1A6F1410019287C
:104AE00002D8203645F400654A4631462046256006
:104AF0004D46FBF757FB60B1012807D0ED1D25F0AF
:104B0000070000E007E000F1080978E705F1040973
:104B100075E730467AE7206ABDE8F09FB62A0000C4
:104B2000014A00F027BB0000E0000020032A40F209
:104B3000308010F0030C00F0158011F8013BBCF13F
:104B4000020F624498BF11F801CB00F8013B38BF57
:104B500011F8013BA2F1040298BF00F801CB38BF65
:104B600000F8013B11F0030300F02683083AC0F07F
:104B7000088051F8043B083A51F804CBA0E808102B
:104B8000F5E7121D5CBF51F8043B40F8043BAFF35E
:104B90000080D20724BF11F8013B11F801CB48BFB8
:104BA00011F8012B24BF00F8013B00F801CB48BFEE
:104BB00000F8012B704700004FF0013C50F8042B27
:104BC00051F8043B9A4221D1A2EB0C03934313EA20
:104BD000CC1317D150F8042B51F8043B9A4215D14D
:104BE000A2EB0C03934313EACC130BD150F8042B24
:104BF00051F8043B9A4209D1A2EB0C03934313EA08
:104C0000CC13DBD04FF00000704700BFD01A01BAC0
:104C1000B1FA81F101F0180122FA01F0CB40C1F1A3
:104C20002001DBB2C0B2C01A2CFA01F3D11A9143B1
:104C300011EAC311E6D1704770477047704770475B
:104C400010B500F0EFFA006810BD10B5044600F092
:104C5000E9FA046010BD2DE9F0470D4699469246E9
:104C6000044600F124080168880604D5E06921F0B3
:104C70001001216000E00120A84201DD471B00E097
:104C80000027A1697A1902EB0900081AA0612078AF
:104C9000C00602D42046AFF30080002608E0D4E925
:104CA00001211AF806009047206A401C761C2062F9
:104CB0004E45F4DB2078C0060AD52046AFF30080CD
:104CC00006E0D4E9012130209047206A401C206290
:104CD000381EA7F10107F4DC07E0D4E9012118F838
:104CE00005009047206A401C2062281EA5F101059E
:104CF000F3DC2046AFF300802078000602D50220C6
:104D0000BDE8F0870120FBE770472DE9FF4F0C4617
:104D10001E464FF0FF378BB0D2E90001DDF860800E
:104D20000A908A46C1F30A5505B93D460021084656
:104D30004FF00000BAF1000F00F4400005DA00EB7C
:104D400080004FF4400101EA50004FEA9059B9F158
:104D5000010F00DDB9460A9850EA4A000ED044F629
:104D60001050A5F2FF3545432F14B8F1000F1ED0A7
:104D70007542291E1EDDC9F100021CE0B8F1010FC9
:104D80004FF0000001D0302103E0F24305E0215450
:104D9000401CB042FBDB30460022002121540B991D
:104DA000C1F80880C1E900200FB0BDE8F08FBD1B3D
:104DB0006D1CDEE74A4600DA694206A800F0D4FA24
:104DC00006AB93E8070003AB83E8070050460A9957
:104DD00000F089FB8DE80700A0F500501F38009017
:104DE0000398002D09DD42F21F014A46084403A939
:104DF0000390684600F0E8FD08E0A0F500504A4640
:104E00001F3803A90390684600F0F2FD8DE8070003
:104E10000004000C03D04FF0FF30410800E01046C2
:104E2000B8F1000F03D00022009215461EE0751E57
:104E300005D400F0FBF9303262556D1EF9D5B3464A
:104E40000122084302D000227F1C04E02078302891
:104E500001D100227F1E002A099786D01DE0112D66
:104E600007DA00F0E3F9303262556D1C50EA0102B6
:104E7000F5D1084302D00098C8B10EE00021681EA9
:104E800005E0235C625C63542254401E491C81424D
:104E9000F7DBAB46A81B401E0990002004F80B006E
:104EA0000B98099AC0F80880C0E9002B7CE711260E
:104EB0004FF0000859E72DE9F04F88460446D21D0F
:104EC00022F0070191B0D1E90001CDE90A0100F01B
:104ED000B3FF02460B98C00F01D02D2007E02068D9
:104EE000810701D52B2002E0202101EAC000032A1E
:104EF000099001D0072A05DB03464146204600F011
:104F0000F3F90BE12078800601D5E06900E0062086
:104F1000B8F1650F814606D0B8F1660F18D0B8F128
:104F2000670F70D131E00020B9F1110F009001DB63
:104F3000112301E009F101030AAA01A90CA8FFF756
:104F4000E4FEDDE90C70002609F10105834647E027
:104F500001204B4600904FF000470AAA01A90CA877
:104F6000FFF7D3FEDDE90DB00C995D46002610B9C0
:104F700009F101000D18B9EB050003D4C0F1FF36AB
:104F800009F10105A5EB09002BE0B9F1010F01DAE8
:104F90004FF001090020B9F1110F0090484601DDE2
:104FA000112300E003460AAA01A90CA8FFF7ADFEF1
:104FB000DDE90C704D4600268346207800070AD4B0
:104FC000AB4500DA5D4601A8012D04DD411911F859
:104FD000011C302907D04F4502DA17F1040F04DA1B
:104FE000012082460FE06D1EEEE7002F02DCED1B74
:104FF0003E4403E0781CA84200DD7D1CB81B00F194
:10500000010A4FF000472078000703D4AA4501DBCE
:105010004FF0FF3A0021B7F1004F0DF143088DF832
:10502000431024D002202B23002F01DA7F422D23AE
:105030000A21021EA0F1010000DC5FB197FBF1FC28
:1050400097FBF1F201FB1C7C17460CF1300C08F8C1
:1050500001CDEEE7A8F1010003702188090501D513
:10506000452100E06521A0F1010800F8011C099824
:105070000FA9A1EB0807FF1D00B10120411901EBA9
:10508000EA70A1693844081A401EA0612078C00661
:1050900002D42046AFF30080099828B1D4E9012159
:1050A0009047206A401C20622078C00622D5204606
:1050B000AFF300801EE0002E04DBB34502DD01A843
:1050C000805D00E03020D4E901219047206A401C37
:1050D0002062761CAAF101005FEA000A0AD100F002
:1050E0009DF8C0680168405CD4E901219047206ABE
:1050F000401C2062281EA5F10105DCDC07E0D4E994
:10510000012118F8010B9047206A401C2062381ECC
:10511000A7F10107F3DC2046AFF30080032011B0B4
:1051200043E610B5436913B1AFF3008001E0FFF728
:10513000F5FB012010BD127800F124010A70002255
:105140004A700122EDE711684FF0FF32E9E70000F5
:10515000074B70B50D467B4400F0B3F80446284673
:1051600000F070F910B14FF0FF3070BD204670BDF7
:10517000A5CCFFFF2DE9F04115460E46040002D1F3
:105180002C6804B90BA4204600F070F90444207880
:1051900070B127463146384600F058F9044420786B
:1051A00010B1002004F8010B38462C60BDE8F081F6
:1051B0000027F9E70000000010B5203AC0F00B808E
:1051C000B1E81850203AA0E81850B1E81850A0E80B
:1051D0001850BFF4F5AF5FEA027C24BFB1E8185065
:1051E000A0E8185044BF18C918C0BDE810405FEAD5
:1051F000827C24BF51F8043B40F8043B08BF704751
:10520000D20728BF31F8023B48BF11F8012B28BF55
:1052100020F8023B48BF00F8012B70470048704758
:10522000D014002000487047B014002030B5B0F111
:105230000A024FEA900E71F100034EEA817EB0EB54
:105240000E0061EB91014FEA101E4EEA017E10EB59
:105250000E0041EB11114FEA102E4EEA016E10EBD9
:105260000E0041EB11214FEA104E4EEA014E10EBB9
:105270000E0041EB1141401841F100014FEAD0000E
:1052800040EA41704FEAD10110EB80054FEA8104FA
:1052900044EA907444EB01046D1944EB0404521B7E
:1052A000A3414FF0000348BF0A3200D530BD401C77
:1052B00041F1000130BD000001694A1C026108781B
:1052C000704700B58FB0CDE9013100210591054946
:1052D0007944CDE9031011466846FFF785FB0FB00E
:1052E00000BD0000E5FFFFFF2DE9F0411F46044629
:1052F00003260168072A01F4006004DB08B116A543
:1053000005E016A503E008B115A500E015A521F0FC
:1053100010002060A069C01EA0610FB1401EA061F6
:105320002046AFF300804FB1D4E9012138469047C1
:10533000206A401C2062C01C206206E0206AFAE756
:10534000D4E9012115F8010B9047761EF8D22046CA
:10535000AFF30080BDE8F0814E414E006E616E00FB
:10536000494E4600696E66002DE9F04781461646B3
:105370008AB0334878440DC88DE80D003048784431
:10538000801C03AC0DC884E80D0041F69B30084436
:10539000372190FBF1F290FBF1F5A5F1800501FBBF
:1053A00012041B3C02D56442012000E00020DFF81B
:1053B00090A080460027FA44AAF1BE0A0DE0E0075B
:1053C00009D03246684607EB47010AEB810100F03D
:1053D0000FFB8DE8070064107F1C002CEFD1184FE5
:1053E0007F44AC3F18E0E80714D007EB04100DF140
:1053F000180A90E80E008AE80E00C068F04201D159
:1054000098190890324606A903A800F0F1FA03ABF8
:1054100083E807006D10641C002DE4D13246694614
:10542000B8F1000F03A802D000F0CEFA01E000F0BE
:10543000DFFAC9E90001C9F808200AB0BDE8F08721
:10544000EC220000007B00F08000704730B503467E
:105450001D781DB10A4603E0AC4201D1181A30BDD7
:1054600012F8014B002CF7D15B1CF1E730B5034675
:105470001D783DB10A4612F8014B1CB1AC42FAD17D
:105480005B1CF5E7181A30BD00487047B0140020C7
:105490007546FFF7F9FFAE4605006946534620F012
:1054A0000700854618B020B5FCF758FDBDE8204040
:1054B0004FF000064FF000074FF000084FF0000BD0
:1054C00021F00701AC46ACE8C009ACE8C009ACE883
:1054D000C009ACE8C0098D4670470446AFF30080B0
:1054E0002046FAF77FFE5FEA400C08BF91F0000FFC
:1054F0004FEA8C234FEAC12243EA51514FEA1C5034
:1055000018BF00F5F0404FEA300018BF41F00041ED
:105510005FEA6C5C00F02980BCF1FF3F08BF40F0FF
:1055200080407047130C06BF12044FF0100C4FF070
:10553000000C130E04BF12020CF1080C130F04BF71
:1055400012010CF1040C930F04BF92000CF1020C39
:10555000D30F04BF52000CF1010C11464FF00002B2
:10556000A0F11F00A0EB0C00704711F0004F08BF26
:10557000704731F000413FF4D5AF0B0C06BF090472
:105580004FF0100C4FF0000C0B0E04BF09020CF191
:10559000080C0B0F04BF09010CF1040C8B0F04BFA6
:1055A00089000CF1020CCB0F04BF49000CF1010C77
:1055B000CCF12003A0EB0C0022FA03F302FA0CF268
:1055C00041EA030100F10100704720F07F4C80EABE
:1055D000030023F07F47ACEB070303F57C5300F097
:1055E000004003F1FF032DE980494FEA154B09B450
:1055F0004FEA144325EA0B4E24EA03480FF204262F
:1056000006EB132749083E785FEA320203FB066780
:10561000C7F5000707FB06F64FEA54374FEAD646B0
:1056200006F1020607FB066CCCF1005C4FEA1C4752
:105630002CEA074C07FB06F40CFB06F504EB1546B9
:105640004FEA961634BF00204FF000404FEAD137A2
:1056500006FB07FC4FEA1C4C0CFB0BF7D21B03FBB1
:105660000CF761EB07010CFB0EF7B0EB074072EB98
:1056700017420CFB08F734BFA2EB0742B2EB07421C
:1056800061EB17414FEA0C444FEA910706FB07FC18
:105690004FEA1C4C0CFB0BF7B0EBC74072EB5732D8
:1056A00003FB0CF734BFA2EBC742B2EBC74261EB7E
:1056B00057310CFB0EF7B0EBC70072EB57720CFBC7
:1056C00008F734BFA2EBC702B2EBC70261EB577118
:1056D000039F4FEA816141EA921104EBCC044FEA47
:1056E000D1374FEA826206FB07FC42EA90124FEA8A
:1056F00080604FEA1C4C0CFB0BF7D21B03FB0CF732
:1057000061EB07010CFB0EF7B0EB074072EB1742A1
:105710000CFB08F734BFA2EB0742B2EB074261EB88
:1057200017414FEA8C554FEA910704EB9C2406FB86
:1057300007FC4FEA1C4C0CFB0BF7B0EBC74072EBBD
:10574000573203FB0CF734BFA2EBC742B2EBC742A0
:1057500061EB57310CFB0EF7B0EBC70072EB5772E1
:105760000CFB08F734BFA2EBC702B2EBC70261EB38
:10577000577115EB4C254FEA816141EA92114FEACE
:1057800082624FEAD13742EA901206FB07FC44F1ED
:1057900000044FEA80604FEA1C4C0CFB0BF7D21B55
:1057A00003FB0CF761EB07010CFB0EF7B0EB0740B6
:1057B00072EB17420CFB08F734BFA2EB0742B2EBC7
:1057C000074261EB174115EB1C154FEA813141EAA5
:1057D00092414FEA823242EA90424FEA80304FEAE9
:1057E0000C7644F1000448EA03434EEA0B484FF0BC
:1057F000000EB2EB080C71EB030724BF624639467A
:105800004EEB0E0E4FF0000B0018524149414BEB8E
:105810000B0BB2EB080C71EB03077BF1000B24BF01
:10582000624639464EEB0E0E4FF0000B0018524107
:1058300049414BEB0B0BB2EB080C71EB03077BF10F
:10584000000B24BF624639464EEB0E0E51EA0207AA
:1058500018BF46F0010616EB0E7655F1000254F122
:10586000000103D5BDE88901BDE80088BDE88901D4
:10587000BDE80048B619524141EB0101A3F1010313
:10588000704780807F7E7D7C7B7A797877767675AD
:105890007473727171706F6E6E6D6C6C6B6A6A6925
:1058A0006868676666656464636362616160605FBF
:1058B0005F5E5E5D5D5C5C5B5B5A5A595958585738
:1058C00057565655555554545353525252515150A0
:1058D00050504F4F4F4E4E4D4D4D4C4C4C4B4B4BF3
:1058E0004A4A4A4949494848484747474746464639
:1058F0004545454444444443434343424242424174
:105900004141002B26D4770021D01CB54FEA370740
:1059100003B44FF010004FF010014FF000000FBC27
:10592000BDE810400BF1010BBBF1010F08BF5FEAAE
:10593000170722BF12F1010211F101014FF00041DE
:1059400043F1000300F0004043EA00007047F9D340
:105950005708DAE746EA064613F1400F4FEA1646C3
:105960001FDD13F1200FDFBF16430A46002120334D
:105970005B42C8D0C3F1200746EA064602FA07F7A1
:105980004FEA164646EA0706C3F1200722FA03F259
:1059900001FA07F721FA03F14FF0000342EA070288
:1059A000B1E746EA020646EA06464FEA164646EAE6
:1059B0000106BCBF46EA0646360C4FF000034FF026
:1059C00000024FF000019EE72DE9C048934630B435
:1059D00091E8380007C831EA400C48BF34EA430C6C
:1059E00003D5FFF7F2FDFFF78CFFF0BCBDE80088A0
:1059F0002DE9C048934630B491E8380007C810F04C
:105A0000804F08BF13F0804F03D100F005F8FFF777
:105A100078FFF0BCBDE8008820F07F4780EA0300F3
:105A200023F07F4C07EB0C03A3F57C5300F0004000
:105A3000A3F1FE0392F0000F00F0B38095F0000F89
:105A400000F077802DE901494FEA11404FEA1446F2
:105A500021EA004800FB06FC24EA064708FB06F69C
:105A600007FB08F800FB07F718EB06484CEB164C51
:105A70004FEA124B18EB07484FEA15464CEB17401C
:105A800022EA0B4E0BFB06FC25EA06470EFB06F648
:105A900007FB0EFE0BFB07F71EEB064E4CEB164CFE
:105AA0004FF000061EEB074E4CEB174B18EB0B08A4
:105AB00040F1000018EB0E0B58EB000840F100001D
:105AC0008F1A4FF000013CBFC943661B14BFB5EBF2
:105AD000040C00213CBFC943F61B4FEA17444EEAB1
