:020000040800F2
:10000000C01C0020B52E0008770200087902000805
:100010007D0200088102000885020008000000003F
:10002000000000000000000000000000890200083D
:100030008B020008000000000F5C00082357000836
:10004000CF2E0008CF2E0008CF2E0008CF2E00089C
:10005000CF2E0008CF2E0008CF2E0008CF2E00088C
:10006000CF2E0008CF2E0008CF2E0008CF2E00087C
:10007000CF2E0008612E0008CF2E0008CF2E0008DA
:100080001D2C0008CF2E0008CF2E0008CF2E000810
:10009000CF2E0008CF2E0008CF2E0008CF2E00084C
:1000A000CF2E0008CF2E0008CF2E0008CF2E00083C
:1000B000CF2E0008CF2E0008CF2E0008CF2E00082C
:1000C000CF2E0008CF2E0008CF2E0008CF2E00081C
:1000D000CF2E0008CF2E0008BD2B0008212E0008CF
:1000E000CF2E0008CF2E0008CF2E0008CF2E0008FC
:1000F000CF2E0008CF2E0008CF2E0008CF2E0008EC
:10010000CF2E0008CF2E0008CF2E0008CF2E0008DB
:10011000CF2E0008CF2E0008CF2E0008CF2E0008CB
:10012000CF2E0008CF2E0008CF2E0008CF2E0008BB
:1001300000F002F800F090F80AA090E8000C824469
:100140008344AAF10107DA4501D100F085F8AFF246
:10015000090EBAE80F0013F0010F18BFFB1A43F0A5
:1001600001031847B88F0000D88F0000103A24BF51
:1001700078C878C1FAD8520724BF30C830C144BF0C
:1001800004680C607047000000230024002500264E
:10019000103A28BF78C1FBD8520728BF30C148BFEA
:1001A0000B6070476E2906F03680702906F0B58323
:1001B000662908F03C86652908F03986672908F029
:1001C00036866129AFF3008003681B0A28BF41F01F
:1001D0008001692905F0F285642905F0EF8575290C
:1001E00005F0EC856F2906F04383782906F08183BA
:1001F000E92906F0DD82E42906F0DA82F52906F025
:10020000D782EF2906F04083F82906F0808303683F
:10021000DB0928BF41F08001632906F04C82732975
:1002200006F05182E32906F06F84F32906F0748406
:10023000002070471FB506F0CFFB0400002000210E
:1002400007F0F0FD401C60600020002107F0D4FDA5
:10025000E0601FBD10B510BD06F016FD1146FFF79A
:10026000E9FF05F03BFC06F03DFD03B4FFF7F2FFAC
:1002700003BC02F0C9FB704700BFFEE700BFFEE70A
:1002800000BFFEE700BFFEE7704770470CB50020D7
:10029000019000906C48006840F480306A49086022
:1002A00000BF6948006800F4003000900198401CCD
:1002B0000190009818B90198B0F5A06FF1D162488B
:1002C000006800F4003010B10120009001E000202F
:1002D00000900098012843D15C48006840F010006D
:1002E0005A4908600846006820F003000860084684
:1002F000006840F002000860534840685249486076
:100300000846406848600846406840F4806048609D
:100310000846406820F47C1048600846406840F475
:10032000E81048600846006840F08070086000BF30
:100330004548006800F000700028F9D04248406845
:1003400020F00300404948600846406840F0020041
:10035000486000BF3C48406800F00C000828F9D114
:100360000CBD10B5FFF792FF10BD10B53648006800
:1003700040F00100344908600846406834490840AC
:100380003149486008460068324908402E490860F3
:100390000846006820F4802008600846406820F481
:1003A000FE0048604FF41F008860FFF7DAFF4FF04F
:1003B00000602949086010BD10B50021002000220E
:1003C000214B5B6803F00C0121B1042906D00829F8
:1003D00028D107E0214B224C236027E01F4B204C03
:1003E000236023E0184B5B6803F47010164B5B68C6
:1003F00003F48032022303EB904022B9194B4343AC
:10040000174C23600DE0104B5B6803F4003323B1FD
:10041000144B4343124C236003E0104B4343104CF6
:10042000236003E00D4B0E4C236000BF00BF064B62
:100430005B68C3F303130C4CE15C094B1B68CB40B6
:10044000074C236010BD0000001002400020024055
:100450000000FFF8FFFFF6FE08ED00E000127A0052
:100460000000002000093D000400002030B589B0E4
:1004700005460C460121480303F0C6F8012111206E
:1004800003F0C2F84FF47070ADF8200018208DF81A
:10049000230003208DF8220008A9FA4802F0F8FD95
:1004A000ADF81850ADF814400020ADF81A00ADF8C2
:1004B000160005A9F44803F0E3FB7020ADF8040032
:1004C0000120ADF806000020ADF80A00ADF80C00E0
:1004D00001A9ED4803F011FC01A9EB4803F04FFC22
:1004E00001A9E94803F098FC01A9E74803F0DFFC03
:1004F0000121E54803F02CFF0821E34804F04CF803
:100500000821E14804F051F80821DF4804F05AF8C6
:100510000821DD4804F05FF80121DB4804F00CF805
:100520000121D94803F008FF0021D74804F09CF9C5
:100530000021D54804F09AF90021D34804F098F935
:100540000021D14804F096F909B030BD30B589B02A
:1005500005460C460121042003F063F8012109201F
:1005600003F052F84FF47070ADF8200018208DF8A9
:10057000230003208DF8220008A9C44802F088FD5A
:10058000ADF81850ADF814400020ADF81A00ADF8E1
:10059000160005A9BE4803F073FB7020ADF80400F7
:1005A0000120ADF806000020ADF80A00ADF80C00FF
:1005B00001A9B74803F0A1FB01A9B54803F0DFFB8F
:1005C00001A9B34803F028FC01A9B14803F06FFC6E
:1005D0000121AF4803F0BCFE0821AD4803F0DCFF69
:1005E0000821AB4803F0E1FF0821A94803F0EAFF26
:1005F0000821A74803F0EFFF0121A54803F09CFF65
:100600000121A34803F098FE0021A14804F02CF931
:1006100000219F4804F02AF900219D4804F028F9A0
:1006200000219B4804F026F909B030BD00B587B021
:100630000121084602F0E8FF0121C80202F0E4FFB0
:100640000121042002F0E0FF4FF44070ADF81800E3
:1006500048208DF81B0003208DF81A0006A98D484C
:1006600002F016FD012211028A4802F0C2FD0122A9
:100670005102884802F0BDFD44F62060ADF810003C
:100680000020ADF80C00ADF81200ADF80E0003A983
:10069000814803F0F5FA0A231A4603217E4803F045
:1006A000FEFE684603F02BFE0820ADF80800694600
:1006B000794803F078FD0121774804F003F901221D
:1006C0001146754803F053FE002073492431088019
:1006D0000121714803F030FE07B000BD00B587B0BE
:1006E00001216E4802F0A5FD0121084602F08CFFB1
:1006F0000121084602F095FF0121042002F084FF49
:100700000121082002F080FF0121654802F091FDDF
:100710004FF40040ADF8180004208DF81B000320B2
:100720008DF81A0006A95B4802F0B2FC0122D10341
:10073000584802F05EFD0820ADF8180004208DF83E
:100740001B0003208DF81A0006A9504802F0A0FCF7
:10075000012208214D4802F04CFD4FF0804003F08B
:10076000BBF903A94FF0804003F08AFA44F62060F9
:10077000ADF810000020ADF80C00ADF81200ADF897
:100780000E0003A94FF0804003F07AFA00231A46C6
:1007900003214FF0804003F082FE684603F0AFFD76
:1007A0000620ADF8080069464FF0804003F0FBFCDE
:1007B0000121880704F086F801221146900703F012
:1007C000D6FD00204FF0804188840121880703F086
:1007D000B3FD07B000BD00B587B00121084602F0A7
:1007E00013FF0121022002F01CFF0121042002F06E
:1007F0000BFFC020ADF8180048208DF81B00032027
:100800008DF81A0006A9234802F042FC012240217B
:10081000204802F0EEFC012280211E4802F0E9FC93
:1008200044F62060ADF810000020ADF80C00ADF8E3
:100830001200ADF80E0003A91A4803F021FA0A23AA
:100840001A460321174803F02AFE684603F057FDB5
:100850000820ADF808006946124803F0A4FC012105
:10086000104804F02FF8012211460E4803F07FFDD6
:1008700000200C492431088001210A4803F05CFD66
:1008800007B000BD0010014000340140000C0140E1
:100890000008004000080140002C01400002300028
:1008A000000318000004004000B587B0012108468D
:1008B00002F0AAFE0121082002F0B3FE012104206B
:1008C00002F0A2FE0320ADF8180048208DF81B00AE
:1008D00003208DF81A0006A9264802F0D9FB012250
:1008E0001146244802F085FC01220221214802F031
:1008F00080FC44F62060ADF810000020ADF80C003C
:10090000ADF81200ADF80E0003A91B4803F0B8F9CA
:100910000A231A460321184803F0C1FD684603F074
:10092000EEFC0820ADF808006946134803F03BFCD4
:100930000121114803F0C6FF012211460E4803F0C1
:1009400016FD00200C492431088001210A4803F0DB
:10095000F3FC07B000BD10B5FFF768FEFFF7BEFE61
:10096000FFF739FFFFF7A0FF042140F2AF40FFF788
:100970007DFD10BD00080140000C00402DE9F0474E
:1009800004466442002C08DBB4F5FA7F01DD4FF425
:10099000FA740120FD49087008E06442B4F5FA7F5A
:1009A00001DD4FF4FA740020F849087020B2F749CD
:1009B000C881204608F07CF88246F54908F0C4F862
:1009C000814607F0C9FE07460022F24B07F040FAC5
:1009D000054607F045FCED494860BDE8F0872DE984
:1009E000F0470446002C08DBB4F5FA7F01DD4FF434
:1009F000FA740120E849087008E06442B4F5FA7F0F
:100A000001DD4FF4FA740020E349087020B2E24996
:100A1000C881204608F04CF88246DD4908F094F879
:100A2000814607F099FE07460022DA4B07F010FADC
:100A3000054607F015FCD8494860BDE8F0872DE968
:100A4000F0470446002C08DBB4F5FA7F01DD4FF4D3
:100A5000FA740120D149087008E06442B4F5FA7FC5
:100A600001DD4FF4FA740020CC49087020B2CB4964
:100A7000C881204608F01CF88246C54908F064F891
:100A8000814607F069FE07460022C24B07F0E0F9F5
:100A9000054607F0E5FBC1494860BDE8F0872DE950
:100AA000F0470446002C08DBB4F5FA7F01DD4FF473
:100AB000FA740120BA49087008E06442B4F5FA7F7C
:100AC00001DD4FF4FA740020B549087020B2B44932
:100AD000C881204607F0ECFF8246AD4908F034F8A3
:100AE000814607F039FE07460022AA4B07F0B0F90D
:100AF000054607F0B5FBAA494860BDE8F08770B528
:100B000004460D465DB14FF49661A64803F0B0FE71
:100B1000C4F5966081B2A34803F0ACFE0AE0C4F5C8
:100B2000966081B29F4803F0A3FE4FF496619D4802
:100B300003F0A0FE70BD70B504460D465DB14FF4E4
:100B40009661984803F090FEC4F5966081B295488E
:100B500003F08CFE0AE0C4F5966081B2914803F080
:100B600083FE4FF496618F4803F080FE70BD70B530
:100B700004460D465DB14FF496618B4803F078FE54
:100B8000C4F5966081B2884803F074FE0AE0C4F5AB
:100B9000966081B2844803F06BFE4FF49661824800
:100BA00003F068FE70BD70B504460D465DB14FF4AC
:100BB00096617D4803F058FEC4F5966081B27A488C
:100BC00003F054FE0AE0C4F5966081B2764803F063
:100BD0004BFE4FF49661744803F048FE70BD6B48BD
:100BE000806810F5966F02DA704868498860674837
:100BF0008068B0F5966F03DD4FF4966063498860B6
:100C00006548806810F5966F02DA68486249886026
:100C100061488068B0F5966F03DD4FF496605E49D9
:100C200088605E48806810F5966F02DA5F485B491D
:100C300088605A488068B0F5966F03DD4FF496607F
:100C4000564988605648806810F5966F02DA574812
:100C50005349886052488068B0F5966F03DD4FF4C1
:100C600096604F49886070472DE9F04705460C466D
:100C7000601B07F01DFF4E4908610A461169506864
:100C800007F062FF80464A4A5169106908F05AF835
:100C9000814647480168484607F056FF07464146E7
:100CA00007F086FD064642488169304607F080FD20
:100CB0003F4988610846006948610CB90020886195
:100CC0003B4988693B4908F00BF803D23948384959
:100CD000886108E036498869002107F001FF02D2E7
:100CE0000020334988613249886907F0C5FEBDE8B4
:100CF000F0870146002901DA002000E0084670472D
:100D00002DE9F04705460C46601B07F0D1FE2A4945
:100D100008610A461169506807F016FF8046264AA6
:100D20005169106908F00EF8814623480168484669
:100D300007F00AFF0746414607F03AFD06461E48FF
:100D40008169304607F034FD1B4988610846006917
:100D500048610CB90020886117498869154907F076
:100D6000BFFF03D213481449886108E0124988691B
:100D7000002107F0B5FE02D200200F4988610E491C
:100D8000886907F079FEBDE8F0870000BC0000200C
:100D9000413BA7400000E03FD0000020E4000020DD
:100DA000F8000020000800400034014050FBFFFF25
:100DB0007401002000009644580100202DE9F047FE
:100DC00005460C46601B07F073FEFE4908610A46A3
:100DD0001169506807F0B8FE8046FA4A51691069F7
:100DE00007F0B0FF8146F7480168484607F0ACFEBF
:100DF0000746414607F0DCFC0646F248816930466A
:100E000007F0D6FCEF4988610846006948610CB9D3
:100E100000208861EB498869EB4907F061FF03D244
:100E2000E948E849886108E0E6498869002107F057
:100E300057FE02D20020E3498861E249886907F041
:100E40001BFEBDE8F0872DE9F04705460C46601B08
:100E500007F02EFEDD4908610A461169506807F067
:100E600073FE8046D94A5169106907F06BFF8146CD
:100E7000D6480168484607F067FE0746414607F036
:100E800097FC0646D1488169304607F091FCCF496E
:100E900088610846006948610CB900208861CB4927
:100EA0008869C94907F01CFF03D2C748C749886150
:100EB00008E0C6498869002107F012FE02D200202E
:100EC000C2498861C149886907F0D6FDBDE8F0874D
:100ED00070B50025BE48007C00F0010058B9BD483F
:100EE000C08948BBBC48C08930BBBC48C08918BB5E
:100EF000BB48C08900BB0021BA4803F0B5FC002103
:100F0000B84803F0B3FC0021B64803F0B1FC00215F
:100F1000B44803F0AFFC0021B34803F0A5FC002166
:100F2000B14803F0A3FC0021AF4803F0A1FC00216D
:100F3000AD4803F09FFC70BDAC48B0F90440A54A31
:100F40005168002C01DB224600E062421046FFF7A8
:100F50007AFF0646FFF7CDFE9E498860A348B0F9A8
:100F600000409D4A5168002C01DB224600E06242AD
:100F70001046FFF723FF0646FFF7BBFE9649886041
:100F80009A48B0F90840954A5168002C01DB224686
:100F900000E062421046FFF7B3FE0646FFF7A9FEE7
:100FA0008E4988609148B0F902400A465168002C89
:100FB00001DB224600E062421046FFF755FE06467E
:100FC000FFF797FE86498860FFF709FE814A11788E
:100FD0009068FFF7E8FD804A11789068FFF7C7FD39
:100FE0007E4A11789068FFF7A6FD7D4A11789068D7
:100FF000FFF785FD00BF9EE77D48744908607D4886
:1010000048607D486F4908607C4848607A487C4960
:1010100008607A48486078487A49086077484860AC
:1010200070472DE9F04704460D46281B07F040FDA8
:1010300075490860084601687448006807F0B8FB05
:1010400072490860724801686F48006807F07AFECC
:10105000804670480168404607F076FD06466B48BA
:1010600001686D48006807F06FFD804666480168BA
:101070006A48006807F068FD8146414607F098FB22
:101080000746314607F094FB654908605E480068F2
:101090005F4908606248006807F0EEFCBDE8F08731
:1010A0002DE9F04104460021206807F019FD03D224
:1010B000206880F0004020600021606807F010FD8B
:1010C00003D2606880F0004060600021A06807F0F3
:1010D00007FD03D2A06880F00040A0600021E06816
:1010E00007F0FEFC03D2E06880F00040E060206979
:1010F000E0612169206A07F05BFB20620021E06863
:1011000007F086FC13D0E168206A07F0E9FD02D2FF
:10111000E06820620BE0E06880F000452846216A24
:1011200007F0DEFD03D2E06880F000402062A16994
:10113000206907F007FE60622069A061616AA0680B
:1011400007F002FD0646216A606807F0FDFC0746CD
:10115000E169206807F0F8FC8046394607F028FB73
:101160000546314607F024FB6061BDE8F0812DE9BA
:10117000F04F93B004460D4616469946604204B2BD
:101180007042642190FBF1F7384607F0C6F8254A13
:1011900003C20022244B234903C907F0E9F8CDE933
:1011A0001001484607F0B9F8CDE9080106F0D4FD72
:1011B00082468B46284607F0B0F8074652465B4603
:1011C00034E000003C010020000096442001002093
:1011D0000C010020BC000020D0000020E400002012
:1011E000F80000200034014000080040D801002031
:1011F00066660640AE47E13D0000F0420000404018
:101200005801002074010020380000204000002018
:101210004400002034000020300000202C0000207A
:101220003C000020600000200070704007F0A0F833
:10123000CDE90C01484607F070F8CDE9080106F049
:101240003DFD07468846204607F067F882463A4645
:10125000434607F08DF8CDE90A01DDE90C2306F0DD
:10126000F7FDCDE90E01DDE9102306F0F1FD974A07
:1012700003C20022964B974903C907F079F8CDE9DC
:101280001001484607F049F8CDE9000106F016FDC7
:1012900082468B469048914906F05EFD07465246CD
:1012A0005B4607F065F8CDE90401484607F035F8DC
:1012B000824606F051FD074688468748874906F072
:1012C000FDFC81F000413A464346CDE9000107F0BC
:1012D0004FF8CDE90201DDE9042307F053F9CDE928
:1012E0000801284607F019F8CDE90601DDE90823D1
:1012F00007F03EF8CDE90C01484607F00EF8CDE9BD
:10130000000106F029FD074688467348744906F037
:1013100023FD82463A46434607F02AF8CDE9040108
:10132000484606F0FAFFCDE9000106F0C7FC074683
:1013300088466948694906F0C1FC81F0004182464F
:101340003A46434607F014F8CDE90201DDE90423EB
:1013500006F07EFDCDE90801204606F0DEFFCDE96E
:101360000601DDE9082307F003F8CDE90A01DDE90C
:101370000C2306F06DFDCDE90E01DDE9102306F02A
:1013800067FD584A03C20022514B524903C906F077
:10139000EFFFCDE91001484606F0BFFFCDE900019F
:1013A00006F08CFC82468B464B484D4906F086FC85
:1013B000074652465B4606F0DBFFCDE9040148468E
:1013C00006F0ABFF074606F0C7FC82468B46424854
:1013D000434906F0C1FC81F0004152465B46CDE92D
:1013E000000106F0C5FFCDE90201DDE9042306F0A6
:1013F0002FFDCDE90801284606F08FFFCDE9060153
:10140000DDE9082306F0B4FFCDE90C01484606F0FB
:1014100084FFCDE9000106F09FFC82468B462E48F2
:101420002F4906F04BFC074652465B4606F0A0FFEC
:10143000CDE90401484606F070FFCDE9000106F051
:101440003DFC074688462448254906F085FC81F086
:10145000004182463A46434606F08AFFCDE9020142
:10146000DDE9042306F0F4FCCDE90801204606F08E
:1014700054FFCDE90601DDE9082306F079FFCDE947
:101480000A01DDE90C2306F0E3FCCDE90E01DDE9FC
:10149000102306F0DDFC144A03C20C4903C906F010
:1014A000DFFE0746FFF76AFA0E4903C906F0D8FEC9
:1014B0000746FFF794FA0C4903C906F0D1FE074628
:1014C000FFF7BDFA13B0BDE8F08F00004800002020
:1014D0000070704060000020A138DB3752C1F03F3F
:1014E00052C1E03F500000205800002070B5002598
:1014F00000244DF6ED60FE490880FE488078887033
:10150000FC480079C870FB488088000A0871F948D7
:10151000807A4871F7488079887100BF06E0F64804
:10152000015DE01DF24A1154601CC4B2F14880799B
:10153000A042F4DC002405E0ED48005D284405B23B
:10154000601CC4B2EB488078801EA042F4DCE948FD
:101550008078801EE64A1554C5F30721E548807857
:10156000401E1154E3488178104601F050FA70BDD6
:1015700010B50024E1480078401CE0490870084696
:10158000007806287ED2DFE800F0CA031F3F638997
:101590004DF6ED60D6490880232088700020C87081
:1015A000F0200871002048711A208871D4484088C2
:1015B000D1490880D24880884880D148C088888036
:1015C000CF480089C880ABE01D21D02000F03AFF51
:1015D00000B2C94908811F21D02000F033FF00B2BA
:1015E000C54948812121D02000F02CFF00B2C2491A
:1015F000888108460089C3490880BF4840894880DF
:10160000BD48808988808BE03221A62000F01AFF37
:1016100000B2B949C8813421A62000F013FF00B2FE
:10162000B54908823621A62000F00CFF00B2B2496D
:1016300048820846C089B349C880AF48008A81B251
:10164000B0480181AC48408A81B2AE48418167E030
:1016500000211A2000F009FF00B2A7498882022168
:101660001A2000F002FF00B2A349C88204211A2008
:1016700000F0FBFE00B2A04908830846808AA14919
:10168000888100E04BE09C48C08A81B29D48C181BE
:101690009948008B81B29B48018241E000209A4921
:1016A00008700DE0944898490978415C96480078A4
:1016B000C01D8F4A115494480078401C924908700C
:1016C0008B488079904909788842EBDC00208E496C
:1016D00008700AE086488C490978405C204404B2CE
:1016E00089480078401C8849087081488078801EAD
:1016F000854909788842EDDC7D488078801E7C4AE7
:101700001454C4F3072110468078401E115410462B
:10171000817801F07CF900207849087000E000BF72
:1017200000BF10BD10B500227848B0F90000784B1A
:1017300098427DD1754880786E4B98707348C07818
:10174000724B1B7900EB03206A4B98806F484079FD
:1017500098726E48807998711846807909283BD232
:10176000DFE800F03A050A3A163A223A2E006748B6
:10177000C079684B188030E0002106E0C81D634B3B
:10178000185C644B5854481CC1B20229F6DB24E0B3
:10179000002106E0C81D5D4B185C5E4B5854481C88
:1017A000C1B20429F6DB18E0002106E0C81D574B42
:1017B000185C584B5854481CC1B20629F6DB0CE0A3
:1017C000002106E0C81D514B185C524B5854481C70
:1017D000C1B20829F6DB00E000BF00BF45488078B1
:1017E000801E4A4B1B5C43488078401E474C205C5F
:1017F00003EB002000B23F4B1881002105E0434875
:10180000405C104482B2481CC1B23A488078801EC5
:101810008842F4DC3748B0F90800904204D1012036
:10182000344B187010BD03E00020324B1870F9E7FC
:101830000020F7E72DE9F047FFF774FF08B9BDE88E
:10184000F0872C488088092870D007DC6FD2DFE849
:1018500000F01E22279DABAFB0B5BD00B0F5004F24
:1018600066D008DC0A287DD00B287CD00C287BD0E1
:101870000D285CD149E16FF400410844002874D080
:10188000012873D0022872D00328F2D1BAE1432094
:1018900019490880C2E140F2071017490880BDE1EC
:1018A0001D49B1F90C10642201FB02F006F035FD70
:1018B00006461A4A1A4B06F07BFB044606F0D0FC9B
:1018C00000B20D4908801749B1F90C10642201FBE0
:1018D00002F006F022FD0646104A114B06F068FBA6
:1018E000044606F0BDFC00B2034948800E4920E0E2
:1018F000C0030020900100209C010020690000200E
:10190000D80100200C0200206800002024040020E0
:10191000EDDEFFFFBA010020E4000020EC3EB61B24
:10192000934F6A40F8000020BC000020DDE074E125
:1019300000E1B1F90C10642201FB02F006F0EDFCAD
:101940000646BA4ABA4B06F033FB044606F088FC5A
:1019500000B2B8498880B849B1F90C10642201FB83
:1019600002F005E0C2E0C6E0CAE034E148E148E147
:1019700006F0D3FC0646AD4AAD4B06F019FB044613
:1019800006F06EFC00B2AB49C88047E1AB488089E5
:10199000A8490880AA4880894880AA488089888008
:1019A000A5488089C88039E13720A249088035E1FF
:1019B00034E14FF4FA709F4908802FE1A248008972
:1019C0009C490880A0488088488027E19F4880790A
:1019D000062804D00C2818D012287CD140E01D2104
:1019E000D02000F02FFD00B2924908801F21D020A6
:1019F00000F028FD00B28F4948802121D02000F05E
:101A000021FD00B28B4988806DE01D21D02000F0BF
:101A100019FD00B2874908801F21D02000F012FD77
:101A200000B2844948802121D02000F00BFD00B293
:101A3000804988803221A62000F004FD00B27D4953
:101A4000C8803421A62000F0FDFC00B2794908814D
:101A50003621A62000F0F6FC00B27649488142E02B
:101A60001D21D02000F0EEFC00B2724908801F2139
:101A7000D02000F0E7FC00B26E4948802121D02040
:101A800000F0E0FC00B26B4988803221A62000F013
:101A9000D9FC00B26749C8803421A62000F0D2FCEE
:101AA00000B2644908813621A62000F0CBFC00B2C8
:101AB0006049488100211A2000F0D7FC00B25D493E
:101AC000888102211A2000F0D0FC00B25949C88157
:101AD00004211A2000E005E000F0C7FC00B25549DF
:101AE000088200E000BF00BF98E097E05848008AF5
:101AF0005049088092E04FF480704E4908808DE094
:101B00005348807C4B49087088E04320494908804D
:101B100040F207104880372088804FF4FA70C88060
:101B20004FF4807008814A48807C887201204749C0
:101B3000487073E04748B0F90000642190FBF1F968
:101B4000484606F0EAFB0746384A394B06F010FCD7
:101B5000054606F085FB0446FEF771FF3D48B0F9E7
:101B60000200642190FBF1F9484606F0D6FB0746D7
:101B70002E4A2F4B06F0FCFB054606F071FB04468F
:101B8000FEF78DFF3348B0F90400642190FBF1F9B2
:101B9000484606F0C2FB0746244A254B06F0E8FB00
:101BA000054606F05DFB0446FEF7E8FE2948B0F95D
:101BB0000600642190FBF1F9484606F0AEFB0746AB
:101BC0001A4A1B4B06F0D4FB054606F049FB0446B7
:101BD000FEF705FF22E01F49B1F90000FEF72FFFD5
:101BE0001C49B1F90200FEF75AFF1A49B1F9040085
:101BF000FEF7C4FE1749B1F90600FEF7F0FE0DE04E
:101C00000CE00BE0134BB3F90420B3F90210B3F965
:101C100000000023FFF7ABFA00E010E600BF0B481E
:101C2000807A08B1FFF762FC00BF08E6EC3EB61B05
:101C3000934F6A409C010020D0000020E400002067
:101C4000F8000020BC000020D801002090010020F6
:101C50000C010020BA01002010B5E84A128812B227
:101C6000E74B5A811A46116AB2F90A30B2F91420C8
:101C700040F27124624303EB4210421A12B2E04B6D
:101C80001A8013E0DE4A928A521E12B2DC4B9A820C
:101C90001A46B2F90A30B2F9142040F271246243B4
:101CA00003EB4210421A12B2D54B1A80D44AB2F951
:101CB000002042F210739A42E4DC13E0D04A928A88
:101CC000521C12B2CE4B9A821A46B2F90A30B2F9BD
:101CD000142040F27124624303EB4210421A12B204
:101CE000C74B1A80C64AB2F90020C64B9A42E5DBC0
:101CF000C34A106210BD10B54FF08042928C12B2F0
:101D0000BF4B9A811A46516AB2F90C30B2F91620CB
:101D100040F27124624303EB4210421A12B2B84BF4
:101D20005A8013E0B64AD28A521E12B2B44BDA82FB
:101D30001A46B2F90C30B2F9162040F2712462430F
:101D400003EB4210421A12B2AD4B5A80AC4AB2F9C0
:101D5000022042F210739A42E4DC13E0A84AD28ACD
:101D6000521C12B2A64BDA821A46B2F90C30B2F902
:101D7000162040F27124624303EB4210421A12B261
:101D80009F4B5A809E4AB2F902209E4B9A42E5DB55
:101D90009B4A506210BD10B59B4A128812B2984BF4
:101DA000DA811A46916AB2F90E30B2F9182040F27F
:101DB0007124624303EB4210421A12B2904B9A8094
:101DC00013E08F4A128B521E12B28D4B1A831A46A1
:101DD000B2F90E30B2F9182040F27124624303EBDD
:101DE0004210421A12B2864B9A80854AB2F90420F8
:101DF00042F210739A42E4DC13E0814A128B521CC7
:101E000012B27F4B1A831A46B2F90E30B2F918207B
:101E100040F27124624303EB4210421A12B2784B33
:101E20009A80774AB2F90420764B9A42E5DB744AED
:101E3000906210BD10B5754A128812B2704B1A82AA
:101E40001A46D16AB2F91030B2F91A2040F2712460
:101E5000624303EB4210421A12B2694BDA8013E07C
:101E6000674A528B521E12B2654B5A831A46B2F918
:101E70001030B2F91A2040F27124624303EB421091
:101E8000421A12B25E4BDA805D4AB2F9062042F283
:101E900010739A42E4DC13E0594A528B521C12B27E
:101EA000574B5A831A46B2F91030B2F91A2040F251
:101EB0007124624303EB4210421A12B2504BDA8093
:101EC0004F4AB2F906204F4B9A42E5DB4C4AD062AA
:101ED00010BD10B54E4A128812B2494B5A821A46AA
:101EE000116BB2F91230B2F91C2040F27124624336
:101EF00003EB4210421A12B2414B1A8113E0404ADE
:101F0000928B521E12B23E4B9A831A46B2F912308D
:101F1000B2F91C2040F27124624303EB4210421AD2
:101F200012B2374B1A81364AB2F9082042F21073C6
:101F30009A42E4DC13E0324A928B521C12B2304BCC
:101F40009A831A46B2F91230B2F91C2040F2712479
:101F5000624303EB4210421A12B2294B1A81284AFB
:101F6000B2F90820274B9A42E5DB254A106310BDE1
:101F700070B5FFF771FEFFF7BEFEFFF70CFFFFF72E
:101F8000A8FF1F49B1F9040006F092FD054621495A
:101F900006F07CFC044606F06FFD00B21E49888105
:101FA0001749B1F9000006F083FD0546194906F00E
:101FB0006DFC044606F060FD00B2184988811049A6
:101FC000B1F9080006F074FD0546124906F05EFC02
:101FD000044606F051FD00B2114988810849B1F963
:101FE000020006F065FD05460A4906F04FFC04466E
:101FF00006F042FD00B20B49888170BD242C0140DF
:10200000D8010020F0D8FFFF24040040240800403D
:10201000240C0040413BA740BC000020D000002021
:10202000E4000020F800002008B50121082001F09C
:10203000EBFA2020ADF8000003208DF802001420F8
:102040008DF803006946DD4801F022F80121DC48E3
:1020500001F0EFF81020ADF8000003208DF8020029
:1020600014208DF803006946D44801F011F808BD2A
:10207000002100BF48E000BF00BF00BF00BF00BF9D
:1020800000BF00BF00BF00BF00BF00BF00BF00BF58
:1020900000BF00BF00BF00BF00BF00BF00BF00BF48
:1020A00000BF00BF00BF00BF00BF00BF00BF00BF38
:1020B00000BF00BF00BF00BF00BF00BF00BF00BF28
:1020C00000BF00BF00BF00BF00BF00BF00BF00BF18
:1020D00000BF00BF00BF00BF00BF00BF00BF00BF08
:1020E00000BF00BF00BF00BF00BF00BF00BF00BFF8
:1020F00000BF00BF00BF00BF00BF00BF00BF00BFE8
:1021000000BF00BF00BF491C8142B4D3704700B577
:102110002020AA4910310860102008600220FFF733
:10212000A7FFA6480830006808B9012000E0002099
:1021300000F0200008B1002000BD20209F4914318C
:1021400008600220FFF794FF9C480830006800F008
:10215000200008B10020EFE72020984914310860E2
:102160000220FFF785FF0120E6E700B51020934924
:10217000143108600220FFF77BFF20208F491431C3
:1021800008600220FFF774FF10208C4910310860AE
:102190000220FFF76DFF20208849103108600220DF
:1021A000FFF766FF00BD00B51020844914310860B8
:1021B0000220FFF75DFF20208049143108600220D3
:1021C000FFF756FF10207D49103108600220FFF70D
:1021D0004FFF10207949143108600220FFF748FFB3
:1021E00000BD00B510207549143108600220FFF7CA
:1021F0003FFF20207149103108600220FFF738FFAF
:1022000010206E49103108600220FFF731FF1020C6
:102210006A49143108600220FFF72AFF00BD00B5AB
:1022200010206649143108600220FFF721FF2020AA
:102230006249103108600220FFF71AFF10205F4941
:10224000103108600220FFF713FF5C480830006877
:1022500000F0200040B110205849143108600220DD
:10226000FFF706FF002000BD10205449143108601C
:102270000220FFF7FDFE0120F5E710B50346082414
:102280001EE010204D49143108600220FFF7F0FED7
:1022900003F0800020B1202048491031086003E09D
:1022A00020204649143108605806030E0220FFF72B
:1022B000DFFE10204149103108600220FFF7D8FEF0
:1022C0002000A4F10101CCB2DBD110203B49143134
:1022D000086010BD10B508240023202037491031B4
:1022E000086017E05806030E1020344914310860C6
:1022F0000220FFF7BDFE1020304910310860022097
:10230000FFF7B6FE2D480830006800F0200008B145
:1023100043F001032000A4F10101CCB2E2D110206E
:10232000264914310860184610BD70B506460C46A3
:102330001546FFF7ECFE08B9002070BD3046FFF7E8
:102340009CFFFFF76CFF18B9FFF70FFF0020F4E7C1
:102350002046FFF792FFFFF762FF2846FFF78DFF49
:10236000FFF75DFFFFF701FF0120E6E770B50446C8
:102370000D46FFF7CCFE08B9002070BD2046FFF7E0
:102380007CFFFFF74CFF18B9FFF7EFFE0020F4E7E2
:102390002846FFF772FFFFF742FFFFF7B8FE611C08
:1023A000C8B2FFF76AFFFFF73AFFFFF793FF064651
:1023B000FFF717FFFFF7D9FE3046DEE7000C0140BC
:1023C0000002300010B5FFF72FFE01220B211A206A
:1023D000FFF7ABFF402220211A20FFF7A6FF0122C2
:1023E00021211A20FFF7A1FF0D2209211A20FFF752
:1023F0009CFF0B223121A620FFF797FF08222D21F9
:10240000A620FFF792FF80222E21A620FFF78DFF46
:1024100080223E21D020FFF788FF07221521D020FF
:10242000FFF783FF1E221621D020FFF77EFF002238
:102430001721D020FFF779FF00223E21D020FFF79F
:1024400074FF10BD2DE9F04105460C462146284693
:10245000FFF78CFF0646601CC1B22846FFF786FFD7
:10246000074607EB0620BDE8F0812DE9F04105465F
:102470000C4621462846FFF779FF0746601CC1B28B
:102480002846FFF773FF064607EB0620BDE8F081FC
:1024900000B587B001214FF4047001F0B5F84FF496
:1024A000004001F015F80420ADF8040000208DF87C
:1024B000070001A9494800F0EBFD494802F01AFA6B
:1024C000002002908DF80C008DF80D004FF4602074
:1024D00004900020059001208DF8180002A94048C2
:1024E00002F02FFA01213E4802F057FA3C4802F070
:1024F00076FA00BF3A4802F077FA0028FAD1384855
:1025000002F07CFA00BF364802F07DFA0028FAD1CA
:1025100007B000BD10B5044607230122214630480C
:1025200002F0A7FA01212E4802F077FA00BF02213B
:102530002B4802F0E3FB0028F9D0294802F000FB09
:1025400010BD2DE9F04107460C460025002608E0A5
:102550003846FFF7DFFF0544052003F03CFA701C06
:10256000C6B2A642F4DBB5FBF4F080B2BDE8F08160
:102570002DE9F0470C20FFF7CDFF1A490968084400
:102580001849086018480078401C17490870084628
:10259000007805281FD1134800680521B0FBF1F031
:1025A000104908600846006805F0CEFE06464FF068
:1025B00066320E4B05F0DCFE044600220C4B05F0A3
:1025C000F7FC804605F07CFE0A4988740020054926
:1025D000086005490870BDE8F08700000010014060
:1025E000002401406C0000207000002066660A4054
:1025F0000000B0400C0100200020ED490882704727
:1026000070B5002500244DF6ED60EA4908800B20E6
:1026100088700A20C87000200871487102208871F3
:1026200000BF06E0E448015DE01DE24A1154601C71
:10263000C4B2022CF6DB002405E0DE48005D28442D
:1026400005B2601CC4B2DB488078801EA042F4DC76
:10265000D8488078801ED74A1554C5F30721104604
:102660008078401E11541046817800F0D0F970BD7A
:1026700010B5D2480078401CD0490870D048007886
:1026800028B10020CF490870CD49087010E0CD482E
:102690000078022807DDC648007C20F00100401CBD
:1026A000C349087404E0C7480078401CC549087055
:1026B000C548B0F90E00C449B1F90C10401A1428ED
:1026C00009DCC148B0F90E00BF49B1F90C10401A3D
:1026D00010F1140F05DABD480078401CBB490870A2
:1026E00011E0BA48007832280ADDB148007C20F0B9
:1026F0000200801CAE4908740020B449087002E052
:102700000020B2490870B248B0F90E00B049B1F9E2
:102710000C10401A142809DCAD48B0F90E00AC4981
:10272000B1F90C10401A10F1140F05DAA94800781D
:10273000401CA849087011E0A648007832280ADD3C
:102740009B48007C20F00400001D9949087400207B
:10275000A049087002E000209E4908709E48B0F928
:102760000E009D49B1F90C10401A142809DC9A4852
:10277000B0F90E009849B1F90C10401A10F1140F7D
:1027800005DA96480078401C9449087011E0934897
:10279000007832280ADD8648007C20F008000830E6
:1027A0008349087400208D49087002E000208B499D
:1027B00008708B48B0F90E008949B1F90C10401A25
:1027C000142809DC8648B0F90E008549B1F90C10CF
:1027D000401A10F1140F05DA82480078401C814934
:1027E000087011E07F48007832280ADD7048007CCC
:1027F00020F0100010306E490874002079490870EC
:1028000002E0002077490870774800887649498AB5
:1028100088420FD174484188808A81420AD1724827
:102820008188C08A814205D170480078401C6F4978
:10283000087011E06D48007832280ADD5C48007CA1
:1028400020F0200020305A490874002067490870A1
:1028500002E00020654908700020654908700EE01C
:1028600061486349097830F811101230604A1278D3
:1028700020F812105E480078401C5D4908705C48E2
:1028800000780328ECDB5848C0885749098B8842F8
:102890000FD155480189408B81420AD15248418964
:1028A000808B814205D153480078401C5149087003
:1028B00011E05048007832280ADD3D48007C20F0C5
:1028C000400040303A49087400204A49087002E04C
:1028D0000020484908700020454908700FE0424830
:1028E000801D4349097830F811101230404A12789F
:1028F00020F812103E480078401C3D4908703C48C2
:1029000000780328EBDB384880893749C98B884237
:102910000FD13548C189008C81420AD13248018AE1
:10292000408C814205D134480078401C32490870FF
:1029300011E03048007832280ADD00202E49087066
:102940001B48007C20F0800080301949087402E0A8
:102950000020294908700020254908700FE022480E
:102960000C302349097830F811101230204A1278BF
:1029700020F812101E480078401C1D4908701C48A1
:1029800000780328EBDB0A48008A78B10B4800780E
:102990000A280BDD0020094908700548008A06490D
:1029A0000880FFF72DFE00200149088210BD0000BD
:1029B0000C010020C00300209C01002072000020B8
:1029C0009001002073000020E4000020740000202B
:1029D000F800002075000020BC00002076000020D8
:1029E000D0000020770000200C020020780000209A
:1029F00071000020790000207A00002010B54FF40B
:102A0000A06000F077FA10BD00BF7047704770B546
:102A100005460C460021F84802F061FAC82C01D99D
:102A2000002070BD22462946F44803F0CDFA214625
:102A3000F14802F069FA0121EF4802F050FA012052
:102A4000EFE700B58BB00121084600F0D0FDEA4861
:102A5000143802F077F9E84802F074F9E848009079
:102A6000E848019000200290C820039000200490C4
:102A70008020059000200690079008904FF4405069
:102A8000099000200A906946DB48143802F0FCF9EE
:102A90000121D948143802F022FAD9480090D748C9
:102AA00001901020029009200390002004908020C3
:102AB000059000200690079008904FF480500990F0
:102AC00000200A906946CC4802F0DEF9012240213C
:102AD000CB48001F00F0FCFE01228021C848001FE7
:102AE00000F0F6FE0BB000BD08B510208DF8000018
:102AF00000208DF8010001208DF802008DF8030000
:102B0000684600F0FCF926208DF8000000208DF8C2
:102B1000010002208DF8020001208DF803006846B4
:102B200000F0EDF908BD10B586B004460121480457
:102B300000F077FD0121052000F066FD0420ADF8CE
:102B4000140018208DF8170003208DF8160005A931
:102B5000AD4800F09DFA0820ADF8140004208DF86F
:102B6000170005A9A84800F093FA01940020ADF8D9
:102B70000800ADF80A00ADF80C00ADF810000C200C
:102B8000ADF80E0001A99E48001F00F0E4FDFFF71C
:102B9000ABFFFFF756FF012240F224419848001F87
:102BA00000F071FE01219648001F00F060FE4021F8
:102BB0009348001F00F043FF06B010BD70B502F04F
:102BC00042FE40F224418E48001F00F041FF10B346
:102BD0008B48001F0088C4B289480088C4B2002115
:102BE0008548143802F07BF98348143802F08EF9D6
:102BF00005462A468349854803F0E6F9FEF71AFEA2
:102C0000C8217D48143802F07FF901217A48143830
:102C100002F065F900BF02F025FE70BD10B502F0AC
:102C200012FE4FF4001002F075F918B14FF40010C5
:102C300002F0A3F902F016FE10BD70B505460C4671
:102C400000216D48643802F04AF9C82C01D90020EF
:102C500070BD224629466E4803F0B6F92146664803
:102C6000643802F051F901216348643802F037F901
:102C70000120EDE700B58BB00121084600F0B7FC5C
:102C80005D48643802F05EF85B48503802F05AF84C
:102C9000604800906048019000200290C820039096
:102CA0000020049080200590002006900790089056
:102CB0004FF44050099000200A9069464E48503821
:102CC00002F0E2F801214C48503802F008F951486E
:102CD00000904F480190102002900920039000209E
:102CE00004908020059000200690079008904FF4F3
:102CF0008050099000200A9069463F48643802F0ED
:102D0000C3F8012240214348001F00F0E1FD0122E9
:102D100080214048001F00F0DBFD0BB000BD08B56E
:102D20000D208DF8000000208DF8010001208DF8A5
:102D300002008DF80300684600F0E1F827208DF8C6
:102D4000000000208DF8010002208DF80200012013
:102D50008DF80300684600F0D2F808BD10B586B0C3
:102D600004460121880400F05CFC0121092000F0E8
:102D70004BFC4FF48060ADF8140018208DF817005C
:102D800003208DF8160005A9244800F081F94FF4BE
:102D90000060ADF8140004208DF8170005A91F4845
:102DA00000F076F901940020ADF80800ADF80A00B3
:102DB000ADF80C00ADF810000C20ADF80E0001A924
:102DC0001448001F00F0C7FCFFF7A9FFFFF752FFF0
:102DD000012240F224410F48001F00F054FD012160
:102DE0000C48001F00F043FD40210A48001F00F07E
:102DF00026FE06B010BD000080000240F802002050
:102E00000444004030020020000801402404002057
:102E1000500500200448004088040020000C0140B8
:102E200010B502F010FD40F224411F4800F010FEE2
:102E300098B11D480088C4B21B48001D0088C4B268
:102E400000211A4802F04BF8C821184802F05CF83B
:102E50000121164802F043F800BF02F003FD10BD47
:102E600010B502F0F0FC4FF4007002F053F818B106
:102E70004FF4007002F081F802F0F4FC10BD0FB4C2
:102E800038B505A800903C210948009B049A02F03F
:102E900045FF044600200090E1B20548FFF7CDFE53
:102EA00038BC5DF814FB00000048004030000240D0
:102EB000180600200948804709480047FEE7FEE75A
:102EC000FEE7FEE7FEE7FEE7FEE7FEE7FEE7FEE7DA
:102ED00004480549054A064B704700006B0300088B
:102EE00031010008C0160020C01C0020C0180020BE
:102EF000C018002031490143314A1160704770B554
:102F0000002100230F22C47804B32D4C246804F45C
:102F1000E064C4F5E064210AC1F10403CA404478C6
:102F200004FA03F18478144021430901254C067802
:102F3000A155047804F01F050124AC4005786D11FB
:102F4000AD0005F1E025C5F8004109E0047804F082
:102F50001F050124AC401C4D0678761145F826402B
:102F600070BD1A4A0A400243154B1B1F1A60704776
:102F700039B1134A121D12680243114B1B1D1A600E
:102F800006E00F4A121D126882430D4B1B1D1A608A
:102F90007047042808D14FF0E021096941F004018D
:102FA0004FF0E022116107E04FF0E021096921F0C4
:102FB00004014FF0E0221161704700000000FA05A3
:102FC0000CED00E000E400E080E100E080FFFF1F86
:102FD00010B50446CC48844208D10121042000F0F9
:102FE0002DFB0021042000F029FB46E0C748844265
:102FF00008D10121082000F021FB0021082000F069
:103000001DFB3AE0C248844208D10121102000F0A3
:1030100015FB0021102000F011FB2EE0BD4884427A
:1030200008D10121202000F009FB0021202000F020
:1030300005FB22E0B848844208D10121402000F07D
:10304000FDFA0021402000F0F9FA16E0B34884426E
:1030500008D10121802000F0F1FA0021802000F049
:10306000EDFA0AE0AE48844207D10121801500F054
:10307000E5FA0021A01500F0E1FA10BD10B501211C
:10308000084600F0DBFA0021012000F0D7FA10BD5D
:103090002DE9F041024600250026002000230024EF
:1030A000002791F803C00CF00F0591F803C00CF055
:1030B000100CBCF1000F03D091F802C04CEA0505DA
:1030C00091F800C0BCF1000F31D0146800202BE053
:1030D0004FF0010C0CFA00F3B1F800C00CEA030643
:1030E0009E4220D183004FF00F0C0CFA03F7BC4333
:1030F00005FA03FC4CEA040491F803C0BCF1280F64
:1031000006D14FF0010C0CFA00FCC2F814C00AE022
:1031100091F803C0BCF1480F05D14FF0010C0CFA37
:1031200000FCC2F810C0401C0828D1D31460B1F8CC
:1031300000C0BCF1FF0F34DD546800202EE000F128
:10314000080C4FF0010808FA0CF3B1F800C00CEAC3
:1031500003069E4221D183004FF00F0C0CFA03F7B7
:10316000BC4305FA03FC4CEA040491F803C0BCF12B
:10317000280F05D100F1080C08FA0CF8C2F81480E9
:1031800091F803C0BCF1480F07D100F1080C4FF0D3
:10319000010808FA0CF8C2F81080401C0828CED3A9
:1031A0005460BDE8F0814FF6FF710180022181700B
:1031B0000421C17070470246002093680B400BB198
:1031C000012000E0002070470146886880B2704707
:1031D00002460020D3680B400BB1012000E0002024
:1031E00070470146C86880B270470161704741610D
:1031F00070470AB1016100E041617047C1607047EA
:103200004FF480320A4382618161826182698269FE
:10321000704702460020434B18684FF680731840F1
:1032200040EA021008433F4B186070473E49C861AE
:103230007047F0B50A46002300240021002500F065
:103240000046B6F1004F02D1364EF16901E0354E2D
:103250007168C0F3034583B200F44016B6F5401F11
:1032600008D121F070612F4E766826F070662D4FE0
:103270007E6012E000F48016B6F5801F06D10326AA
:1032800006FA05F4A14341F0706106E0460D3601EF
:1032900003FA06F6B14341F0706122B1460D3601E2
:1032A00003FA06F6314300F00046B6F1004F02D1B2
:1032B0001C4EF16101E01B4E7160F0BD30B5002283
:1032C0008B071C0F0F2303FA04F2164B08338C10E4
:1032D00053F824309343134C08348D1044F82530B0
:1032E00023468C1053F824308C07240F00FA04F482
:1032F00023430C4C08348D1044F8253030BD0A4966
:10330000DC3108607047000000080140000C0140FB
:10331000001001400014014000180140001C014051
:10332000002001400000014000002042DF4800680A
:1033300040F00100DD49086008464068DC4908406B
:10334000DA49486008460068DA490840D749086009
:103350000846006820F4802008600846406820F491
:10336000FE0048604FF41F0088607047CF4909682D
:1033700021F48031CD4A11601146096821F4802181
:103380001160B0F5803F03D0B0F5802F0ED106E07C
:10339000C649096841F48031C44A116007E0C34955
:1033A000096841F4A021C14A116000E000BF00BFDC
:1033B000704710B501460022002300204A11012A5F
:1033C00002D1BA4C236806E0022A02D1B74C236A24
:1033D00001E0B64C636A01F01F02012494401C40D6
:1033E0000CB1012000E0002010BD38B50020009095
:1033F0000024002500BF3120FFF7DBFF05460098C1
:10340000401C00900098B0F5A06F01D0002DF2D0C4
:103410003120FFF7CEFF08B1012400E00024204650
:1034200038BD01460020A14A106820F0F80040EAAB
:10343000C10010607047A049086070470246002034
:103440009A4B586820F47C1042EA01031843974BCA
:103450005860704798490866704701460020934AB3
:10346000506820F003000843506070478F48406860
:1034700000F00C007047014600208C4A506820F094
:10348000F00008435060704701460020874A5068AA
:1034900020F4E06008435060704701460020834AF2
:1034A000506820F4605040EAC1005060704729B174
:1034B0007E4A527A02437D4B5A7204E07B4A527A2A
:1034C00082437A4B5A7270477B49D8310860704703
:1034D00001460020754A506820F44040084350607F
:1034E00070470021714A20321170704A82F8201012
:1034F000012802D004280AD104E001216B4A2032BD
:10350000117005E00521694A2032117000E000BF0A
:1035100000BF70476949086070476449096A014300
:10352000624A11627047654944390860704730B596
:1035300000210022002400235C4D6D6805F00C0181
:1035400021B1042905D0082923D105E05C4D05608F
:1035500022E05B4D05601FE0544D6D6805F470126C
:10356000524D6D6805F48034022505EB92421CB97A
:10357000544D554305600BE04C4D6D6805F4003526
:103580001DB1504D5543056002E04D4D554305605A
:1035900002E04B4D056000BF00BF444D6D6805F073
:1035A000F0010909484D6B5C0568DD4045603F4D01
:1035B0006D6805F4E061090A434D6B5C4568DD40C8
:1035C00085603A4D6D6805F46051C90A3E4D6B5CEB
:1035D0004568DD40C560354D6D6805F44041890B97
:1035E0003A4D6B5CC568B5FBF3F5056130BD29B19B
:1035F0002E4A526902432D4B5A6104E02B4A52690C
:1036000082432A4B5A61704729B1284A9269024382
:10361000264B9A6104E0254A92698243234B9A61C2
:10362000704729B1214AD2690243204BDA6104E094
:103630001E4AD26982431D4BDA61704729B11B4A89
:10364000D2680243194BDA6004E0184AD268824318
:10365000164BDA60704729B1144A12690243134BC2
:103660001A6104E0114A12698243104B1A617047D3
:1036700012494039086070470F49C86470470B49C8
:10368000C87170470948406A40F080700749486235
:10369000704701460020054A92680A400AB101209D
:1036A00000E0002070470149887270470010024016
:1036B0000000FFF8FFFFF6FE000042428004424295
:1036C00000127A0000093D008000002090000020D8
:1036D00010B50446FB48844209D101218803FFF755
:1036E000ADFF00214FF48040FFF7A8FF32E0F6481D
:1036F000844209D101214804FFF7ADFF00214FF4B6
:103700000030FFF7A8FF25E0F048844209D10121ED
:103710008804FFF7A0FF00214FF48020FFF79BFFF4
:1037200018E0EB48844209D10121C804FFF793FF58
:1037300000214FF40020FFF78EFF0BE0E5488442A4
:1037400008D101210805FFF786FF00214FF4801002
:10375000FFF781FF10BD2DE9F04786B005460E4604
:103760000024A24600BFA1460027B08900B100BFD7
:103770002F462C8A4CF6FF700440F08804432C82BC
:10378000AC894EF6F3100440B08831890843718942
:1037900008430443AC81AC8A4FF6FF400440B08933
:1037A0000443AC8201A8FFF7C2FEC648874202D19B
:1037B000DDF810A001E0DDF80CA0A88900F40040BD
:1037C00040B10AEBCA0000EB0A1031684900B0FBB7
:1037D000F1F807E00AEBCA0000EB0A103168890033
:1037E000B0FBF1F86420B8FBF0F00401200964217B
:1037F00001FB1089A88900F4004040B1322000EBA1
:10380000C900B0FBF1F000F00700044308E03220EB
:1038100000EB09106421B0FBF1F000F00F0004434D
:103820002C8106B0BDE8F0874FF4165101600021ED
:103830008180C18001810C214181002181817047FB
:1038400010B502460020108A4FF2FF0318400B8883
:103850004C8823438C882343CC882343184310820D
:1038600010BD0021018041808180C180704721B15D
:10387000828942F40052828104E082894DF6FF730E
:103880001A4082817047F0B50346002400260025C7
:10389000002040F66A17B94200D100BF1846C1F3B4
:1038A000421401F01F06012707FA06F5012C01D189
:1038B0000C3004E0022C01D1103000E014301AB1B9
:1038C00007682F43076002E00768AF430760F0BD59
:1038D0001AB1838A0B43838202E0838A8B438382FB
:1038E0007047028A4FF6F0731A400282028A0A4336
:1038F0000282704782894FF2FF731A408281828967
:103900000A438281704721B1828942F0020282819A
:1039100004E082894FF6FD731A4082817047028A63
:103920004FF6DF731A400282028A0A43028270470E
:1039300021B1028A42F48042028204E0028A4BF6FC
:10394000FF731A4002827047C1F3080282807047F9
:1039500001468888C0F308007047818941F0010161
:1039600081817047028BD2B20283028B42EA01222C
:1039700002837047028B02F47F420283028B0A4368
:103980000283704721B1828A42F02002828204E0E1
:10399000828A4FF6DF731A408282704721B1828A91
:1039A00042F01002828204E0828A4FF6EF731A40DE
:1039B0008282704721B1828A42F00802828204E04A
:1039C000828A4FF6F7731A408282704721B182894A
:1039D00042F40042828103E08289C2F30E028281B6
:1039E000704721B1828A42F40062828204E0828AB6
:1039F0004FF2FF731A4082827047828A4FF6FB7340
:103A00001A408282828A0A438282704721B1828A66
:103A100042F00202828204E0828A4FF6FD731A406D
:103A20008282704702460020B1F5007F00D100BFBE
:103A300013880B400BB1012000E00020704701F417
:103A40000072B2F5007F00D100BFCA430280704708
:103A500070B50246002400230025002040F66A16B7
:103A6000B14200D100BFC1F3421501F01F0301268E
:103A700006FA03F3012D02D19689334006E0022DA8
:103A800002D1168A334001E0968A33400C12012697
:103A900006FA04F41688344013B10CB1012000E09A
:103AA000002070BD10B50022002340F66A14A14228
:103AB00000D100BF0A1201249440A3B2DC43048069
:103AC00010BD0000003801400044004000480040A4
:103AD000004C00400050004010B50446FE488442AF
:103AE00008D10121C014FFF7A9FD0021E014FFF760
:103AF000A5FDC4E0B4F1804F08D101210846FFF7CD
:103B0000AAFD00210120FFF7A6FDB8E0F34884429A
:103B100008D101210220FFF79EFD00210220FFF7BE
:103B20009AFDACE0EE48844208D101210420FFF761
:103B300092FD00210420FFF78EFDA0E0E9488442B9
:103B400008D101210820FFF786FD00210820FFF79A
:103B500082FD94E0E448844208D101211020FFF75F
:103B60007AFD00211020FFF776FD88E0DF488442CF
:103B700008D101212020FFF76EFD00212020FFF752
:103B80006AFD7CE0DA48844208D101214014FFF745
:103B900055FD00216014FFF751FD70E0D5488442C7
:103BA00009D10121C804FFF749FD00214FF400208D
:103BB000FFF744FD63E0D048844209D101210805A4
:103BC000FFF73CFD00214FF48010FFF737FD56E072
:103BD000CA48844209D101214805FFF72FFD002181
:103BE0004FF40010FFF72AFD49E0C548844208D190
:103BF00001214020FFF72FFD00214020FFF72BFD82
:103C00003DE0C048844208D101218020FFF723FD18
:103C100000218020FFF71FFD31E0BB48844208D11E
:103C200001218015FFF717FD0021A015FFF713FDF7
:103C300025E0B648844209D101210804FFF7FEFCC3
:103C400000214FF48030FFF7F9FC18E0B0488442BF
:103C500009D101214804FFF7F1FC00214FF40030A5
:103C6000FFF7ECFC0BE0AB48844208D1012188044B
:103C7000FFF7E4FC00214FF48020FFF7DFFC10BDCC
:103C800000220288944B98420ED0994B98420BD058
:103C9000B0F1804F08D0914B984205D0904B98429C
:103CA00002D0904B984204D14FF68F731A404B8844
:103CB0001A438D4B984207D08C4B984204D04FF654
:103CC000FF431A40CB881A4302808B8883850B8878
:103CD0000385814B98420BD0854B984208D08B4B83
:103CE000984205D08A4B984202D08A4B984201D123
:103CF0000B7A038601238382704770B5002400226B
:103D00000023058C4FF6FE7635400584028C8388AF
:103D1000048B4FF68F752C40B51E2C400D882C431C
:103D2000751E2A400D892A434D882A436A4DA842B0
:103D30000BD06F4DA84208D0744DA84205D0744DE9
:103D4000A84202D0734DA84213D14FF6F7752A400E
:103D50004D892A434FF6FB752A408D882A434FF63A
:103D6000FF652B404FF6FF552B408D892B43CD89A6
:103D70002B4383800483CD888586028470BD70B513
:103D8000002400220023058C4FF6EF763540058491
:103D9000028C8388048B48F6FF752C404FF6FF4554
:103DA0002C400D884FF6FF7606EA05252C434FF68A
:103DB000DF752A400D8906EA05152A434D8806EA73
:103DC00005152A43444DA84202D0494DA8421DD1B1
:103DD0004FF67F752A404D894FF6FF7606EA0515A6
:103DE0002A434FF6BF752A408D8806EA05152A43F7
:103DF0004FF6FF352B404FF2FF752B408D8906EAB9
:103E000085052B43CD8906EA85052B4383800483F2
:103E1000CD880587028470BD70B500240022002380
:103E2000058C4FF6FF6635400584028C8388848BB1
:103E30004FF68F752C404FF6FC752C400D882C43A7
:103E40004FF6FF552A400D894FF6FF7606EA052505
:103E50002A434D8806EA05252A431F4DA84202D071
:103E6000234DA8421DD14FF2FF752A404D894FF6D0
:103E7000FF7606EA05252A434FF6FF352A408D884E
:103E800006EA05252A434EF6FF752B404DF6FF75D1
:103E90002B408D8906EA05152B43CD8906EA0515C9
:103EA0002B4383808483CD888587028470BD70B561
:103EB000002200230024058C4EF6FF763540058451
:103EC000038C8488828B48F6FF752A404FF6FF45A5
:103ED0002A400D8820E00000002C01400004004032
:103EE00000080040000C004000100040001400409A
:103EF00000340140004C014000500140005401409A
:103F000000180040001C004000200040004001401C
:103F100000440140004801404FF6FF7606EA0525BF
:103F20002A434DF6FF752B400D8906EA05352B43D4
:103F30004D8806EA05352B43FA4DA84202D0FA4DCA
:103F4000A84208D14BF6FF752C408D894FF6FF76BD
:103F500006EA85152C4384808283CD88A0F84050E2
:103F6000038470BD828B4FF2FF331A408283828BB1
:103F70004FF6FF7303EA01231A4382837047F0B5BB
:103F80000C461546002200210026078C4EF6FF7CC9
:103F900007EA0C070784828B018C4FF6FF7707EA4C
:103FA000043640F6FF473A404FF6FF7707EA052709
:103FB0003A434FF6FF7707EA03373A43D94FB842FF
:103FC0000ED0D94FB8420BD0B0F1804F08D0D74FA8
:103FD000B84205D0D64FB84202D0D64FB84206D12B
:103FE0004DF6FF77394046F48057394305E047F6F0
:103FF000FF57394044F48057394382830184F0BD30
:10400000828B4FF6F3731A408283828B0A4382833A
:104010007047F0B50C461546002200210026078C9B
:104020004FF6FF6C07EA0C070784828B018C4FF672
:10403000FF7707EA04264FF60C773A404FF6FF77F2
:1040400007EA03172F433A43B64FB8420ED0B64F94
:10405000B8420BD0B0F1804F08D0B44FB84205D071
:10406000B34FB84202D0B34FB84206D14FF6FF5714
:10407000394046F48077394305E04FF2FF57394025
:1040800044F48077394382830184F0BD028B4FF280
:10409000FF331A400283028B4FF6FF7303EA0123BA
:1040A0001A4302837047F0B50C46154600220021E2
:1040B0000026078C4FF6EF7C07EA0C070784028B7B
:1040C000018C4FF6FF7707EA041640F6FF473A40A7
:1040D0004FF6FF7707EA03373A434FF6FF7707EAD1
:1040E00005273A438F4FB8420ED08F4FB8420BD0BE
:1040F000B0F1804F08D08D4FB84205D08C4FB842F8
:1041000002D08C4FB84206D14FF6DF77394046F0E7
:104110001007394305E04FF65F77394044F0100748
:10412000394302830184F0BD028B4FF6F3731A40CA
:104130000283028B0A4302837047F0B50C46154692
:1041400000220021068C4FF6FE773E400684028B4B
:10415000018C4FF60C7632407E1C06EA03162E4385
:104160003243704EB0420ED06F4EB0420BD0B0F121
:10417000804F08D06D4EB04205D06D4EB04202D097
:104180006C4EB04206D14FF6FD76314044F0010648
:10419000314305E04FF6F576314044F001063143F6
:1041A00002830184F0BD70B505460C465D4885422A
:1041B0000ED05D4885420BD0B5F1804F08D05B48EA
:1041C000854205D05A48854202D05A48854200D1DE
:1041D00000E000BF208850B92389A2886188284662
:1041E000FFF7ABFFE1882846FFF79EFF25E0208818
:1041F00004280AD12389A28861882846FFF753FF43
:10420000E1882846FFF742FF17E0208808280AD1F6
:104210002389A28861882846FFF7FBFEE1882846AB
:10422000FFF7EEFE09E02389A28861882846FFF7A0
:10423000A6FEE1882846FFF795FE70BD2DE9F04106
:1042400005460C4600260127608808B9022600E0D2
:104250000026A088012801D1022700E0012720883C
:10426000A0B92389A28861882846FFF766FFE18804
:104270002846FFF759FF23893A4631462846FFF77B
:1042800012FFE1882846FFF701FF13E02389A28887
:1042900061882846FFF707FFE1882846FFF7F6FE0A
:1042A00023893A4631462846FFF747FFE1882846EA
:1042B000FFF73AFFBDE8F0810A884B881A438B88E4
:1042C0001A43CB881A430B891A434B891A438B89AB
:1042D0001A43A0F8442070474FF6FF7181800021F7
:1042E0000180C180418001727047002101804180BE
:1042F0008180C180018141818181C181704700211C
:1043000001804180012181800021C18001817047AD
:104310000021018041808180C180018141818181B2
:1043200070470000002C01400034014000040040B0
:1043300000080040000C004021B1028842F0010258
:10434000028004E002884FF6FE731A400280704734
:1043500031B1B0F8442042F40042A0F8442005E016
:10436000B0F84420C2F30E02A0F8442070471AB1FE
:1043700083890B43838102E083898B438381704768
:104380008182704741EA0203A0F8483070471AB1B1
:1043900083890B43838102E083898B438381704748
:1043A00001894FF6F8721140018170470A460021D9
:1043B00001894FF68F73194011430181704730B561
:1043C00004460D4629462046FFF7F0FF208940F0BD
:1043D0000700208130BD2DE9F04104460D46164608
:1043E0001F46602D06D13B46012231462046FFF78D
:1043F0005AFE05E03B46012231462046FFF79DFE6E
:1044000029462046FFF7D2FF208940F0070020818F
:10441000BDE8F08130B50C4600210189C9B24FF6E4
:10442000FF7505EA0325154325432943018130BD66
:104430002DE9F04105460E461746984600244346AE
:104440003A4631462846FFF7E5FF2C894FF6F870CB
:10445000044044F007044FF68F70044044F07004A9
:104460002C81BDE8F081F0B504460D4616461F4686
:104470003B46324629462046FFF7CCFF208940F4D0
:1044800080402081F0BD0185828270470A4600216C
:1044900001884FF68F731940114301807047F0B5C2
:1044A0000C4615461E460021002200230189028B7E
:1044B000038C4FF6F877394021434FF6FC473A40DA
:1044C00040F201173A434FF6DD773B404FF6FF7756
:1044D00007EA06172F433B43018102830384F0BDA3
:1044E0000A460021018B4FF68F7319401143018357
:1044F00070470A460021018B48F6FF7319404FF6BA
:10450000FF7303EA02231943018370470A4600211F
:10451000818B4FF68F7319401143818370470A4690
:104520000021818B48F6FF7319404FF6FF7303EAB1
:10453000022319438183704721B1028842F080022F
:10454000028004E002884FF67F731A4002807047B1
:1045500021B1828842F00402828004E082884FF612
:10456000FB731A408280704721B1828842F00802B2
:10457000828004E082884FF6F7731A408280704789
:1045800021B1828842F00102828004E082884FF6E5
:10459000FE731A40828070470A460021018B4FF655
:1045A000F77319401143018370470A460021018BBC
:1045B0004FF2FF7319404FF6FF7303EA02231943CA
:1045C000018370470A460021818B4FF6F77319402B
:1045D0001143818370470A460021818B4FF2FF739C
:1045E00019404FF6FF7303EA022319438183704792
:1045F0000A460021018B4FF6FB73194011430183DA
:1046000070470A460021018B4FF6FF3319404FF6E1
:10461000FF7303EA02231943018370470A4600210E
:10462000818B4FF6FB7319401143818370470A4613
:104630000021818B4FF6FF3319404FF6FF7303EAD9
:1046400002231943818370470A460021018B4FF6EC
:104650007F7319401143018370470A460021018B83
:10466000C1F30E014FF6FF7303EA022319430183DE
:1046700070470A460021818B4FF67F731940114322
:10468000818370470A460021818BC1F30E014FF6EA
:10469000FF7303EA02231943818370470A4600210E
:1046A000018C4FF6FD7319401143018470470A468F
:1046B0000021018C4FF6F7731940114301847047B4
:1046C0000A460021018C4FF6DF7319404FF6FF7345
:1046D00003EA02131943018470470A460021018C42
:1046E0004FF67F7319404FF6FF7303EA0213194325
:1046F000018470470A460021018C4FF6FF53194090
:104700004FF6FF7303EA02231943018470470A46F8
:104710000021018C4FF2FF7319404FF6FF7303EA3B
:1047200002231943018470470A460021018C4DF68B
:10473000FF7319404FF6FF7303EA023319430184F4
:10474000704730B5002301248C40A3B2048C9C43F5
:104750000484048C02FA01F5ADB22C43048430BD0C
:1047600030B5002304248C40A3B2048C9C43048401
:10477000048C02FA01F5ADB22C43048430BD70B54F
:104780000346002000241846183001258D40ACB2A5
:104790001D8CA5431D8409B1082909D100EB6100D6
:1047A000056825F0700505600568154305600EE095
:1047B0000D1FC5F34E052844056825F4E045056046
:1047C00005684FF6FF7606EA02263543056070BDA0
:1047D00021B1028842F00202028004E002884FF612
:1047E000FD731A400280704721B1028842F0040232
:1047F000028004E002884FF6FB731A400280704783
:1048000021B1828842F08002828004E082884FF6E3
:104810007F731A408280704702884FF6F7731A4000
:10482000028002880A430280704782884FF68F73A5
:104830001A40828082880A438280704702894FF63C
:10484000F8731A40028102890A4302817047028983
:104850004FF67F731A40028102890A430281704732
:1048600081847047818570478186704701877047D2
:1048700081877047A0F84010704702884FF6FF43C9
:104880001A40028002880A43028070470146888EDF
:1048900070470146088F70470146888F7047014670
:1048A000B1F8400070470146888C70470146088D7A
:1048B000704702460020138A0B400BB1012000E034
:1048C00000207047CA430282704730B5024600207C
:1048D00000230024158A05EA0103958905EA0104ED
:1048E00013B10CB1012000E0002030BDCA430282A8
:1048F0007047000010B50446FA48844208D10121EF
:104900004015FEF79BFE00216015FEF797FE17E0AD
:10491000F548844208D101210015FEF78FFE0021E1
:104920002015FEF78BFE0BE0F048844208D10121F0
:10493000C803FEF783FE00214FF40040FEF77EFE21
:1049400010BD30B50246002000235068E84C2040DE
:104950000D790C6844EA0524204350609068E54CCA
:104960002040D1E902542C434D7944EA45042043C8
:104970009060D06A20F470000C7C641EE4B2234383
:1049800040EA0350D06230BD0021016001714171E5
:104990008160C16001210174704721B1826842F0D9
:1049A0000102826003E0826822F0010282607047A7
:1049B00021B1826842F48072826003E0826822F44E
:1049C00080728260704710B50023CBB21AB1446880
:1049D0001C43446002E044689C43446010BD81680D
:1049E00041F0080181607047014600208A6802F0AA
:1049F00008020AB1012000E000207047816841F000
:104A0000040181607047014600208A6802F00402B8
:104A10000AB1012000E00020704721B1826842F411
:104A2000A002826003E0826822F4A00282607047E4
:104A3000014600208A6802F480020AB1012000E0E9
:104A40000020704710B50A4600210023416821F478
:104A50006041531E41EA4331416010BD21B14268BB
:104A600042F40062426003E0426822F40062426065
:104A70007047F0B504460D4600200021092D11DDD8
:104A8000E068A5F10A0606EB4607072606FA07F1D5
:104A90008843A5F10A0606EB460603FA06F1084329
:104AA000E0600CE0206905EB4507072606FA07F1F0
:104AB000884305EB450603FA06F108432061072AFF
:104AC0000FDA606B561E06EB86071F2606FA07F103
:104AD0008843561E06EB860605FA06F10843606316
:104AE00022E00D2A0FDA206BD61F06EB86071F2661
:104AF00006FA07F18843D61F06EB860605FA06F18B
:104B00000843206310E0E06AA2F10D0606EB860779
:104B10001F2606FA07F18843A2F10D0606EB86066A
:104B200005FA06F10843E062F0BD21B1826842F463
:104B30008012826003E0826822F4801282607047F3
:104B40000146C86C80B2704766484C3000687047B8
:104B500021B1426842F48062426003E0426822F47C
:104B600080624260704721B1426842F480524260E4
:104B700003E0426822F48052426070470A460021F6
:104B8000816821F4E04111438160704721B182685E
:104B900042F40042826003E0826822F400428260B4
:104BA000704721B1826842F40212826003E0826899
:104BB00022F4021282607047014600208A6802F4E3
:104BC00000120AB1012000E000207047F0B5044651
:104BD0001546002000220026092911DDE068A1F118
:104BE0000A0707EB470C072707FA0CF29043A1F1DD
:104BF0000A0707EB470703FA07F21043E0600CE0EF
:104C0000206901EB410C072707FA0CF2904301EBF6
:104C1000410703FA07F210432061A06BC0F301566D
:104C2000EF1C06F1010CA7EB0C0707EB870C1F2705
:104C300007FA0CF29043EF1C06F1010CA7EB0C07EE
:104C400007EB870701FA07F21043A063F0BD10B528
:104C50000A4600210023816B21F44011531E41EAD2
:104C60000351816310BD08B5002300930090009BA1
:104C70000B440093009B1A6008BD08B50246002053
:104C80000090009201F12800009B184400900098C9
:104C9000006880B208BD0A4600214168164B1940E1
:104CA0001143416070474162826270470A460021A9
:104CB000416821F01F0111434160704740B109492B
:104CC0000831096841F40001064A0832116007E022
:104CD00004490831096821F40001024A08321160D0
:104CE000704700000024014000280140003C0140C2
:104CF000FFFEF0FFFDF7F1FFFFFD3FFF0246002042
:104D000013680B400BB1012000E000207047CA433C
:104D10000260704770B502460020002300240B1289
:104D20005568CEB205EA060415681D4015B10CB1F0
:104D3000012000E0002070BD00220A12D34303606E
:104D40007047000001684FF6FE72114001600021BB
:104D5000016041608160C1608D49884208D18C4901
:104D60000839496841F00F01894A083A51608AE0E0
:104D700087491431884208D185490839496841F08A
:104D8000F001834A083A51607DE081492831884228
:104D900008D17F490839496841F470617C4A083A72
:104DA000516070E07A493C31884208D1784908392D
:104DB000496841F47041764A083A516063E07449A9
:104DC0005031884208D172490839496841F470214C
:104DD0006F4A083A516056E06D496431884208D103
:104DE0006B490839496841F47001694A083A5160D1
:104DF00049E067497831884208D1654908394968EE
:104E000041F07061624A083A51603CE06149884271
:104E100006D1011F096841F00F01021F116032E045
:104E20005C491431884208D15A49091F096841F088
:104E3000F001584A121F116025E056492831884276
:104E400008D15449091F096841F47061514A121F81
:104E5000116018E04F493C31884208D14D49091F83
:104E6000096841F470414B4A121F11600BE0494937
:104E70005031884207D14749091F096841F4702120
:104E8000444A121F1160704710B50022026847F6AD
:104E9000F0739A430C6A8B6823430C6923434C6973
:104EA00023438C692343CC6923434C6A23438C6A94
:104EB00023431A430260CB6843600B6883604B68EE
:104EC000C36010BD0021016041608160C16001616B
:104ED00041618161C161016241628162704721B1BA
:104EE000026842F00102026004E002684FF6FE73BD
:104EF0001A40026070471AB103680B43036002E076
:104F000003688B43036070474160704701464868FF
:104F100080B2704701460020002201F080531BB18F
:104F20001C4B083B1A6802E0194B083B1A6802EA5E
:104F300001030BB1012000E00020704700F0805118
:104F400019B11449091F086002E011490839486085
:104F5000704701460020002201F080531BB10D4B29
:104F6000083B1A6802E00A4B083B1A6802EA010390
:104F70000BB1012000E00020704700F0805119B112
:104F80000449091F086002E0014908394860704778
:104F9000080002400804024010B5024608464FF0DF
:104FA00080730360031F18461A606FF00104031F2B
:104FB00018461C604FF01234031F18461C604FF057
:104FC0000334031F18461C604FF00234031F1846B9
:104FD0001C606410031F18461C600024031F184641
:104FE0001C604FF01134031F18461C604FF0103442
:104FF000031F18461C604FF00934031F18461C603D
:105000004FF00834031F18461C604FF00734031F8D
:1050100018461C604FF00634031F18461C604FF002
:105020000534031F18461C604FF00434031F184654
:105030001C6010BD10B5044600F0D6FD0020F949F3
:105040000861F9480068C008F849B0FBF1F0604316
:105050004FF0E02148610020F549096808704FF0E1
:10506000E02188610320086100F0C0FD10BD01B59A
:1050700000F0BAFD4FF47A71009848434900B0FB44
:10508000F1F0401CEB490968C86200F00EFE00F028
:10509000ADFD00BFE7480068C06A0028FAD108BD2E
:1050A00010B5E048007801281DD100F09DFDDD48D5
:1050B0008078002815DDDB488078401ED94988704B
:1050C0000846807850B90846407820B900F08EFD37
:1050D00000F0EBFD07E000F089FD04E000F086FD44
:1050E00001E000F083FD10BD70B505460E4600F0EE
:1050F0007BFDD04800684068A84218D1C948407874
:1051000078BBC848807860BBCA480068008900EB5B
:10511000800101EBC000C84901EB800080F82A60E3
:10512000C6480068C349086000F0BFFD19E00124CB
:1051300014E004EB840000EBC400BF4901EB8000E5
:105140004068A84208D104EB840000EBC40001EBE6
:10515000800080F82A6003E0601CC4B2102CE8DBF9
:1051600000BF00F043FD70BD10B5AE4800780128C7
:105170000FD100F039FDAB48407840B9A94880789C
:10518000FF2804D2A7488078401CA649887000F008
:105190002DFD10BD8AB02FE1FFF7E6FFA84800788B
:1051A00001287DDDA6480078401EA549491C085C01
:1051B0002F2875D1481E0078801E085C2F28F8D152
:1051C0000020491E08709FA19D48401C00F0F6FE7B
:1051D0008146CDF8009001240AE0B9F1000F05D016
:1051E00098A1002000F0EAFE4DF82400601CC4B233
:1051F0000A2CF2DB94A1009800F02CFF0028D8D1F3
:1052000092A1019800F026FF10B901209149487041
:1052100091A1019800F01EFF10B902208D4948703D
:105220008FA1019800F016FF10B90320894948703A
:105230008BA1029800F00EFF10B9012085498870FB
:105240008AA1029800F006FF10B9022081498870F7
:1052500080484078012804D002282DD003282AD184
:1052600055E07C488078012802D0022822D100E055
:1052700020E001241BE004EB840202EBC4026E4B2D
:1052800003EB820202F10A01039800F0E3FE60B929
:1052900004EB840101EBC401674A02EB810100E0E9
:1052A000A4E048680121FFF71FFF601CC4B2102C66
:1052B000E1DB00BF00BF98E066488078012802D09B
:1052C000022822D100E020E001241AE004EB84024D
:1052D00002EBC402584B03EB820202F10A0103986D
:1052E00000F0B8FE58B904EB840101EBC401524A46
:1052F00002EB810148680221FFF7F6FE03E0601C23
:10530000C4B2102CE2DB00BF00BF00BF6DE059A0AB
:1053100000F01EFD4348016965A000F019FD6BA077
:1053200000F016FD012450E0012C1CD104EB840098
:1053300000EBC400404901EB8000006B4FF47A7130
:10534000484338490969B0FBF1FA504602F0FCFFC6
:1053500007460022624B02F02BFE05462A460B460A
:1053600060A000F0F5FC04EB840000EBC4003249BF
:1053700001EB8000807A30B3012C24DD04EB840043
:1053800000EBC40001EB8000006B4FF47A714843DE
:1053900024490969B0FBF1FA504602F0D5FF0546F1
:1053A00000224F4B02F004FE07460B4604EB84003C
:1053B00000EBC400204A02EB800000F10A013A46EB
:1053C0004FA000F0C5FC601CC4B2102CACDB51A097
:1053D00000F0BEFC1F488078012802D0022802D1CC
:1053E00000E000E000BF00BF00BF00BFFFF758FEB5
:1053F0004FF47A70FFF73BFECEE610B500F0F4FBF9
:105400005249AFF26F20FFF7C7FD0B4948630121F6
:10541000094880F85E10AFF28321816300F0E6FB5B
:1054200010BD00000C0900200000002040420F00C9
:1054300094000020A800002020090020AC000020DB
:10544000E80800202F000000636D64006F70656E37
:1054500000000000B0000020636C6F736500000066
:105460007461736B6D616E61676500007461736B6D
:10547000000000002A2A2A2A2A2A2A2A2A2A2A2A34
:105480002A2A2A2A2A2A2AC8CECEF1B9DCC0EDC699
:10549000F72A2A2A2A2A2A2A2A2A2A2A2A2A2A2A9F
:1054A0002A2A2A2A2A2A2A20200D0D0A0000000072
:1054B00020205461736B54696D65536C6963654357
:1054C0006F756E743A202564200D0A002020435029
:1054D00055D5BCD3C3C2CAA3BA0D0D0A0000000043
:1054E0000000244020205461736B5F4D616E616742
:1054F00065203A2025302E31662525200D0A000032
:1055000020202573203A2025302E31662525200DB8
:105510000A0000002A2A2A2A2A2A2A2A2A2A2A2A89
:105520002A2A2A2A2A2A2A2A2A2A2A2A2A2A2A2ADB
:105530002A2A2A2A2A2A2A2A2A2A2A2A2A2A2A2ACB
:105540002A2A2A2A2A2A2A20200D0A009408002022
:1055500000BFFEE710B500F047FBF749AFF20F00C0
:10556000FFF71AFDF5490860012081F82A00AFF223
:105570001F00486000F03AFB10BD10B500F034FB8E
:10558000002404E00020EE4941F82400641C082CAB
:10559000F8D3002404E00021E94820300155641CC0
:1055A000082CF8D3002404E00021E54828300155F8
:1055B000641C082CF8D3002405E0E249E0483030B0
:1055C00040F82410641C082CF7D3002433E000209A
:1055D00004EB840101EBC401D84A42F8210004EB3A
:1055E000840101EBC40102EB8101486004EB8401FA
:1055F00001EBC40102EB8101088104EB840101EBA2
:10560000C40102EB8101887204EB840101EBC40147
:1056100002EB8101C86204EB840101EBC40102EBDF
:105620008101086304EB840101EBC40102EB8101F9
:1056300081F82A00641C102CC9D30020C2490861DB
:10564000C2490870C049C87201208872FFF782FF02
:10565000FFF7D3FE0020BC490881BD480068BD4962
:105660000860B648BA4908603430BB490860012078
:10567000B54908704FF4FA60FFF7DCFC00F0B6FAA9
:1056800010BD2DE9F04705460F469046994600F0BB
:10569000ABFA022401E0601C84B204EB840000EB4E
:1056A000C400A64951F820000028F4D100260FE0DC
:1056B000287800B90EE015F8011B04EB840000EB1C
:1056C000C4009E4A02EB80000A308155701C86B2ED
:1056D000202EEDDB00BF41463846FFF75DFC04EBB2
:1056E000840101EBC401954A42F8210004EB8400D7
:1056F00000EBC400114601EB800080F82A9004EB17
:10570000840000EBC40001EB8000476004EB8400E0
:1057100000EBC40001EB8000048100F067FABDE8F3
:10572000F08710B500F060FA0821102001F09CFE0F
:1057300000F05CFA10BD10B50246012114E001EB47
:10574000810303EBC1037D4C04EB83035B6893424D
:1057500008D101EB810303EBC10304EB830393F84E
:105760002A0003E04B1CD9B21029E8DB00BF10BDB2
:1057700070B5054600F038FA754800684068A842E0
:1057800025D0012420E004EB840000EBC4006B4929
:1057900001EB80004068A84214D16D480068007A8F
:1057A0006949C87204EB840000EBC400634901EB53
:1057B00080006749086000204FF0E021886100F018
:1057C00074FA03E0601CC4B2102CDCDB00BF00F0F4
:1057D0000DFA70BD70B5054600F006FA5C48006829
:1057E0004068A8422CD0012427E004EB840000EBA1
:1057F000C400524901EB80004068A8421BD15248C6
:105800000481008900EB800101EBC0004B4901EBF2
:1058100080005149086004EB840000EBC400474954
:1058200001EB80004A49086000204FF0E0218861C8
:1058300000F03BFA03E0601CC4B2102CD5DB00BFC3
:1058400000F0D4F970BD10B500F0CEF93E484078B4
:10585000FF2804DA3C484078401C3B49487000F07F
:10586000C5F910BD10B500F0BFF9374840780028E1
:1058700004DD35484078401E3349487000F0B6F9E1
:1058800010BD10B5FFF7DFFFFFF76EFCFFF708FC58
:10589000FFF7E8FF10BD0122294920310A54704763
:1058A00000BF27492031095C0029FAD00022244991
:1058B00020310A54704710B50446FFF755FC2448C0
:1058C000006800892549095D884203D100211C48F0
:1058D00028300155FFF7E4FB10BD10B5044600BFAA
:1058E00017482830005D0128FAD0FFF73DFC012160
:1058F00013482830015516480068007A17490855A2
:10590000FFF7CEFB10BD0E4A303242F82010704730
:10591000014600BF0A4A303252F821201268094B72
:105920001B689A42F6D0064A303252F82100054BE5
:1059300042F8213070470000940600202009002022
:1059400098080020980000200C090020E80800209A
:10595000A8000020A4000020AC0000209C00002033
:105960002848006970474FF0E02080697047F0B523
:1059700003464FF0E0267569366926F002064FF0BF
:10598000E0273E61204E3668F608204FB6FBF7F65A
:1059900006FB03F400224FF0E026B16910E04FF05F
:1059A000E026B06988420BD0884202D20E1A3244F7
:1059B00002E02E1A0E4432440146A24200D300E017
:1059C000EDE700BF4FF0E026366946F002064FF0E3
:1059D000E0273E61F0BD4FF47A7141434FF4FA6223
:1059E000B1FBF2F1491C0A4A1268D16200BF0849B2
:1059F0000968C96A0129FAD80021054A1268D162EA
:105A0000704700000C0900200000002040420F00F9
:105A1000A800002004E0FCF72BFE6420FFF727FB22
:105A2000F9E704E0FBF7A4FD0520FFF720FBF9E709
:105A300086B040E0AFF21500FFF77DFE022812D1DC
:105A4000AFF22F00FFF777FE02280CD144484078D0
:105A500048B10121AFF23500FFF746FB0121AFF25B
:105A60004B00FFF741FBFCF783FD3E48807C3E493D
:105A7000B1F90E103C4AB2F90C203C4BB3F90E3090
:105A8000CDE90232CDE904103848B0F90C003849AC
:105A9000B1F90E10CDE900103548B0F90C30354899
:105AA00042683548B0F9041034A0FDF7E8F94FF426
:105AB000FA70FFF7DCFABDE708E0FFF755FBFBF7EC
:105AC00007FAFFF7EDFA0A20FFF7D1FAF5E704E04D
:105AD000FCF74EFA0A20FFF7CAFAF9E710B5FCF70F
