:020000040800F2
:10000000181C0020812100087702000879020008EE
:100010007D0200088102000885020008000000003F
:10002000000000000000000000000000890200083D
:100030008B02000800000000B34A00089B4500083E
:100040009B2100089B2100089B2100089B210008A0
:100050009B2100089B2100089B2100089B21000890
:100060009B2100089B2100089B2100089B21000880
:100070009B2100082D2100089B2100089B210008DE
:10008000E91E00089B2100089B2100089B21000815
:100090009B2100089B2100089B2100089B21000850
:1000A0009B2100089B2100089B2100089B21000840
:1000B0009B2100089B2100089B2100089B21000830
:1000C0009B2100089B2100089B2100089B21000820
:1000D0009B2100089B210008891E0008ED200008D4
:1000E0009B2100089B2100089B2100089B21000800
:1000F0009B2100089B2100089B2100089B210008F0
:100100009B2100089B2100089B2100089B210008DF
:100110009B2100089B2100089B2100089B210008CF
:100120009B2100089B2100089B2100089B210008BF
:1001300000F002F800F090F80AA090E8000C824469
:100140008344AAF10107DA4501D100F085F8AFF246
:10015000090EBAE80F0013F0010F18BFFB1A43F0A5
:1001600001031847207C0000407C0000103A24BFA7
:1001700078C878C1FAD8520724BF30C830C144BF0C
:1001800004680C607047000000230024002500264E
:10019000103A28BF78C1FBD8520728BF30C148BFEA
:1001A0000B6070476E2904F08887702905F007837B
:1001B000662907F07284652907F06F84672907F0C4
:1001C0006C846129AFF3008003681B0A28BF41F0EB
:1001D0008001692904F04485642904F0418575296A
:1001E00004F03E856F2905F09582782905F0D382C9
:1001F000E92905F02F82E42905F02C82F52905F084
:100200002982EF2905F09282F82905F0D28203684D
:10021000DB0928BF41F08001632905F09E81732925
:1002200005F0A381E32905F0C183F32905F0C68316
:10023000002070471FB505F021FB040000200021BD
:1002400006F042FD401C60600020002106F026FD03
:10025000E0601FBD10B510BD05F068FC1146FFF74A
:10026000E9FF04F090FB05F08FFC03B4FFF7F2FF09
:1002700003BC01F02FFD704700BFFEE700BFFEE7A3
:1002800000BFFEE700BFFEE7704770470CB50020D7
:10029000019000906C48006840F480306A49086022
:1002A00000BF6948006800F4003000900198401CCD
:1002B0000190009818B90198B0F5A06FF1D162488B
:1002C000006800F4003010B10120009001E000202F
:1002D00000900098012843D15C48006840F010006D
:1002E0005A4908600846006820F003000860084684
:1002F000006840F002000860534840685249486076
:100300000846406848600846406840F4806048609D
:100310000846406820F47C1048600846406840F475
:10032000E81048600846006840F08070086000BF30
:100330004548006800F000700028F9D04248406845
:1003400020F00300404948600846406840F0020041
:10035000486000BF3C48406800F00C000828F9D114
:100360000CBD10B5FFF792FF10BD10B53648006800
:1003700040F00100344908600846406834490840AC
:100380003149486008460068324908402E490860F3
:100390000846006820F4802008600846406820F481
:1003A000FE0048604FF41F008860FFF7DAFF4FF04F
:1003B00000602949086010BD10B50021002000220E
:1003C000214B5B6803F00C0121B1042906D00829F8
:1003D00028D107E0214B224C236027E01F4B204C03
:1003E000236023E0184B5B6803F47010164B5B68C6
:1003F00003F48032022303EB904022B9194B4343AC
:10040000174C23600DE0104B5B6803F4003323B1FD
:10041000144B4343124C236003E0104B4343104CF6
:10042000236003E00D4B0E4C236000BF00BF064B62
:100430005B68C3F303130C4CE15C094B1B68CB40B6
:10044000074C236010BD0000001002400020024055
:100450000000FFF8FFFFF6FE08ED00E000127A0052
:100460000000002000093D000400002030B589B0E4
:1004700005460C460121480302F02CFA0121112007
:1004800002F028FA4FF47070ADF8200018208DF8B3
:10049000230003208DF8220008A9EC4801F05EFF3C
:1004A000ADF81850ADF814400020ADF81A00ADF8C2
:1004B000160005A9E64802F049FD7020ADF80400D9
:1004C0000120ADF806000020ADF80A00ADF80C00E0
:1004D00001A9DF4802F077FD01A9DD4802F0B5FD72
:1004E00001A9DB4802F0FEFD01A9D94802F045FE52
:1004F0000121D74803F092F80821D54803F0B2F95A
:100500000821D34803F0B7F90821D14803F0C0F916
:100510000821CF4803F0C5F90121CD4803F072F955
:100520000121CB4803F06EF80021C94803F002FB1B
:100530000021C74803F000FB0021C54803F0FEFA84
:100540000021C34803F0FCFA09B030BD30B589B0D2
:1005500005460C460121C80202F0BCF90121052024
:1005600002F0B8F94FF47060ADF8200018208DF853
:10057000230003208DF8220008A9B64801F0EEFE02
:10058000ADF81850ADF814400020ADF81A00ADF8E1
:10059000160005A9B04802F0D9FC7020ADF804009F
:1005A0000120ADF806000020ADF80A00ADF80C00FF
:1005B00001A9A94802F007FD01A9A74802F045FDDD
:1005C00001A9A54802F08EFD01A9A34802F0D5FDBE
:1005D0000121A14803F022F808219F4803F042F9C5
:1005E00008219D4803F047F908219B4803F050F982
:1005F0000821994803F055F90121974803F002F9C1
:100600000121954802F0FEFF0021934803F092FA81
:100610000021914803F090FA00218F4803F08EFAF0
:1006200000218D4803F08CFA09B030BD00B587B0C9
:100630000121084602F04EF90121022002F057F98B
:100640000121042002F046F9C020ADF8180048202E
:100650008DF81B0003208DF81A0006A97D4801F0D3
:100660007DFE012240217B4801F029FF01228021EB
:10067000784801F024FF44F62060ADF81000002017
:10068000ADF80C00ADF81200ADF80E0003A97348E8
:1006900002F05CFC0A231A460321704803F065F857
:1006A000684602F092FF0820ADF8080069466B48E2
:1006B00002F0DFFE0121694803F06AFA01221146C7
:1006C000664802F0BAFF0020644924310880012105
:1006D000624802F097FF07B000BD00B587B0012166
:1006E000084602F0F7F80121042002F000F9012188
:1006F000082002F0EFF8C020ADF8180048208DF86F
:100700001B0003208DF81A0006A9554801F026FEAB
:1007100001224021524801F0D2FE0122802150489E
:1007200001F0CDFE44F62060ADF810000020ADF8D9
:100730000C00ADF81200ADF80E0003A9494802F014
:1007400005FC0A231A460321464803F00EF86846C2
:1007500002F03BFF0820ADF808006946414802F06E
:1007600088FE01213F4803F013FA012211463D485B
:1007700002F063FF00203B49243108800121394801
:1007800002F040FF07B000BD00B587B00121084668
:1007900002F0A0F80121082002F0A9F801210420AC
:1007A00002F098F80320ADF8180048208DF81B00DF
:1007B00003208DF81A0006A9264801F0CFFD01227A
:1007C0001146244801F07BFE01220221214801F05C
:1007D00076FE44F62060ADF810000020ADF80C0065
:1007E000ADF81200ADF80E0003A91F4802F0AEFBF1
:1007F0000A231A4603211C4802F0B7FF684602F09C
:10080000E4FE0820ADF808006946174802F031FE02
:100810000121154803F0BCF901221146124802F0EB
:100820000CFF002010492431088001210E4802F0FD
:10083000E9FE07B000BD10B5FFF7F8FEFFF7A4FF13
:100840001D2140F2AF40FFF711FE10BD0010014026
:100850000034014000080140002C01400004004029
:10086000000C014000080040000C00402DE9FC5F36
:100870008246BAF1000F08DBBAF5FA7F01DD4FF4CA
:10088000FA7A0120FB49087009E0CAF1000ABAF5BA
:10089000FA7F01DD4FF4FA7A0020F64908704FEA3A
:1008A0008A00C0EBC000C00000EB400101EBC000BB
:1008B000432190FBF1FB584606F053FC0646EE4AF6
:1008C000EE4B06F0C7FA04460022ED4B06F0C2FAE2
:1008D00080460022EB4B06F00DFACDE9000106F050
:1008E00011FCE4494860BDE8FC9F2DE9FC5F8246AD
:1008F000BAF1000F08DBBAF5FA7F01DD4FF4FA7A9E
:100900000120E149087009E0CAF1000ABAF5FA7F4E
:1009100001DD4FF4FA7A0020DB4908704FEA8A00C3
:10092000C0EBC000C00000EB400101EBC000432160
:1009300090FBF1FB584606F014FC0646CE4ACF4B1E
:1009400006F088FA04460022CD4B06F083FA804672
:100950000022CC4B06F0CEF9CDE9000106F0D2FB27
:10096000C9494860BDE8FC9F2DE9FC5F8246BAF1A9
:10097000000F08DBBAF5FA7F01DD4FF4FA7A0120A7
:10098000C249087009E0CAF1000ABAF5FA7F01DD30
:100990004FF4FA7A0020BD4908704FEA8A00C0EB94
:1009A000C000C00000EB400101EBC000432190FB00
:1009B000F1FB584606F0D5FB0646AF4AAF4B06F0B2
:1009C00049FA04460022AE4B06F044FA8046002263
:1009D000AC4B06F08FF9CDE9000106F093FBAB4973
:1009E0004860BDE8FC9F70B504460D465DB14FF40C
:1009F0009661A74803F09EF8C4F5966081B2A448BA
:100A000003F09AF80AE0C4F5966081B2A04803F0BA
:100A100091F84FF496619E4803F08EF870BD70B562
:100A200004460D465DB14FF496619A4803F086F88E
:100A3000C4F5966081B2974803F082F80AE0C4F5E5
:100A4000966081B2934803F079F84FF4966191482B
:100A500003F076F870BD70B504460D465DB1C4F57F
:100A6000966081B28B4803F065F84FF4966189482F
:100A700003F062F80AE04FF49661864803F05AF8F2
:100A8000C4F5966081B2834803F056F870BD79488A
:100A9000806810F5966F02DA7F487649886075485D
:100AA0008068B0F5966F03DD4FF4966071498860F9
:100AB0007548806810F5966F02DA77487249886049
:100AC00071488068B0F5966F03DD4FF496606E490B
:100AD00088606E48806810F5966F02DA6E486B4940
:100AE00088606A488068B0F5966F03DD4FF49660C1
:100AF0006649886070472DE9F04705460C46601B43
:100B000006F00CFE65490860084601686448006804
:100B100006F050FE8046634801686048006806F0B1
:100B200047FF814660480168484606F043FE074695
:100B3000414606F035FD06465C480168304606F041
:100B40002FFD5A4908600CB90020086058495748E1
:100B5000006806F0FBFE03D255485449086008E0DF
:100B600000215248006806F0F1FD02D200204F49F2
:100B700008604A4800684B4908604C48006806F025
:100B8000B1FDBDE8F0870146002901DA002000E050
:100B9000084670472DE9F04705460C46601B06F0F5
:100BA000BDFD44490860084601684348006806F0F6
:100BB00001FE8046414801683E48006806F0F8FEA4
:100BC00081463F480168484606F0F4FD0746414625
:100BD00006F0E6FC06463B480168304606F0E0FCBD
:100BE000384908600CB90020086031493548006870
:100BF00006F0ACFE03D22E483249086008E000211E
:100C00003048006806F0A2FD02D200202D4908609D
:100C100028480068294908602A48006806F062FDF3
:100C2000BDE8F08770B500252748007C00B300219F
:100C3000184802F07FFF0021164802F07DFF0021D6
:100C4000144802F07BFF0021124802F079FF0021D6
:100C50000F4802F06FFF00210D4802F06DFF0021E8
:100C60000B4802F06BFF0021094802F069FF70BDDC
:100C70002CE00000F0000020F1D4C853FB21094013
:100C8000000059400000E03F04010020180100204E
:100C9000002C01400034014050FBFFFF5C000020AD
:100CA0003800002064000020340000206000002094
:100CB0000000964450000020300000205800002022
:100CC0002C000020540000202C010020FE48B0F928
:100CD0000640FE4A5168002C01DB224600E06242D9
:100CE0001046FFF757FF0646FFF74DFFF7498860AC
:100CF000F548B0F90240F64A5168002C01DB224663
:100D000000E062421046FFF7F6FE0646FFF73BFFA3
:100D1000EF498860FFF7BBFEEC4A11789068FFF757
:100D20009AFEEB4A11789068FFF779FEE94A11784C
:100D30009068FFF758FE00BF70BD2DE9F0470546EB
:100D40000C46601B06F0EAFCE349086008460168AF
:100D5000E248006806F02EFD8046E1480168DE4862
:100D6000006806F025FE8146DE480168484606F028
:100D700021FD0746414606F013FC0646DA480168A5
:100D8000304606F00DFCD84908600CB90020086018
:100D9000D649D548006806F0D9FD03D2D348D249D8
:100DA000086008E00021D048006806F0CFFC02D2BD
:100DB0000020CD490860C8480068C9490860CA4891
:100DC000006806F08FFCBDE8F0872DE9F047044687
:100DD0000D46281B06F0A2FCC549086008460168BC
:100DE000C448006806F0DCFBC2490860C2480168DC
:100DF000BF48006806F0DCFD8046C04801684046F8
:100E000006F0D8FC0646BB480168BD48006806F0FD
:100E1000D1FC8046B6480168BA48006806F0CAFCB2
:100E20008146414606F0BCFB0746314606F0B8FB5A
:100E3000B5490860AE480068AF490860B24800682C
:100E400006F050FCBDE8F0872DE9F0410446002192
:100E5000206806F07BFC03D2206880F00040206010
:100E60000021606806F072FC03D2606880F00040E8
:100E700060600021A06806F069FC03D2A06880F0E1
:100E80000040A0600021E06806F060FC03D2E0684A
:100E900080F00040E0602069E0612169206A06F08E
:100EA0007FFB20620021E06806F0E8FB13D0E168D8
:100EB000206A06F04BFD02D2E06820620BE0E06899
:100EC00080F000452846216A06F040FD03D2E06824
:100ED00080F000402062A169206906F069FD60622F
:100EE0002069A061616AA06806F064FC0646216A78
:100EF000606806F05FFC0746E169206806F05AFC6E
:100F00008046394606F04CFB0546314606F048FB64
:100F10006061BDE8F0812DE9F04F93B083468946CA
:100F200014469A469D2104FB01F006F01AF9CDE91A
:100F30001001504606F015F9074605F05FFE05461C
:100F40000E46484606F00DF92A463346CDE908011B
:100F500006F032F9CDE90C01504606F002F90746D9
:100F600005F0FEFD05460E46584606F0FAF82A46FC
:100F70003346CDE9080106F01FF9CDE90A01DDE9A4
:100F80000C2305F0B7FECDE90E01DDE9102305F0D5
:100F9000B1FE5E4A03C29D2104FB01F006F0E1F8B8
:100FA000CDE91001504606F0DCF8074605F0D8FD03
:100FB000CDE900015648574905F020FE0546DDE918
:100FC000002306F0F9F8CDE90401504606F0C9F80F
:100FD000074605F013FECDE900014D484D4905F0E7
:100FE000BFFD81F000410546DDE9002306F0E4F88D
:100FF000CDE90201DDE9042306F0E8F9CDE90801B5
:10100000484606F0AEF8CDE90601DDE9082306F012
:10101000D3F8CDE90C01504606F0A3F8CDE9000164
:1010200005F0ECFD05460E4639483B4905F0E6FD66
:101030002A463346CDE9020106F0BEF80746884647
:10104000504606F08EF8CDE9000105F089FD054611
:101050000E462F482F4905F083FD81F000412A46B6
:101060003346CDE9020106F0A7F83A464346CDE9FA
:10107000040105F03FFECDE90801584606F071F87D
:10108000CDE90601DDE9082306F096F8CDE90A016D
:10109000DDE90C2305F02EFECDE90E01DDE910237C
:1010A00005F028FE1D4A03C29D2104FB01F006F055
:1010B00058F8CDE91001504606F053F8CDE900018B
:1010C00005F04EFD05462BE068010020F0000020F1
:1010D00004010020180100206800002040000020CA
:1010E000700000203C0000206C00002000009644AE
:1010F000740000207C000020800000204C000020B4
:1011000048000020440000207800002088000020D3
:10111000A138DB3752C1F03F52C1E03F90000020C0
:101120000E464D484D4905F01BFD07462A463346FD
:1011300006F042F8CDE90401504606F012F80746E1
:1011400005F05CFD05460E464348444905F056FD52
:1011500081F000412A463346CDE9000106F02CF823
:10116000CDE90201DDE9042305F0C4FDCDE9080164
:10117000484605F0F6FFCDE90601DDE9082306F053
:101180001BF8CDE90C01504605F0EBFFCDE900015D
:1011900005F034FD05460E462F48304905F0E0FCC9
:1011A0002A463346CDE9020106F006F8CDE90401EE
:1011B000504605F0D6FFCDE9000105F0D1FC05460B
:1011C0000E462548254905F019FD81F000412A46C3
:1011D0003346CDE9020105F0EFFF0746DDE90423C0
:1011E00005F088FDCDE90801584605F0BAFFCDE9C4
:1011F0000601DDE9082305F0DFFFCDE90A01DDE99D
:101200000C2305F077FDCDE90E01DDE9102305F093
:1012100071FD134A03C2134903C905F073FF054664
:10122000FFF724FB1049D1E9005181F00041284625
:1012300005F068FF0746FFF758FB0949D1E900515F
:1012400081F00041284605F05DFF0746FFF78CFB63
:1012500013B0BDE8F08F0000A138DB3752C1E03F8A
:1012600098000020880000209000002070B5002524
:1012700000244DF6DE60CB4908800A2048806420B7
:101280008880C8800020088148818881C881032027
:10129000088200BF05E0C34830F914000544601C13
:1012A000C4B2C048B0F90200401EA042F3DC28B22C
:1012B000BC49C881084680784006010EB94800F054
:1012C0000CFD70BD70B5002500244DF6DE60B549FB
:1012D0000880B548407C08304880B4484088888001
:1012E000B248C088C88040F2071008814320488176
:1012F00038208881AC48407C30B1032805D00628CE
:1013000019D009287DD141E070BD1D21D02000F009
:10131000B5FC00B2A349C8811F21D02000F0AEFC6B
:1013200000B2A04908822121D02000F0A7FC00B221
:101330009C4948826DE01D21D02000F09FFC00B246
:101340009849C8811F21D02000F098FC00B295492F
:1013500008822121D02000F091FC00B291494882FE
:101360003221A62000F08AFC00B28E498882342106
:10137000A62000F083FC00B28A49C8823621A6204C
:1013800000F07CFC00B28749088342E01D21D02098
:1013900000F074FC00B28349C8811F21D02000F006
:1013A0006DFC00B27F4908822121D02000F066FC4C
:1013B00000B27C4948823221A62000F05FFC00B2D6
:1013C000784988823421A62000F058FC00B2754983
:1013D000C8823621A62000F051FC00B27149088372
:1013E00000211A2000F05DFC00B26E494883022102
:1013F0001A2000F056FC00B26A49888304211A20A2
:1014000000E005E000F04DFC00B26649C88300E052
:1014100000BF00BF002405E0624830F91400054415
:10142000601CC4B25F48B0F90200401EA042F3DC69
:1014300029B25C48B0F90200401E5A4A22F8101046
:10144000104680784006010E104600F046FC00BFB2
:101450005AE7014656480180B0F90000082808DA2A
:101460005348B0F9000010F1080F02DD0020504A87
:1014700010804F48B0F90000704710B500224D4869
:10148000B0F900004C4B984237D14A4880784B4B1A
:10149000587048480079474BDB7800EB0320474BF6
:1014A000588044484079187118464078401E414B96
:1014B0001B5C42484078801E3E4C205C03EB0020C1
:1014C00000B23E4BD880002105E03A48405C104411
:1014D00082B2481CC1B239484078401E8842F4DCD0
:1014E0003648B0F90600904203D10120334B187002
:1014F00010BD0020314B1870FAE700BFF8E72DE966
:10150000F041FFF7BAFF08B9BDE8F0812B484088E9
:1015100030B1012805D0022804D0032831D112E0CF
:1015200030E02FE02349B1F90600FFF792FF0446AF
:10153000FFF79CF91F49B1F90800FFF78AFF04463D
:10154000FFF7D3F91EE01B49B1F90C00FFF781FF4B
:1015500004461849B1F90A00FFF77BFF0546154913
:10156000B1F90800FFF775FF06461249B1F9060008
:10157000FFF76FFF074623462A463146FFF7CBFCAD
:1015800000E000BF00BF0B48C07B07490874094852
:10159000007C88740748007C487401200749087063
:1015A00000BFB1E7200300202C01002068010020CB
:1015B000A800002084030020DEDEFFFFA000002042
:1015C00010B54FF08042928C12B2A04B1A811A468D
:1015D0009169B2F90830B2F9102040F271246243E7
:1015E00003EB4210421A12B2984B1A8013E0974A4A
:1015F000128A521E12B2954B1A821A46B2F908305C
:10160000B2F9102040F27124624303EB4210421AF7
:1016100012B28E4B1A808D4AB2F9002042F210733A
:101620009A42E4DC13E0894A128A521C12B2874BB8
:101630001A821A46B2F90830B2F9102040F2712429
:10164000624303EB4210421A12B2804B1A807F4A67
:10165000B2F900207E4B9A42E5DB7C4A906110BDD6
:1016600010B57C4A128812B2784B5A811A46D16959
:10167000B2F90A30B2F9122040F27124624303EB4E
:101680004210421A12B2714B5A8013E06F4A528ACA
:10169000521E12B26D4B5A821A46B2F90A30B2F992
:1016A000122040F27124624303EB4210421A12B23C
:1016B000664B5A80654AB2F9022042F210739A4290
:1016C000E4DC13E0614A528A521C12B25F4B5A8228
:1016D0001A46B2F90A30B2F9122040F2712462437C
:1016E00003EB4210421A12B2584B5A80574AB2F9D1
:1016F0000220574B9A42E5DB544AD06110BD10B529
:10170000554A128812B2514B9A811A46116AB2F99F
:101710000C30B2F9142040F27124624303EB421002
:10172000421A12B2494B9A8013E0484A928A521EDA
:1017300012B2464B9A821A46B2F90C30B2F9142012
:1017400040F27124624303EB4210421A12B23F4B43
:101750009A803E4AB2F9042042F210739A42E4DCC5
:1017600013E03A4A928A521C12B2384B9A821A46B5
:10177000B2F90C30B2F9142040F27124624303EB49
:101780004210421A12B2314B9A80304AB2F9042008
:101790002F4B9A42E5DB2D4A106210BD10B52F4A3F
:1017A000128812B2294BDA811A46516AB2F90E3008
:1017B000B2F9162040F27124624303EB4210421A40
:1017C00012B2224BDA8013E0204AD28A521E12B2A1
:1017D0001E4BDA821A46B2F90E30B2F9162040F2E8
:1017E0007124624303EB4210421A12B2174BDA80A3
:1017F000164AB2F9062042F210739A42E4DC13E072
:10180000124AD28A521C12B2104BDA821A46B2F92C
:101810000E30B2F9162040F27124624303EB4210FD
:10182000421A12B2094BDA80084AB2F90620084B74
:101830009A42E5DB054A506210BD00B5FFF710FF84
:10184000FFF7ACFFFFF75BFF00BD00006801002061
:10185000F0D8FFFF2404004024080040240C00407E
:1018600008B50121082001F035F82020ADF800006E
:1018700003208DF8020014208DF803006946DD482E
:1018800000F06CFD0121DC4800F039FE1020ADF8BD
:10189000000003208DF8020014208DF80300694633
:1018A000D44800F05BFD08BD002100BF48E000BF48
:1018B00000BF00BF00BF00BF00BF00BF00BF00BF30
:1018C00000BF00BF00BF00BF00BF00BF00BF00BF20
:1018D00000BF00BF00BF00BF00BF00BF00BF00BF10
:1018E00000BF00BF00BF00BF00BF00BF00BF00BF00
:1018F00000BF00BF00BF00BF00BF00BF00BF00BFF0
:1019000000BF00BF00BF00BF00BF00BF00BF00BFDF
:1019100000BF00BF00BF00BF00BF00BF00BF00BFCF
:1019200000BF00BF00BF00BF00BF00BF00BF00BFBF
:1019300000BF00BF00BF00BF00BF00BF00BF491C09
:101940008142B4D3704700B52020AA491031086005
:10195000102008600220FFF7A7FFA64808300068A3
:1019600008B9012000E0002000F0200008B10020AC
:1019700000BD20209F49143108600220FFF794FF2A
:101980009C480830006800F0200008B10020EFE714
:1019900020209849143108600220FFF785FF0120BC
:1019A000E6E700B510209349143108600220FFF7E4
:1019B0007BFF20208F49143108600220FFF774FF5D
:1019C00010208C49103108600220FFF76DFF2020A5
:1019D0008849103108600220FFF766FF00BD00B59E
:1019E00010208449143108600220FFF75DFF202099
:1019F0008049143108600220FFF756FF10207D490E
:101A0000103108600220FFF74FFF10207949143190
:101A100008600220FFF748FF00BD00B5102075499F
:101A2000143108600220FFF73FFF20207149103178
:101A300008600220FFF738FF10206E49103108605F
:101A40000220FFF731FF10206A491431086002209C
:101A5000FFF72AFF00BD00B5102066491431086069
:101A60000220FFF721FF2020624910310860022088
:101A7000FFF71AFF10205F49103108600220FFF7BE
:101A800013FF5C480830006800F0200040B11020CF
:101A90005849143108600220FFF706FF002000BDFE
:101AA00010205449143108600220FFF7FDFE012088
:101AB000F5E710B5034608241EE010204D49143107
:101AC00008600220FFF7F0FE03F0800020B1202024
:101AD00048491031086003E020204649143108606D
:101AE0005806030E0220FFF7DFFE10204149103197
:101AF00008600220FFF7D8FE2000A4F10101CCB25B
:101B0000DBD110203B491431086010BD10B508240A
:101B10000023202037491031086017E05806030ED3
:101B200010203449143108600220FFF7BDFE102058
:101B30003049103108600220FFF7B6FE2D4808300A
:101B4000006800F0200008B143F001032000A4F178
:101B50000101CCB2E2D110202649143108601846A8
:101B600010BD70B506460C461546FFF7ECFE08B9E9
:101B7000002070BD3046FFF79CFFFFF76CFF18B9DF
:101B8000FFF70FFF0020F4E72046FFF792FFFFF773
:101B900062FF2846FFF78DFFFFF75DFFFFF701FFAC
:101BA0000120E6E770B504460D46FFF7CCFE08B904
:101BB000002070BD2046FFF77CFFFFF74CFF18B9EF
:101BC000FFF7EFFE0020F4E72846FFF772FFFFF76C
:101BD00042FFFFF7B8FE611CC8B2FFF76AFFFFF7CC
:101BE0003AFFFFF793FF0646FFF717FFFFF7D9FE0F
:101BF0003046DEE7000C01400002300010B5FFF770
:101C00002FFE01220B211A20FFF7ABFF40222021DB
:101C10001A20FFF7A6FF012221211A20FFF7A1FFBA
:101C20000D2209211A20FFF79CFF0B223121A6204B
:101C3000FFF797FF08222D21A620FFF792FF8022B1
:101C40002E21A620FFF78DFF80223E21D020FFF716
:101C500088FF07221521D020FFF783FF1E221621BF
:101C6000D020FFF77EFF00221721D020FFF779FF59
:101C700000223E21D020FFF774FF10BD2DE9F04176
:101C800005460C4621462846FFF78CFF0646601C99
:101C9000C1B22846FFF786FF074607EB0620BDE8DE
:101CA000F0812DE9F04105460C4621462846FFF714
:101CB00079FF0746601CC1B22846FFF773FF06464E
:101CC00007EB0620BDE8F08110B54FF4A06000F0EE
:101CD00077FA10BD00BF7047704770B505460C46D7
:101CE0000021F84802F039F8C82C01D9002070BD55
:101CF00022462946F44803F0B9F82146F14802F09B
:101D000041F80121EF4802F028F80120EFE700B583
:101D10008BB00121084600F0D0FDEA48143801F0EC
:101D20004FFFE84801F04CFFE8480090E848019078
:101D300000200290C820039000200490802005908D
:101D400000200690079008904FF440500990002022
:101D50000A906946DB48143801F0D4FF0121D948C4
:101D6000143801F0FAFFD9480090D74801901020AC
:101D7000029009200390002004908020059000200C
:101D80000690079008904FF48050099000200A9028
:101D90006946CC4801F0B6FF01224021CB48001F24
:101DA00000F0FCFE01228021C848001F00F0F6FE72
:101DB0000BB000BD08B510208DF8000000208DF894
:101DC000010001208DF802008DF80300684600F044
:101DD000FCF926208DF8000000208DF8010002207B
:101DE0008DF8020001208DF80300684600F0EDF93F
:101DF00008BD10B586B004460121480400F077FD07
:101E00000121052000F066FD0420ADF81400182023
:101E10008DF8170003208DF8160005A9AD4800F0D5
:101E20009DFA0820ADF8140004208DF8170005A9CC
:101E3000A84800F093FA01940020ADF80800ADF82E
:101E40000A00ADF80C00ADF810000C20ADF80E0043
:101E500001A99E48001F00F0E4FDFFF7ABFFFFF76C
:101E600056FF012240F224419848001F00F071FE05
:101E700001219648001F00F060FE40219348001F9A
:101E800000F043FF06B010BD70B502F018FC40F240
:101E900024418E48001F00F041FF10B38B48001F03
:101EA0000088C4B289480088C4B20021854814382B
:101EB00001F053FF8348143801F066FF05462A46B7
:101EC0008349854802F0D2FFFFF719FBC8217D48FE
:101ED000143801F057FF01217A48143801F03DFF12
:101EE00000BF02F0FBFB70BD10B502F0E8FB4FF441
:101EF000001001F04DFF18B14FF4001001F07BFF0E
:101F000002F0ECFB10BD70B505460C4600216D4893
:101F1000643801F022FFC82C01D9002070BD224690
:101F200029466E4802F0A2FF21466648643801F057
:101F300029FF01216348643801F00FFF0120EDE71C
:101F400000B58BB00121084600F0B7FC5D4864384D
:101F500001F036FE5B48503801F032FE60480090D8
:101F60006048019000200290C82003900020049057
:101F70008020059000200690079008904FF4405074
:101F8000099000200A9069464E48503801F0BAFE88
:101F900001214C48503801F0E0FE514800904F4874
:101FA00001901020029009200390002004908020CE
:101FB000059000200690079008904FF480500990FB
:101FC00000200A9069463F48643801F09BFE0122D8
:101FD00040214348001F00F0E1FD012280214048DC
:101FE000001F00F0DBFD0BB000BD08B50D208DF823
:101FF000000000208DF8010001208DF802008DF80E
:102000000300684600F0E1F827208DF8000000206A
:102010008DF8010002208DF8020001208DF80300E8
:10202000684600F0D2F808BD10B586B0044601211C
:10203000880400F05CFC0121092000F04BFC4FF407
:102040008060ADF8140018208DF8170003208DF87B
:10205000160005A9244800F081F94FF40060ADF89E
:10206000140004208DF8170005A91F4800F076F928
:1020700001940020ADF80800ADF80A00ADF80C009E
:10208000ADF810000C20ADF80E0001A91448001F97
:1020900000F0C7FCFFF7A9FFFFF752FF012240F253
:1020A00024410F48001F00F054FD01210C48001F7F
:1020B00000F043FD40210A48001F00F026FE06B054
:1020C00010BD00008000024058020020044400407F
:1020D000900100200008014084030020B00400208B
:1020E00004480040E8030020000C014010B502F055
:1020F000E6FA40F224411F4800F010FE98B11D4856
:102100000088C4B21B48001D0088C4B200211A48D0
:1021100001F023FEC821184801F034FE01211648C1
:1021200001F01BFE00BF02F0D9FA10BD10B502F09D
:10213000C6FA4FF4007001F02BFE18B14FF4007096
:1021400001F059FE02F0CAFA10BD0FB438B505A867
:10215000009032210948009B049A02F031FD0446A8
:1021600000200090E1B20548FFF7CDFE38BC5DF8D5
:1021700014FB0000004800403000024078050020B9
:102180000948804709480047FEE7FEE7FEE7FEE70B
:10219000FEE7FEE7FEE7FEE7FEE7FEE70448054947
:1021A000054A064B704700006B0300083101000828
:1021B00018160020181C00201818002018180020DD
:1021C00031490143314A1160704770B50021002345
:1021D0000F22C47804B32D4C246804F4E064C4F5E1
:1021E000E064210AC1F10403CA40447804FA03F10F
:1021F0008478144021430901254C0678A1550478C0
:1022000004F01F050124AC4005786D11AD0005F107
:10221000E025C5F8004109E0047804F01F05012419
:10222000AC401C4D0678761145F8264070BD1A4A20
:102230000A400243154B1B1F1A60704739B1134AFD
:10224000121D12680243114B1B1D1A6006E00F4A53
:10225000121D126882430D4B1B1D1A607047042823
:1022600008D14FF0E021096941F004014FF0E0226C
:10227000116107E04FF0E021096921F004014FF0FE
:10228000E0221161704700000000FA050CED00E04B
:1022900000E400E080E100E080FFFF1F10B504468D
:1022A000CC48844208D10121042000F02DFB0021FC
:1022B000042000F029FB46E0C748844208D10121F0
:1022C000082000F021FB0021082000F01DFB3AE06F
:1022D000C248844208D10121102000F015FB0021E2
:1022E000102000F011FB2EE0BD48844208D10121EE
:1022F000202000F009FB0021202000F005FB22E057
:10230000B848844208D10121402000F0FDFA0021A4
:10231000402000F0F9FA16E0B348844208D10121C8
:10232000802000F0F1FA0021802000F0EDFA0AE0B0
:10233000AE48844207D10121801500F0E5FA002162
:10234000A01500F0E1FA10BD10B50121084600F01B
:10235000DBFA0021012000F0D7FA10BD2DE9F04191
:10236000024600250026002000230024002791F8C3
:1023700003C00CF00F0591F803C00CF0100CBCF179
:10238000000F03D091F802C04CEA050591F800C097
:10239000BCF1000F31D0146800202BE04FF0010C8D
:1023A0000CFA00F3B1F800C00CEA03069E4220D1FB
:1023B00083004FF00F0C0CFA03F7BC4305FA03FC43
:1023C0004CEA040491F803C0BCF1280F06D14FF089
:1023D000010C0CFA00FCC2F814C00AE091F803C02A
:1023E000BCF1480F05D14FF0010C0CFA00FCC2F80B
:1023F00010C0401C0828D1D31460B1F800C0BCF153
:10240000FF0F34DD546800202EE000F1080C4FF07F
:10241000010808FA0CF3B1F800C00CEA03069E426A
:1024200021D183004FF00F0C0CFA03F7BC4305FADF
:1024300003FC4CEA040491F803C0BCF1280F05D159
:1024400000F1080C08FA0CF8C2F8148091F803C0E7
:10245000BCF1480F07D100F1080C4FF0010808FA51
:102460000CF8C2F81080401C0828CED35460BDE898
:10247000F0814FF6FF710180022181700421C1704B
:1024800070470246002093680B400BB1012000E02A
:10249000002070470146886880B2704702460020DD
:1024A000D3680B400BB1012000E0002070470146CB
:1024B000C86880B2704701617047416170470AB1D6
:1024C000016100E041617047C16070474FF48032A4
:1024D0000A43826181618261826982697047024632
:1024E0000020434B18684FF68073184040EA0210F2
:1024F00008433F4B186070473E49C8617047F0B5CC
:102500000A46002300240021002500F00046B6F111
:10251000004F02D1364EF16901E0354E7168C0F3CB
:10252000034583B200F44016B6F5401F08D121F0F0
:1025300070612F4E766826F070662D4F7E6012E037
:1025400000F48016B6F5801F06D1032606FA05F4BE
:10255000A14341F0706106E0460D360103FA06F62C
:10256000B14341F0706122B1460D360103FA06F61F
:10257000314300F00046B6F1004F02D11C4EF1612C
:1025800001E01B4E7160F0BD30B500228B071C0FBF
:102590000F2303FA04F2164B08338C1053F824303F
:1025A0009343134C08348D1044F8253023468C1087
:1025B00053F824308C07240F00FA04F423430C4C06
:1025C00008348D1044F8253030BD0A49DC310860EC
:1025D0007047000000080140000C0140001001405D
:1025E0000014014000180140001C0140002001407F
:1025F0000000014000002042DF48006840F0010078
:10260000DD49086008464068DC490840DA4948600E
:1026100008460068DA490840D7490860084600685B
:1026200020F4802008600846406820F4FE004860DE
:102630004FF41F0088607047CF49096821F480314A
:10264000CD4A11601146096821F480211160B0F56E
:10265000803F03D0B0F5802F0ED106E0C64909684F
:1026600041F48031C44A116007E0C349096841F46C
:10267000A021C14A116000E000BF00BF704710B543
:1026800001460022002300204A11012A02D1BA4C3F
:10269000236806E0022A02D1B74C236A01E0B64C57
:1026A000636A01F01F02012494401C400CB1012018
:1026B00000E0002010BD38B5002000900024002567
:1026C00000BF3120FFF7DBFF05460098401C00905B
:1026D0000098B0F5A06F01D0002DF2D03120FFF7A7
:1026E000CEFF08B1012400E00024204638BD014699
:1026F0000020A14A106820F0F80040EAC1001060F4
:102700007047A04908607047024600209A4B5868FD
:1027100020F47C1042EA01031843974B586070473D
:1027200098490866704701460020934A506820F097
:1027300003000843506070478F48406800F00C0069
:102740007047014600208C4A506820F0F000084392
:102750005060704701460020874A506820F4E060CE
:1027600008435060704701460020834A506820F4B7
:10277000605040EAC1005060704729B17E4A527AE9
:1027800002437D4B5A7204E07B4A527A82437A4B71
:102790005A7270477B49D831086070470146002063
:1027A000754A506820F4404008435060704700214B
:1027B000714A20321170704A82F82010012802D02C
:1027C00004280AD104E001216B4A2032117005E08F
:1027D0000521694A2032117000E000BF00BF704738
:1027E0006949086070476449096A0143624A116295
:1027F0007047654944390860704730B500210022B0
:10280000002400235C4D6D6805F00C0121B1042902
:1028100005D0082923D105E05C4D056022E05B4D21
:1028200005601FE0544D6D6805F47012524D6D68DF
:1028300005F48034022505EB92421CB9544D5543F2
:1028400005600BE04C4D6D6805F400351DB1504D31
:102850005543056002E04D4D5543056002E04B4D88
:10286000056000BF00BF444D6D6805F0F001090927
:10287000484D6B5C0568DD4045603F4D6D6805F473
:10288000E061090A434D6B5C4568DD4085603A4D67
:102890006D6805F46051C90A3E4D6B5C4568DD40CA
:1028A000C560354D6D6805F44041890B3A4D6B5C50
:1028B000C568B5FBF3F5056130BD29B12E4A5269F3
:1028C00002432D4B5A6104E02B4A526982432A4B42
:1028D0005A61704729B1284A92690243264B9A618E
:1028E00004E0254A92698243234B9A61704729B1DB
:1028F000214AD2690243204BDA6104E01E4AD269C0
:1029000082431D4BDA61704729B11B4AD2680243EA
:10291000194BDA6004E0184AD2688243164BDA6039
:10292000704729B1144A12690243134B1A6104E03B
:10293000114A12698243104B1A617047124940399B
:10294000086070470F49C86470470B49C8717047E9
:102950000948406A40F08070074948627047014664
:102960000020054A92680A400AB1012000E00020D8
:102970007047014988727047001002400000FFF85C
:10298000FFFFF6FE000042428004424200127A003D
:1029900000093D00B0000020C000002010B5044632
:1029A000FB48844209D101218803FFF7ADFF0021D4
:1029B0004FF48040FFF7A8FF32E0F648844209D187
:1029C00001214804FFF7ADFF00214FF40030FFF76D
:1029D000A8FF25E0F048844209D101218804FFF7CF
:1029E000A0FF00214FF48020FFF79BFF18E0EB4889
:1029F000844209D10121C804FFF793FF00214FF45D
:102A00000020FFF78EFF0BE0E548844208D101214A
:102A10000805FFF786FF00214FF48010FFF781FFC4
:102A200010BD2DE9F04786B005460E460024A246AB
:102A300000BFA1460027B08900B100BF2F462C8AF5
:102A40004CF6FF700440F08804432C82AC894EF6AB
:102A5000F3100440B0883189084371890843044366
:102A6000AC81AC8A4FF6FF400440B0890443AC828D
:102A700001A8FFF7C2FEC648874202D1DDF810A0C8
:102A800001E0DDF80CA0A88900F4004040B10AEB99
:102A9000CA0000EB0A1031684900B0FBF1F807E00A
:102AA0000AEBCA0000EB0A1031688900B0FBF1F8AC
:102AB0006420B8FBF0F004012009642101FB1089B7
:102AC000A88900F4004040B1322000EBC900B0FBFF
:102AD000F1F000F00700044308E0322000EB091099
:102AE0006421B0FBF1F000F00F0004432C8106B02C
:102AF000BDE8F0874FF41651016000218180C1804C
:102B000001810C21418100218181704710B502466D
:102B10000020108A4FF2FF0318400B884C88234393
:102B20008C882343CC8823431843108210BD002196
:102B3000018041808180C180704721B1828942F447
:102B40000052828104E082894DF6FF731A4082812F
:102B50007047F0B50346002400260025002040F60B
:102B60006A17B94200D100BF1846C1F3421401F000
:102B70001F06012707FA06F5012C01D10C3004E0ED
:102B8000022C01D1103000E014301AB107682F4335
:102B9000076002E00768AF430760F0BD1AB1838A9F
:102BA0000B43838202E0838A8B4383827047028ACD
:102BB0004FF6F0731A400282028A0A43028270477B
:102BC00082894FF2FF731A40828182890A4382818F
:102BD000704721B1828942F00202828104E0828939
:102BE0004FF6FD731A4082817047028A4FF6DF73F9
:102BF0001A400282028A0A430282704721B1028A85
:102C000042F48042028204E0028A4BF6FF731A40CB
:102C100002827047C1F308028280704701468888AB
:102C2000C0F308007047818941F00101818170473C
:102C3000028BD2B20283028B42EA012202837047E6
:102C4000028B02F47F420283028B0A4302837047A5
:102C500021B1828A42F02002828204E0828A4FF609
:102C6000DF731A408282704721B1828A42F01002DB
:102C7000828204E0828A4FF6EF731A4082827047A4
:102C800021B1828A42F00802828204E0828A4FF6F1
:102C9000F7731A408282704721B1828942F4004260
:102CA000828103E08289C2F30E028281704721B1E2
:102CB000828A42F40062828204E0828A4FF2FF73C9
:102CC0001A4082827047828A4FF6FB731A408282D2
:102CD000828A0A438282704721B1828A42F00202CC
:102CE000828204E0828A4FF6FD731A408282704726
:102CF00002460020B1F5007F00D100BF13880B40D1
:102D00000BB1012000E00020704701F40072B2F521
:102D1000007F00D100BFCA430280704770B50246F1
:102D2000002400230025002040F66A16B14200D19D
:102D300000BFC1F3421501F01F03012606FA03F399
:102D4000012D02D19689334006E0022D02D1168A68
:102D5000334001E0968A33400C12012606FA04F44F
:102D60001688344013B10CB1012000E0002070BD82
:102D700010B50022002340F66A14A14200D100BF22
:102D80000A1201249440A3B2DC43048010BD000069
:102D9000003801400044004000480040004C004022
:102DA0000050004010B50446FE48844208D101217D
:102DB000C014FFF7A9FD0021E014FFF7A5FDC4E052
:102DC000B4F1804F08D101210846FFF7AAFD002188
:102DD0000120FFF7A6FDB8E0F348844208D10121A5
:102DE0000220FFF79EFD00210220FFF79AFDACE0D4
:102DF000EE48844208D101210420FFF792FD002112
:102E00000420FFF78EFDA0E0E948844208D10121AB
:102E10000820FFF786FD00210820FFF782FD94E0DF
:102E2000E448844208D101211020FFF77AFD0021F7
:102E30001020FFF776FD88E0DF48844208D10121A9
:102E40002020FFF76EFD00212020FFF76AFD7CE0C7
:102E5000DA48844208D101214014FFF755FD0021D2
:102E60006014FFF751FD70E0D548844209D101217B
:102E7000C804FFF749FD00214FF40020FFF744FD8F
:102E800063E0D048844209D101210805FFF73CFDE9
:102E900000214FF48010FFF737FD56E0CA48844206
:102EA00009D101214805FFF72FFD00214FF4001043
:102EB000FFF72AFD49E0C548844208D1012140209E
:102EC000FFF72FFD00214020FFF72BFD3DE0C0481C
:102ED000844208D101218020FFF723FD00218020BA
:102EE000FFF71FFD31E0BB48844208D10121801566
:102EF000FFF717FD0021A015FFF713FD25E0B648E9
:102F0000844209D101210804FFF7FEFC00214FF49F
:102F10008030FFF7F9FC18E0B048844209D1012164
:102F20004804FFF7F1FC00214FF40030FFF7ECFC00
:102F30000BE0AB48844208D101218804FFF7E4FC90
:102F400000214FF48020FFF7DFFC10BD0022028833
:102F5000944B98420ED0994B98420BD0B0F1804FD1
:102F600008D0914B984205D0904B984202D0904B9C
:102F7000984204D14FF68F731A404B881A438D4BF9
:102F8000984207D08C4B984204D04FF6FF431A402A
:102F9000CB881A4302808B8883850B880385814BFD
:102FA00098420BD0854B984208D08B4B984205D065
:102FB0008A4B984202D08A4B984201D10B7A038601
:102FC00001238382704770B5002400220023058C02
:102FD0004FF6FE7635400584028C8388048B4FF6CD
:102FE0008F752C40B51E2C400D882C43751E2A4031
:102FF0000D892A434D882A436A4DA8420BD06F4D54
:10300000A84208D0744DA84205D0744DA84202D001
:10301000734DA84213D14FF6F7752A404D892A43C4
:103020004FF6FB752A408D882A434FF6FF652B40EB
:103030004FF6FF552B408D892B43CD892B43838041
:103040000483CD888586028470BD70B5002400227B
:103050000023058C4FF6EF7635400584028C83887B
:10306000048B48F6FF752C404FF6FF452C400D8829
:103070004FF6FF7606EA05252C434FF6DF752A400A
:103080000D8906EA05152A434D8806EA05152A43E7
:10309000444DA84202D0494DA8421DD14FF67F753C
:1030A0002A404D894FF6FF7606EA05152A434FF66A
:1030B000BF752A408D8806EA05152A434FF6FF356D
:1030C0002B404FF2FF752B408D8906EA85052B4377
:1030D000CD8906EA85052B4383800483CD88058747
:1030E000028470BD70B5002400220023058C4FF6C9
:1030F000FF6635400584028C8388848B4FF68F757C
:103100002C404FF6FC752C400D882C434FF6FF5594
:103110002A400D894FF6FF7606EA05252A434D8899
:1031200006EA05252A431F4DA84202D0234DA84296
:103130001DD14FF2FF752A404D894FF6FF7606EA02
:1031400005252A434FF6FF352A408D8806EA0525D6
:103150002A434EF6FF752B404DF6FF752B408D89A7
:1031600006EA05152B43CD8906EA05152B43838016
:103170008483CD888587028470BD70B500220023CA
:103180000024058C4EF6FF7635400584038C848838
:10319000828B48F6FF752A404FF6FF452A400D887E
:1031A00020E00000002C0140000400400008004026
:1031B000000C0040001000400014004000340140AA
:1031C000004C0140005001400054014000180040F4
:1031D000001C00400020004000400140004401402D
:1031E000004801404FF6FF7606EA05252A434DF6D2
:1031F000FF752B400D8906EA05352B434D8806EAFD
:1032000005352B43FA4DA84202D0FA4DA84208D109
:103210004BF6FF752C408D894FF6FF7606EA851533
:103220002C4384808283CD88A0F84050038470BDF5
:10323000828B4FF2FF331A408283828B4FF6FF73EB
:1032400003EA01231A4382837047F0B50C46154602
:10325000002200210026078C4EF6FF7C07EA0C07AF
:103260000784828B018C4FF6FF7707EA043640F61D
:10327000FF473A404FF6FF7707EA05273A434FF6F4
:10328000FF7707EA03373A43D94FB8420ED0D94FF8
:10329000B8420BD0B0F1804F08D0D74FB84205D01C
:1032A000D64FB84202D0D64FB84206D14DF6FF777E
:1032B000394046F48057394305E047F6FF57394017
:1032C00044F48057394382830184F0BD828B4FF6EA
:1032D000F3731A408283828B0A4382837047F0B56E
:1032E0000C461546002200210026078C4FF6FF6C85
:1032F00007EA0C070784828B018C4FF6FF7707EAF9
:1033000004264FF60C773A404FF6FF7707EA03178B
:103310002F433A43B64FB8420ED0B64FB8420BD007
:10332000B0F1804F08D0B44FB84205D0B34FB84287
:1033300002D0B34FB84206D14FF6FF57394046F49A
:103340008077394305E04FF2FF57394044F48077E6
:10335000394382830184F0BD028B4FF2FF331A4060
:103360000283028B4FF6FF7303EA01231A430283A1
:103370007047F0B50C461546002200210026078C48
:103380004FF6EF7C07EA0C070784028B018C4FF69F
:10339000FF7707EA041640F6FF473A404FF6FF77FB
:1033A00007EA03373A434FF6FF7707EA05273A4320
:1033B0008F4FB8420ED08F4FB8420BD0B0F1804F34
:1033C00008D08D4FB84205D08C4FB84202D08C4FF8
:1033D000B84206D14FF6DF77394046F0100739433F
:1033E00005E04FF65F77394044F010073943028318
:1033F0000184F0BD028B4FF6F3731A400283028BF7
:103400000A4302837047F0B50C461546002200219E
:10341000068C4FF6FE773E400684028B018C4FF6F9
:103420000C7632407E1C06EA03162E433243704E61
:10343000B0420ED06F4EB0420BD0B0F1804F08D0EA
:103440006D4EB04205D06D4EB04202D06C4EB042CF
:1034500006D14FF6FD76314044F00106314305E0D8
:103460004FF6F576314044F0010631430283018482
:10347000F0BD70B505460C465D4885420ED05D48EE
:1034800085420BD0B5F1804F08D05B48854205D00E
:103490005A48854202D05A48854200D100E000BF18
:1034A000208850B92389A28861882846FFF7ABFF9E
:1034B000E1882846FFF79EFF25E0208804280AD1EE
:1034C0002389A28861882846FFF753FFE1882846B0
:1034D000FFF742FF17E0208808280AD12389A28835
:1034E00061882846FFF7FBFEE1882846FFF7EEFEDD
:1034F00009E02389A28861882846FFF7A6FEE188B3
:103500002846FFF795FE70BD2DE9F04105460C46B3
:1035100000260127608808B9022600E00026A0885E
:10352000012801D1022700E001272088A0B92389C2
:10353000A28861882846FFF766FFE1882846FFF7E2
:1035400059FF23893A4631462846FFF712FFE188A2
:103550002846FFF701FF13E02389A28861882846E7
:10356000FFF707FFE1882846FFF7F6FE23893A4672
:1035700031462846FFF747FFE1882846FFF73AFF24
:10358000BDE8F0810A884B881A438B881A43CB88A0
:103590001A430B891A434B891A438B891A43A0F8A3
:1035A000442070474FF6FF71818000210180C18067
:1035B0004180017270470021018041808180C1807B
:1035C000018141818181C181704700210180418059
:1035D000012181800021C18001817047002101808B
:1035E00041808180C18001814181818170470000DB
:1035F000002C01400034014000040040000800405D
:10360000000C004021B1028842F00102028004E077
:1036100002884FF6FE731A400280704731B1B0F84D
:10362000442042F40042A0F8442005E0B0F84420D1
:10363000C2F30E02A0F8442070471AB183890B43ED
:10364000838102E083898B43838170478182704745
:1036500041EA0203A0F8483070471AB183890B434E
:10366000838102E083898B438381704701894FF610
:10367000F8721140018170470A46002101894FF616
:103680008F73194011430181704730B504460D46D0
:1036900029462046FFF7F0FF208940F007002081EF
:1036A00030BD2DE9F04104460D4616461F46602DFB
:1036B00006D13B46012231462046FFF75AFE05E07F
:1036C0003B46012231462046FFF79DFE2946204613
:1036D000FFF7D2FF208940F007002081BDE8F0818C
:1036E00030B50C4600210189C9B24FF6FF7505EAD5
:1036F0000325154325432943018130BD2DE9F041C0
:1037000005460E4617469846002443463A4631463B
:103710002846FFF7E5FF2C894FF6F870044044F087
:1037200007044FF68F70044044F070042C81BDE80C
:10373000F081F0B504460D4616461F463B4632461C
:1037400029462046FFF7CCFF208940F480402081A5
:10375000F0BD0185828270470A46002101884FF63C
:103760008F731940114301807047F0B50C46154620
:103770001E460021002200230189028B038C4FF694
:10378000F877394021434FF6FC473A4040F20117A1
:103790003A434FF6DD773B404FF6FF7707EA0617CF
:1037A0002F433B43018102830384F0BD0A4600217D
:1037B000018B4FF68F7319401143018370470A46FE
:1037C0000021018B48F6FF7319404FF6FF7303EA9F
:1037D00002231943018370470A460021818B4FF66B
:1037E0008F7319401143818370470A460021818BF2
:1037F00048F6FF7319404FF6FF7303EA022319439B
:103800008183704721B1028842F08002028004E087
:1038100002884FF67F731A400280704721B1828878
:1038200042F00402828004E082884FF6FB731A4063
:103830008280704721B1828842F00802828004E0D1
:1038400082884FF6F7731A408280704721B18288D0
:1038500042F00102828004E082884FF6FE731A4033
:10386000828070470A460021018B4FF6F77319409A
:103870001143018370470A460021018B4FF2FF7309
:1038800019404FF6FF7303EA02231943018370477F
:103890000A460021818B4FF6F7731940114381834B
:1038A00070470A460021818B4FF2FF7319404FF693
:1038B000FF7303EA02231943818370470A460021FC
:1038C000018B4FF6FB7319401143018370470A4681
:1038D0000021018B4FF6FF3319404FF6FF7303EAC7
:1038E00002231943018370470A460021818B4FF65A
:1038F000FB7319401143818370470A460021818B75
:103900004FF6FF3319404FF6FF7303EA02231943C2
:10391000818370470A460021018B4FF67F7319405F
:103920001143018370470A460021018BC1F30E0148
:103930004FF6FF7303EA02231943018370470A46D7
:103940000021818B4FF67F731940114381837047AB
:103950000A460021818BC1F30E014FF6FF7303EA83
:1039600002231943818370470A460021018C4FF6D8
:10397000FD7319401143018470470A460021018CF0
:103980004FF6F77319401143018470470A4600212E
:10399000018C4FF6DF7319404FF6FF7303EA0213F1
:1039A0001943018470470A460021018C4FF67F734A
:1039B00019404FF6FF7303EA02131943018470475D
:1039C0000A460021018C4FF6FF5319404FF6FF7352
:1039D00003EA02231943018470470A460021018C3F
:1039E0004FF2FF7319404FF6FF7303EA02231943A6
:1039F000018470470A460021018C4DF6FF7319407F
:103A00004FF6FF7303EA023319430184704730B560
:103A1000002301248C40A3B2048C9C430484048CB6
:103A200002FA01F5ADB22C43048430BD30B5002359
:103A300004248C40A3B2048C9C430484048C02FABA
:103A400001F5ADB22C43048430BD70B503460020AF
:103A500000241846183001258D40ACB21D8CA543BA
:103A60001D8409B1082909D100EB6100056825F022
:103A7000700505600568154305600EE00D1FC5F370
:103A80004E052844056825F4E045056005684FF6B5
:103A9000FF7606EA02263543056070BD21B1028833
:103AA00042F00202028004E002884FF6FD731A40E1
:103AB0000280704721B1028842F00402028004E0D3
:103AC00002884FF6FB731A400280704721B182884A
:103AD00042F08002828004E082884FF67F731A40B1
:103AE0008280704702884FF6F7731A40028002887E
:103AF0000A430280704782884FF68F731A40828093
:103B000082880A438280704702894FF6F8731A4010
:103B1000028102890A430281704702894FF67F734E
:103B20001A40028102890A430281704781847047EA
:103B3000818570478186704701877047818770470C
:103B4000A0F84010704702884FF6FF431A400280E9
:103B500002880A43028070470146888E70470146FA
:103B6000088F70470146888F70470146B1F84000C2
:103B700070470146888C70470146088D70470246A1
:103B80000020138A0B400BB1012000E00020704799
:103B9000CA430282704730B5024600200023002449
:103BA000158A05EA0103958905EA010413B10CB1F0
:103BB000012000E0002030BDCA43028270470000AF
:103BC00001684FF6FE721140016000210160416002
:103BD0008160C1608D49884208D18C4908394968A3
:103BE00041F00F01894A083A51608AE0874914314F
:103BF000884208D185490839496841F0F001834A73
:103C0000083A51607DE081492831884208D17F49D6
:103C10000839496841F470617C4A083A516070E0A3
:103C20007A493C31884208D178490839496841F4D9
:103C30007041764A083A516063E0744950318842D5
:103C400008D172490839496841F470216F4A083A2D
:103C5000516056E06D496431884208D16B4908399A
:103C6000496841F47001694A083A516049E067497E
:103C70007831884208D165490839496841F0706156
:103C8000624A083A51603CE06149884206D1011F0E
:103C9000096841F00F01021F116032E05C491431E4
:103CA000884208D15A49091F096841F0F001584A71
:103CB000121F116025E056492831884208D1544925
:103CC000091F096841F47061514A121F116018E020
:103CD0004F493C31884208D14D49091F096841F4D8
:103CE00070414B4A121F11600BE049495031884224
:103CF00007D14749091F096841F47021444A121F3E
:103D00001160704710B50022026847F6F0739A43BD
:103D10000C6A8B6823430C6923434C6923438C69E9
:103D20002343CC6923434C6A23438C6A23431A43BD
:103D30000260CB6843600B6883604B68C36010BD52
:103D40000021016041608160C16001614161816168
:103D5000C161016241628162704721B1026842F033
:103D60000102026004E002684FF6FE731A4002602E
:103D700070471AB103680B43036002E003688B438A
:103D800003607047416070470146486880B27047E1
:103D900001460020002201F080531BB11C4B083B60
:103DA0001A6802E0194B083B1A6802EA01030BB1DA
:103DB000012000E00020704700F0805119B1144943
:103DC000091F086002E01149083948607047014640
:103DD0000020002201F080531BB10D4B083B1A68F4
:103DE00002E00A4B083B1A6802EA01030BB101200A
:103DF00000E00020704700F0805119B10449091F0C
:103E0000086002E001490839486070470800024034
:103E10000804024010B5024608464FF08073036064
:103E2000031F18461A606FF00104031F18461C6038
:103E30004FF01234031F18461C604FF00334031F69
:103E400018461C604FF00234031F18461C606410B3
:103E5000031F18461C600024031F18461C604FF007
:103E60001134031F18461C604FF01034031F18460E
:103E70001C604FF00934031F18461C604FF00834D3
:103E8000031F18461C604FF00734031F18461C60C0
:103E90004FF00634031F18461C604FF00534031F13
:103EA00018461C604FF00434031F18461C6010BDF8
:103EB00010B5044600F0EAFD0020F8490861F84812
:103EC0000068C008F749B0FBF1F060434FF0E02113
:103ED00048610020F449096808704FF0E0218861CA
:103EE0000320086100F0D4FD10BD01B500F0CEFD47
:103EF0004FF47A7100984843B0FBF1F0401CEB4955
:103F00000968C86200F023FE00F0C2FD00BFE74868
:103F10000068C06A0028FAD108BD10B5DF480078F3
:103F200001281DD100F0B2FDDC488078002815DDA5
:103F3000DA488078401ED94988700846807850B9A0
:103F40000846407820B900F0A3FD00F000FE07E02D
:103F500000F09EFD04E000F09BFD01E000F098FD04
:103F600010BD70B505460E4600F090FDCF480068C4
:103F70004068A84218D1C948407878BBC7488078C3
:103F800060BBCA480068008900EB800101EBC000FB
:103F9000C74901EB800080F82A60C6480068C34921
:103FA000086000F0D4FD19E0012414E004EB840063
:103FB00000EBC400BE4901EB80004068A84208D174
:103FC00004EB840000EBC40001EB800080F82A6061
:103FD00003E0601CC4B2102CE8DB00BF00F058FD09
:103FE00070BD10B5AD48007801280FD100F04EFD2E
:103FF000AA48407840B9A9488078FF2804D2A74849
:104000008078401CA549887000F042FD10BD8AB040
:104010002FE1FFF7E6FFA848007801287EDDA648DB
:104020000078401EA449491C085C2F2876D1481E00
:104030000078801E085C2F28F8D10020491E0870E7
:104040009EA19D48401C00F00BFF8146CDF80090DA
:1040500001240AE0B9F1000F05D098A1002000F07A
:10406000FFFE4DF82400601CC4B20A2CF2DB94A1C0
:10407000009800F041FF0028D8D192A1019800F0EB
:104080003BFF10B901209149487091A1019800F0BF
:1040900033FF10B902208D4948708FA1019800F0BC
:1040A0002BFF10B90320894948708BA1029800F0BA
:1040B00023FF10B90120854988708AA1029800F079
:1040C0001BFF10B902208149887080484078012880
:1040D00004D002282DD003282AD155E07B488078CF
:1040E000012802D0022822D100E020E001241BE0B8
:1040F00004EB840202EBC4026D4B03EB820202F17B
:104100000A01039800F0F8FE60B904EB840101EBAA
:10411000C401674A02EB8101486800E0A3E0012185
:10412000FFF71FFF601CC4B2102CE1DB00BF00BF13
:1041300098E066488078012802D0022822D100E069
:1041400020E001241AE004EB840202EBC402584B85
:1041500003EB820202F10A01039800F0CDFE58B988
:1041600004EB840101EBC401514A02EB8101486870
:104170000221FFF7F6FE03E0601CC4B2102CE2DB64
:1041800000BF00BF00BF6DE058A000F033FD434802
:10419000016965A000F02EFD6AA000F02BFD01244E
:1041A00050E0012C1CD104EB840000EBC40040491A
:1041B00001EB8000006B4FF47A714843374909697D
:1041C000B0FBF1FA504602F0E3FF07460022624BD3
:1041D00002F040FE05462A460B4660A000F00AFDAC
:1041E00004EB840000EBC400314901EB8000807ACD
:1041F00030B3012C24DD04EB840000EBC40001EBA0
:104200008000006B4FF47A71484324490969B0FB80
:10421000F1FA504602F0BCFF054600224E4B02F078
:1042200019FE07460B4604EB840000EBC400204A4D
:1042300002EB800000F10A013A464FA000F0DAFCE0
:10424000601CC4B2102CACDB50A000F0D3FC1F48A3
:104250008078012802D0022802D100E000E000BFEF
:1042600000BF00BF00BFFFF758FE4FF47A70FFF7A2
:104270003CFECEE610B500F009FC5249AFF27120C9
:10428000FFF7C8FD0A4948630121094880F85E101C
:10429000AFF28521816300F0FBFB10BD64080020B4
:1042A0000000002040420F00C4000020D800002081
:1042B00078080020DC000020400800202F000000CB
:1042C000636D64006F70656E00000000E000002008
:1042D000636C6F73650000007461736B6D616E6178
:1042E000676500007461736B000000002A2A2A2AA7
:1042F0002A2A2A2A2A2A2A2A2A2A2A2A2A2A2AC880
:10430000CECEF1B9DCC0EDC6F72A2A2A2A2A2A2AFB
:104310002A2A2A2A2A2A2A2A2A2A2A2A2A2A2A2007
:10432000200D0D0A0000000020205461736B5469B9
:104330006D65536C696365436F756E743A202564CF
:10434000200D0A002020435055D5BCD3C3C2CAA3B8
:10435000BA0D0D0A00000000000024402020546126
:10436000736B5F4D616E616765203A2025302E3199
:10437000662525200D0A000020202573203A2025DF
:10438000302E31662525200D0A0000002A2A2A2A0F
:104390002A2A2A2A2A2A2A2A2A2A2A2A2A2A2A2A7D
:1043A0002A2A2A2A2A2A2A2A2A2A2A2A2A2A2A2A6D
:1043B0002A2A2A2A2A2A2A2A2A2A2A2A2A2A2A2067
:1043C000200D0A00EC07002000BFFEE710B500F04A
:1043D0005DFBF749AFF20F00FFF71CFDF5490860E0
:1043E000012081F82A00AFF21F00486000F050FB66
:1043F00010BD10B500F04AFB002404E00020EE4997
:1044000041F82400641C082CF8D3002404E00021A7
:10441000E94820300155641C082CF8D3002404E03E
:104420000021E54828300155641C082CF8D30024ED
:1044300005E0E249E048303040F82410641C082CC4
:10444000F7D3002433E0002004EB840101EBC40126
:10445000D84A42F8210004EB840101EBC40102EBCD
:104460008101486004EB840101EBC40102EB81018E
:10447000088104EB840101EBC40102EB8101887225
:1044800004EB840101EBC40102EB8101C86204EB7F
:10449000840101EBC40102EB8101086304EB840198
:1044A00001EBC40102EB810181F82A00641C102C8D
:1044B000C9D30020C2490861C2490870C049C87206
:1044C00001208872FFF782FFFFF7D4FE0020BC496D
:1044D0000881BD480068BD490860B648BA4908600F
:1044E0003430BB4908600120B54908704FF47A7038
:1044F000FFF7DEFC00F0CCFA10BD2DE9F0470546D1
:104500000F469046994600F0C1FA022401E0601C73
:1045100084B204EB840000EBC400A64951F82000EB
:104520000028F4D100260FE0287800B90EE015F835
:10453000011B04EB840000EBC4009E4A02EB8000E8
:104540000A308155701C86B2202EEDDB00BF41463B
:104550003846FFF75FFC04EB840101EBC401954A88
:1045600042F8210004EB840000EBC400114601EB8B
:10457000800080F82A9004EB840000EBC40001EB7B
:104580008000476004EB840000EBC40001EB800076
:10459000048100F07DFABDE8F08710B500F076FAEE
:1045A0000821102001F0B2FE00F072FA10BD10B523
:1045B0000246012114E001EB810303EBC1037D4CB2
:1045C00004EB83035B68934208D101EB810303EBA7
:1045D000C10304EB830393F82A0003E04B1CD9B218
:1045E0001029E8DB00BF10BD70B5054600F04EFA9B
:1045F000754800684068A84225D0012420E004EBFB
:10460000840000EBC4006B4901EB80004068A842C5
:1046100014D16D480068007A6949C87204EB8400BF
:1046200000EBC400634901EB80006749086000208B
:104630004FF0E021886100F08AFA03E0601CC4B208
:10464000102CDCDB00BF00F023FA70BD70B505460E
:1046500000F01CFA5C4800684068A8422CD0012495
:1046600027E004EB840000EBC400524901EB80001A
:104670004068A8421BD152480481008900EB8001A8
:1046800001EBC0004B4901EB80005149086004EB8D
:10469000840000EBC400474901EB80004A490860F0
:1046A00000204FF0E021886100F051FA03E0601C27
:1046B000C4B2102CD5DB00BF00F0EAF970BD10B514
:1046C00000F0E4F93E484078FF2804DA3C4840789E
:1046D000401C3B49487000F0DBF910BD10B500F0FC
:1046E000D5F937484078002804DD35484078401E29
:1046F0003349487000F0CCF910BD10B5FFF7DFFF6B
:10470000FFF76FFCFFF709FCFFF7E8FF10BD012280
:10471000294920310A54704700BF27492031095CDC
:104720000029FAD00022244920310A54704710B5DC
:104730000446FFF756FC2448006800892549095DB6
:10474000884203D100211C4828300155FFF7E5FBC2
:1047500010BD10B5044600BF17482830005D012881
:10476000FAD0FFF73EFC01211348283001551648C6
:104770000068007A17490855FFF7CFFB10BD0E4AB5
:10478000303242F820107047014600BF0A4A3032EA
:1047900052F821201268094B1B689A42F6D0064A4B
:1047A000303252F82100054B42F8213070470000AA
:1047B000EC05002078080020F0070020C800002049
:1047C0006408002040080020D8000020D400002009
:1047D000DC000020CC0000202848006970474FF022
:1047E000E02080697047F0B503464FF0E026756918
:1047F000366926F002064FF0E0273E61204E36680B
:10480000F608204FB6FBF7F606FB03F400224FF044
:10481000E026B16910E04FF0E026B06988420BD085
:10482000884202D20E1A324402E02E1A0E4432445A
:104830000146A24200D300E0EDE700BF4FF0E026C2
:10484000366946F002064FF0E0273E61F0BD4FF4B6
:104850007A7141434FF47A72B1FBF2F1491C0A4A72
:104860001268D16200BF08490968C96A0129FAD8EB
:104870000021054A1268D1627047000064080020D8
:104880000000002040420F00D800002035E05A48C8
:10489000007828B10020594908705749087004E091
:1048A00056480078401C5549087054480078C8287C
:1048B00020DD5148408830B1012805D0022804D0BD
:1048C000032816D10BE014E013E00020FBF7CEFF25
:1048D0000020FCF70AF801204949087409E001208A
:1048E0004749087400231A4619461846FCF713FB7B
:1048F00000BF00BF0120FFF7F8FAC8E71FB528E0A6
:104900004048B0F90260B0F90650B0F904403E48A2
:104910004068002C01DB214600E061423B4A92687E
:10492000002D01DB2B4600E06B42CDE90032CDE9E2
:10493000021035488368002E01DB304600E07042EB
:1049400002463348816833A0FDF7FFFB6420FFF780
:10495000CCFAD5E704E0FCF7B5FC1420FFF7C5FA64
:10496000F9E708E0FFF73DFBFCF75CF9FFF7D5FA44
:104970000A20FFF7BAFAF5E704E0FCF75EFF0A2029
:10498000FFF7B3FAF9E710B5FDF79EF94FF4E13000
:10499000FDF72FFA4FF4E130FDF746FBFBF74BFF35
:1049A000FDF72CF9FFF725FD0123294AAFF2370166
:1049B00028A0FFF7A2FD0123284AAFF2590128A041
:1049C000FFF79BFD0123284AAFF2770127A0FFF7ED
:1049D00094FD0123274AAFF2DB0127A0FFF78DFDED
:1049E0000123274AAFF25B1126A0FFF786FD00F0F6
:1049F00051F8002010BD0000A0000020E8000020B9
:104A00002C01002068010020F00000201801002087
:104A10000401002050574D3A2564202052696768F0
:104A2000743A25640950574D3A256420204C656638
:104A3000743A25640950574D3A25640954687265E3
:104A4000653A25640961696D3A25640A0000000031
:104A5000B40D00205461736B31000000B40F0020CE
:104A60005461736B32000000B41100205461736B09
:104A700033000000B41300205461736B3400000055
:104A8000B41500205461736B3500000072B6704796
:104A900062B6704772B645484FF0FF0101704FF0A3
:104AA000000484F30988424C4FF08055256062B6BB
:104AB000FEE772B6EFF3098010B3A0F120000460A6
:104AC00000F10400056000F10400066000F104003C
:104AD000076000F10400C0F8008000F10400C0F895
:104AE000009000F10400C0F800A000F10400C0F83C
:104AF00000B000F10400A0F120002E490968086010
:104B00002C482D490A6802601068046800F104000E
:104B1000056800F10400066800F10400076800F170
:104B20000400D0F8008000F10400D0F8009000F1FB
:104B30000400D0F800A000F10400D0F800B000F1AB
:104B4000040080F309884EF0040E62B6704730B45A
:104B5000174C4FF08055256030BC704772B6EFF3AC
:104B60000980A0F12000046000F10400056000F15C
:104B70000400066000F10400076000F10400C0F8C2
:104B8000008000F10400C0F8009000F10400C0F8BB
:104B900000A000F10400C0F800B000F10400A0F192
:104BA0002000FFF7AAFD03490968086022ED00E034
:104BB00004ED00E0D4000020D80000207047000081
:104BC0007CB51D4616460C00009001D02044401EC6
:104BD000074B7B442A4669460190304600F093FC1F
:104BE00005461CB10020694600F0A0FC28467CBDAB
:104BF000610900000FB4044910B503AA029800F03F
:104C0000B9FC10BC5DF814FBAC00002070B50C467C
:104C10000546012A05D02878800600D5EA690023D8
:104C200002E0012305E05B1C934202D2E05C002815
:104C3000F9D1A869E618C01AA861286A1844286240
:104C4000284600F0A8F904E0D5E9012114F8010B89
:104C50009047B442F8D3284600F0B3F970BD000085
:104C60002DE9F0410646002410687529314616A545
:104C700010D000F0B7F9002802DA404213A507E08F
:104C800031688A0701D512A502E0490704D511A5AC
:104C9000012401E000F0AFF900210A2206F1240707
:104CA00009E0B0FBF2FCB0FBF2F302FB1C00303079
:104CB00078541846491C0028F3D123462A4630462A
:104CC000BDE8F04100F0A0B9000000002D00000098
:104CD0002B000000200000002DE9F05F894604460B
:104CE0004FF0000ADFF874B1FB44C0F820A0204662
:104CF000E1688847002874D0252806D0D4E901212E
:104D00009047206A401C2062F1E700265F4620465B
:104D1000E16888472028054607DB312D05D2781940
:104D200010F8200C08B10643F1E7B00701D526F0D2
:104D30000406C4F81CA00027C4F818A02A2D09D026
:104D4000284601F005FF38B304EB8708303DC8F86A
:104D5000185019E059F8041B204604EB87029161B2
:104D6000E1688847012F054618D1E069002820DA5C
:104D700026F020061DE0D8F8180000EB800005EBB7
:104D800040003038C8F818002046E16888470546DA
:104D900001F0DEFE0028EED1012F0AD02E2D08D121
:104DA0002046E16888477F1C0546022F46F0200612
:104DB000C4DBA069002803DA404246F00106A06186
:104DC000F00701D026F010066C2D0BD0682D09D00D
:104DD0004C2D39D06A2D35D0742D35D07A2D33D065
:104DE00016E038E0E1682F4620468847B84205467D
:104DF00009D16C2F26D04FF48060E168064320462D
:104E00008847054604E06C2F1AD04FF480700643A3
:104E10000DB3A5F14100192802D8203546F40066EB
:104E20004A462946204626604E46FBF7BBF980B12C
:104E300001280BD0F61D26F0070000F1080956E7FF
:104E40004020E4E78020D8E70020D6E706F10409F7
:104E50004DE7284652E7206ABDE8F09FA22E0000E9
:104E6000014A00F0B7BC0000EC000020032A40F229
:104E7000308010F0030C00F0158011F8013BBCF1FC
:104E8000020F624498BF11F801CB00F8013B38BF14
:104E900011F8013BA2F1040298BF00F801CB38BF22
:104EA00000F8013B11F0030300F0B684083AC0F0AB
:104EB000088051F8043B083A51F804CBA0E80810E8
:104EC000F5E7121D5CBF51F8043B40F8043BAFF31B
:104ED0000080D20724BF11F8013B11F801CB48BF75
:104EE00011F8012B24BF00F8013B00F801CB48BFAB
:104EF00000F8012B704700004FF0013C50F8042BE4
:104F000051F8043B9A4221D1A2EB0C03934313EADC
:104F1000CC1317D150F8042B51F8043B9A4215D109
:104F2000A2EB0C03934313EACC130BD150F8042BE0
:104F300051F8043B9A4209D1A2EB0C03934313EAC4
:104F4000CC13DBD04FF00000704700BFD01A01BA7D
:104F5000B1FA81F101F0180122FA01F0CB40C1F160
:104F60002001DBB2C0B2C01A2CFA01F3D11A91436E
:104F700011EAC311E6D17047704770477047704718
:104F800010B500F07FFC006810BD10B5044600F0BD
:104F900079FC046010BD70B5044685690068C106DF
:104FA00001D5302600E02026C00707D070BDD4E927
:104FB000012130469047206A401C20626D1EF6D5C4
:104FC00070BD70B5044685690078C00707D170BD13
:104FD000D4E9012120209047206A401C20626D1EE8
:104FE000F6D570BD09684A0501D540B27047C905BC
:104FF000FCD500B2704709684A0501D5C0B27047B8
:10500000C905FCD580B270472DE9F0470D46994699
:105010009246044600F124080168880604D5E06938
:1050200021F01001216000E00120A84201DD471BB2
:1050300000E00027A1697A1902EB0900081AA061B3
:105040002078C00602D42046FFF7A5FF002608E01E
:10505000D4E901211AF806009047206A401C761C0A
:1050600020624E45F4DB2078C0060AD52046FFF7C3
:1050700092FF06E0D4E9012130209047206A401CCD
:105080002062381EA7F10107F4DC07E0D4E9012112
:1050900018F805009047206A401C2062281EA5F1E0
:1050A0000105F3DC2046FFF78CFF2078000602D5CF
:1050B0000220BDE8F0870120FBE711680268006A62
:1050C000530501D508700AE0D30501D5088006E034
:1050D000130603D5C217C1E9000200E008600120F1
:1050E000704770472DE9FF4F0C461E464FF0FF37C3
:1050F0008BB0D2E90001DDF860800A908A46C1F3E6
:105100000A5505B93D46002108464FF00000BAF1A6
:10511000000F00F4400005DA00EB80004FF440017E
:1051200001EA50004FEA9059B9F1010F00DDB9468C
:105130000A9850EA4A000ED044F61050A5F2FF3506
:1051400045432F14B8F1000F1ED07542291E1EDDF5
:10515000C9F100021CE0B8F1010F4FF0000001D0CE
:10516000302103E0F24305E02154401CB042FBDB58
:1051700030460022002121540B99C1F80880C1E972
:1051800000200FB0BDE8F08FBD1B6D1CDEE74A4666
:1051900000DA694206A800F015FC06AB93E80700A8
:1051A00003AB83E8070050460A9900F0F3FC8DE852
:1051B0000700A0F500501F3800900398002D09DD6E
:1051C00042F21F014A46084403A90390684600F0D2
:1051D00052FF08E0A0F500504A461F3803A903908B
:1051E000684600F05CFF8DE807000004000C03D067
:1051F0004FF0FF30410800E01046B8F1000F03D037
:105200000022009215461EE0751E05D400F03EFBFC
:10521000303262556D1EF9D5B3460122084302D0E3
:1052200000227F1C04E02078302801D100227F1E5C
:10523000002A099786D01DE0112D07DA00F026FB21
:10524000303262556D1C50EA0102F5D1084302D09C
:105250000098C8B10EE00021681E05E0235C625C86
:1052600063542254401E491C8142F7DBAB46A81B05
:10527000401E0990002004F80B000B98099AC0F812
:105280000880C0E9002B7CE711264FF0000859E7A1
:105290002DE9F04F88460446D21D22F0070191B057
:1052A000D1E90001CDE90A0101F01EF902460B988F
:1052B000C00F01D02D2007E02068810701D52B20E9
:1052C00002E0202101EAC000032A099001D0072A48
:1052D00005DB03464146204600F01EFB0BE120782B
:1052E000800601D5E06900E00620B8F1650F81462F
:1052F00006D0B8F1660F18D0B8F1670F70D131E061
:105300000020B9F1110F009001DB112301E009F138
:1053100001030AAA01A90CA8FFF7E4FEDDE90C705D
:10532000002609F10105834647E001204B46009025
:105330004FF000470AAA01A90CA8FFF7D3FEDDE948
:105340000DB00C995D46002610B909F101000D1849
:10535000B9EB050003D4C0F1FF3609F10105A5EB57
:1053600009002BE0B9F1010F01DA4FF0010900202B
:10537000B9F1110F0090484601DD112300E003460A
:105380000AAA01A90CA8FFF7ADFEDDE90C704D4695
:1053900000268346207800070AD4AB4500DA5D4634
:1053A00001A8012D04DD411911F8011C302907D095
:1053B0004F4502DA17F1040F04DA012082460FE0AC
:1053C0006D1EEEE7002F02DCED1B3E4403E0781C6F
:1053D000A84200DD7D1CB81B00F1010A4FF0004718
:1053E0002078000703D4AA4501DB4FF0FF3A0021E3
:1053F000B7F1004F0DF143088DF8431024D002207F
:105400002B23002F01DA7F422D230A21021EA0F157
:10541000010000DC5FB197FBF1FC97FBF1F201FBAF
:105420001C7C17460CF1300C08F801CDEEE7A8F112
:10543000010003702188090501D5452100E065219F
:10544000A0F1010800F8011C09980FA9A1EB0807B9
:10545000FF1D00B10120411901EBEA70A169384438
:10546000081A401EA0612078C00602D42046FFF72B
:1054700092FD099828B1D4E901219047206A401C87
:1054800020622078C00622D52046FFF784FD1EE06A
:10549000002E04DBB34502DD01A8805D00E0302072
:1054A000D4E901219047206A401C2062761CAAF1B1
:1054B00001005FEA000A0AD100F0E0F9C068016863
:1054C000405CD4E901219047206A401C2062281EDC
:1054D000A5F10105DCDC07E0D4E9012118F8010B96
:1054E0009047206A401C2062381EA7F10107F3DCB8
:1054F0002046FFF766FD032011B043E601694A1C10
:1055000002610878704700B58FB0CDE90131002104
:10551000059105497944CDE9031011466846FFF726
:10552000DBFB0FB000BD0000E5FFFFFF0A6802F8DB
:10553000010B0A607047D1E900239A4202D2531C42
:105540000B601070704710B5436913B1AFF3008062
:1055500001E0FFF75BFB012010BD127800F1240190
:105560000A7000224A700122EDE711684FF0FF3205
:10557000E9E70000074B70B50D467B44FFF7C3FF1A
:105580000446284600F08CFA10B14FF0FF3070BD91
:10559000204670BD5BC7FFFF2DE9FF5F15468A46B9
:1055A0000446DFF8AC80F8440027D8E900103E46F6
:1055B000CDE9001010E03AF816106A4602A800F093
:1055C00073FA411C07D02178890603D5E26939189E
:1055D00091420DD80744761C2078800602D5E069F8
:1055E000B84205DDAE42E6DB3AF816000028E2D10B
:1055F000A069C01BA0612046FFF7CDFCD8E90010D0
:10560000CDE90010002017E03AF818106A4602A809
:1056100000F04AFAB0F1FF3F81460BD000250DF1B2
:10562000080B05E0D4E901211BF8050090476D1C2B
:105630004D45F7D308F10100B0428046E4DB206A13
:10564000384420622046FFF7BCFCBDE8FF9F000005
:10565000F62500002DE9F0418046D21D22F0070218
:105660000025D2E90002F52915A614D0011E72F119
:10567000000106DA0023D0EB030063EB020211A65F
:1056800008E0D8F800108B0701D50FA602E0490703
:1056900001D50EA601251146002408F1240704E0D7
:1056A00000F0F4F830323A55641C50EA0102F7D1A8
:1056B0002B46324621464046BDE8F041FFF7A4BCE8
:1056C000000000002D0000002B0000002000000062
:1056D00030B4002100F1240408E002F00705D208EC
:1056E000303542EA4372DB086554491C52EA03052F
:1056F000F3D10468002310A2250708D504F0200484
:105700000C4304D0C46901230CA2641EC46130BCE4
:10571000FFF77ABC10B5044621461068FFF76BFC12
:1057200002462046BDE810400023D1E7D21D22F0FA
:105730000701D1E90023CBE70000000030000000A2
:10574000F0B40D460188090502D5214C7C4402E0E5
:105750001F4C7C440E34002100F1240608E002F0C6
:105760000F071209E75D42EA03721B097754491CCF
:1057700052EA0307F3D102780023120704D5702DF3
:1057800006D009B1022311342246F0BCFFF73CBC1D
:1057900001231034F8E770B504460D462146106821
:1057A000FFF729FC024629462046BDE87040002349
:1057B000C6E7D21D22F00703D3E90023C0E7036840
:1057C000126843F0200303600823C3610023B7E796
:1057D000582400002DE9F04115460E46040002D180
:1057E0002C6804B90BA4204600F08EF904442078FC
:1057F00070B127463146384600F076F904442078E7
:1058000010B1002004F8010B38462C60BDE8F0818F
:105810000027F9E70000000010B5203AC0F00B8027
:10582000B1E81850203AA0E81850B1E81850A0E8A4
:105830001850BFF4F5AF5FEA027C24BFB1E81850FE
:10584000A0E8185044BF18C918C0BDE810405FEA6E
:10585000827C24BF51F8043B40F8043B08BF7047EA
:10586000D20728BF31F8023B48BF11F8012B28BFEF
:1058700020F8023B48BF00F8012B704700487047F2
:10588000D815002000487047B815002030B5B0F199
:105890000A024FEA900E71F100034EEA817EB0EBEE
:1058A0000E0061EB91014FEA101E4EEA017E10EBF3
:1058B0000E0041EB11114FEA102E4EEA016E10EB73
:1058C0000E0041EB11214FEA104E4EEA014E10EB53
:1058D0000E0041EB1141401841F100014FEAD000A8
:1058E00040EA41704FEAD10110EB80054FEA810494
:1058F00044EA907444EB01046D1944EB0404521B18
:10590000A3414FF0000348BF0A3200D530BD401C10
:1059100041F1000130BD00002DE9F0411F46044671
:1059200003260168072A01F4006004DB08B116A50C
:1059300005E016A503E008B115A500E015A521F0C6
:1059400010002060A069C01EA0610FB1401EA061C0
:105950002046FFF720FB4FB1D4E90121384690479C
:10596000206A401C2062C01C206206E0206AFAE720
:10597000D4E9012115F8010B9047761EF8D2204694
:10598000FFF71FFBBDE8F0814E414E006E616E00D7
:10599000494E4600696E660010B5436913B1AFF316
:1059A000008001E0FFF7F8FD012010BD128800F132
:1059B000240182840022C2840122EDE711684FF0A5
:1059C000FF32E9E72DE9F047814616468AB03348B1
:1059D00078440DC88DE80D0030487844801C03AC35
:1059E0000DC884E80D0041F69B300844372190FB38
:1059F000F1F290FBF1F5A5F1800501FB12041B3CCF
:105A000002D56442012000E00020DFF890A080462B
:105A10000027FA44AAF1BE0A0DE0E00709D0324699
:105A2000684607EB47010AEB810100F038FB8DE87F
:105A3000070064107F1C002CEFD1184F7F44AC3F4F
:105A400018E0E80714D007EB04100DF1180A90E8ED
:105A50000E008AE80E00C068F04201D19819089043
:105A6000324606A903A800F01AFB03AB83E807003F
:105A70006D10641C002DE4D132466946B8F1000F68
:105A800003A802D000F0F7FA01E000F008FBC9E932
:105A90000001C9F808200AB0BDE8F087982300008B
:105AA000007B00F08000704770B516460C46054636
:105AB00000F062F8036893F80101012806D0FF2C7A
:105AC0000FD8185D68B101202C7070BDD3F80701A4
:105AD0003246214603F2071303442846BDE87040CE
