:020000040800F2
:10000000480C0020C11A00083D0300083F03000807
:1000100043030008470300084B03000800000000EA
:100020000000000000000000000000004F03000876
:1000300051030008000000005303000855030008A6
:10004000DB1A0008DB1A0008DB1A0008DB1A0008BC
:10005000DB1A0008DB1A0008DB1A0008DB1A0008AC
:10006000DB1A0008DB1A0008DB1A0008DB1A00089C
:10007000DB1A0008DB1A0008DB1A0008DB1A00088C
:10008000DB1A0008DB1A0008DB1A0008DB1A00087C
:10009000DB1A0008DB1A0008DB1A0008DB1A00086C
:1000A000DB1A0008DB1A0008DB1A0008DB1A00085C
:1000B0009505000861080008DB1A0008DB1A000833
:1000C000DB1A0008DB1A0008DB1A0008DB1A00083C
:1000D000DB1A00089F18000819190008DB1A00082D
:1000E000DB1A0008DB1A0008DB1A0008DB1A00081C
:1000F000DB1A0008DB1A0008DB1A0008DB1A00080C
:10010000DB1A0008DB1A0008DB1A0008DB1A0008FB
:10011000DB1A0008DB1A0008DB1A0008DB1A0008EB
:10012000DB1A0008DB1A0008DB1A0008DB1A0008DB
:1001300000F002F800F090F80AA090E8000C824469
:100140008344AAF10107DA4501D100F085F8AFF246
:10015000090EBAE80F0013F0010F18BFFB1A43F0A5
:1001600001031847E45A0000045B0000103A24BF62
:1001700078C878C1FAD8520724BF30C830C144BF0C
:1001800004680C607047000000230024002500264E
:10019000103A28BF78C1FBD8520728BF30C148BFEA
:1001A0000B6070476E2903F0A984702903F0EB857A
:1001B000662905F0DA84652905F0D784672905F0FA
:1001C000D4846129AFF3008003681B0A28BF41F083
:1001D0008001692903F05684642903F0538475294A
:1001E00003F050846F2903F07985782903F0B785EF
:1001F000E92903F01385E42903F01085F52903F0BC
:100200000D85EF2903F07685F82903F0B68503689C
:10021000DB0928BF41F08001632904F0388173298C
:1002200004F03D81E32904F04881F32904F04D8175
:10023000002070471FB504F099F904000020002148
:1002400004F07CFE401C60600020002104F060FE91
:10025000E0601FBD10B510BD04F05BF91146FFF75B
:10026000E9FF00F02CF804F033FA03B4FFF7F2FFD3
:1002700003BC01F0B9FA000010B501F045FA01F035
:10028000ADFA042140F2AF4000F0DFF9472140F21F
:10029000E73000F051F947214FF6FF7000F046FAC1
:1002A0004FF4E13001F0AFFA4FF4E13001F05DFBC3
:1002B000C82000F0DBFCC82000F015FD10BDFFF7E2
:1002C000DBFF2BE01648007810B1002014490870BD
:1002D0001448007810B100201249087012480078C4
:1002E00020B100201049087000F01AFE0F48007875
:1002F00010B100200D4908700D48007810B10020A1
:100300000B4908700B48007810B1002009490870AB
:100310000948007810B1002007490870D2E70000B2
:1003200014000020150000201600002017000020F7
:1003300018000020190000201A000020704700BF9C
:10034000FEE700BFFEE700BFFEE700BFFEE7704725
:1003500070477047704700000CB500200190009076
:100360006C48006840F480306A49086000BF694802
:10037000006800F4003000900198401C0190009843
:1003800018B90198B0F5A06FF1D16248006800F487
:10039000003010B10120009001E000200090009892
:1003A000012843D15C48006840F010005A490860B9
:1003B0000846006820F0030008600846006840F026
:1003C0000200086053484068524948600846406847
:1003D00048600846406840F48060486008464068CD
:1003E00020F47C1048600846406840F4E8104860FB
:1003F0000846006840F08070086000BF454800680B
:1004000000F000700028F9D04248406820F0030056
:10041000404948600846406840F00200486000BF1C
:100420003C48406800F00C000828F9D10CBD10B51C
:10043000FFF792FF10BD10B53648006840F001008C
:1004400034490860084640683449084031494860EA
:1004500008460068324908402E490860084600688E
:1004600020F4802008600846406820F4FE004860C0
:100470004FF41F008860FFF7DAFF4FF00060294952
:10048000086010BD10B5002100200022214B5B68E0
:1004900003F00C0121B1042906D0082928D107E076
:1004A000214B224C236027E01F4B204C236023E08C
:1004B000184B5B6803F47010164B5B6803F48032D2
:1004C000022303EB904022B9194B4343174C23609E
:1004D0000DE0104B5B6803F4003323B1144B43432E
:1004E000124C236003E0104B4343104C236003E0A5
:1004F0000D4B0E4C236000BF00BF064B5B68C3F37F
:1005000003130C4CE15C094B1B68CB40074C236088
:1005100010BD000000100240002002400000FFF863
:10052000FFFFF6FE08ED00E000127A000000002058
:1005300000093D00040000207FB505460C4601215E
:10054000084601F074FEADF80850ADF804400020F4
:10055000ADF80A00ADF8060001A94FF0804002F0A6
:1005600095F901221146900702F007FD1C208DF835
:10057000000000208DF8010003208DF8020001200A
:100580008DF80300684601F0C0FA0121880702F0E7
:10059000D9FC7FBD10B50121880702F09CFF00281F
:1005A00052D0FB480088401CF94908800120F949D5
:1005B0000870F74800880A2190FBF1F201FB120055
:1005C00010B90120F4490870F1480088052190FB1A
:1005D000F1F201FB120010B90120F0490870EC485B
:1005E0000088142190FBF1F201FB120010B90120E8
:1005F000EB490870E6480088642190FBF1F201FBAA
:10060000120010B90120E7490870E14800884FF452
:10061000FA7190FBF1F201FB120010B90120E249DE
:100620000870DB4800884FF47A7190FBF1F201FB0F
:10063000120028B90120DD4908700020D449088043
:100640000121880702F058FF10BD30B589B005467A
:100650000C460121480301F0DDFD0121112001F0CC
:10066000D9FD4FF47070ADF8200018208DF82300EC
:1006700003208DF8220008A9CD4801F00FFBADF84A
:100680001850ADF814400020ADF81A00ADF816006F
:1006900005A9C84802F0FAF87020ADF8040001205E
:1006A000ADF806000020ADF80A000220ADF80C00FD
:1006B00001A9C04802F027F901A9BE4802F065F976
:1006C00001A9BC4802F0AEF901A9BA4802F0F5F957
:1006D0000121B84802F042FC0821B64802F062FD50
:1006E0000821B44802F067FD0821B24802F070FD0D
:1006F0000821B04802F075FD0121AE4802F022FD4C
:100700000121AC4802F01EFC0021AA4802F0B2FE12
:100710000021A84802F0B0FE0021A64802F0AEFE7B
:100720000021A44802F0ACFE09B030BD30B589B05C
:1007300005460C460121022001F079FD01210C2023
:1007400001F068FD4020ADF8040028208DF8070076
:1007500001A9994801F0A2FA4021974801F04DFB08
:100760000120ADF8040028208DF8070001A9934866
:1007700001F094FA0121914801F03FFB01219048DA
:1007800002F0BAFEADF81C50ADF818400020ADF8EC
:100790001E00ADF81A0006A9894802F077F800207B
:1007A000ADF80C00ADF80E000120ADF810000020EF
:1007B000ADF81200ADF8140003A9814802F0F9FA6F
:1007C0000420ADF80C000020ADF80E000120ADF8BB
:1007D00010000020ADF81200ADF8140003A978480D
:1007E00002F0E7FA0820ADF80C000020ADF80E008A
:1007F0000120ADF810000020ADF81200ADF8140093
:1008000003A96F4802F0D5FA0C20ADF80C000020C7
:10081000ADF80E000120ADF810000020ADF8120078
:10082000ADF8140003A9664802F0C3FA1D208DF844
:10083000080001208DF8090002208DF80A0001202F
:100840008DF80B0002A801F060F901220B215C4831
:1008500002F093FB01215A4802F074FB09B030BD4D
:1008600010B55848007800F0800000286FD10121B1
:10087000534802F030FED0B15248007800F04000FA
:10088000A8B15048007800F03F003F280AD14D48F9
:10089000007840F080004B4908704FF6FF704A49DD
:1008A000088004E047480078401C4649087002214F
:1008B000434802F010FE002849D04248007800F07A
:1008C000400078B33F48007840F080003D49087010
:1008D0003B4802F0E1FD3C490880084600883B495E
:1008E000098888420ADA384800884FF6FF710844C0
:1008F00036490988401A3449088006E032480088A1
:1009000032490988401A3049088031480068401C43
:100910002F49086000202B4908700021284802F068
:10092000C3FC14E0FFE70020264908702649088030
:10093000234802F0B1FD254908802248007840F0A4
:1009400040002049087002211D4802F0ADFC2148FA
:10095000007800F08000002877D10121184802F0CB
:10096000BAFDD8B31B48007800F04000B0B3194876
:10097000007800F03F003F2831D11648007840F061
:100980008000144908704FF6FF70134908802BE06F
:100990003C0000201400002016000020150000205C
:1009A0001700002018000020190000201A00002065
:1009B000001001400034014000080140000C0140DB
:1009C000000400401B0000201C0000201E0000202E
:1009D00034000020200000202200002004E098487D
:1009E0000078401C964908700421964802F073FD77
:1009F00058B39348007800F0400038B3904800782E
:100A000040F080008E4908708E4802F048FD8E4903
:100A10000880084600888D49098888420ADA8A4891
:100A200000884FF6FF71084488490988401A8649B2
:100A3000088006E08448008884490988401A824971
:100A4000088000217F4802F041FC13E000207C492F
:100A500008707D4908807B4802F021FD7B490880B1
:100A60007748007840F040007549087002217548C9
:100A700002F02CFC7648007800F0800000286ED14F
:100A80000121704802F027FDD0B17148007800F0D4
:100A90004000A8B16E48007800F03F003F280AD11E
:100AA0006B48007840F08000694908704FF6FF708D
:100AB0006849088004E066480078401C6449087072
:100AC0000821604802F007FD98B36148007800F003
:100AD000400078B35E48007840F080005C490870C0
:100AE000584802F0DFFC5B490880084600885A49F4
:100AF000098888420ADA574800884FF6FF7108448F
:100B000055490988401A5349088006E05148008831
:100B100051490988401A4F49088050480068401CD4
:100B20004E49086000204A4908700021454802F0FB
:100B3000E7FB14E0FFE700204549087045490880BD
:100B4000404802F0AFFC444908804148007840F03A
:100B500040003F49087002213A4802F0D1FB40486A
:100B6000007800F08000002865D10121354802F0AE
:100B7000B2FCD0B13A48007800F04000A8B1384843
:100B8000007800F03F003F280AD13548007840F057
:100B90008000334908704FF6FF703249088004E046
:100BA0002F480078401C2E4908701021254802F07B
:100BB00092FC58B32A48007800F0400038B3284827
:100BC000007840F08000264908701E4802F06DFC55
:100BD00024490880084600882349098888420ADA9F
:100BE000204800884FF6FF7108441F490988401AC1
:100BF0001C49088006E01B4800881B490988401AE8
:100C00001849088000210F4802F094FB13E00020EF
:100C100013490870134908800A4802F046FC12493B
:100C200008800F48007840F040000D49087002210C
:100C3000044802F07FFB1F21024802F05DFC10BD5A
:100C4000200000200004004022000020240000209A
:100C500026000020280000202A0000203800002064
:100C60002C0000202E000020300000202DE9FC5F29
:100C70008246BAF1000F08DBBAF5FA7F01DD4FF4C6
:100C8000FA7A0120FE49086009E0CAF1000ABAF5C3
:100C9000FA7F01DD4FF4FA7A0020F9490860CAEBC7
:100CA000CA00C00000EB400101EBC000432190FBF3
:100CB000F1FB584604F087FB0646F24AF24B04F07B
:100CC000FBF904460022F14B04F0F6F980460022BD
:100CD000EF4B04F049F9CDE9000104F045FBE84988
:100CE0004860BDE8FC9F2DE9FC5F8246BAF1000F29
:100CF00008DBBAF5FA7F01DD4FF4FA7A0120E54905
:100D0000086009E0CAF1000ABAF5FA7F01DD4FF484
:100D1000FA7A0020DF490860CAEBCA00C00000EB85
:100D2000400101EBC000432190FBF1FB584604F069
:100D30004AFB0646D34AD44B04F0BEF904460022CF
:100D4000D24B04F0B9F980460022D14B04F00CF9E3
:100D5000CDE9000104F008FBCE494860BDE8FC9FE6
:100D600070B504460D4645B10021CB4802F086FB24
:100D7000A1B2C94802F084FB07E0A1B2C64802F064
:100D80007DFB0021C44802F07BFB70BD70B50446BA
:100D90000D4645B1A1B2C04802F06CFB0021BE482F
:100DA00002F06AFB07E00021BB4802F063FBA1B23E
:100DB000B94802F061FB70BDB148806810F5966FCC
:100DC00002DAB648AE498860AD488068B0F5966FE3
:100DD00003DD4FF49660AA498860AE48806810F53C
:100DE000966F02DAAD48AB498860AA488068B0F5D2
:100DF000966F03DD4FF49660A649886070472DE931
:100E0000F04704460D46281B04F0F0FCA449086096
:100E100008460168A348006804F034FD8046A248F3
:100E200001689F48006804F02BFE81469F480168D6
:100E3000484604F027FD0746414604F019FC0646E3
:100E40009B480168304604F013FC994908609949B1
:100E50009748006804F0E2FD03D296489449086080
:100E600008E000219248006804F0D8FC02D200207B
:100E70008F4908608A4800688B4908608C48006880
:100E800004F098FCBDE8F0870146002901DA002053
:100E900000E0084670472DE9F04704460D46281B40
:100EA00004F0A4FC8449086008460168834800688F
:100EB00004F0E8FC8046824801687F48006804F03E
:100EC000DFFD81467F480168484604F0DBFC0746A9
:100ED000414604F0CDFB06467B480168304604F0ED
:100EE000C7FB7949086073497748006804F096FDAC
:100EF00003D270487449086008E000217248006815
:100F000004F08CFC02D200206F4908606A48006837
:100F10006B4908606C48006804F04CFCBDE8F08741
:100F20001CB56A4800686A490968884207D367485F
:100F3000006867490968401A6549086006E0644826
:100F4000006862490968401A6149086061480068A0
:100F500061490968884207D35E4800685E490968AC
:100F6000401A5D49086006E05B4800685949096815
:100F7000401A5949086059480078401C5749087080
:100F80003F48416852480068FFF785FF0446FFF775
:100F90007BFF3B4988603F4841684F480068FFF746
:100FA0002EFF0446FFF770FF3A498860FFF704FF01
:100FB0004A4800780A2190FBF1F201FB120070B957
:100FC0002F48406842490968CDE900102C488368E1
:100FD000304881684048026841A000F020FD3B484D
:100FE00000683B4908603B4800683B490860244A68
:100FF00011789068FFF7CAFE264A11789068FFF7CB
:10100000AFFE1CBD2DE9F04704460D46281B04F039
:10101000EDFB3F490860084601683E48006804F05F
:1010200027FB3C4908603C4801683948006804F0E7
:1010300027FD804639480168404604F023FC0646F7
:10104000344801683648006804F01CFC804630488B
:1010500001683448006804F015FC8146414604F0FC
:1010600007FB0746314604F003FB2F490860284878
:101070000068294908602C48006804F09BFB55E093
:10108000D0000020F1D4C853FB2109400000594092
:101090000000E03FE40000200034014050FBFFFF6F
:1010A0008800002060000020900000205C000020EC
:1010B0008C000020008089447C0000205800002023
:1010C0008400002054000020800000203400002014
:1010D00074000020380000207800002070000020FC
:1010E00050574D3A09256420202052696768743AA8
:1010F0000925640950574D3A09256420204C65663E
:10110000743A0925640961696D3A25640D0A000085
:10111000940000209C000020A00000206C00002013
:10112000680000206400002098000020BDE8F087DF
:101130002DE9F04104460021206804F06FFB03D242
:10114000206880F0004020600021606804F066FBA9
:1011500003D2606880F0004060600021A06804F065
:101160005DFB03D2A06880F00040A0600021E06831
:1011700004F054FB03D2E06880F00040E060206996
:10118000E0612169206A04F073FA20620021E068BE
:1011900004F0DCFA13D0E168206A04F03FFC02D2CC
:1011A000E06820620BE0E06880F000452846216A94
:1011B00004F034FC03D2E06880F000402062A169B2
:1011C000206904F05DFC60622069A061616AA0682A
:1011D00004F058FB0646216A606804F053FB07469A
:1011E000E169206804F04EFB8046394604F040FA7D
:1011F0000546314604F03CFA6061BDE8F08100002C
:1012000008B50121082001F005F80121880501F049
:101210000EF84FF44060ADF8000003208DF8020096
:101220001C208DF8030069467C4800F037FD08BD9E
:101230001FB50020ADF804004FF48060ADF80A003F
:101240000001ADF80C004CF2503000906946744833
:1012500002F06FF90121724802F0E9F901217048AA
:1012600002F021FA1FBD10B5FFF7CAFFFFF7E0FF3C
:1012700010BD70B504460E4615460121684802F0BF
:10128000FAF900BF6749664802F0D6FA0028F9D09B
:1012900000222146624802F044FA00BF62496048D9
:1012A00002F0CAFA0028F9D031465D4802F033FA5C
:1012B00000BF5D49891C5A4802F0BEFA0028F8D0E8
:1012C0002946574802F027FA00BF5749891C54485D
:1012D00002F0B2FA0028F8D00121514802F0D7F903
:1012E00070BD70B504460D4600BF4FF400314C4848
:1012F00002F0C4FA0028F8D10121494802F0BBF9F4
:1013000000BF4849464802F097FA0028F9D0002269
:101310002146434802F005FA00BF4349404802F025
:101320008BFA0028F9D001213D4802F080F92946C6
:101330003B4802F0F0F900BF3B49891C384802F0F5
:101340007BFA0028F8D00121354802F094F900BF5B
:101350003449334802F070FA0028F9D001222146BE
:101360002F4802F0DEF900BF2E49491C2C4802F03C
:1013700063FA0028F8D00021294802F094F90121ED
:10138000274802F084F900BF26493F31244802F083
:1013900053FA0028F8D0224802F0BFF9064630463A
:1013A00070BD10B580223E21D020FFF762FF0722DA
:1013B0001521D020FFF75DFF1E221621D020FFF758
:1013C00058FF00221721D020FFF753FF00223E21B3
:1013D000D020FFF74EFF0B223121A620FFF749FF57
:1013E00008222D21A620FFF744FF80222E21A620CF
:1013F000FFF73FFF10BD2DE9F04105460C462146A1
:101400002846FFF76EFF0646601CC1B22846FFF76C
:1014100068FF074607EB0620BDE8F081000C01409D
:1014200000580040010003008200070070B500254D
:1014300000244AF2A550AA490860082048606420A8
:1014400088604042C8600120086100204861032094
:10145000886100BF05E0A24850F824000544601CE4
:10146000C4B29F484068401EA042F4DC9C48C5615D
:1014700000240DE000BF40219A4801F0D9F800286F
:10148000F9D09748015D974801F064F8601CC4B238
:1014900093484068B4EB800FECDB70BD70B500255D
:1014A00000249148006891490968884207D38E4812
:1014B00000688E490968401A8C49086006E08B482C
:1014C000006889490968401A8849086088480068A6
:1014D00088490968884207D38548006885490968B2
:1014E000401A8449086006E082480068804909681B
:1014F000401A804908604AF2A550794908607E4840
:10150000407C083048607D48006818B17948006820
:10151000886004E0774800684042714988607848F4
:10152000006820B1714800686D49C86004E06F48E8
:10153000006840426A49C86040F207106849086183
:10154000432048613820886167480068674908601F
:1015500067480068674908606748407C30B10328E5
:1015600005D0062816D0092862D138E070BD1D21AB
:10157000D020FFF740FF5A49C8611F21D020FFF754
:101580003AFF574908622121D020FFF734FF544920
:1015900048624EE01D21D020FFF72DFF5049C86161
:1015A0001F21D020FFF727FF4D4908622121D020BD
:1015B000FFF721FF4A4948623221A620FFF71BFFAF
:1015C000474988623421A620FFF715FF4449C862C5
:1015D0003621A620FFF70FFF4149086329E01D21AE
:1015E000D020FFF708FF3E49C8611F21D020FFF738
:1015F00002FF3B4908622121D020FFF7FCFE384959
:1016000048623221A620FFF7F6FE35498862342170
:10161000A620FFF7F0FE3249C8623621A620FFF768
:10162000EAFE2F490863002048638863C86300E02E
:1016300000BF00BF002405E0294850F824000544FD
:10164000601CC4B226484068401EA042F4DC244816
:10165000C56100240DE000BF4021224800F0E8FFF2
:101660000028F9D01E48015D1E4800F073FF601C81
:10167000C4B21B484068B4EB800FECDB00BF75E7D9
:1016800070B500251F4800684AF2A551884226D14E
:101690001C484068082822D1002405E0194850F869
:1016A00024000544601CC4B216484068401EA04295
:1016B000F4DC1448C069A84211D112498868FFF7C8
:1016C00012FB1049C868FFF7D1FA0E48007C0A499E
:1016D00008740C48007D88740A48007E487470BD08
:1016E000540400200044004034000020A4000020E6
:1016F00038000020A8000020F8000020E4000020AE
:10170000D00000201C05002010B56FF0040000F090
:1017100046FA2E4800682E49B0FBF1F02D490870BA
:101720000846007800EB4001C1EBC0104FF6FF7196
:1017300001EAC0002849088010BD0146254A1278F8
:101740004A434FF0E0235A6100229A611A46126917
:1017500042F001021A6100BF4FF0E022106900F070
:1017600001021AB100F48032002AF5D04FF0E022D5
:10177000126922F001024FF0E0231A6100229A61FF
:1017800070470146144A12884A434FF0E0235A61D9
:1017900000229A611A46126942F001021A6100BFE2
:1017A0004FF0E022106900F001021AB100F480321B
:1017B000002AF5D04FF0E022126922F001024FF02A
:1017C000E0231A6100229A617047000000000020A7
:1017D00000127A00AC000020AE00002010B54FF4DB
:1017E000A06000F08DF910BD014600BF704700BF3A
:1017F000AA4A128802F04002002AF9D0C2B2A74BCE
:101800001B1D1A80704710B586B00446012144F2B2
:10181000040000F0FFFC4FF40070ADF8140003204A
:101820008DF8160018208DF8170005A99C4800F0C7
:1018300035FA4FF48060ADF8140004208DF81700DD
:1018400005A9974800F02AFA25208DF8000003200A
:101850008DF801008DF8020001208DF80300684624
:1018600000F053F901940020ADF80800ADF80A002B
:10187000ADF80C00ADF810000C20ADF80E0001A979
:10188000864800F06EFD012240F22551834800F0A9
:1018900000FE0121814800F0F0FD06B010BD10B53A
:1018A00040F225517D4800F0D9FE10B37B4800F08E
:1018B00055FEC4B27B48008800F40040C8B979489E
:1018C000008800F4804060B10A2C03D000207549E4
:1018D000088020E07348008840F400407149088087
:1018E00019E00D2C06D16F48008840F480406D4906
:1018F000088010E06B480088C0F30D006A490C5462
:1019000068480088401C6749088008460088C72846
:1019100001DD0020088010BD10B540F2255163485C
:1019200000F09CFE60B1614800F018FEC1B2604852
:1019300002780078401C5E4B18705E48815413E0BA
:1019400040F22441594800F089FE68B157480088A8
:101950005648001D0088FFF793FEC821554802F045
:1019600004F800205249087010BD10B586B0044636
:101970000121042000F04EFC0121480400F057FC36
:101980004A4800F0ABFC0420ADF8100003208DF8AD
:10199000120018208DF8130004A9414800F07EF9C8
:1019A0000820ADF8100004208DF8130004A93C486D
:1019B00000F074F900940020ADF80400ADF80600C2
:1019C000ADF80800ADF80C000C20ADF80A0069462F
:1019D000364800F0C6FC0121344800F04EFD0122DB
:1019E00040F22551314800F054FD012240F22441DB
:1019F0002E4800F04EFD26208DF8140002208DF8B0
:101A0000150003208DF8160001208DF8170005A899
:101A100000F07BF800202849088006B010BD0FB404
:101A200038B505A800902548009A049901F06CFF8C
:101A300000200090214801F079FF85B200240DE0DC
:101A400000BF4021194800F0F3FD0028F9D01B48E1
:101A5000015D164800F07EFD601C84B2AC42EFDBF5
:101A600038BC5DF814FB70B50546002400262846F6
:101A700001F05CFFC6B200BF0DE000BF40210B4883
:101A800000F0D6FD0028F9D00C48015D074800F0B1
:101A900061FD601CC4B2B442EFDB70BD0038014090
:101AA00000080140B4000020340100200044004040
:101AB000B80000201C050020B6000020C402002051
:101AC0000948804709480047FEE7FEE7FEE7FEE7D2
:101AD000FEE7FEE7FEE7FEE7FEE7FEE7044805490E
:101AE000054A064B70470000370400083101000822
:101AF00048060020480C0020480800204808002024
:101B000031490143314A1160704770B5002100230B
:101B10000F22C47804B32D4C246804F4E064C4F5A7
:101B2000E064210AC1F10403CA40447804FA03F1D5
:101B30008478144021430901254C0678A155047886
:101B400004F01F050124AC4005786D11AD0005F1CE
:101B5000E025C5F8004109E0047804F01F050124E0
:101B6000AC401C4D0678761145F8264070BD1A4AE7
:101B70000A400243154B1B1F1A60704739B1134AC4
:101B8000121D12680243114B1B1D1A6006E00F4A1A
:101B9000121D126882430D4B1B1D1A6070470428EA
:101BA00008D14FF0E021096941F004014FF0E02233
:101BB000116107E04FF0E021096921F004014FF0C5
:101BC000E0221161704700000000FA050CED00E012
:101BD00000E400E080E100E080FFFF1F10B5044654
:101BE000CC48844208D10121042000F02DFB0021C3
:101BF000042000F029FB46E0C748844208D10121B7
:101C0000082000F021FB0021082000F01DFB3AE035
:101C1000C248844208D10121102000F015FB0021A8
:101C2000102000F011FB2EE0BD48844208D10121B4
:101C3000202000F009FB0021202000F005FB22E01D
:101C4000B848844208D10121402000F0FDFA00216B
:101C5000402000F0F9FA16E0B348844208D101218F
:101C6000802000F0F1FA0021802000F0EDFA0AE077
:101C7000AE48844207D10121801500F0E5FA002129
:101C8000A01500F0E1FA10BD10B50121084600F0E2
:101C9000DBFA0021012000F0D7FA10BD2DE9F04158
:101CA000024600250026002000230024002791F88A
:101CB00003C00CF00F0591F803C00CF0100CBCF140
:101CC000000F03D091F802C04CEA050591F800C05E
:101CD000BCF1000F31D0146800202BE04FF0010C54
:101CE0000CFA00F3B1F800C00CEA03069E4220D1C2
:101CF00083004FF00F0C0CFA03F7BC4305FA03FC0A
:101D00004CEA040491F803C0BCF1280F06D14FF04F
:101D1000010C0CFA00FCC2F814C00AE091F803C0F0
:101D2000BCF1480F05D14FF0010C0CFA00FCC2F8D1
:101D300010C0401C0828D1D31460B1F800C0BCF119
:101D4000FF0F34DD546800202EE000F1080C4FF046
:101D5000010808FA0CF3B1F800C00CEA03069E4231
:101D600021D183004FF00F0C0CFA03F7BC4305FAA6
:101D700003FC4CEA040491F803C0BCF1280F05D120
:101D800000F1080C08FA0CF8C2F8148091F803C0AE
:101D9000BCF1480F07D100F1080C4FF0010808FA18
:101DA0000CF8C2F81080401C0828CED35460BDE85F
:101DB000F0814FF6FF710180022181700421C17012
:101DC00070470246002093680B400BB1012000E0F1
:101DD000002070470146886880B2704702460020A4
:101DE000D3680B400BB1012000E000207047014692
:101DF000C86880B2704701617047416170470AB19D
:101E0000016100E041617047C16070474FF480326A
:101E10000A438261816182618269826970470246F8
:101E20000020434B18684FF68073184040EA0210B8
:101E300008433F4B186070473E49C8617047F0B592
:101E40000A46002300240021002500F00046B6F1D8
:101E5000004F02D1364EF16901E0354E7168C0F392
:101E6000034583B200F44016B6F5401F08D121F0B7
:101E700070612F4E766826F070662D4F7E6012E0FE
:101E800000F48016B6F5801F06D1032606FA05F485
:101E9000A14341F0706106E0460D360103FA06F6F3
:101EA000B14341F0706122B1460D360103FA06F6E6
:101EB000314300F00046B6F1004F02D11C4EF161F3
:101EC00001E01B4E7160F0BD30B500228B071C0F86
:101ED0000F2303FA04F2164B08338C1053F8243006
:101EE0009343134C08348D1044F8253023468C104E
:101EF00053F824308C07240F00FA04F423430C4CCD
:101F000008348D1044F8253030BD0A49DC310860B2
:101F10007047000000080140000C01400010014023
:101F20000014014000180140001C01400020014045
:101F30000000014000002042DF48006840F001003E
:101F4000DD49086008464068DC490840DA494860D5
:101F500008460068DA490840D74908600846006822
:101F600020F4802008600846406820F4FE004860A5
:101F70004FF41F0088607047CF49096821F4803111
:101F8000CD4A11601146096821F480211160B0F535
:101F9000803F03D0B0F5802F0ED106E0C649096816
:101FA00041F48031C44A116007E0C349096841F433
:101FB000A021C14A116000E000BF00BF704710B50A
:101FC00001460022002300204A11012A02D1BA4C06
:101FD000236806E0022A02D1B74C236A01E0B64C1E
:101FE000636A01F01F02012494401C400CB10120DF
:101FF00000E0002010BD38B500200090002400252E
:1020000000BF3120FFF7DBFF05460098401C009021
:102010000098B0F5A06F01D0002DF2D03120FFF76D
:10202000CEFF08B1012400E00024204638BD01465F
:102030000020A14A106820F0F80040EAC1001060BA
:102040007047A04908607047024600209A4B5868C4
:1020500020F47C1042EA01031843974B5860704704
:1020600098490866704701460020934A506820F05E
:1020700003000843506070478F48406800F00C0030
:102080007047014600208C4A506820F0F000084359
:102090005060704701460020874A506820F4E06095
:1020A00008435060704701460020834A506820F47E
:1020B000605040EAC1005060704729B17E4A527AB0
:1020C00002437D4B5A7204E07B4A527A82437A4B38
:1020D0005A7270477B49D83108607047014600202A
:1020E000754A506820F44040084350607047002112
:1020F000714A20321170704A82F82010012802D0F3
:1021000004280AD104E001216B4A2032117005E055
:102110000521694A2032117000E000BF00BF7047FE
:102120006949086070476449096A0143624A11625B
:102130007047654944390860704730B50021002276
:10214000002400235C4D6D6805F00C0121B10429C9
:1021500005D0082923D105E05C4D056022E05B4DE8
:1021600005601FE0544D6D6805F47012524D6D68A6
:1021700005F48034022505EB92421CB9544D5543B9
:1021800005600BE04C4D6D6805F400351DB1504DF8
:102190005543056002E04D4D5543056002E04B4D4F
:1021A000056000BF00BF444D6D6805F0F0010909EE
:1021B000484D6B5C0568DD4045603F4D6D6805F43A
:1021C000E061090A434D6B5C4568DD4085603A4D2E
:1021D0006D6805F46051C90A3E4D6B5C4568DD4091
:1021E000C560354D6D6805F44041890B3A4D6B5C17
:1021F000C568B5FBF3F5056130BD29B12E4A5269BA
:1022000002432D4B5A6104E02B4A526982432A4B08
:102210005A61704729B1284A92690243264B9A6154
:1022200004E0254A92698243234B9A61704729B1A1
:10223000214AD2690243204BDA6104E01E4AD26986
:1022400082431D4BDA61704729B11B4AD2680243B1
:10225000194BDA6004E0184AD2688243164BDA6000
:10226000704729B1144A12690243134B1A6104E002
:10227000114A12698243104B1A6170471249403962
:10228000086070470F49C86470470B49C8717047B0
:102290000948406A40F0807007494862704701462B
:1022A0000020054A92680A400AB1012000E000209F
:1022B0007047014988727047001002400000FFF823
:1022C000FFFFF6FE000042428004424200127A0004
:1022D00000093D00B9000020C900002010B50446E7
:1022E000FB48844209D101218803FFF7ADFF00219B
:1022F0004FF48040FFF7A8FF32E0F648844209D14E
:1023000001214804FFF7ADFF00214FF40030FFF733
:10231000A8FF25E0F048844209D101218804FFF795
:10232000A0FF00214FF48020FFF79BFF18E0EB484F
:10233000844209D10121C804FFF793FF00214FF423
:102340000020FFF78EFF0BE0E548844208D1012111
:102350000805FFF786FF00214FF48010FFF781FF8B
:1023600010BD2DE9F04786B005460E460024A24672
:1023700000BFA1460027B08900B100BF2F462C8ABC
:102380004CF6FF700440F08804432C82AC894EF672
:10239000F3100440B088318908437189084304432D
:1023A000AC81AC8A4FF6FF400440B0890443AC8254
:1023B00001A8FFF7C2FEC648874202D1DDF810A08F
:1023C00001E0DDF80CA0A88900F4004040B10AEB60
:1023D000CA0000EB0A1031684900B0FBF1F807E0D1
:1023E0000AEBCA0000EB0A1031688900B0FBF1F873
:1023F0006420B8FBF0F004012009642101FB10897E
:10240000A88900F4004040B1322000EBC900B0FBC5
:10241000F1F000F00700044308E0322000EB09105F
:102420006421B0FBF1F000F00F0004432C8106B0F2
:10243000BDE8F0874FF41651016000218180C18012
:1024400001810C21418100218181704710B5024634
:102450000020108A4FF2FF0318400B884C8823435A
:102460008C882343CC8823431843108210BD00215D
:10247000018041808180C180704721B1828942F40E
:102480000052828104E082894DF6FF731A408281F6
:102490007047F0B50346002400260025002040F6D2
:1024A0006A17B94200D100BF1846C1F3421401F0C7
:1024B0001F06012707FA06F5012C01D10C3004E0B4
:1024C000022C01D1103000E014301AB107682F43FC
:1024D000076002E00768AF430760F0BD1AB1838A66
:1024E0000B43838202E0838A8B4383827047028A94
:1024F0004FF6F0731A400282028A0A430282704742
:1025000082894FF2FF731A40828182890A43828155
:10251000704721B1828942F00202828104E08289FF
:102520004FF6FD731A4082817047028A4FF6DF73BF
:102530001A400282028A0A430282704721B1028A4B
:1025400042F48042028204E0028A4BF6FF731A4092
:1025500002827047C1F30802828070470146888872
:10256000C0F308007047818941F001018181704703
:10257000028BD2B20283028B42EA012202837047AD
:10258000028B02F47F420283028B0A43028370476C
:1025900021B1828A42F02002828204E0828A4FF6D0
:1025A000DF731A408282704721B1828A42F01002A2
:1025B000828204E0828A4FF6EF731A40828270476B
:1025C00021B1828A42F00802828204E0828A4FF6B8
:1025D000F7731A408282704721B1828942F4004227
:1025E000828103E08289C2F30E028281704721B1A9
:1025F000828A42F40062828204E0828A4FF2FF7390
:102600001A4082827047828A4FF6FB731A40828298
:10261000828A0A438282704721B1828A42F0020292
:10262000828204E0828A4FF6FD731A4082827047EC
:1026300002460020B1F5007F00D100BF13880B4097
:102640000BB1012000E00020704701F40072B2F5E8
:10265000007F00D100BFCA430280704770B50246B8
:10266000002400230025002040F66A16B14200D164
:1026700000BFC1F3421501F01F03012606FA03F360
:10268000012D02D19689334006E0022D02D1168A2F
:10269000334001E0968A33400C12012606FA04F416
:1026A0001688344013B10CB1012000E0002070BD49
:1026B00010B50022002340F66A14A14200D100BFE9
:1026C0000A1201249440A3B2DC43048010BD000030
:1026D000003801400044004000480040004C0040E9
:1026E0000050004010B50446FE48844208D1012144
:1026F000C014FFF7A9FD0021E014FFF7A5FDC4E019
:10270000B4F1804F08D101210846FFF7AAFD00214E
:102710000120FFF7A6FDB8E0F348844208D101216B
:102720000220FFF79EFD00210220FFF79AFDACE09A
:10273000EE48844208D101210420FFF792FD0021D8
:102740000420FFF78EFDA0E0E948844208D1012172
:102750000820FFF786FD00210820FFF782FD94E0A6
:10276000E448844208D101211020FFF77AFD0021BE
:102770001020FFF776FD88E0DF48844208D1012170
:102780002020FFF76EFD00212020FFF76AFD7CE08E
:10279000DA48844208D101214014FFF755FD002199
:1027A0006014FFF751FD70E0D548844209D1012142
:1027B000C804FFF749FD00214FF40020FFF744FD56
:1027C00063E0D048844209D101210805FFF73CFDB0
:1027D00000214FF48010FFF737FD56E0CA488442CD
:1027E00009D101214805FFF72FFD00214FF400100A
:1027F000FFF72AFD49E0C548844208D10121402065
:10280000FFF72FFD00214020FFF72BFD3DE0C048E2
:10281000844208D101218020FFF723FD0021802080
:10282000FFF71FFD31E0BB48844208D1012180152C
:10283000FFF717FD0021A015FFF713FD25E0B648AF
:10284000844209D101210804FFF7FEFC00214FF466
:102850008030FFF7F9FC18E0B048844209D101212B
:102860004804FFF7F1FC00214FF40030FFF7ECFCC7
:102870000BE0AB48844208D101218804FFF7E4FC57
:1028800000214FF48020FFF7DFFC10BD00220288FA
:10289000944B98420ED0994B98420BD0B0F1804F98
:1028A00008D0914B984205D0904B984202D0904B63
:1028B000984204D14FF68F731A404B881A438D4BC0
:1028C000984207D08C4B984204D04FF6FF431A40F1
:1028D000CB881A4302808B8883850B880385814BC4
:1028E00098420BD0854B984208D08B4B984205D02C
:1028F0008A4B984202D08A4B984201D10B7A0386C8
:1029000001238382704770B5002400220023058CC8
:102910004FF6FE7635400584028C8388048B4FF693
:102920008F752C40B51E2C400D882C43751E2A40F7
:102930000D892A434D882A436A4DA8420BD06F4D1A
:10294000A84208D0744DA84205D0744DA84202D0C8
:10295000734DA84213D14FF6F7752A404D892A438B
:102960004FF6FB752A408D882A434FF6FF652B40B2
:102970004FF6FF552B408D892B43CD892B43838008
:102980000483CD888586028470BD70B50024002242
:102990000023058C4FF6EF7635400584028C838842
:1029A000048B48F6FF752C404FF6FF452C400D88F0
:1029B0004FF6FF7606EA05252C434FF6DF752A40D1
:1029C0000D8906EA05152A434D8806EA05152A43AE
:1029D000444DA84202D0494DA8421DD14FF67F7503
:1029E0002A404D894FF6FF7606EA05152A434FF631
:1029F000BF752A408D8806EA05152A434FF6FF3534
:102A00002B404FF2FF752B408D8906EA85052B433D
:102A1000CD8906EA85052B4383800483CD8805870D
:102A2000028470BD70B5002400220023058C4FF68F
:102A3000FF6635400584028C8388848B4FF68F7542
:102A40002C404FF6FC752C400D882C434FF6FF555B
:102A50002A400D894FF6FF7606EA05252A434D8860
:102A600006EA05252A431F4DA84202D0234DA8425D
:102A70001DD14FF2FF752A404D894FF6FF7606EAC9
:102A800005252A434FF6FF352A408D8806EA05259D
:102A90002A434EF6FF752B404DF6FF752B408D896E
:102AA00006EA05152B43CD8906EA05152B438380DD
:102AB0008483CD888587028470BD70B50022002391
:102AC0000024058C4EF6FF7635400584038C8488FF
:102AD000828B48F6FF752A404FF6FF452A400D8845
:102AE00020E00000002C01400004004000080040ED
:102AF000000C004000100040001400400034014071
:102B0000004C0140005001400054014000180040BA
:102B1000001C0040002000400040014000440140F3
:102B2000004801404FF6FF7606EA05252A434DF698
:102B3000FF752B400D8906EA05352B434D8806EAC3
:102B400005352B43FA4DA84202D0FA4DA84208D1D0
:102B50004BF6FF752C408D894FF6FF7606EA8515FA
:102B60002C4384808283CD88A0F84050038470BDBC
:102B7000828B4FF2FF331A408283828B4FF6FF73B2
:102B800003EA01231A4382837047F0B50C461546C9
:102B9000002200210026078C4EF6FF7C07EA0C0776
:102BA0000784828B018C4FF6FF7707EA043640F6E4
:102BB000FF473A404FF6FF7707EA05273A434FF6BB
:102BC000FF7707EA03373A43D94FB8420ED0D94FBF
:102BD000B8420BD0B0F1804F08D0D74FB84205D0E3
:102BE000D64FB84202D0D64FB84206D14DF6FF7745
:102BF000394046F48057394305E047F6FF573940DE
:102C000044F48057394382830184F0BD828B4FF6B0
:102C1000F3731A408283828B0A4382837047F0B534
:102C20000C461546002200210026078C4FF6FF6C4B
:102C300007EA0C070784828B018C4FF6FF7707EABF
:102C400004264FF60C773A404FF6FF7707EA031752
:102C50002F433A43B64FB8420ED0B64FB8420BD0CE
:102C6000B0F1804F08D0B44FB84205D0B34FB8424E
:102C700002D0B34FB84206D14FF6FF57394046F461
:102C80008077394305E04FF2FF57394044F48077AD
:102C9000394382830184F0BD028B4FF2FF331A4027
:102CA0000283028B4FF6FF7303EA01231A43028368
:102CB0007047F0B50C461546002200210026078C0F
:102CC0004FF6EF7C07EA0C070784028B018C4FF666
:102CD000FF7707EA041640F6FF473A404FF6FF77C2
:102CE00007EA03373A434FF6FF7707EA05273A43E7
:102CF0008F4FB8420ED08F4FB8420BD0B0F1804FFB
:102D000008D08D4FB84205D08C4FB84202D08C4FBE
:102D1000B84206D14FF6DF77394046F01007394305
:102D200005E04FF65F77394044F0100739430283DE
:102D30000184F0BD028B4FF6F3731A400283028BBD
:102D40000A4302837047F0B50C4615460022002165
:102D5000068C4FF6FE773E400684028B018C4FF6C0
:102D60000C7632407E1C06EA03162E433243704E28
:102D7000B0420ED06F4EB0420BD0B0F1804F08D0B1
:102D80006D4EB04205D06D4EB04202D06C4EB04296
:102D900006D14FF6FD76314044F00106314305E09F
:102DA0004FF6F576314044F0010631430283018449
:102DB000F0BD70B505460C465D4885420ED05D48B5
:102DC00085420BD0B5F1804F08D05B48854205D0D5
:102DD0005A48854202D05A48854200D100E000BFDF
:102DE000208850B92389A28861882846FFF7ABFF65
:102DF000E1882846FFF79EFF25E0208804280AD1B5
:102E00002389A28861882846FFF753FFE188284676
:102E1000FFF742FF17E0208808280AD12389A288FB
:102E200061882846FFF7FBFEE1882846FFF7EEFEA3
:102E300009E02389A28861882846FFF7A6FEE18879
:102E40002846FFF795FE70BD2DE9F04105460C467A
:102E500000260127608808B9022600E00026A08825
:102E6000012801D1022700E001272088A0B9238989
:102E7000A28861882846FFF766FFE1882846FFF7A9
:102E800059FF23893A4631462846FFF712FFE18869
:102E90002846FFF701FF13E02389A28861882846AE
:102EA000FFF707FFE1882846FFF7F6FE23893A4639
:102EB00031462846FFF747FFE1882846FFF73AFFEB
:102EC000BDE8F0810A884B881A438B881A43CB8867
:102ED0001A430B891A434B891A438B891A43A0F86A
:102EE000442070474FF6FF71818000210180C1802E
:102EF0004180017270470021018041808180C18042
:102F0000018141818181C18170470021018041801F
:102F1000012181800021C180018170470021018051
:102F200041808180C18001814181818170470000A1
:102F3000002C014000340140000400400008004023
:102F4000000C004021B1028842F00102028004E03E
:102F500002884FF6FE731A400280704731B1B0F814
:102F6000442042F40042A0F8442005E0B0F8442098
:102F7000C2F30E02A0F8442070471AB183890B43B4
:102F8000838102E083898B4383817047818270470C
:102F900041EA0203A0F8483070471AB183890B4315
:102FA000838102E083898B438381704701894FF6D7
:102FB000F8721140018170470A46002101894FF6DD
:102FC0008F73194011430181704730B504460D4697
:102FD00029462046FFF7F0FF208940F007002081B6
:102FE00030BD2DE9F04104460D4616461F46602DC2
:102FF00006D13B46012231462046FFF75AFE05E046
:103000003B46012231462046FFF79DFE29462046D9
:10301000FFF7D2FF208940F007002081BDE8F08152
:1030200030B50C4600210189C9B24FF6FF7505EA9B
:103030000325154325432943018130BD2DE9F04186
:1030400005460E4617469846002443463A46314602
:103050002846FFF7E5FF2C894FF6F870044044F04E
:1030600007044FF68F70044044F070042C81BDE8D3
:10307000F081F0B504460D4616461F463B463246E3
:1030800029462046FFF7CCFF208940F4804020816C
:10309000F0BD0185828270470A46002101884FF603
:1030A0008F731940114301807047F0B50C461546E7
:1030B0001E460021002200230189028B038C4FF65B
:1030C000F877394021434FF6FC473A4040F2011768
:1030D0003A434FF6DD773B404FF6FF7707EA061796
:1030E0002F433B43018102830384F0BD0A46002144
:1030F000018B4FF68F7319401143018370470A46C5
:103100000021018B48F6FF7319404FF6FF7303EA65
:1031100002231943018370470A460021818B4FF631
:103120008F7319401143818370470A460021818BB8
:1031300048F6FF7319404FF6FF7303EA0223194361
:103140008183704721B1028842F08002028004E04E
:1031500002884FF67F731A400280704721B182883F
:1031600042F00402828004E082884FF6FB731A402A
:103170008280704721B1828842F00802828004E098
:1031800082884FF6F7731A408280704721B1828897
:1031900042F00102828004E082884FF6FE731A40FA
:1031A000828070470A460021018B4FF6F773194061
:1031B0001143018370470A460021018B4FF2FF73D0
:1031C00019404FF6FF7303EA022319430183704746
:1031D0000A460021818B4FF6F77319401143818312
:1031E00070470A460021818B4FF2FF7319404FF65A
:1031F000FF7303EA02231943818370470A460021C3
:10320000018B4FF6FB7319401143018370470A4647
:103210000021018B4FF6FF3319404FF6FF7303EA8D
:1032200002231943018370470A460021818B4FF620
:10323000FB7319401143818370470A460021818B3B
:103240004FF6FF3319404FF6FF7303EA0223194389
:10325000818370470A460021018B4FF67F73194026
:103260001143018370470A460021018BC1F30E010F
:103270004FF6FF7303EA02231943018370470A469E
:103280000021818B4FF67F73194011438183704772
:103290000A460021818BC1F30E014FF6FF7303EA4A
:1032A00002231943818370470A460021018C4FF69F
:1032B000FD7319401143018470470A460021018CB7
:1032C0004FF6F77319401143018470470A460021F5
:1032D000018C4FF6DF7319404FF6FF7303EA0213B8
:1032E0001943018470470A460021018C4FF67F7311
:1032F00019404FF6FF7303EA021319430184704724
:103300000A460021018C4FF6FF5319404FF6FF7318
:1033100003EA02231943018470470A460021018C05
:103320004FF2FF7319404FF6FF7303EA022319436C
:10333000018470470A460021018C4DF6FF73194045
:103340004FF6FF7303EA023319430184704730B527
:10335000002301248C40A3B2048C9C430484048C7D
:1033600002FA01F5ADB22C43048430BD30B5002320
:1033700004248C40A3B2048C9C430484048C02FA81
:1033800001F5ADB22C43048430BD70B50346002076
:1033900000241846183001258D40ACB21D8CA54381
:1033A0001D8409B1082909D100EB6100056825F0E9
:1033B000700505600568154305600EE00D1FC5F337
:1033C0004E052844056825F4E045056005684FF67C
:1033D000FF7606EA02263543056070BD21B10288FA
:1033E00042F00202028004E002884FF6FD731A40A8
:1033F0000280704721B1028842F00402028004E09A
:1034000002884FF6FB731A400280704721B1828810
:1034100042F08002828004E082884FF67F731A4077
:103420008280704702884FF6F7731A400280028844
:103430000A430280704782884FF68F731A40828059
:1034400082880A438280704702894FF6F8731A40D7
:10345000028102890A430281704702894FF67F7315
:103460001A40028102890A430281704781847047B1
:1034700081857047818670470187704781877047D3
:10348000A0F84010704702884FF6FF431A400280B0
:1034900002880A43028070470146888E70470146C1
:1034A000088F70470146888F70470146B1F8400089
:1034B00070470146888C70470146088D7047024668
:1034C0000020138A0B400BB1012000E00020704760
:1034D000CA430282704730B5024600200023002410
:1034E000158A05EA0103958905EA010413B10CB1B7
:1034F000012000E0002030BDCA4302827047000076
:1035000010B50446F748844209D101214805FEF769
:10351000A8FE00214FF40010FEF7A3FE08E00121F1
:103520008805FEF79EFE00214FF48000FEF799FE0D
:1035300010BD2DE9F04385B004460D460026B14686
:103540000427DFF8A483A6884FF6C07006406846BB
:10355000FEF7F3FDDDF80880E448B8FBF0F01FFA51
:1035600080F946EA0906A68020884FF6FE710840D9
:1035700020800026DE49286888420CD82868400050
:10358000B8FBF0F087B2042F00DA04273E4309F1BC
:103590000100208427E0E8884BF6FF71884206D1BD
:1035A000286800EB4000B8FBF0F087B209E028681B
:1035B00000EBC00101EB0010B8FBF0F087B247F45C
:1035C0008047C7F30B0008B947F0010747F40040F4
:1035D00006434FF4967009FB00F04FF47A7190FBAC
:1035E000F1F0401C2084A683208840F00100208058
:1035F00026884FF6F5300640A888698908430643B7
:103600002680A88929890843208105B0BDE8F08378
:1036100041F288310160002181804BF6FF71C18049
:103620000021018141814FF480418181704721B1A6
:10363000028842F00102028004E002884FF6FE7325
:103640001A400280704721B1828842F40062828071
:1036500004E082884FF2FF731A408280704721B1E4
:10366000828842F48052828004E082884EF6FF73A2
:103670001A408280704721B1028842F48072028031
:1036800004E002884FF6FF631A400280704721B1C0
:10369000028842F40072028004E002884FF6FF5371
:1036A0001A400280704721B1028842F48062028091
:1036B00004E002884FF6FF331A40028070470A4642
:1036C000002181894FF60173194002F0FE0319436E
:1036D0008181704721B1828942F00102828104E038
:1036E00082894FF6FE731A408281704721B10288A9
:1036F00042F04002028004E002884FF6BF731A4095
:10370000028070471AB183880B43838002E083886C
:103710008B4383807047018270470146088AC0B29C
:10372000704712B141F0010102E04FF6FE731940FB
:103730000182704708B50246002000900092009870
:10374000084400900098008808BD21B1028842F426
:103750000042028003E00288C2F30E02028070473A
:10376000B1F5006F04D1028842F40062028004E0E7
:1037700002884FF2FF731A4002807047B1F5005F74
:1037800004D1028842F40052028004E002884DF61F
:10379000FF731A400280704721B1028842F48052C0
:1037A000028004E002884EF6FF731A4002807047E0
:1037B000B1F5006F04D1028842F40062028004E097
:1037C00002884FF2FF731A400280704721B10288CD
:1037D00042F02002028004E002884FF6DF731A40B4
:1037E000028070470146088B0012704721B10288A1
:1037F00042F01002028004E002884FF6EF731A4094
:103800000280704721B9028842F08002028004E001
:1038100002884FF67F731A4002807047B1F5804FDF
:1038200005D0828B4BF6FF731A40828303E0828BB4
:1038300042F480428283704770B50246002400251E
:1038400000230020958A138B1B0445EA030626F00B
:103850007F4404EA01068E4201D1012000E00020ED
:1038600070BD10B501460020002300228B8A0A8B10
:10387000120443EA020424F07F4010BD0CB5024656
:10388000002000230193009300920B0F019321F07D
:103890007F41019B1BB1009B1433009303E0090C93
:1038A000009B18330093009B1B680B400BB1012059
:1038B00000E000200CBD002221F07F42D343838230
:1038C000704730B5024600200023948801F0E0657F
:1038D00004EA154321F07F41948A0C4054B14BB166
:1038E000012008E00054004000127A0040420F001E
:1038F000A0860100002030BD002221F07F42D3438A
:1039000083827047704700001CB50C46064B7B4411
:1039100069460090204600F00AF9044600206946F6
:1039200000F018F920461CBD4302000010B5431CEE
:1039300002E010F8011B71B18107FAD14FF001329A
:1039400002C88C1A8C4314EAC211F9D0C01A0A06B4
:1039500003D0C01E10BDC01A10BD0A0401D0801EC5
:1039600010BD0902FCD0401E10BD4FF0000200B592
:10397000134694469646203922BFA0E80C50A0E892
:103980000C50B1F12001BFF4F7AF090728BFA0E840
:103990000C5048BF0CC05DF804EB890028BF40F80C
:1039A000042B08BF704748BF20F8022B11F0804F4E
:1039B00018BF00F8012B7047704770477047704779
:1039C00070B5044685690068C10601D5302600E05F
:1039D0002026C00707D070BDD4E9012130469047AA
:1039E000206A401C20626D1EF6D570BD70B504467D
:1039F00085690078C00707D170BDD4E90121202076
:103A00009047206A401C20626D1EF6D570BD096883
:103A10004A0501D540B27047C905FCD500B27047D0
:103A200009684A0501D5C0B27047C905FCD580B206
:103A3000704770B50C460546012A05D028788006E7
:103A400000D5EA69002302E0012305E05B1C9342F4
:103A500002D2E05C0028F9D1A869E618C01AA86172
:103A6000286A184428622846FFF7AAFF04E0D5E92F
:103A7000012114F8010B9047B442F8D32846FFF710
:103A8000B5FF70BD2DE9F041064600241068752988
:103A9000314616A510D0FFF7BAFF002802DA4042DF
:103AA00013A507E031688A0701D512A502E049078E
:103AB00004D511A5012401E0FFF7B2FF00210A227D
:103AC00006F1240709E0B0FBF2FCB0FBF2F302FBC5
:103AD0001C00303078541846491C0028F3D1234686
:103AE0002A463046BDE8F04100F061BA000000000F
:103AF0002D0000002B00000020000000116802686B
:103B0000006A530501D508700AE0D30501D5088085
:103B100006E0130603D5C217C1E9000200E0086001
:103B20000120704701694A1C02610878704700B59E
:103B30008FB0CDE901310021059105497944CDE9E6
:103B400003101146684600F029F90FB000BD0000CF
:103B5000E5FFFFFF0A6802F8010B0A6070470000EA
:103B60002DE9FF5F15468A460446DFF8AC80F8442D
:103B70000027D8E900103E46CDE9001010E03AF8E1
:103B800016106A4602A800F0A4FC411C07D0217858
:103B9000890603D5E269391891420DD80744761C8D
:103BA0002078800602D5E069B84205DDAE42E6DB4A
:103BB0003AF816000028E2D1A069C01BA061204697
:103BC000FFF7FEFED8E90010CDE90010002017E055
:103BD0003AF818106A4602A800F07BFCB0F1FF3FEB
:103BE00081460BD000250DF1080B05E0D4E9012139
:103BF0001BF8050090476D1C4D45F7D308F10100F7
:103C0000B0428046E4DB206A384420622046FFF759
:103C1000EDFEBDE8FF9F0000FE1F00002DE9F04112
:103C20008046D21D22F007020025D2E90002F529C4
:103C300015A614D0011E72F1000106DA0023D0EBA4
:103C4000030063EB020211A608E0D8F800108B070E
:103C500001D50FA602E0490701D50EA601251146A0
:103C6000002408F1240704E000F05CF930323A55F2
:103C7000641C50EA0102F7D12B46324621464046E9
:103C8000BDE8F04100F093B9000000002D000000F5
:103C90002B0000002000000030B4002100F12404BB
:103CA00008E002F00705D208303542EA4372DB082B
:103CB0006554491C52EA0305F3D10468002310A29D
:103CC000250708D504F020040C4304D0C46901235F
:103CD0000CA2641EC46130BC00F069B910B5044682
:103CE00021461068FFF79CFE02462046BDE81040C2
:103CF0000023D1E7D21D22F00701D1E90023CBE751
:103D00000000000030000000F0B40D4601880905F5
:103D100002D5214C7C4402E01F4C7C440E3400212F
:103D200000F1240608E002F00F071209E75D42EAFD
:103D300003721B097754491C52EA0307F3D1027836
:103D40000023120704D5702D06D009B102231134C7
:103D50002246F0BC00F02BB901231034F8E770B50F
:103D600004460D4621461068FFF75AFE02462946D2
:103D70002046BDE870400023C6E7D21D22F00703AD
:103D8000D3E90023C0E70368126843F0200303600F
:103D90000823C3610023B7E7601E00002DE9F05F30
:103DA000894604464FF0000ADFF874B1FB44C0F8BE
:103DB00020A02046E1688847002874D0252806D036
:103DC000D4E901219047206A401C2062F1E70026D7
:103DD0005F462046E16888472028054607DB312DED
:103DE00005D2781910F8200C08B10643F1E7B007A6
:103DF00001D526F00406C4F81CA00027C4F818A0BA
:103E00002A2D09D0284601F07CF838B304EB870846
:103E1000303DC8F8185019E059F8041B204604EB4F
:103E200087029161E1688847012F054618D1E06952
:103E3000002820DA26F020061DE0D8F8180000EB54
:103E4000800005EB40003038C8F818002046E168D3
:103E50008847054601F055F80028EED1012F0AD019
:103E60002E2D08D12046E16888477F1C0546022F89
:103E700046F02006C4DBA069002803DA404246F081
:103E80000106A061F00701D026F010066C2D0BD0C2
:103E9000682D09D04C2D39D06A2D35D0742D35D0F0
:103EA0007A2D33D016E038E0E1682F462046884767
:103EB000B842054609D16C2F26D04FF48060E168E6
:103EC000064320468847054604E06C2F1AD04FF47D
:103ED000807006430DB3A5F14100192802D82035A2
:103EE00046F400664A462946204626604E46FCF7C0
:103EF00059F980B101280BD0F61D26F0070000F11A
:103F0000080956E74020E4E78020D8E70020D6E7FC
:103F100006F104094DE7284652E7206ABDE8F09F04
:103F2000F01D000030B5B0F10A024FEA900E71F1B9
:103F300000034EEA817EB0EB0E0061EB91014FEA87
:103F4000101E4EEA017E10EB0E0041EB11114FEAFC
:103F5000102E4EEA016E10EB0E0041EB11214FEADC
:103F6000104E4EEA014E10EB0E0041EB114140188D
:103F700041F100014FEAD00040EA41704FEAD1011F
:103F800010EB80054FEA810444EA907444EB01048D
:103F90006D1944EB0404521BA3414FF0000348BFCA
:103FA0000A3200D530BD401C41F1000130BD2DE981
:103FB000F0470D4699469246044600F124080168F0
:103FC000880604D5E06921F01001216000E001209D
:103FD000A84201DD471B00E00027A1697A1902EB26
:103FE0000900081AA0612078C00602D42046FFF715
:103FF000E7FC002608E0D4E901211AF80600904702
:10400000206A401C761C20624E45F4DB2078C006F6
:104010000AD52046FFF7D4FC06E0D4E90121302080
:104020009047206A401C2062381EA7F10107F4DC8B
:1040300007E0D4E9012118F805009047206A401CE8
:104040002062281EA5F10105F3DC2046FFF7CEFC17
:104050002078000602D50220BDE8F0870120FBE7AA
:1040600070472DE9FF4F0C461E464FF0FF378BB0CF
:10407000D2E90001DDF860800A908A46C1F30A5552
:1040800005B93D46002108464FF00000BAF1000F87
:1040900000F4400005DA00EB80004FF4400101EA33
:1040A00050004FEA9059B9F1010F00DDB9460A9866
:1040B00050EA4A000ED044F61050A5F2FF354543B1
:1040C0002F14B8F1000F1ED07542291E1EDDC9F154
:1040D00000021CE0B8F1010F4FF0000001D03021C8
:1040E00003E0F24305E02154401CB042FBDB3046C4
:1040F0000022002121540B99C1F80880C1E9002059
:104100000FB0BDE8F08FBD1B6D1CDEE74A4600DA3C
:10411000694206A800F06EFA06AB93E8070003AB0D
:1041200083E8070050460A9900F01CFB8DE8070061
:10413000A0F500501F3800900398002D09DD42F2D1
:104140001F014A46084403A90390684600F07BFD1E
:1041500008E0A0F500504A461F3803A903906846BE
:1041600000F085FD8DE807000004000C03D04FF03F
:10417000FF30410800E01046B8F1000F03D00022E4
:10418000009215461EE0751E05D4FFF7CBFE3032B7
:1041900062556D1EF9D5B3460122084302D00022B4
:1041A0007F1C04E02078302801D100227F1E002AE5
:1041B000099786D01DE0112D07DAFFF7B3FE3032E4
:1041C00062556D1C50EA0102F5D1084302D00098F7
:1041D000C8B10EE00021681E05E0235C625C6354F8
:1041E0002254401E491C8142F7DBAB46A81B401EEF
:1041F0000990002004F80B000B98099AC0F8088079
:10420000C0E9002B7CE711264FF0000859E72DE9A3
:10421000F04F88460446D21D22F0070191B0D1E943
:104220000001CDE90A0100F058FE02460B98C00FCC
:1042300001D02D2007E02068810701D52B2002E066
:10424000202101EAC000032A099001D0072A05DBDA
:1042500003464146204600F08DF90BE120788006A8
:1042600001D5E06900E00620B8F1650F814606D06F
:10427000B8F1660F18D0B8F1670F70D131E00020A7
:10428000B9F1110F009001DB112301E009F10103E5
:104290000AAA01A90CA8FFF7E4FEDDE90C700026CC
:1042A00009F10105834647E001204B4600904FF09D
:1042B00000470AAA01A90CA8FFF7D3FEDDE90DB05B
:1042C0000C995D46002610B909F101000D18B9EBF3
:1042D000050003D4C0F1FF3609F10105A5EB090083
:1042E0002BE0B9F1010F01DA4FF001090020B9F11B
:1042F000110F0090484601DD112300E003460AAA91
:1043000001A90CA8FFF7ADFEDDE90C704D460026B3
:104310008346207800070AD4AB4500DA5D4601A841
:10432000012D04DD411911F8011C302907D04F453A
:1043300002DA17F1040F04DA012082460FE06D1E45
:10434000EEE7002F02DCED1B3E4403E0781CA842A0
:1043500000DD7D1CB81B00F1010A4FF000472078FA
:10436000000703D4AA4501DB4FF0FF3A0021B7F163
:10437000004F0DF143088DF8431024D002202B2369
:10438000002F01DA7F422D230A21021EA0F1010035
:1043900000DC5FB197FBF1FC97FBF1F201FB1C7CA9
:1043A00017460CF1300C08F801CDEEE7A8F101003A
:1043B00003702188090501D5452100E06521A0F1A0
:1043C000010800F8011C09980FA9A1EB0807FF1DBF
:1043D00000B10120411901EBEA70A1693844081AC3
:1043E000401EA0612078C00602D42046FFF7E8FAFC
:1043F000099828B1D4E901219047206A401C206225
:104400002078C00622D52046FFF7DAFA1EE0002EFB
:1044100004DBB34502DD01A8805D00E03020D4E973
:1044200001219047206A401C2062761CAAF10100FD
:104430005FEA000A0AD100F099F8C0680168405CA0
:10444000D4E901219047206A401C2062281EA5F172
:104450000105DCDC07E0D4E9012118F8010B9047E5
:10446000206A401C2062381EA7F10107F3DC2046B9
:10447000FFF7BCFA032011B043E610B5436913B14E
:10448000AFF3008001E0FFF7D4FA012010BD1278ED
:1044900000F124010A7000224A700122EDE7116840
:1044A0004FF0FF32E9E710B5436913B1AFF3008075
:1044B00001E0FFF755FB012010BD128800F1240137
:1044C00082840022C2840122EDE711684FF0FF329E
:1044D000E9E770B516460C46054600F03FF803685C
:1044E00093F80101012806D0FF2C0FD8185D68B1A0
:1044F00001202C7070BDD3F807013246214603F22B
:10450000071303442846BDE8704018474FF0FF30BA
:1045100070BD754600F0E2F8AE46050069465346A8
:1045200020F00700854618B020B5FDF7D7FABDE8A2
:1045300020404FF000064FF000074FF000084FF00A
:10454000000B21F00701AC46ACE8C009ACE8C0099B
:10455000ACE8C009ACE8C0098D46704710B500F062
:1045600005F8001D10BD00BFD509000000487047C8
:10457000040600202DE9F0411F4604460326016889
:10458000072A01F4006004DB08B116A505E016A5B2
:1045900003E008B115A500E015A521F0100020608A
:1045A000A069C01EA0610FB1401EA0612046FFF7A8
:1045B00007FA4FB1D4E9012138469047206A401CE0
:1045C0002062C01C206206E0206AFAE7D4E90121DB
:1045D00015F8010B9047761EF8D22046FFF706FA31
:1045E000BDE8F0814E414E006E616E00494E4600BE
:1045F000696E66002DE9F047814616468AB0334859
:1046000078440DC88DE80D0030487844801C03AC18
:104610000DC884E80D0041F69B300844372190FB1B
:10462000F1F290FBF1F5A5F1800501FB12041B3CB2
:1046300002D56442012000E00020DFF890A080460F
:104640000027FA44AAF1BE0A0DE0E00709D032467D
:10465000684607EB47010AEB810100F008FB8DE893
:10466000070064107F1C002CEFD1184F7F44AC3F33
:1046700018E0E80714D007EB04100DF1180A90E8D1
:104680000E008AE80E00C068F04201D19819089027
:10469000324606A903A800F0EAFA03AB83E8070054
:1046A0006D10641C002DE4D132466946B8F1000F4C
:1046B00003A802D000F0C7FA01E000F0D8FAC9E977
:1046C0000001C9F808200AB0BDE8F0872C160000E8
:1046D0000446AFF300802046FBF7C7FD0048704753
:1046E000E40500204FF0013C50F8042B51F8043B46
:1046F0009A4221D1A2EB0C03934313EACC1317D1B6
:1047000050F8042B51F8043B9A4215D1A2EB0C034C
:10471000934313EACC130BD150F8042B51F8043B0C
:104720009A4209D1A2EB0C03934313EACC13DBD0DA
:104730004FF00000704700BFD01A01BAB1FA81F102
:1047400001F0180122FA01F0CB40C1F12001DBB2E7
:10475000C0B2C01A2CFA01F3D11A914311EAC31165
:10476000E6D170475FEA400C08BF91F0000F4FEAB6
:104770008C234FEAC12243EA51514FEA1C5018BF23
:1047800000F5F0404FEA300018BF41F000415FEA09
:104790006C5C00F02980BCF1FF3F08BF40F0804016
:1047A0007047130C06BF12044FF0100C4FF0000CB2
:1047B000130E04BF12020CF1080C130F04BF1201F8
:1047C0000CF1040C930F04BF92000CF1020CD30FF8
:1047D00004BF52000CF1010C11464FF00002A0F191
:1047E0001F00A0EB0C00704711F0004F08BF70478E
:1047F00031F000413FF4D5AF0B0C06BF09044FF078
:10480000100C4FF0000C0B0E04BF09020CF1080C49
:104810000B0F04BF09010CF1040C8B0F04BF8900BE
:104820000CF1020CCB0F04BF49000CF1010CCCF1D0
:104830002003A0EB0C0022FA03F302FA0CF241EA87
:10484000030100F10100704720F07F4C80EA030073
:1048500023F07F47ACEB070303F57C5300F00040E7
:1048600003F1FF032DE980494FEA154B09B44FEAE4
:10487000144325EA0B4E24EA03480FF2042606EB04
:10488000132749083E785FEA320203FB0667C7F543
:10489000000707FB06F64FEA54374FEAD64606F103
:1048A000020607FB066CCCF1005C4FEA1C472CEAC1
:1048B000074C07FB06F40CFB06F504EB15464FEA24
:1048C000961634BF00204FF000404FEAD13706FB68
:1048D00007FC4FEA1C4C0CFB0BF7D21B03FB0CF73D
:1048E00061EB07010CFB0EF7B0EB074072EB1742D0
:1048F0000CFB08F734BFA2EB0742B2EB074261EBB7
:1049000017414FEA0C444FEA910706FB07FC4FEAB8
:104910001C4C0CFB0BF7B0EBC74072EB573203FBA0
:104920000CF734BFA2EBC742B2EBC74261EB573181
:104930000CFB0EF7B0EBC70072EB57720CFB08F7DD
:1049400034BFA2EBC702B2EBC70261EB5771039F02
:104950004FEA816141EA921104EBCC044FEAD1376E
:104960004FEA826206FB07FC42EA90124FEA80603F
:104970004FEA1C4C0CFB0BF7D21B03FB0CF761EB53
:1049800007010CFB0EF7B0EB074072EB17420CFB74
:1049900008F734BFA2EB0742B2EB074261EB1741C5
:1049A0004FEA8C554FEA910704EB9C2406FB07FC69
:1049B0004FEA1C4C0CFB0BF7B0EBC74072EB5732C5
:1049C00003FB0CF734BFA2EBC742B2EBC74261EB6B
:1049D00057310CFB0EF7B0EBC70072EB57720CFBB4
:1049E00008F734BFA2EBC702B2EBC70261EB577105
:1049F00015EB4C254FEA816141EA92114FEA826240
:104A00004FEAD13742EA901206FB07FC44F100045A
:104A10004FEA80604FEA1C4C0CFB0BF7D21B03FBE8
:104A20000CF761EB07010CFB0EF7B0EB074072EBE4
:104A300017420CFB08F734BFA2EB0742B2EB074268
:104A400061EB174115EB1C154FEA813141EA9241A8
:104A50004FEA823242EA90424FEA80304FEA0C76C7
:104A600044F1000448EA03434EEA0B484FF0000EBD
:104A7000B2EB080C71EB030724BF624639464EEBDC
:104A80000E0E4FF0000B0018524149414BEB0B0B3F
:104A9000B2EB080C71EB03077BF1000B24BF6246FD
:104AA00039464EEB0E0E4FF0000B001852414941B3
:104AB0004BEB0B0BB2EB080C71EB03077BF1000B1C
:104AC00024BF624639464EEB0E0E51EA020718BF6C
:104AD00046F0010616EB0E7655F1000254F1000186
:104AE00003D5BDE88901BDE80088BDE88901BDE8BE
:104AF0000048B619524141EB0101A3F1010370478F
:104B000080807F7E7D7C7B7A79787776767574730A
:104B1000727171706F6E6E6D6C6C6B6A6A696868C9
:104B2000676666656464636362616160605F5F5E5F
:104B30005E5D5D5C5C5B5B5A5A59595858575756D5
:104B4000565555555454535352525251515050503A
:104B50004F4F4F4E4E4D4D4D4C4C4C4B4B4B4A4A8C
:104B60004A494949484848474747474646464545D0
:104B70004544444444434343434242424241414109
:104B8000002B26D4770021D01CB54FEA370703B499
:104B90004FF010004FF010014FF000000FBCBDE8C7
:104BA00010400BF1010BBBF1010F08BF5FEA1707C3
:104BB00022BF12F1010211F101014FF0004143F156
:104BC000000300F0004043EA00007047F9D35708A3
:104BD000DAE746EA064613F1400F4FEA16461FDDB4
:104BE00013F1200FDFBF16430A46002120335B423A
:104BF000C8D0C3F1200746EA064602FA07F74FEA93
:104C0000164646EA0706C3F1200722FA03F201FA24
:104C100007F721FA03F14FF0000342EA0702B1E778
:104C200046EA020646EA06464FEA164646EA010604
:104C3000BCBF46EA0646360C4FF000034FF00002B8
:104C40004FF000019EE72DE9C048934630B491E84B
:104C5000380007C831EA400C48BF34EA430C03D59A
:104C6000FFF7F2FDFFF78CFFF0BCBDE800882DE9EF
:104C7000C048934630B491E8380007C810F0804F20
:104C800008BF13F0804F03D100F005F8FFF778FF5D
:104C9000F0BCBDE8008820F07F4780EA030023F0E5
:104CA0007F4C07EB0C03A3F57C5300F00040A3F10D
:104CB000FE0392F0000F00F0B38095F0000F00F0BB
:104CC00077802DE901494FEA11404FEA144621EA65
:104CD000004800FB06FC24EA064708FB06F607FB33
:104CE00008F800FB07F718EB06484CEB164C4FEAA8
:104CF000124B18EB07484FEA15464CEB174022EAD7
:104D00000B4E0BFB06FC25EA06470EFB06F607FBDF
:104D10000EFE0BFB07F71EEB064E4CEB164C4FF04E
:104D200000061EEB074E4CEB174B18EB0B0840F13F
:104D3000000018EB0E0B58EB000840F100008F1A32
:104D40004FF000013CBFC943661B14BFB5EB040C18
:104D500000213CBFC943F61B4FEA17444EEA8E0EB2
:104D600027EA04454FEA1C4704FB07622CEA074C7C
:104D700005FB07F70CFB05F604FB0CFC16EB0746DE
:104D800042EB174216EB0C4642EB1C421BEB0606AD
:104D900058EB0202414146EA9E0601D5BDE8018971
:104DA000B619524141EB0101A3F10103BDE80189AC
:104DB0004FEA14454FEA114724EA054621EA074C19
:104DC00005FB07F406FB07F70CFB06F105FB0CFCE3
:104DD00011EB074144EB17444FEA124711EB0C412A
:104DE00044EB1C4422EA074C05FB07F206FB07F7DD
:104DF0000CFB06F605FB0CFC16EB074642EB1742D4
:104E000016EB0C4642EB1C456A1854F1000148BFF2
:104E10007047B619524141EB0101A3F101037047FC
:104E200095F0000F37D04FEA11424FEA144721EABC
:104E3000024624EA074C02FB07F106FB07F70CFBCE
:104E400006F402FB0CFC14EB074441EB17414FEA5C
:104E5000154714EB0C4441EB1C4125EA074C02FBBF
:104E600007F506FB07F70CFB06F602FB0CFC16EB3E
:104E7000074645EB174516EB0C4645EB1C4212194D
:104E800051F1000148BF7047B619524141EB010191
:104E9000A3F1010370474FEA14454FEA114724EA92
:104EA000054621EA074C05FB07F106FB07F70CFB5B
:104EB00006F24FF0000605FB0CFC12EB074241EB3B
:104EC000174112EB0C4251EB1C4148BF704792183E
:104ED00041EB0101A3F101037047490050EAC120F1
:104EE00018BF04204A0D18BF40F0010040F2FF72C5
:104EF000B2EB515F08BF40F00200012808BF052057
:104F0000704730380A2801D20120704700207047CE
:104F100010B500290AD00878002807D00548784441
:104F2000FFF7E0FB002801D0002010BD02487844C4
:104F300010BD00004A0D0000420D000010B5002910
:104F40000AD00878002807D005487844FFF7CAFB44
:104F5000002801D0002010BD0248784410BD000098
:104F60003A0D0000320D000010B591EA030F48BF62
:104F700083F0004300F19A82841A71EB030C05D28E
:104F8000121943EB0C03001B61EB0C01DFF824E169
:104F90004FEA1154A4EB135C1EEA430F18BF9EEABC
:104FA000445F73D023EA0E03DCF1200E21EA0451A2
:104FB00043F4801332D322FA0CFE10EB0E0023FAD6
:104FC0000CFE41EB0E01CCF1200E03FA0EFE10EBAD
:104FD0000E0051F10001B1F5801FCCF1200E32D24C
:104FE00001EB045112FA0EF2BDE8104058BF7047B1
:104FF000401C38BF5FEA420218BF7047002814BF48
:1050000020F0010041F100014FEA410313F5001FB8
:1050100038BF7047A1F1C04100F03ABA012A43EB12
:105020000302ACF1200CDCF11F0E32BF4FF0000E7A
:1050300023FA0CF310EB030041EB0451B4EB115FC6
:10504000D0D0A1EB045101F5801149085FEA30008E
:1050500001EB04510ED350F1000038BF12FA0EFEDE
:1050600008D1BDE81040C9E7401C38BF5FEA4202E2
:10507000CAD1C3E7BDE810404FEA410313F5001F52
:1050800038BF7047A1F1C04100F002BA9EEA445F08
:1050900008D011EA5E0FBDE8104004BF01F00041E6
:1050A00000207047BDE8104070B500F0A3F900BFC4
:1050B00064FBBE3E0000E0FF2DE9C04130B4DFF8E4
:1050C000A0C23CEA111418BF3CEA131400F0EC80B3
:1050D00081EA03051CEA111444EAD57418BF1CEADE
:1050E000131500F0C780A4EB05044FF0004545EA16
:1050F000C12145EAC32341EA505143EA525304F126
:105100007F74994204F500344FEAC0204FEAC2226E
:1051100008BF904200F09C804FEA13650FF24016E2
:10512000765D4FEA134506FB05F7C7F1807706FB6E
:1051300007F74FEAD737A7FB03687642C8F58038F0
:10514000A7FB06CE38BFA8F1010807FB08E64FF021
:10515000000EA6FB028CE6FB03CEDCF1000CCEF1C8
:10516000004E38BFAEF1010EA6FB0C584FF0000701
:105170004FF00005E6FB0E87A1FB08C6A0FB07CE9B
:1051800016EB0E0645F10005E1FB076515F1E04E53
:105190007EBFA4F580345FEA46066D4116F18007B4
:1051A00045F100054FEA17274FEA066647EA05670B
:1051B000A6F1DE46B6F1805F4FEA15251FD93846C5
:1051C00024F0010C05EBC471BCF1FE6F01EB0C1176
:1051D00002D8F0BCBDE8008124425CBF01F5801E0E
:1051E0009EEAC47F02D4F0BCBDE80081244238D4DA
:1051F000F0BCA1F1C041BDE8004100F049B94FEA5F
:10520000D22242EA43524FEAD323A7FB02864FEA57
:10521000D02040EA415007FB03661EEA0E0F4FEA1A
:10522000D12105FB026658BFA6EB0056B6EB00562F
:105230004FEA520E4EEAC37E18EB0E0E56EB530E9B
:10524000BDD518EB02085E417F1C55F10005B6E79D
:105250004FF480154FF000074FF000064FF00008A4
:10526000ADE7F0BC4FF0000001F1C04101F000419A
:10527000BDE8008111EA0C1F0CEA131500D00CE008
:1052800013EA0C1F00F025804FF00000F0BC81EA0B
:10529000030101F00041BDE80081F0BCBDE8004120
:1052A00081EA030100F0F4B8F0BCBDE8004170B53C
:1052B00000F0A0F8097EFC3E00F007B881EA030187
:1052C0004FF0000001F00041704781EA030100F057
:1052D000DFB8F0BCBDE800414FF000002149704745
:1052E000FFFDFBF9F7F5F4F2F0EEEDEBE9E8E6E4AB
:1052F000E3E1E0DEDDDBDAD8D7D5D4D3D1D0CFCD32
:10530000CCCBCAC8C7C6C5C4C2C1C0BFBEBDBCBB6A
:10531000BAB9B8B7B6B5B4B3B2B1B0AFAEADACAB65
:10532000AAA9A8A8A7A6A5A4A3A3A2A1A09F9F9E3F
:105330009D9C9C9B9A9999989797969595949393F1
:10534000929191908F8F8E8E8D8C8C8B8B8A898988
:10535000888887878685858484838382828181800B
:105360000000FF070000F87F4FEA41034FEA535364
:10537000A3F58063D3F11E03C8BFD3F1210C0CDD6C
:105380004FF0004242EAC12242EA505232FA03FC94
:105390008CEAE17CACEBE1707047102BC4BF0020BD
:1053A000704703F5787CBCF1FF3F04D06FF00042FA
:1053B00082EA2100704770B500F01CF84992248001
:1053C00000207047F2E710F0004248BF4042B0FAB8
:1053D00080F310FA03F10AD0C3F11D0303F58063D3
:1053E0004FEA415002EB035202EBD12170474FF0DC
:1053F000000070470EF1020E2EF0030E5EF8046BF3
:10540000364205D4012A43EB030515F5001F12D8D7
:10541000012841EB010C1CF5001F0CD80ED14FEAFE
:10542000D17C15F5001F0CEB4C0C0CF1020C08BFE5
:105430004CEBD37C04E04FF0080C01E04FEAD37C46
:105440000CEB4C0526FA05F606F00706B6F1040C3F
:1054500006D20EEB860CBDE870404CF0010C6047A4
:10546000DFE80CF0090B02024FF000414FF00000A2
:10547000A1F5002170BD19461046012851EB010429
:1054800018BFD4F5001484BF002001F0004170BDA6
:105490000808A0F500114FEA3101704710B591EAF4
:1054A000030F48BF83F000433FF566AD841A71EBEC
:1054B000030C07D212198CF0004C43EB0C03001BB9
:1054C00061EB0C01DFF8A4E14FEA1154A4EB135C8B
:1054D0001EEA430F18BF9EEA445F00F0B08023EA43
:1054E0006E03524221EA0451C3EB6E0338BF5B1EC8
:1054F000DCF1200E25D322FA0CFE10EB0E0043FA4D
:105500000CFE41EB0E01CCF1200E03FA0EFE10EB67
:105510000E0051F10001CCF1200E29D412FA0EF246
:1055200001EB0451BDE8104058BF7047401C1CBF40
:10553000B2F1004F704700280CBF491C20F0010059
:10554000704712EB020E43EB030218BF4FF0010E3F
:105550004EEA4202ACF1200CDCF11E0E54D943FAA3
:105560000CFE10EB0E0051F1FF31CCF11E0ED5D523
:105570000EF1010E12FA0EFE404141EB010101EB6A
:10558000445C5FEA5C5C10D910EBDE7001EB045107
:1055900038BFBEF1004FBDE8104018BF704700286B
:1055A0000CBF491C20F00100704730D24FEAD42CC8
:1055B00011F5001124F400641BD0B1FA81F20B3A0A
:1055C000A41AA41ED2F12003914030FA03F3194328
:1055D000904001EBCC71002C01EB0451BDE8104070
:1055E000A8BF704701F1C0414FF0000001F0004139
:1055F0007047B0FA80F310FA03F100D110BDE41A3D
:10560000173C4805C90AE4E701EB045110BD4910F5
:1056100001EB0451BDE810404FEA300002E04FF0CA
:10562000000170474A0008BF0042F8D0B2F5001FE1
:1056300028BF704701F000414FF0000070479EEA1C
:10564000445F07D011EA5E0FBDE8104004BF00219F
:1056500000207047BDE8104070B5FFF7CBFE00BFDB
:1056600040DFF63E83F00041104670470000E0FF47
:1056700090EA010F48BF81F0004100F10882421A10
:105680003CBF801A89184FEAD0524FF07F4C1CEA79
:10569000410FA2EBD15318BF9CEA026F00F03B8090
:1056A0004FF0004C4CEA00204CEA012121FA03FCA7
:1056B00010EB0C0C1ED202F1FF325FEA1C2040EB13
:1056C000C25038BF70471CF07F0F4FEA400C18BF24
:1056D000BCF17F4F38BF7047C3F12003994008BF2A
:1056E00020F00100BCF17F4F38BF7047A0F1C040EF
:1056F00000F08FB94FEA3C00000A40EBC25028BFCF
:105700001CF0FF0F4FEA400CE6D018BFBCF17F4FF2
:1057100038BF7047EAE79CEA026F05D010EA5C0FD9
:1057200008BF00F00040704710B500F02CF900BF32
:1057300064FBBE3E401058BFC0F14040491058BF06
:10574000C1F140418142EFF30080704750EA010C03
:1057500000F113801CF5000F58BFBCF5000F01D4F9
:105760008842704707D710F5000F58BF11F5000F9A
:1057700015D488427047894270471CF5000F04D544
:10578000BCF5000FF7D5814270474FF0807C1CEBD1
:10579000400F38BF1CEB410F01D28142704710B55A
:1057A00000F0F1F8922449004FF000504FF0805182
:1057B000FFF7C0BF41000B0ED3F19E0208D950F491
:1057C00000034FEA032323FA02F048BF4042704728
:1057D00010B500F0D8F800BF49922480002070472F
:1057E0006FF0004282EA20007047000010F0004194
:1057F00048BF4042B0FA80F310FA03F2C3F19D03B0
:105800000BD051EAC35101EB1220530638BF704749
:1058100000F1010008BF20F00100704750EA010CC0
:1058200000F113801CF5000F58BFBCF5000F01D428
:105830008842704707D710F5000F58BF11F5000FC9
:1058400015D488427047894270471CF5000F04D573
:10585000BCF5000FF7D5814270474FF0807C1CEB00
:10586000400F38BF1CEB410F01D28142704710B589
:1058700000F089F8922449004FF000504FF0805119
:10588000FFF758BF4FF47F0C1CEAD0121EBF1CEA72
:10589000D11392EA0C0F93EA0C0F00F0478090EAC4
:1058A000010F48BF42F480724FF0004C4CEA0020D8
:1058B0004CEA012102EB0302A0FB0113A2F5000256
:1058C000002918BF43F001035B0028BF4FEA3303F0
:1058D00042EB22425FEA132C4CEBC2502EBFBCEBD2
:1058E000436FB2F57C0F70474FEA036CBCF1004F79
:1058F00008BF20F00100B2F57C0F38BF70470BD510
:1059000082F0FF0212F5803FC8BF704700F1C0402F
:10591000D8BF00F00040704700F5000C5FEA4C0C67
:1059200048BF7047B0F1C04000F073B890EA010F73
:105930000CEAD11348BF42F48072624538BF634518
:1059400004D280EA010000F00040704710B500F07A
:105950001AF800BF8900013E00F007B800F009B84E
:105960005FEA410C5FEA1C6C08D080EA010000F09D
:1059700050B85FEA400C5FEA1C6CF6D14FF0004073
:10598000A0F5800070470EF1020E2EF0030E5EF8B7
:10599000044B244204D44FEA4102B2F17F4F11D8A4
:1059A0004FEA4003B3F17F4F0CD80ED14FEAD07CC1
:1059B000B2F17F4F0CEB4C0C0CF1020C08BF4CEB1E
:1059C000D17C04E04FF0080C01E04FEAD17C0CEBF5
:1059D0004C0324FA03F404F00704B4F1040C06D2D7
:1059E0000EEB840CBDE810404CF0010C6047DFE882
:1059F0000CF0070802024FF00040A0F5800010BD37
:105A00000846420018BFD2F1807288BF00F0004003
:105A100010BDFF2141EAD050C005704751EA000C8B
:105A200000F113801CF5000F58BFBCF5000F01D426
:105A30008142704707D711F5000F58BF10F5000FCE
:105A400015D481427047894270471CF5000F04D578
:105A5000BCF5000FF7D5884270474FF0807C1CEBF7
:105A6000410F38BF1CEB400F01D28842704780EADB
:105A7000010081EA000180EA0100FFF7F8BE0000A2
:105A800090EA010F48BF81F000413FF5F8AD421A9E
:105A900004D882F00042A0EB020011444FEAD05239
:105AA0004FF07F4C1CEA410FA2EBD15318BF9CEA88
:105AB000026F4AD04FF0004C4CEA00204CEA012122
:105AC00021FA03FCB0EB0C0C0FD412F0FE0F36D011
:105AD0005FEA4C001DD5001240EBC25038BF704742
