:020000040800F2
:10000000000B002009210008910300089303000859
:10001000970300089B0300089F03000800000000EE
:10002000000000000000000000000000A303000822
:10003000A503000800000000A7030008A9030008AA
:100040002321000823210008232100082321000880
:100050002321000823210008232100082321000870
:100060002321000823210008232100082321000860
:100070002321000823210008232100082321000850
:10008000931F0008232100082321000823210008D2
:100090002321000823210008232100082321000830
:1000A0002321000823210008232100082321000820
:1000B0002321000823210008232100082321000810
:1000C0002321000823210008232100082321000800
:1000D00023210008232100083B1F00087D20000881
:1000E00023210008232100082321000823210008E0
:1000F00023210008232100082321000823210008D0
:1001000023210008232100082321000823210008BF
:1001100023210008232100082321000823210008AF
:10012000232100082321000823210008232100089F
:1001300000F002F800F03FF80AA090E8000C8244BA
:100140008344AAF10107DA4501D100F034F8AFF297
:10015000090EBAE80F0013F0010F18BFFB1A43F0A5
:10016000010318471457000034570000103A24BF09
:1001700078C878C1FAD8520724BF30C830C144BF0C
:1001800004680C607047000000230024002500264E
:10019000103A28BF78C1FBD8520728BF30C148BFEA
:1001A0000B607047642903F03B86002070471FB541
:1001B0001FBD10B510BD03F085FF1146FFF7F7FF17
:1001C00000F018F803F0A3FF03B4FFF7F2FF03BC3D
:1001D00001F0F6FE10B501F0D3FD4FF4E13001F06F
:1001E000FEFE4FF4E13001F05DFE00F0C8FB01F0CF
:1001F00061FD10BD1FB5FFF7EDFF092047494874A9
:100200008BE04748006847490968401A03D04448D2
:100210000068444908604248006843490968401A38
:10022000052803D33E4800683F4908603C48006801
:100230003E490968401A0A2803D3394800683B49F7
:100240000860374800683A490968401A142805D3FD
:1002500001F00CF932480068354908603048006800
:1002600034490968401A642829D33348B0F9026038
:10027000B0F90650B0F9044030484068002C01DB6A
:10028000214600E061422E4A9268002D01DB2B4698
:1002900000E06B42CDE90032CDE9021027488368C7
:1002A000002E01DB304600E070420246254881689E
:1002B00025A003F075FD1A4800681E49086018481B
:1002C000006830490968401AB0F5FA7F03D914482C
:1002D00000682C490860124800682B490968401AD8
:1002E000B0F57A7F19D329480078052804DA274821
:1002F0000078401C2549087024480078052808D15A
:1003000000231A461946642000F0DEFE06201F492D
:100310000870034800681C49086072E71801002053
:100320002000002000000020040000200800002021
:100330000C0000201000002054010020DC000020F0
:1003400004010020F000002050574D3A2564202081
:1003500052696768743A25640950574D3A256420FC
:10036000204C6566743A25640950574D3A25640956
:1003700054687265653A25640961696D3A25640DB2
:100380000A00000014000020180000201C000020BB
:10039000704700BFFEE700BFFEE700BFFEE700BFFB
:1003A000FEE770477047704710B509480068401C69
:1003B00007490860084600680A21B0FBF1F201FB1A
:1003C000120018B901F095FA00F079FD10BD000097
:1003D000200000200CB50020019000906C480068BF
:1003E00040F480306A49086000BF6948006800F442
:1003F000003000900198401C0190009818B90198B5
:10040000B0F5A06FF1D16248006800F4003010B17F
:100410000120009001E0002000900098012843D1C5
:100420005C48006840F010005A49086008460068BF
:1004300020F0030008600846006840F002000860F1
:10044000534840685249486008464068486008463A
:10045000406840F4806048600846406820F47C10A2
:1004600048600846406840F4E81048600846006864
:1004700040F08070086000BF4548006800F00070E0
:100480000028F9D04248406820F003004049486005
:100490000846406840F00200486000BF3C484068A1
:1004A00000F00C000828F9D10CBD10B5FFF792FF41
:1004B00010BD10B53648006840F0010034490860AE
:1004C0000846406834490840314948600846006899
:1004D000324908402E4908600846006820F4802010
:1004E00008600846406820F4FE0048604FF41F0092
:1004F0008860FFF7DAFF4FF000602949086010BDFF
:1005000010B5002100200022214B5B6803F00C0194
:1005100021B1042906D0082928D107E0214B224C1B
:10052000236027E01F4B204C236023E0184B5B68BF
:1005300003F47010164B5B6803F48032022303EB64
:10054000904022B9194B4343174C23600DE0104BE8
:100550005B6803F4003323B1144B4343124C236014
:1005600003E0104B4343104C236003E00D4B0E4C53
:10057000236000BF00BF064B5B68C3F303130C4C42
:10058000E15C094B1B68CB40074C236010BD0000A9
:1005900000100240002002400000FFF8FFFFF6FEBE
:1005A00008ED00E000127A002400002000093D0060
:1005B0002800002030B589B005460C4601214803CB
:1005C00002F04CF90121112002F048F94FF470704B
:1005D000ADF8200018208DF8230003208DF82200AC
:1005E00008A9FE4801F07EFEADF81850ADF81440A1
:1005F0000020ADF81A00ADF8160005A9F84802F081
:1006000069FC7020ADF804000120ADF80600002060
:10061000ADF80A00ADF80C0001A9F14802F097FC12
:1006200001A9EF4802F0D5FC01A9ED4802F01EFD3A
:1006300001A9EB4802F065FD0121E94802F0B2FF93
:100640000821E74803F0D2F80821E54803F0D7F87D
:100650000821E34803F0E0F80821E14803F0E5F859
:100660000121DF4803F092F80121DD4802F08EFFFE
:100670000021DB4803F022FA0021D94803F020FAD8
:100680000021D74803F01EFA0021D54803F01CFAD8
:1006900009B030BD30B589B005460C460121C8020D
:1006A00002F0DCF80121052002F0D8F84FF4706068
:1006B000ADF8200018208DF8230003208DF82200CB
:1006C00008A9C84801F00EFEADF81850ADF8144066
:1006D0000020ADF81A00ADF8160005A9C24802F0D6
:1006E000F9FB7020ADF804000120ADF806000020F1
:1006F000ADF80A00ADF80C0001A9BB4802F027FCD8
:1007000001A9B94802F065FC01A9B74802F0AEFCA6
:1007100001A9B54802F0F5FC0121B34802F042FFFF
:100720000821B14803F062F80821AF4803F067F8E8
:100730000821AD4803F070F80821AB4803F075F8C4
:100740000121A94803F022F80121A74802F01EFF69
:100750000021A54803F0B2F90021A34803F0B0F945
:100760000021A14803F0AEF900219F4803F0ACF945
:1007700009B030BD00B587B00121084602F06EF81F
:100780000121022002F077F80121042002F066F82E
:10079000C020ADF8180048208DF81B0003208DF80C
:1007A0001A0006A98F4801F09DFD012240218D48C5
:1007B00001F049FE012280218A4801F044FE44F6FE
:1007C0002060ADF810000020ADF80C00ADF812006C
:1007D000ADF80E0003A9854802F07CFB0A231A46F7
:1007E0000321824802F085FF684602F0B2FE08202D
:1007F000ADF8080069467D4802F0FFFD01217B4805
:1008000003F08AF901221146784802F0DAFE00204E
:100810007649243108800121744802F0B7FE07B000
:1008200000BD00B587B00121084602F017F801218C
:10083000042002F020F80121082002F00FF8C02067
:10084000ADF8180048208DF81B0003208DF81A0021
:1008500006A9674801F046FD01224021644801F0E5
:10086000F2FD01228021624801F0EDFD44F6206096
:10087000ADF810000020ADF80C00ADF81200ADF896
:100880000E0003A95B4802F025FB0A231A46032148
:10089000584802F02EFF684602F05BFE0820ADF8D3
:1008A00008006946534802F0A8FD0121514803F0B1
:1008B00033F9012211464F4802F083FE00204D49D2
:1008C0002431088001214B4802F060FE07B000BDD2
:1008D00000B587B00121084601F0C0FF01210820C2
:1008E00001F0C9FF0121042001F0B8FF0320ADF899
:1008F000180048208DF81B0003208DF81A0006A967
:10090000384801F0EFFC01221146364801F09BFD0A
:1009100001220221334801F096FD44F62060ADF833
:1009200010000020ADF80C00ADF81200ADF80E007C
:1009300003A9314802F0CEFA0A231A4603212E48B1
:1009400002F0D7FE684602F004FE0820ADF8080069
:100950006946294802F051FD0121274803F0DCF8DF
:1009600001221146244802F02CFE002022492431A5
:1009700008800121204802F009FE07B000BD70B5D3
:100980001E4800684FF47A72B0FBF2F1B1F1807F3B
:1009900000D31DE021F07F40401E4FF0E022506167
:1009A00050170F22002807DA13071D0E144B00F012
:1009B0000F04241F1D5503E013071C0E114B1C547C
:1009C00000BF00204FF0E02290610720106100BFBF
:1009D000FFF727FF1D2140F2AF4015E00010014056
:1009E0000034014000080140002C01400004004098
:1009F000000C014000080040000C004024000020D2
:100A000018ED00E000E400E0FFF744FEFFF7B2FE5F
:100A1000FFF75EFF1D2140F2AF40FFF7CBFD70BD39
:100A20002DE9FC5F8246BAF1000F08DBBAF5FA7FC8
:100A300001DD4FF4FA7A0120FD49087009E0CAF19E
:100A4000000ABAF5FA7F01DD4FF4FA7A0020F8497E
:100A500008704FEA8A00C0EBC000C00000EB400104
:100A600001EBC000432190FBF1FB584604F05FF915
:100A70000646F04AF04B03F0D3FF04460022EF4B4A
:100A800003F0CEFF80460022ED4B03F019FFCDE9C5
:100A9000000104F01DF9E6494860BDE8FC9F2DE91E
:100AA000FC5F8246BAF1000F08DBBAF5FA7F01DD80
:100AB0004FF4FA7A0120E349087009E0CAF1000A0C
:100AC000BAF5FA7F01DD4FF4FA7A0020DD490870AB
:100AD0004FEA8A00C0EBC000C00000EB400101EB10
:100AE000C000432190FBF1FB584604F020F9064674
:100AF000D04AD14B03F094FF04460022CF4B03F0C1
:100B00008FFF80460022CE4B03F0DAFECDE90001D4
:100B100004F0DEF8CB494860BDE8FC9F2DE9FC5F9E
:100B20008246BAF1000F08DBBAF5FA7F01DD4FF417
:100B3000FA7A0120C449087009E0CAF1000ABAF53E
:100B4000FA7F01DD4FF4FA7A0020BF4908704FEABE
:100B50008A00C0EBC000C00000EB400101EBC00008
:100B6000432190FBF1FB584604F0E1F80646B14AF8
:100B7000B14B03F055FF04460022B04B03F050FF89
:100B800080460022AE4B03F09BFECDE9000104F04D
:100B90009FF8AD494860BDE8FC9F70B504460D461E
:100BA0005DB14FF49661A94802F088FFC4F59660E4
:100BB00081B2A64802F084FF0AE0C4F5966081B2D3
:100BC000A24802F07BFF4FF49661A04802F078FF44
:100BD00070BD70B504460D465DB14FF496619C48FA
:100BE00002F070FFC4F5966081B2994802F06CFF84
:100BF0000AE0C4F5966081B2954802F063FF4FF4B5
:100C00009661934802F060FF70BD70B504460D46D2
:100C10005DB1C4F5966081B28D4802F04FFF4FF48C
:100C200096618B4802F04CFF0AE04FF496618848C9
:100C300002F044FFC4F5966081B2854802F040FF9F
:100C400070BD7B48806810F5966F02DA814878495C
:100C5000886077488068B0F5966F03DD4FF4966042
:100C6000734988607748806810F5966F02DA794892
:100C70007449886073488068B0F5966F03DD4FF45F
:100C80009660704988607048806810F5966F02DA47
:100C900070486D4988606C488068B0F5966F03DDD8
:100CA0004FF496606849886070472DE9F047044624
:100CB0000D46281B04F018FB6749086008460168C8
:100CC0006648006804F05CFB80466548016862483D
:100CD000006804F053FC814662480168484604F00D
:100CE0004FFB0746414604F041FA06465E4801685C
:100CF000304604F03BFA5C4908605C495A48006899
:100D000004F00AFC03D259485749086008E0002162
:100D10005548006804F000FB02D2002052490860E8
:100D20004D4800684E4908604F48006804F0C0FA1A
:100D3000BDE8F0870146002901DA002000E00846FE
:100D400070472DE9F04704460D46281B04F0CCFA05
:100D500047490860084601684648006804F010FBEF
:100D60008046454801684248006804F007FC814617
:100D700042480168484604F003FB0746414604F038
:100D8000F5F906463E480168304604F0EFF93C4963
:100D9000086036493A48006804F0BEFB03D2334885
:100DA0003749086008E000213548006804F0B4FACB
:100DB00002D20020324908602D4800682E490860A0
:100DC0002F48006804F074FABDE8F0872DE9F04779
:100DD00004460D46281B04F087FA2A490860084695
:100DE00001682948006804F0CBFA8046274801686A
:100DF0002448006804F0C2FB814625480168484643
:100E000004F0BEFA0746414604F0B0F90646214810
:100E10000168304604F0AAF91E49086013491D48CC
:100E2000006804F079FB37D210481A4908603CE0AA
:100E3000DC000020F1D4C853FB21094000005940D8
:100E40000000E03FF000002004010020002C0140E1
:100E50000034014050FBFFFF8800002060000020AC
:100E6000900000205C0000208C00002000009644D0
:100E70007C00002058000020840000205400002046
:100E8000800000207000002050000020780000202A
:100E90004C000020740000200021FE48006804F08F
:100EA0003BFA02D20020FB490860FB480068FB497E
:100EB0000860F848006804F0FBF9BDE8F08770B5F9
:100EC0000025F748007C80B10021F64802F0F6FDCD
:100ED0000021F44802F0F4FD0021F24802F0F2FD96
:100EE0000021F04802F0F0FD70BDEF48B0F902407B
:100EF000EE4A5168002C01DB224600E062421046B7
:100F0000FFF764FF0646FFF715FFE8498860E648EB
:100F1000B0F90440E64A5168002C01DB224600E0AB
:100F200062421046FFF70DFF0646FFF703FFE04958
:100F30008860DD48B0F90640DE4A5168002C01DBCC
:100F4000224600E062421046FFF7AFFE0646FFF77A
:100F5000F1FED8498860FFF774FED44A1178906892
:100F6000FFF753FED24A11789068FFF732FED14A5C
:100F700011789068FFF711FE00BFB5E72DE9F04743
:100F800004460D46281B04F0AFF9CB49086008461B
:100F90000168CA48006804F0E9F8C8490860C84810
:100FA0000168C548006804F0E9FA8046C548016850
:100FB000404604F0E5F90646C0480168C2480068AA
:100FC00004F0DEF98046BC480168C048006804F0BF
:100FD000D7F98146414604F0C9F80746314604F086
:100FE000C5F8BB490860B4480068B5490860B8480E
:100FF000006804F05DF9BDE8F0872DE9F041044692
:101000000021206804F088F903D2206880F00040B5
:1010100020600021606804F07FF903D2606880F0EE
:10102000004060600021A06804F076F903D2A06857
:1010300080F00040A0600021E06804F06DF903D268
:10104000E06880F00040E0602069E0612169206A8A
:1010500004F08CF820620021E06804F0F5F813D069
:10106000E168206A04F058FA02D2E06820620BE0DE
:10107000E06880F000452846216A04F04DFA03D26A
:10108000E06880F000402062A169206904F076FAEF
:1010900060622069A061616AA06804F071F9064687
:1010A000216A606804F06CF90746E169206804F081
:1010B00067F98046394604F059F80546314604F090
:1010C00055F86061BDE8F0812DE9F04F93B083469B
:1010D000894614469A469D2104FB01F003F027FE41
:1010E000CDE91001504603F039FE074603F098FBA6
:1010F00005460E46484603F031FE2A463346CDE902
:10110000080103F03FFECDE90C01504603F026FE36
:10111000074603F037FB05460E46584603F01EFE11
:101120002A463346CDE9080103F02CFECDE90A0139
:10113000DDE90C2303F0C4FBCDE90E01DDE910234A
:1011400003F0BEFB634A03C29D2104FB01F003F0E0
:10115000EEFDCDE91001504603F000FE074603F016
:1011600011FBCDE900015C485C4903F059FB0546E1
:10117000DDE9002303F006FECDE90401504603F04B
:10118000EDFD074603F04CFBCDE900015248534901
:1011900003F0F8FA81F000410546DDE9002303F091
:1011A000F1FDCDE90201DDE9042303F0F5FECDE90F
:1011B0000801484603F0D2FDCDE90601DDE9082328
:1011C00003F0E0FDCDE90C01504603F0C7FDCDE989
:1011D000000103F025FB05460E463F48404903F059
:1011E0001FFB2A463346CDE9020103F0CBFD07463B
:1011F0008846504603F0B2FDCDE9000103F0C2FA83
:1012000005460E463448354903F0BCFA81F00041EA
:101210002A463346CDE9020103F0B4FD3A4643467F
:10122000CDE9040103F04CFBCDE90801584603F079
:1012300095FDCDE90601DDE9082303F0A3FDCDE925
:101240000A01DDE90C2303F03BFBCDE90E01DDE9EA
:10125000102303F035FB234A03C29D2104FB01F058
:1012600003F065FDCDE91001504603F077FDCDE9AF
:10127000000103F087FA05460E461748184903F0A7
:1012800081FA07462A46334603F07CFDCDE9040186
:10129000504629E0740000207000002078000020F3
:1012A000180100200034014054010020DC0000201F
:1012B000F000002004010020940000209C00002089
:1012C000A00000206C0000206800002064000020C6
:1012D00098000020A8000020A138DB3752C1F03F61
:1012E00052C1E03FB000002003F038FD074603F094
:1012F00097FA05460E464348434903F091FA81F0B8
:1013000000412A463346CDE9000103F03BFDCDE91B
:101310000201DDE9042303F0D3FACDE908014846D0
:1013200003F01CFDCDE90601DDE9082303F02AFDE9
:10133000CDE90C01504603F011FDCDE9000103F0A9
:101340006FFA05460E462F482F4903F01BFA2A462E
:101350003346CDE9020103F015FDCDE90401504605
:1013600003F0FCFCCDE9000103F00CFA05460E4643
:101370002448254903F054FA81F000412A463346B7
:10138000CDE9020103F0FEFC0746DDE9042303F08A
:1013900097FACDE90801584603F0E0FCCDE90601D3
:1013A000DDE9082303F0EEFCCDE90A01DDE90C23B9
:1013B00003F086FACDE90E01DDE9102303F080FA8F
:1013C000124A03C2124903C903F082FC0546FFF723
:1013D00027FB1049D1E9005181F00041284603F074
:1013E00077FC0746FFF75BFB0849D1E9005181F024
:1013F0000041284603F06CFC0746FFF78FFB13B053
:10140000BDE8F08FA138DB3752C1E03FB8000020C3
:10141000A8000020B000002070B5002500244AF28A
:10142000A550904908800820488064208880C880A2
:101430000020088148810320888100BF05E0894899
:1014400030F914000544601CC4B28648B0F90200AB
:10145000401EA042F3DC28B28249C8810846807849
:101460004006010E7F4800F091FC70BD70B500256C
:1014700000244AF2A5507B4908807B48407C083014
:1014800048807A48408888807848C088C88040F280
:101490000710088143204881382088817248407CA9
:1014A00030B1032805D0062819D009287DD141E0A4
:1014B00070BD1D21D02000F03DFC00B26949C881FB
:1014C0001F21D02000F036FC00B26649088221219D
:1014D000D02000F02FFC00B2624948826DE01D214F
:1014E000D02000F027FC00B25E49C8811F21D02027
:1014F00000F020FC00B25B4908822121D02000F0DE
:1015000019FC00B2574948823221A62000F012FC93
:1015100000B2544988823421A62000F00BFC00B2AE
:101520005049C8823621A62000F004FC00B24D4983
:10153000088342E01D21D02000F0FCFB00B24949A5
:10154000C8811F21D02000F0F5FB00B24549088278
:101550002121D02000F0EEFB00B242494882322126
:10156000A62000F0E7FB00B23E4988823421A62085
:1015700000F0E0FB00B23B49C8823621A62000F013
:10158000D9FB00B23749088300211A2000F0E5FB9F
:1015900000B23449488302211A2000F0DEFB00B279
:1015A0003049888304211A2000E005E000F0D5FBD3
:1015B00000B22C49C88300E000BF00BF002405E052
:1015C000284830F914000544601CC4B22548B0F91D
:1015D0000200401EA042F3DC29B22248B0F902000A
:1015E000401E204A22F81010104680784006010E56
:1015F000104600F0CBFB00BF5AE770B500251C4831
:10160000B0F900001B4988422AD1194840880828AF
:1016100026D1002405E0164830F914000544601C6A
:10162000C4B21348B0F90200401EA042F3DC1048D7
:10163000B0F90E00A84213D10D49B1F90400FFF72B
:101640002EFA0B49B1F90600FFF7EAF90848007ACB
:10165000054908740648807A88740548007B4874F8
:1016600070BD00000C030020180100205401002070
:1016700070030020A5A5FFFF10B54FF08042928CAB
:1016800012B2A04B1A811A469169B2F90830B2F928
:10169000102040F27124624303EB4210421A12B24E
:1016A000984B1A8013E0974A128A521E12B2954B39
:1016B0001A821A46B2F90830B2F9102040F27124A9
:1016C000624303EB4210421A12B28E4B1A808D4ACB
:1016D000B2F9002042F210739A42E4DC13E0894A26
:1016E000128A521C12B2874B1A821A46B2F908307B
:1016F000B2F9102040F27124624303EB4210421A07
:1017000012B2804B1A807F4AB2F900207E4B9A4277
:10171000E5DB7C4A906110BD10B57C4A128812B29C
:10172000784B5A811A46D169B2F90A30B2F91220BF
:1017300040F27124624303EB4210421A12B2714B21
:101740005A8013E06F4A528A521E12B26D4B5A826F
:101750001A46B2F90A30B2F9122040F271246243FB
:1017600003EB4210421A12B2664B5A80654AB2F934
:10177000022042F210739A42E4DC13E0614A528A7A
:10178000521C12B25F4B5A821A46B2F90A30B2F9B1
:10179000122040F27124624303EB4210421A12B24B
:1017A000584B5A80574AB2F90220574B9A42E5DB10
:1017B000544AD06110BD10B5554A128812B2514B2F
:1017C0009A811A46116AB2F90C30B2F9142040F22B
:1017D0007124624303EB4210421A12B2494B9A80C1
:1017E00013E0484A928A521E12B2464B9A821A4617
:1017F000B2F90C30B2F9142040F27124624303EBC9
:101800004210421A12B23F4B9A803E4AB2F904206B
:1018100042F210739A42E4DC13E03A4A928A521C74
:1018200012B2384B9A821A46B2F90C30B2F914202F
:1018300040F27124624303EB4210421A12B2314B60
:101840009A80304AB2F904202F4B9A42E5DB2D4AA8
:10185000106210BD10B52F4A128812B2294BDA81DE
:101860001A46516AB2F90E30B2F9162040F27124CC
:10187000624303EB4210421A12B2224BDA8013E0A9
:10188000204AD28A521E12B21E4BDA821A46B2F98E
:101890000E30B2F9162040F27124624303EB42107D
:1018A000421A12B2174BDA80164AB2F9062042F2F7
:1018B00010739A42E4DC13E0124AD28A521C12B22C
:1018C000104BDA821A46B2F90E30B2F9162040F205
:1018D0007124624303EB4210421A12B2094BDA80C0
:1018E000084AB2F90620084B9A42E5DB054A5062E5
:1018F00010BD00B5FFF710FFFFF7ACFFFFF75BFF70
:1019000000BD000054010020F0D8FFFF2404004077
:1019100024080040240C004008B50121082000F0F4
:101920009DFF2020ADF8000003208DF80200142058
:101930008DF803006946DD4800F0D4FC0121DC4845
:1019400000F0A1FD1020ADF8000003208DF802008A
:1019500014208DF803006946D44800F0C3FC08BD8C
:10196000002100BF48E000BF00BF00BF00BF00BFB4
:1019700000BF00BF00BF00BF00BF00BF00BF00BF6F
:1019800000BF00BF00BF00BF00BF00BF00BF00BF5F
:1019900000BF00BF00BF00BF00BF00BF00BF00BF4F
:1019A00000BF00BF00BF00BF00BF00BF00BF00BF3F
:1019B00000BF00BF00BF00BF00BF00BF00BF00BF2F
:1019C00000BF00BF00BF00BF00BF00BF00BF00BF1F
:1019D00000BF00BF00BF00BF00BF00BF00BF00BF0F
:1019E00000BF00BF00BF00BF00BF00BF00BF00BFFF
:1019F00000BF00BF00BF491C8142B4D3704700B58F
:101A00002020AA4910310860102008600220FFF74A
:101A1000A7FFA6480830006808B9012000E00020B0
:101A200000F0200008B1002000BD20209F491431A3
:101A300008600220FFF794FF9C480830006800F01F
:101A4000200008B10020EFE72020984914310860F9
:101A50000220FFF785FF0120E6E700B5102093493B
:101A6000143108600220FFF77BFF20208F491431DA
:101A700008600220FFF774FF10208C4910310860C5
:101A80000220FFF76DFF20208849103108600220F6
:101A9000FFF766FF00BD00B51020844914310860CF
:101AA0000220FFF75DFF20208049143108600220EA
:101AB000FFF756FF10207D49103108600220FFF724
:101AC0004FFF10207949143108600220FFF748FFCA
:101AD00000BD00B510207549143108600220FFF7E1
:101AE0003FFF20207149103108600220FFF738FFC6
:101AF00010206E49103108600220FFF731FF1020DE
:101B00006A49143108600220FFF72AFF00BD00B5C2
:101B100010206649143108600220FFF721FF2020C1
:101B20006249103108600220FFF71AFF10205F4958
:101B3000103108600220FFF713FF5C48083000688E
:101B400000F0200040B110205849143108600220F4
:101B5000FFF706FF002000BD102054491431086033
:101B60000220FFF7FDFE0120F5E710B5034608242B
:101B70001EE010204D49143108600220FFF7F0FEEE
:101B800003F0800020B1202048491031086003E0B4
:101B900020204649143108605806030E0220FFF742
:101BA000DFFE10204149103108600220FFF7D8FE07
:101BB0002000A4F10101CCB2DBD110203B4914314B
:101BC000086010BD10B508240023202037491031CB
:101BD000086017E05806030E1020344914310860DD
:101BE0000220FFF7BDFE10203049103108600220AE
:101BF000FFF7B6FE2D480830006800F0200008B15D
:101C000043F001032000A4F10101CCB2E2D1102085
:101C1000264914310860184610BD70B506460C46BA
:101C20001546FFF7ECFE08B9002070BD3046FFF7FF
:101C30009CFFFFF76CFF18B9FFF70FFF0020F4E7D8
:101C40002046FFF792FFFFF762FF2846FFF78DFF60
:101C5000FFF75DFFFFF701FF0120E6E770B50446DF
:101C60000D46FFF7CCFE08B9002070BD2046FFF7F7
:101C70007CFFFFF74CFF18B9FFF7EFFE0020F4E7F9
:101C80002846FFF772FFFFF742FFFFF7B8FE611C1F
:101C9000C8B2FFF76AFFFFF73AFFFFF793FF064668
:101CA000FFF717FFFFF7D9FE3046DEE7000C0140D3
:101CB0000002300010B5FFF72FFE01220B211A2081
:101CC000FFF7ABFF402220211A20FFF7A6FF0122D9
:101CD00021211A20FFF7A1FF0D2209211A20FFF769
:101CE0009CFF0B223121A620FFF797FF08222D2110
:101CF000A620FFF792FF80222E21A620FFF78DFF5E
:101D000080223E21D020FFF788FF07221521D02016
:101D1000FFF783FF1E221621D020FFF77EFF00224F
:101D20001721D020FFF779FF00223E21D020FFF7B6
:101D300074FF10BD2DE9F04105460C4621462846AA
:101D4000FFF78CFF0646601CC1B22846FFF786FFEE
:101D5000074607EB0620BDE8F0812DE9F041054676
:101D60000C4621462846FFF779FF0746601CC1B2A2
:101D70002846FFF773FF064607EB0620BDE8F08113
:101D800010B54FF4A06000F0DFF910BD70B5054646
:101D90000C460021844801F0A4FFC82C01D9002082
:101DA00070BD22462946814802F076F821467E48D9
:101DB00001F0ACFF01217C4801F093FF0120EFE727
:101DC00000B58BB00121084600F03BFD7648143881
:101DD00001F0BAFE744801F0B7FE754800907548EE
:101DE000019000200290C8200390002004908020E1
:101DF000059000200690079008904FF440500990FD
:101E000000200A9069466848143801F03FFF01211C
:101E10006548143801F065FF6548009063480190FB
:101E2000102002900920039000200490802005904B
:101E300000200690079008904FF4805009900020F1
:101E40000A906946584801F021FF01224021584874
:101E5000001F00F067FE012280215548001F00F09E
:101E600061FE0BB000BD08B510208DF80000002009
:101E70008DF8010001208DF802008DF803006846FE
:101E800000F067F926208DF8000000208DF8010091
:101E900002208DF8020001208DF80300684600F052
:101EA00058F908BD10B586B004460121480400F079
:101EB000E2FC0121052000F0D1FC0420ADF8140063
:101EC00018208DF8170003208DF8160005A93A4850
:101ED00000F008FA0820ADF8140004208DF817006F
:101EE00005A9354800F0FEF901940020ADF808007E
:101EF000ADF80A00ADF80C00ADF810000C20ADF8FC
:101F00000E0001A92A48001F00F04FFDFFF7ABFFAC
:101F1000FFF756FF012240F224412548001F00F040
:101F2000DCFD01212248001F00F0CBFD40212048AC
:101F3000001F00F0AEFE06B010BD70B540F22441A7
:101F40001B48001F00F0AEFE10B31948001F0088A8
:101F5000C4B217480088C4B200211348143801F0F5
:101F6000C0FE1148143801F0D3FE05462A46114937
:101F7000124801F091FFC8210B48143801F0C6FE49
:101F800001210948143801F0ACFEFFF736FB00BF11
:101F900070BD10B54FF4001001F0BEFE18B14FF443
:101FA000001001F0ECFE10BD800002404402002051
:101FB000044400407C010020000801407003002020
:101FC000014600BF704700BF4B4A128802F0400232
:101FD000002AF9D0C2B2484B1B1D1A80704710B5B9
:101FE00086B004460121082000F038FC0121880455
:101FF00000F041FC4FF48060ADF8140003208DF830
:10200000160018208DF8170005A93C4800F06AF961
:102010004FF40060ADF8140004208DF8170005A9F6
:10202000364800F05FF927208DF8000003208DF876
:1020300001008DF8020001208DF80300684600F0D1
:1020400088F801940020ADF80800ADF80A00ADF85A
:102050000C00ADF810000C20ADF80E0001A92648C8
:1020600000F0A3FC012240F22551234800F035FD89
:102070000121214800F025FD06B010BD10B540F249
:1020800025511D4800F00EFE10B31B4800F08AFDDC
:10209000C4B21B48008800F40040C8B91848008842
:1020A00000F4804060B10A2C03D00020144908805D
:1020B00020E01348008840F400401149088019E0EE
:1020C0000D2C06D10E48008840F480400C49088051
:1020D00010E00B480088C0F30D000A490C54084872
:1020E0000088401C0649088008460088C72801DD92
:1020F0000020088010BD000000480040000C014096
:10210000C4000020D4030020094880470948004744
:10211000FEE7FEE7FEE7FEE7FEE7FEE7FEE7FEE797
:10212000FEE7FEE704480549054A064B70470000F4
:10213000B30400083101000800050020000B002056
:10214000000700200007002031490143314A116097
:10215000704770B5002100230F22C47804B32D4CC2
:10216000246804F4E064C4F5E064210AC1F10403C6
:10217000CA40447804FA03F18478144021430901E9
:10218000254C0678A155047804F01F050124AC40C5
:1021900005786D11AD0005F1E025C5F8004109E0B5
:1021A000047804F01F050124AC401C4D067876111C
:1021B00045F8264070BD1A4A0A400243154B1B1FC2
:1021C0001A60704739B1134A121D12680243114B4D
:1021D0001B1D1A6006E00F4A121D126882430D4B48
:1021E0001B1D1A607047042808D14FF0E0210969CF
:1021F00041F004014FF0E022116107E04FF0E021CF
:10220000096921F004014FF0E022116170470000DC
:102210000000FA050CED00E000E400E080E100E0E1
:1022200080FFFF1F10B50446CC48844208D101212D
:10223000042000F02DFB0021042000F029FB46E0E3
:10224000C748844208D10121082000F021FB002169
:10225000082000F01DFB3AE0C248844208D1012169
:10226000102000F015FB0021102000F011FB2EE0E3
:10227000BD48844208D10121202000F009FB002143
:10228000202000F005FB22E0B848844208D101215B
:10229000402000F0FDFA0021402000F0F9FA16E09D
:1022A000B348844208D10121802000F0F1FA0021D6
:1022B000802000F0EDFA0AE0AE48844207D1012107
:1022C000801500F0E5FA0021A01500F0E1FA10BD3C
:1022D00010B50121084600F0DBFA0021012000F0D2
:1022E000D7FA10BD2DE9F041024600250026002056
:1022F00000230024002791F803C00CF00F0591F88B
:1023000003C00CF0100CBCF1000F03D091F802C018
:102310004CEA050591F800C0BCF1000F31D01468FB
:1023200000202BE04FF0010C0CFA00F3B1F800C0D4
:102330000CEA03069E4220D183004FF00F0C0CFAEA
:1023400003F7BC4305FA03FC4CEA040491F803C00C
:10235000BCF1280F06D14FF0010C0CFA00FCC2F8BA
:1023600014C00AE091F803C0BCF1480F05D14FF04A
:10237000010C0CFA00FCC2F810C0401C0828D1D394
:102380001460B1F800C0BCF1FF0F34DD54680020C8
:102390002EE000F1080C4FF0010808FA0CF3B1F838
:1023A00000C00CEA03069E4221D183004FF00F0CBF
:1023B0000CFA03F7BC4305FA03FC4CEA040491F859
:1023C00003C0BCF1280F05D100F1080C08FA0CF885
:1023D000C2F8148091F803C0BCF1480F07D100F196
:1023E000080C4FF0010808FA0CF8C2F81080401CE5
:1023F0000828CED35460BDE8F0814FF6FF7101800C
:10240000022181700421C170704702460020936848
:102410000B400BB1012000E00020704701468868A6
:1024200080B2704702460020D3680B400BB10120F8
:1024300000E0002070470146C86880B27047016123
:102440007047416170470AB1016100E04161704726
:10245000C16070474FF480320A43826181618261BA
:1024600082698269704702460020434B18684FF624
:102470008073184040EA021008433F4B18607047D1
:102480003E49C8617047F0B50A4600230024002188
:10249000002500F00046B6F1004F02D1364EF1693A
:1024A00001E0354E7168C0F3034583B200F4401675
:1024B000B6F5401F08D121F070612F4E766826F0E6
:1024C00070662D4F7E6012E000F48016B6F5801F16
:1024D00006D1032606FA05F4A14341F0706106E037
:1024E000460D360103FA06F6B14341F0706122B1A0
:1024F000460D360103FA06F6314300F00046B6F108
:10250000004F02D11C4EF16101E01B4E7160F0BD25
:1025100030B500228B071C0F0F2303FA04F2164B71
:1025200008338C1053F824309343134C08348D1027
:1025300044F8253023468C1053F824308C07240FA0
:1025400000FA04F423430C4C08348D1044F8253071
:1025500030BD0A49DC3108607047000000080140C6
:10256000000C01400010014000140140001801401F
:10257000001C0140002001400000014000002042FA
:10258000DF48006840F00100DD4908600846406807
:10259000DC490840DA49486008460068DA490840E2
:1025A000D74908600846006820F480200860084683
:1025B000406820F4FE0048604FF41F0088607047B8
:1025C000CF49096821F48031CD4A1160114609686C
:1025D00021F480211160B0F5803F03D0B0F5802F49
:1025E0000ED106E0C649096841F48031C44A116041
:1025F00007E0C349096841F4A021C14A116000E025
:1026000000BF00BF704710B5014600220023002024
:102610004A11012A02D1BA4C236806E0022A02D1EB
:10262000B74C236A01E0B64C636A01F01F02012433
:1026300094401C400CB1012000E0002010BD38B5D2
:10264000002000900024002500BF3120FFF7DBFFB1
:1026500005460098401C00900098B0F5A06F01D08E
:10266000002DF2D03120FFF7CEFF08B1012400E0A9
:102670000024204638BD01460020A14A106820F001
:10268000F80040EAC10010607047A0490860704738
:10269000024600209A4B586820F47C1042EA01035D
:1026A0001843974B58607047984908667047014631
:1026B0000020934A506820F00300084350607047A0
:1026C0008F48406800F00C007047014600208C4A9B
:1026D000506820F0F0000843506070470146002029
:1026E000874A506820F4E060084350607047014614
:1026F0000020834A506820F4605040EAC1005060D6
:10270000704729B17E4A527A02437D4B5A7204E0E7
:102710007B4A527A82437A4B5A7270477B49D8314E
:102720000860704701460020754A506820F4404018
:102730000843506070470021714A20321170704A7E
:1027400082F82010012802D004280AD104E00121D7
:102750006B4A2032117005E00521694A2032117060
:1027600000E000BF00BF70476949086070476449D6
:10277000096A0143624A1162704765494439086039
:10278000704730B500210022002400235C4D6D68A5
:1027900005F00C0121B1042905D0082923D105E059
:1027A0005C4D056022E05B4D05601FE0544D6D6897
:1027B00005F47012524D6D6805F48034022505EB66
:1027C00092421CB9544D554305600BE04C4D6D6869
:1027D00005F400351DB1504D5543056002E04D4DE7
:1027E0005543056002E04B4D056000BF00BF444DFE
:1027F0006D6805F0F0010909484D6B5C0568DD4026
:1028000045603F4D6D6805F4E061090A434D6B5C1E
:102810004568DD4085603A4D6D6805F46051C90A30
:102820003E4D6B5C4568DD40C560354D6D6805F417
:102830004041890B3A4D6B5CC568B5FBF3F505610A
:1028400030BD29B12E4A526902432D4B5A6104E032
:102850002B4A526982432A4B5A61704729B1284A50
:1028600092690243264B9A6104E0254A92698243A9
:10287000234B9A61704729B1214AD2690243204B08
:10288000DA6104E01E4AD26982431D4BDA61704767
:1028900029B11B4AD2680243194BDA6004E0184A96
:1028A000D2688243164BDA60704729B1144A126924
:1028B0000243134B1A6104E0114A12698243104B20
:1028C0001A61704712494039086070470F49C8645F
:1028D00070470B49C87170470948406A40F08070E2
:1028E00007494862704701460020054A92680A403D
:1028F0000AB1012000E0002070470149887270474A
:10290000001002400000FFF8FFFFF6FE0000424208
:102910008004424200127A0000093D00C6000020F7
:10292000D600002010B50446FB48844209D101219D
:102930008803FFF7ADFF00214FF48040FFF7A8FFA9
:1029400032E0F648844209D101214804FFF7ADFF87
:1029500000214FF40030FFF7A8FF25E0F048844243
:1029600009D101218804FFF7A0FF00214FF4802046
:10297000FFF79BFF18E0EB48844209D10121C8040E
:10298000FFF793FF00214FF40020FFF78EFF0BE0CD
:10299000E548844208D101210805FFF786FF0021A0
:1029A0004FF48010FFF781FF10BD2DE9F04786B08E
:1029B00005460E460024A24600BFA1460027B08966
:1029C00000B100BF2F462C8A4CF6FF700440F088FF
:1029D00004432C82AC894EF6F3100440B088318950
:1029E0000843718908430443AC81AC8A4FF6FF4029
:1029F0000440B0890443AC8201A8FFF7C2FEC64878
:102A0000874202D1DDF810A001E0DDF80CA0A88912
:102A100000F4004040B10AEBCA0000EB0A10316834
:102A20004900B0FBF1F807E00AEBCA0000EB0A101E
:102A300031688900B0FBF1F86420B8FBF0F00401C4
:102A40002009642101FB1089A88900F4004040B1ED
:102A5000322000EBC900B0FBF1F000F007000443A6
:102A600008E0322000EB09106421B0FBF1F000F027
:102A70000F0004432C8106B0BDE8F0874FF41651D7
:102A8000016000218180C18001810C2141810021F0
:102A90008181704710B502460020108A4FF2FF0373
:102AA00018400B884C8823438C882343CC882343CD
:102AB0001843108210BD0021018041808180C180B7
:102AC000704721B1828942F40052828104E08289F8
:102AD0004DF6FF731A4082817047F0B5034600241B
:102AE00000260025002040F66A17B94200D100BF39
:102AF0001846C1F3421401F01F06012707FA06F534
:102B0000012C01D10C3004E0022C01D1103000E086
:102B100014301AB107682F43076002E00768AF431B
:102B20000760F0BD1AB1838A0B43838202E0838A77
:102B30008B4383827047028A4FF6F0731A400282F9
:102B4000028A0A430282704782894FF2FF731A4059
:102B5000828182890A438281704721B1828942F051
:102B60000202828104E082894FF6FD731A4082815D
:102B70007047028A4FF6DF731A400282028A0A43C4
:102B80000282704721B1028A42F48042028204E04C
:102B9000028A4BF6FF731A4002827047C1F30802A3
:102BA0008280704701468888C0F308007047818999
:102BB00041F0010181817047028BD2B20283028B06
:102BC00042EA012202837047028B02F47F420283B1
:102BD000028B0A430283704721B1828A42F02002AD
:102BE000828204E0828A4FF6DF731A408282704745
:102BF00021B1828A42F01002828204E0828A4FF67A
:102C0000EF731A408282704721B1828A42F0080233
:102C1000828204E0828A4FF6F7731A4082827047FC
:102C200021B1828942F40042828103E08289C2F3A9
:102C30000E028281704721B1828A42F40062828250
:102C400004E0828A4FF2FF731A4082827047828AC0
:102C50004FF6FB731A408282828A0A43828270474F
:102C600021B1828A42F00202828204E0828A4FF617
:102C7000FD731A408282704702460020B1F5007F42
:102C800000D100BF13880B400BB1012000E00020F1
:102C9000704701F40072B2F5007F00D100BFCA4353
:102CA0000280704770B502460024002300250020F2
:102CB00040F66A16B14200D100BFC1F3421501F0DF
:102CC0001F03012606FA03F3012D02D19689334032
:102CD00006E0022D02D1168A334001E0968A334085
:102CE0000C12012606FA04F41688344013B10CB114
:102CF000012000E0002070BD10B50022002340F646
:102D00006A14A14200D100BF0A1201249440A3B268
:102D1000DC43048010BD0000003801400044004046
:102D200000480040004C00400050004010B50446F0
:102D3000FE48844208D10121C014FFF7A9FD0021FB
:102D4000E014FFF7A5FDC4E0B4F1804F08D10121E4
:102D50000846FFF7AAFD00210120FFF7A6FDB8E015
:102D6000F348844208D101210220FFF79EFD002193
:102D70000220FFF79AFDACE0EE48844208D1012121
:102D80000420FFF792FD00210420FFF78EFDA0E054
:102D9000E948844208D101210820FFF786FD00217F
:102DA0000820FFF782FD94E0E448844208D1012125
:102DB0001020FFF77AFD00211020FFF776FD88E054
:102DC000DF48844208D101212020FFF76EFD002159
:102DD0002020FFF76AFD7CE0DA48844208D1012117
:102DE0004014FFF755FD00216014FFF751FD70E01E
:102DF000D548844209D10121C804FFF749FD0021CB
:102E00004FF40020FFF744FD63E0D048844209D12D
:102E100001210805FFF73CFD00214FF48010FFF76A
:102E200037FD56E0CA48844209D101214805FFF721
:102E30002FFD00214FF40010FFF72AFD49E0C5489F
:102E4000844208D101214020FFF72FFD00214020BE
:102E5000FFF72BFD3DE0C048844208D101218020CE
:102E6000FFF723FD00218020FFF71FFD31E0BB4865
:102E7000844208D101218015FFF717FD0021A0151C
:102E8000FFF713FD25E0B648844209D1012108046B
:102E9000FFF7FEFC00214FF48030FFF7F9FC18E04B
:102EA000B048844209D101214804FFF7F1FC002118
:102EB0004FF40030FFF7ECFC0BE0AB48844208D144
:102EC00001218804FFF7E4FC00214FF48020FFF784
:102ED000DFFC10BD00220288944B98420ED0994B23
:102EE00098420BD0B0F1804F08D0914B984205D05A
:102EF000904B984202D0904B984204D14FF68F737A
:102F00001A404B881A438D4B984207D08C4B9842FD
:102F100004D04FF6FF431A40CB881A4302808B88B7
:102F200083850B880385814B98420BD0854B984253
:102F300008D08B4B984205D08A4B984202D08A4BDE
:102F4000984201D10B7A038601238382704770B5C2
:102F5000002400220023058C4FF6FE7635400584C0
:102F6000028C8388048B4FF68F752C40B51E2C4045
:102F70000D882C43751E2A400D892A434D882A430B
:102F80006A4DA8420BD06F4DA84208D0744DA8429C
:102F900005D0744DA84202D0734DA84213D14FF60C
:102FA000F7752A404D892A434FF6FB752A408D88D4
:102FB0002A434FF6FF652B404FF6FF552B408D8976
:102FC0002B43CD892B4383800483CD88858602845F
:102FD00070BD70B5002400220023058C4FF6EF76FB
:102FE00035400584028C8388048B48F6FF752C409D
:102FF0004FF6FF452C400D884FF6FF7606EA052573
:103000002C434FF6DF752A400D8906EA05152A4341
:103010004D8806EA05152A43444DA84202D0494D81
:10302000A8421DD14FF67F752A404D894FF6FF7695
:1030300006EA05152A434FF6BF752A408D8806EA31
:1030400005152A434FF6FF352B404FF2FF752B40F5
:103050008D8906EA85052B43CD8906EA85052B4334
:1030600083800483CD880587028470BD70B50024F9
:1030700000220023058C4FF6FF6635400584028C44
:103080008388848B4FF68F752C404FF6FC752C404F
:103090000D882C434FF6FF552A400D894FF6FF76D9
:1030A00006EA05252A434D8806EA05252A431F4DD1
:1030B000A84202D0234DA8421DD14FF2FF752A40ED
:1030C0004D894FF6FF7606EA05252A434FF6FF3570
:1030D0002A408D8806EA05252A434EF6FF752B40C7
:1030E0004DF6FF752B408D8906EA05152B43CD89DA
:1030F00006EA05152B4383808483CD888587028467
:1031000070BD70B5002200230024058C4EF6FF76BA
:1031100035400584038C8488828B48F6FF752A40ED
:103120004FF6FF452A400D8820E00000002C0140AA
:103130000004004000080040000C00400010004067
:103140000014004000340140004C01400050014098
:103150000054014000180040001C004000200040C6
:103160000040014000440140004801404FF6FF7616
:1031700006EA05252A434DF6FF752B400D8906EA20
:1031800005352B434D8806EA05352B43FA4DA842F9
:1031900002D0FA4DA84208D14BF6FF752C408D891C
:1031A0004FF6FF7606EA85152C4384808283CD880E
:1031B000A0F84050038470BD828B4FF2FF331A4059
:1031C0008283828B4FF6FF7303EA01231A438283C3
:1031D0007047F0B50C461546002200210026078CEA
:1031E0004EF6FF7C07EA0C070784828B018C4FF6B2
:1031F000FF7707EA043640F6FF473A404FF6FF777D
:1032000007EA05273A434FF6FF7707EA03373A43C1
:10321000D94FB8420ED0D94FB8420BD0B0F1804F41
:1032200008D0D74FB84205D0D64FB84202D0D64FBB
:10323000B84206D14DF6FF77394046F480573943FE
:1032400005E047F6FF57394044F4805739438283FD
:103250000184F0BD828B4FF6F3731A408283828B18
:103260000A4382837047F0B50C46154600220021C0
:103270000026078C4FF6FF6C07EA0C070784828B49
:10328000018C4FF6FF7707EA04264FF60C773A4099
:103290004FF6FF7707EA03172F433A43B64FB8427A
:1032A0000ED0B64FB8420BD0B0F1804F08D0B44F1B
:1032B000B84205D0B34FB84202D0B34FB84206D19E
:1032C0004FF6FF57394046F48077394305E04FF217
:1032D000FF57394044F48077394382830184F0BD3D
:1032E000028B4FF2FF331A400283028B4FF6FF73BB
:1032F00003EA01231A4302837047F0B50C461546D2
:10330000002200210026078C4FF6EF7C07EA0C070D
:103310000784028B018C4FF6FF7707EA041640F60C
:10332000FF473A404FF6FF7707EA03373A434FF635
:10333000FF7707EA05273A438F4FB8420ED08F4FE9
:10334000B8420BD0B0F1804F08D08D4FB84205D0B5
:103350008C4FB84202D08C4FB84206D14FF6DF777F
:10336000394046F01007394305E04FF65F773940A2
:1033700044F01007394302830184F0BD028B4FF6FD
:10338000F3731A400283028B0A4302837047F0B53D
:103390000C46154600220021068C4FF6FE773E4073
:1033A0000684028B018C4FF60C7632407E1C06EAB6
:1033B00003162E433243704EB0420ED06F4EB042D1
:1033C0000BD0B0F1804F08D06D4EB04205D06D4E9D
:1033D000B04202D06C4EB04206D14FF6FD7631407D
:1033E00044F00106314305E04FF6F576314044F0F4
:1033F0000106314302830184F0BD70B505460C46D9
:103400005D4885420ED05D4885420BD0B5F1804FB6
:1034100008D05B48854205D05A48854202D05A48B8
:10342000854200D100E000BF208850B92389A288DE
:1034300061882846FFF7ABFFE1882846FFF79EFF2B
:1034400025E0208804280AD12389A288618828469B
:10345000FFF753FFE1882846FFF742FF17E0208877
:1034600008280AD12389A28861882846FFF7FBFE35
:10347000E1882846FFF7EEFE09E02389A2886188EB
:103480002846FFF7A6FEE1882846FFF795FE70BDA7
:103490002DE9F04105460C4600260127608808B951
:1034A000022600E00026A088012801D1022700E0C2
:1034B00001272088A0B92389A28861882846FFF7C0
:1034C00066FFE1882846FFF759FF23893A463146CF
:1034D0002846FFF712FFE1882846FFF701FF13E0B7
:1034E0002389A28861882846FFF707FFE1882846DC
:1034F000FFF7F6FE23893A4631462846FFF747FF95
:10350000E1882846FFF73AFFBDE8F0810A884B883A
:103510001A438B881A43CB881A430B891A434B8969
:103520001A438B891A43A0F8442070474FF6FF7165
:10353000818000210180C18041800172704700219B
:10354000018041808180C180018141818181C1816F
:103550007047002101804180012181800021C180CC
:10356000018170470021018041808180C1800181FB
:103570004181818170470000002C014000340140EE
:103580000004004000080040000C004021B1028807
:1035900042F00102028004E002884FF6FE731A40F6
:1035A0000280704731B1B0F8442042F40042A0F8E4
:1035B000442005E0B0F84420C2F30E02A0F84420F5
:1035C00070471AB183890B43838102E083898B435F
:1035D000838170478182704741EA0203A0F8483036
:1035E00070471AB183890B43838102E083898B433F
:1035F0008381704701894FF6F8721140018170474D
:103600000A46002101894FF68F7319401143018149
:10361000704730B504460D4629462046FFF7F0FFB7
:10362000208940F00700208130BD2DE9F04104469B
:103630000D4616461F46602D06D13B4601223146F7
:103640002046FFF75AFE05E03B4601223146204660
:10365000FFF79DFE29462046FFF7D2FF208940F064
:1036600007002081BDE8F08130B50C4600210189BA
:10367000C9B24FF6FF7505EA0325154325432943D3
:10368000018130BD2DE9F04105460E4617469846AA
:10369000002443463A4631462846FFF7E5FF2C8989
:1036A0004FF6F870044044F007044FF68F70044062
:1036B00044F070042C81BDE8F081F0B504460D465D
:1036C00016461F463B46324629462046FFF7CCFFAA
:1036D000208940F480402081F0BD018582827047BE
:1036E0000A46002101884FF68F731940114301806B
:1036F0007047F0B50C4615461E46002100220023F7
:103700000189028B038C4FF6F877394021434FF63D
:10371000FC473A4040F201173A434FF6DD773B4011
:103720004FF6FF7707EA06172F433B4301810283D9
:103730000384F0BD0A460021018B4FF68F731940B8
:103740001143018370470A460021018B48F6FF733D
:1037500019404FF6FF7303EA0223194301837047B0
:103760000A460021818B4FF68F73194011438183E4
:1037700070470A460021818B48F6FF7319404FF6C7
:10378000FF7303EA022319438183704721B1028842
:1037900042F08002028004E002884FF67F731A40F4
:1037A0000280704721B1828842F00402828004E0E6
:1037B00082884FF6FB731A408280704721B182885D
:1037C00042F00802828004E082884FF6F7731A40C4
:1037D0008280704721B1828842F00102828004E039
:1037E00082884FF6FE731A40828070470A46002195
:1037F000018B4FF6F77319401143018370470A4656
:103800000021018B4FF2FF7319404FF6FF7303EA5B
:1038100002231943018370470A460021818B4FF62A
:10382000F77319401143818370470A460021818B49
:103830004FF2FF7319404FF6FF7303EA0223194357
:10384000818370470A460021018B4FF6FB731940B4
:103850001143018370470A460021018B4FF6FF3365
:1038600019404FF6FF7303EA02231943018370479F
:103870000A460021818B4FF6FB7319401143818367
:1038800070470A460021818B4FF6FF3319404FF6EF
:10389000FF7303EA02231943818370470A4600211C
:1038A000018B4FF67F7319401143018370470A461D
:1038B0000021018BC1F30E014FF6FF7303EA0223CF
:1038C0001943018370470A460021818B4FF67F73AD
:1038D00019401143818370470A460021818BC1F34F
:1038E0000E014FF6FF7303EA0223194381837047E9
:1038F0000A460021018C4FF6FD73194011430184E3
:1039000070470A460021018C4FF6F77319401143A6
:10391000018470470A460021018C4FF6DF7319407D
:103920004FF6FF7303EA02131943018470470A46F6
:103930000021018C4FF67F7319404FF6FF7303EAA5
:1039400002131943018470470A460021018C4FF687
:10395000FF5319404FF6FF7303EA02231943018412
:1039600070470A460021018C4FF2FF7319404FF651
:10397000FF7303EA02231943018470470A460021BA
:10398000018C4DF6FF7319404FF6FF7303EA0233C3
:1039900019430184704730B5002301248C40A3B241
:1039A000048C9C430484048C02FA01F5ADB22C43D0
:1039B000048430BD30B5002304248C40A3B2048CB1
:1039C0009C430484048C02FA01F5ADB22C430484B8
:1039D00030BD70B50346002000241846183001257C
:1039E0008D40ACB21D8CA5431D8409B1082909D1B5
:1039F00000EB6100056825F070050560056815435A
:103A000005600EE00D1FC5F34E052844056825F43A
:103A1000E045056005684FF6FF7606EA0226354365
:103A2000056070BD21B1028842F00202028004E00C
:103A300002884FF6FD731A400280704721B1028858
:103A400042F00402028004E002884FF6FB731A4041
:103A50000280704721B1828842F08002828004E0B7
:103A600082884FF67F731A408280704702884FF633
:103A7000F7731A40028002880A43028070478288E6
:103A80004FF68F731A40828082880A438280704783
:103A900002894FF6F8731A40028102890A430281B3
:103AA000704702894FF67F731A40028102890A43E8
:103AB0000281704781847047818570478186704795
:103AC0000187704781877047A0F8401070470288CF
:103AD0004FF6FF431A40028002880A430280704773
:103AE0000146888E70470146088F70470146888FCF
:103AF00070470146B1F8400070470146888C704716
:103B00000146088D704702460020138A0B400BB116
:103B1000012000E000207047CA430282704730B5A0
:103B20000246002000230024158A05EA0103958936
:103B300005EA010413B10CB1012000E0002030BD02
:103B4000CA4302827047000001684FF6FE721140BE
:103B500001600021016041608160C1608D4988423F
:103B600008D18C490839496841F00F01894A083A5F
:103B700051608AE087491431884208D18549083963
:103B8000496841F0F001834A083A51607DE081497B
:103B90002831884208D17F490839496841F4706169
:103BA0007C4A083A516070E07A493C31884208D139
:103BB00078490839496841F47041764A083A5160B9
:103BC00063E074495031884208D172490839496824
:103BD00041F470216F4A083A516056E06D496431F2
:103BE000884208D16B490839496841F47001694A33
:103BF000083A516049E067497831884208D16549FF
:103C00000839496841F07061624A083A51603CE005
:103C10006149884206D1011F096841F00F01021F66
:103C2000116032E05C491431884208D15A49091FB9
:103C3000096841F0F001584A121F116025E0564909
:103C40002831884208D15449091F096841F470613C
:103C5000514A121F116018E04F493C31884208D187
:103C60004D49091F096841F470414B4A121F116008
:103C70000BE049495031884207D14749091F09687B
:103C800041F47021444A121F1160704710B50022A0
:103C9000026847F6F0739A430C6A8B6823430C69F9
:103CA00023434C6923438C692343CC6923434C6AE7
:103CB00023438C6A23431A430260CB6843600B683A
:103CC00083604B68C36010BD00210160416081606A
:103CD000C160016141618161C161016241628162D2
:103CE000704721B1026842F00102026004E00268FC
:103CF0004FF6FE731A40026070471AB103680B4317
:103D0000036002E003688B430360704741607047C3
:103D10000146486880B2704701460020002201F049
:103D200080531BB11C4B083B1A6802E0194B083B3F
:103D30001A6802EA01030BB1012000E0002070477D
:103D400000F0805119B11449091F086002E01149BF
:103D500008394860704701460020002201F0805376
:103D60001BB10D4B083B1A6802E00A4B083B1A686E
:103D700002EA01030BB1012000E00020704700F0CF
:103D8000805119B10449091F086002E0014908394E
:103D90004860704708000240080402407047000075
:103DA0000FB4044910B503AA029800F023F910BC1F
:103DB0005DF814FBC00000202DE9F0410E460446DA
:103DC000002020622046E168884730B3252805D0CE
:103DD000D4E901219047206A401CF2E7E1682046BF
:103DE00000278847050018D0A5F14100192802D8FE
:103DF00020354FF400673246294620462760FCF7FD
:103E0000D1F940B1012804D0F61D26F00706083686
:103E1000D8E7361DD6E72846DAE7206ABDE8F08104
:103E20002DE9F0410646002410687529314616A593
:103E300010D0AFF30080002802DA404213A507E05B
:103E400031688A0701D512A502E0490704D511A5FA
:103E5000012401E0AFF3008000210A2206F12407CB
:103E600009E0B0FBF2FCB0FBF2F302FB1C003030C7
:103E700078541846491C0028F3D123462A46304678
:103E8000BDE8F04100F05CB8000000002D0000002B
:103E90002B00000020000000032A40F2308010F0C8
:103EA000030C00F0158011F8013BBCF1020F6244D5
:103EB00098BF11F801CB00F8013B38BF11F8013B66
:103EC000A2F1040298BF00F801CB38BF00F8013B13
:103ED00011F0030300F0A080083AC0F0088051F808
:103EE000043B083A51F804CBA0E80810F5E7121D8E
:103EF0005CBF51F8043B40F8043BAFF30080D207AD
:103F000024BF11F8013B11F801CB48BF11F8012B78
:103F100024BF00F8013B00F801CB48BF00F8012B9B
:103F20007047704770477047704710B500F0A6F8AB
:103F3000006810BD10B5044600F0A0F8046010BD84
:103F40002DE9F0470D4699469246044600F12408B3
:103F50000168880604D5E06921F01001216000E0C5
:103F60000120A84201DD471B00E00027A1697A1962
:103F700002EB0900081AA0612078C00602D420468E
:103F8000AFF30080002608E0D4E901211AF806000A
:103F90009047206A401C761C20624E45F4DB207856
:103FA000C0060AD52046AFF3008006E0D4E901211F
:103FB00030209047206A401C2062381EA7F101077C
:103FC000F4DC07E0D4E9012118F805009047206AE5
:103FD000401C2062281EA5F10105F3DC2046AFF34A
:103FE00000802078000602D50220BDE8F08701207D
:103FF000FBE70000074B70B50D467B4400F047F827
:104000000446284600F056F810B14FF0FF3070BD5E
:10401000204670BDC9DFFFFF10B5203AC0F00B800D
:10402000B1E81850203AA0E81850B1E81850A0E8BC
:104030001850BFF4F5AF5FEA027C24BFB1E8185016
:10404000A0E8185044BF18C918C0BDE810405FEA86
:10405000827C24BF51F8043B40F8043B08BF704702
:10406000D20728BF31F8023B48BF11F8012B28BF07
:1040700020F8023B48BF00F8012B7047004870470A
:104080009C04002001694A1C02610878704700B551
:104090008FB0CDE901310021059105497944CDE981
:1040A000031011466846FFF787FE0FB000BD000001
:1040B000E5FFFFFF007B00F080007047004870477D
:1040C0009C0400207546FFF7F9FFAE4605006946DF
:1040D000534620F00700854618B020B5FEF722F8B9
:1040E000BDE820404FF000064FF000074FF00008F9
:1040F0004FF0000B21F00701AC46ACE8C009ACE87A
:10410000C009ACE8C009ACE8C0098D467047044658
:10411000AFF300802046FCF757F8490050EAC12071
:1041200018BF04204A0D18BF40F0010040F2FF7292
:10413000B2EB515F08BF40F00200012808BF052024
:10414000704700002DE9F74F144694B00021C4E9F0
:1041500002111599079121F00045C9498D4206DCED
:104160001599C4E9000117B00020BDE8F08FC549DA
:10417000DFF814A3A9423CDD0799C44E0029C44FBF
:10418000C44A1599534619DD00F006FF554506D07F
:10419000C14AC24B00F000FFC4E900010AE04FF041
:1041A000D352BE4B00F0F8FE32463B4600F0F4FE20
:1041B000C4E9000117B00120BDE8F08F00F080FBDA
:1041C000554506D0B44AB54B00F07AFBC4E900016E
:1041D0000AE04FF0D352B14B00F072FB32463B463F
:1041E00000F06EFBC4E9000117B04FF0FF30BDE8EE
:1041F000F08FAB49A942159978DB21F00041834645
:104200008846A84AA84B00F0BDFD0022A74B00F04D
:1042100057FB00F05DFD099000F089FD06460F4652
:104220009C4A534600F0AEFD43465A4600F0A8FEB5
:1042300080468A46984A994B3046394600F0A2FD9E
:104240002A0D01250B924246534600F099FE032D9C
:10425000C4E9000139D00B98C1F30A51401A05EBAB
:1042600045111139814230DA9148C346784400EB58
:104270000510CDF80CA00C90D0E90023304639464B
:1042800000F080FD02460B460491069058460399C3
:1042900000F082FE80468A4602460B465846039945
:1042A00000F07AFE049B069A00F076FE83460C9896
:1042B00003913946D0E90223304600F063FD5A46A7
:1042C000039B00F069FE6D1CBDE707980028A2BFA4
:1042D000099817B0BDE8F08F616881F00041616016
:1042E000099817B04042BDE8F08FFFE78446159863
:1042F000C1F31301C0F30A50A0F2F5304FEA601881
:1043000000F01F06C6F120001390002006900790D1
:1043100041F4801E05206D4676B1664A08EB000127
:104320007A4452F8213002EB8101B3404A68139974
:1043300022FA01F1194305E05F4908EB00027944D4
:1043400051F82210A1FB0E27A1FB0C131A449A422C
:1043500034BF0123002303EB070A05EB8003D3E9F5
:1043600001B70F448F4234BF0121002193448B4495
:1043700011B1934502D903E0934501D2012100E038
:104380000021C3E901B7514445F82010011EA0F1F6
:104390000100C1DC0298059F00F10050800F1290CF
:1043A0000298DDE90356800000F0C1FC83462846F0
:1043B0000D9100F0D3FC6FF01D0201F086F9CDE9FC
:1043C0000E01304600F0CAFC6FF03D0201F07DF9AD
:1043D00080468A46384600F0C1FC6FF05D0201F06D
:1043E00074F9074642465346119100F069FADDE937
:1043F0000E2300F065FA5A460D9B00F061FA002585
:104400000E465A4628460D9B00F0C6FDDDE90E23F8
:1044100000F0C2FD4246534600F0BEFD3A46119BF5
:1044200000F0AEFDDFF898A0244A534600F0AAFC45
:1044300007468846234A244B3146284600F0A2FC12
:104440003A46434600F03CFA074688464FF0A842F9
:1044500053463146284600F095FC3A46434600F064
:104460002FFA159A12F0004F04D0129A81F00041F1
:1044700052421292C4E90001129817B0BDE8F08FC1
:10448000FB21E93F7CD90240FB21F93F7370032EE9
:104490008A19A33B000040543163621A61B4D03DD5
:1044A000FB21394183C8C96D305FE43F0000E03F24
:1044B000181500009414000076140000182D4454C0
:1044C000FB21F93D3326A611460B113C2DE9FF4D8A
:1044D00021F0004807460C46B8F1795F08DA00F091
:1044E000F7FB002801BF0020324904B0BDE8F08D81
:1044F0003A4623461046194600F044FC054602465B
:104500002D480E460B460621784400F05DF82A46F9
:10451000334600F037FCDDE9022382468B463846FD
:10452000214600F02FFC04460F4652465B462846C3
:10453000314600F027FC22463B4600F02DFD0746A1
:104540008A464FF0FF322846314601F0BEF81B4A3A
:1045500090450ADA3A46534600F01EFD04B00022A8
:10456000BDE8F04D134B00F00BBD154A4245A8BF06
:10457000A8F500154FF00004B8BF124D22462B4697
:1045800000F00AFD0646884622462B4600200949CF
:1045900000F002FD04460D463A4653463046414679
:1045A00000F0FAFC04B022462B46BDE8F04D00F0C6
:1045B000E7BC00000000F03F4C1200003333D33F53
:1045C0000000E93F0000D23F2DE9F0414F1E00EB13
:1045D000C7010446D1E9000115461E4637F0060220
:1045E0000DD02A46334600F0CDFB7F1E04EBC703F7
:1045F000D3E9002300F064F937F00602F1D1022F6D
:1046000025D0042F13D0062F18BFBDE8F0812A460D
:10461000334600F0B7FBD4E90A2300F051F92A46EB
:10462000334600F0AFFBD4E9082300F049F92A46ED
:10463000334600F0A7FBD4E9062300F041F92A46EF
:10464000334600F09FFBD4E9042300F039F92A46F1
:10465000334600F097FBD4E9022300F031F92A46F3
:10466000334600F08FFBD4E90023BDE8F04100F0B1
:1046700027B900002DE9FF4D054621F0004084B028
:104680000C46B0F1795F0BDA2846FFF746FD0428A7
:1046900008BF00F06FF8284608B02146BDE8F08D4D
:1046A0002A460B46104600F06DFB06460F462A468A
:1046B000234600F067FB804626488A4632463B4642
:1046C00005217844FFF780FF83461098029160B37C
:1046D000214A224B4046514600F054FBCDE90001EF
:1046E0005A4640465146029B00F04CFB82468846A3
:1046F000DDE906014FF0FF3200F0E7FF5246434686
:1047000000F04AFC32463B4600F03CFBDDE9062364
:1047100000F042FCDDE9002300F03EFC08B02A4630
:104720002346BDE8F04D00F02BBC0B465A46304600
:10473000394600F027FB084A084B00F0C1F8424612
:10474000534600F01FFB08B02A462346BDE8F04D53
:1047500000F0B6B88A110000495555555555C5BFEA
:10476000012200F0B2BF002213461046114600F0AD
:1047700057B90000024A0020110700F0A6BF000050
:1047800001FDFFFF00B5244B21F0004287B09A42A3
:10479000DCBF0022134629DD204B9A4208D140B9E4
:1047A0004FF00100FFF7C6FBFFF7DDFF07B000BDCC
:1047B00003DBFFF7D5FF07B000BD02AAFFF7C2FC7D
:1047C00010F0030104BF0DF1080C9CE80F000DD0A0
:1047D000012001290ED0022914D00DF1080C0090FF
:1047E0009CE80F00FFF746FF07B000BDFFF76EFE25
:1047F00007B000BD0DF1080C00909CE80F00FFF71A
:1048000039FF05E00DF1080C9CE80F00FFF75EFE94
:1048100007B081F0004100BDFB21E93F0000F07FBF
:1048200000B5254B21F0004287B09A4203DC0022FC
:10483000134600922BE0214B9A4208D140B94FF029
:104840000100FFF777FBFFF78EFF07B000BD03DB2A
:10485000FFF786FF07B000BD02AAFFF773FC10F058
:1048600003014FF001000DD0012914D002291AD004
:104870000DF1080C9CE80F00FFF728FE07B081F04F
:10488000004100BD0DF1080C00909CE80F00FFF7FF
:10489000F1FE07B000BD0DF1080C9CE80F00FFF71A
:1048A00015FE07B000BD0DF1080C00909CE80F004C
:1048B000FFF7E0FEE2E70000FB21E93F0000F07FA8
:1048C00010B591EA030F48BF83F0004300F16C83F9
:1048D000841A71EB030C05D2121943EB0C03001B75
:1048E00061EB0C01DFF824E14FEA1154A4EB135CF7
:1048F0001EEA430F18BF9EEA445F73D023EA0E03FB
:10490000DCF1200E21EA045143F4801332D322FA61
:104910000CFE10EB0E0023FA0CFE41EB0E01CCF165
:10492000200E03FA0EFE10EB0E0051F10001B1F55E
:10493000801FCCF1200E32D201EB045112FA0EF29C
:10494000BDE8104058BF7047401C38BF5FEA4202C4
:1049500018BF7047002814BF20F0010041F100018A
:104960004FEA410313F5001F38BF7047A1F1C04162
:1049700000F000BB012A43EB0302ACF1200CDCF198
:104980001F0E32BF4FF0000E23FA0CF310EB0300A2
:1049900041EB0451B4EB115FD0D0A1EB045101F510
:1049A000801149085FEA300001EB04510ED350F149
:1049B000000038BF12FA0EFE08D1BDE81040C9E76A
:1049C000401C38BF5FEA4202CAD1C3E7BDE81040CD
:1049D0004FEA410313F5001F38BF7047A1F1C041F2
:1049E00000F0C8BA9EEA445F08D011EA5E0FBDE845
:1049F000104004BF01F0004100207047BDE81040A6
:104A000070B500F069FA00BF64FBBE3E0000E0FF35
:104A100002494FF0000000F026BE00BF0000F87F02
:104A20002DE9C04130B4DFF8A0C23CEA111418BF30
:104A30003CEA131400F0EC8081EA03051CEA11142F
:104A400044EAD57418BF1CEA131500F0C780A4EB24
:104A500005044FF0004545EAC12145EAC32341EA78
:104A6000505143EA525304F17F74994204F50034E3
:104A70004FEAC0204FEAC22208BF904200F09C805B
:104A80004FEA13650FF24016765D4FEA134506FBB9
:104A900005F7C7F1807706FB07F74FEAD737A7FB83
:104AA00003687642C8F58038A7FB06CE38BFA8F168
:104AB000010807FB08E64FF0000EA6FB028CE6FBA0
:104AC00003CEDCF1000CCEF1004E38BFAEF1010E8A
:104AD000A6FB0C584FF000074FF00005E6FB0E87D1
:104AE000A1FB08C6A0FB07CE16EB0E0645F100059C
:104AF000E1FB076515F1E04E7EBFA4F580345FEA67
:104B000046066D4116F1800745F100054FEA17276B
:104B10004FEA066647EA0567A6F1DE46B6F1805F12
:104B20004FEA15251FD9384624F0010C05EBC47156
:104B3000BCF1FE6F01EB0C1102D8F0BCBDE80081A6
:104B400024425CBF01F5801E9EEAC47F02D4F0BC03
:104B5000BDE80081244238D4F0BCA1F1C041BDE8D9
:104B6000004100F007BA4FEAD22242EA43524FEA2C
:104B7000D323A7FB02864FEAD02040EA415007FB2F
:104B800003661EEA0E0F4FEAD12105FB026658BFED
:104B9000A6EB0056B6EB00564FEA520E4EEAC37E25
:104BA00018EB0E0E56EB530EBDD518EB02085E4106
:104BB0007F1C55F10005B6E74FF480154FF0000754
:104BC0004FF000064FF00008ADE7F0BC4FF00000DA
:104BD00001F1C04101F00041BDE8008111EA0C1F64
:104BE0000CEA131500D00CE013EA0C1F00F025802E
:104BF0004FF00000F0BC81EA030101F00041BDE884
:104C00000081F0BCBDE8004181EA030100F0B2B9C7
:104C1000F0BCBDE8004170B500F05EF9097EFC3ED5
:104C200000F007B881EA03014FF0000001F00041F5
:104C3000704781EA030100F09DB9F0BCBDE8004176
:104C40004FF0000021497047FFFDFBF9F7F5F4F242
:104C5000F0EEEDEBE9E8E6E4E3E1E0DEDDDBDAD817
:104C6000D7D5D4D3D1D0CFCDCCCBCAC8C7C6C5C475
:104C7000C2C1C0BFBEBDBCBBBAB9B8B7B6B5B4B38C
:104C8000B2B1B0AFAEADACABAAA9A8A8A7A6A5A477
:104C9000A3A3A2A1A09F9F9E9D9C9C9B9A9999983B
:104CA0009797969595949393929191908F8F8E8EDE
:104CB0008D8C8C8B8B8A898988888787868585846B
:104CC00084838382828181800000FF070000F87F57
:104CD0004FEA41034FEA5353A3F58063D3F11E0318
:104CE000C8BFD3F1210C0CDD4FF0004242EAC122D3
:104CF00042EA505232FA03FC8CEAE17CACEBE17000
:104D00007047102BC4BF0020704703F5787CBCF1BE
:104D1000FF3F04D06FF0004282EA2100704770B577
:104D200000F0DAF84992248000207047F2E710F092
:104D3000004248BF4042B0FA80F310FA03F10AD0B3
:104D4000C3F11D0303F580634FEA415002EB0352A8
:104D500002EBD12170474FF000007047B0FA80F3AA
:104D600010FA03F10AD0C3F11D0303F580634FEA83
:104D700041504FEA035202EBD12170474FF000003F
:104D800070470000DFF848C170B51CEA111E1EBF55
:104D90001CEA13159EEA0C0F95EA0C0F00F06F80C9
:104DA00081EA030423EA4C134EEAD47E21EA4C1133
:104DB00041F4801143F48013AE44A1FB024CA0FBEC
:104DC0000365AEF17F7E361955EB0C05A1FB034C54
:104DD0004CF10003A0FB021C16EB0C06654153F1DD
:104DE0000003094218BF46F0010613F4007F0BD1FF
:104DF0004FEA03314FEA0530340341EA155140EAE6
:104E000016506FF003020AE04FEAC3214FEAC520B3
:104E1000F40241EA555140EA56506FF0020202EBAB
:104E20002E4201EB025585EACE710AD05FEA440CAE
:104E300018BF24F0004450F1000041F1000120EAC5
:104E4000D47040F2FE7C624500D270BDA84214BF0F
:104E50004FF080444FF04044002E08BF0024BEF1C4
:104E6000806FA8BFA1F1C041BDE8704080F2828090
:104E70004FF0000001F1C04101F0004170479EEA8F
:104E80000C0F0CEA131518BF95EA0C0F06D04FF063
:104E9000000081EA030E0EF0004170BD00F01CF826
:104EA0008900013E00F007B800F009B84FEA430C52
:104EB0005FEA5C5C08D081EA030100F05BB84FEA6E
:104EC000410C5FEA5C5CF6D14FF00000014970478D
:104ED0000000FF070000F87F0EF1020E2EF0030E17
:104EE0005EF8046B364205D4012A43EB030515F541
:104EF000001F12D8012841EB010C1CF5001F0CD833
:104F00000ED14FEAD17C15F5001F0CEB4C0C0CF1C7
:104F1000020C08BF4CEBD37C04E04FF0080C01E01E
:104F20004FEAD37C0CEB4C0526FA05F606F0070693
:104F3000B6F1040C06D20EEB860CBDE870404CF0C6
:104F4000010C6047DFE80CF0090B02024FF0004152
:104F50004FF00000A1F5002170BD19461046012850
:104F600051EB010418BFD4F5001484BF002001F0F8
:104F7000004170BD0808A0F500114FEA31017047EB
:104F800091EA030F10B581F000413FF5A1AC83F029
:104F9000004300F009B8000010B591EA030F48BFC4
:104FA00083F000433FF594AC841A71EB030C07D2F5
:104FB00012198CF0004C43EB0C03001B61EB0C014D
:104FC000DFF8A4E14FEA1154A4EB135C1EEA430F8F
:104FD00018BF9EEA445F00F0B08023EA6E0352429D
:104FE00021EA0451C3EB6E0338BF5B1EDCF1200ED7
:104FF00025D322FA0CFE10EB0E0043FA0CFE41EB17
:105000000E01CCF1200E03FA0EFE10EB0E0051F152
:105010000001CCF1200E29D412FA0EF201EB04515A
:10502000BDE8104058BF7047401C1CBFB2F1004F94
:10503000704700280CBF491C20F00100704712EB9C
:10504000020E43EB030218BF4FF0010E4EEA42027C
:10505000ACF1200CDCF11E0E54D943FA0CFE10EB1F
:105060000E0051F1FF31CCF11E0ED5D50EF1010E1F
:1050700012FA0EFE404141EB010101EB445C5FEA94
:105080005C5C10D910EBDE7001EB045138BFBEF14F
:10509000004FBDE8104018BF704700280CBF491CE6
:1050A00020F00100704730D24FEAD42C11F50011E6
:1050B00024F400641BD0B1FA81F20B3AA41AA41EA6
:1050C000D2F12003914030FA03F31943904001EBF1
:1050D000CC71002C01EB0451BDE81040A8BF704713
:1050E00001F1C0414FF0000001F000417047B0FAFB
:1050F00080F310FA03F100D110BDE41A173C480503
:10510000C90AE4E701EB045110BD491001EB045159
:10511000BDE810404FEA300002E04FF00001704758
:105120004A0008BF0042F8D0B2F5001F28BF704700
:1051300001F000414FF0000070479EEA445F07D045
:1051400011EA5E0FBDE8104004BF00210020704747
:10515000BDE8104070B5FFF7BFFE00BF40DFF63E70
:1051600083F00041104670470000E0FF90EA010F15
:1051700048BF81F0004100F10882421A3CBF801A0A
:1051800089184FEAD0524FF07F4C1CEA410FA2EB36
:10519000D15318BF9CEA026F00F03B804FF0004CE7
:1051A0004CEA00204CEA012121FA03FC10EB0C0C24
:1051B0001ED202F1FF325FEA1C2040EBC25038BF22
:1051C00070471CF07F0F4FEA400C18BFBCF17F4FB7
:1051D00038BF7047C3F12003994008BF20F0010099
:1051E000BCF17F4F38BF7047A0F1C04000F08FB9CD
:1051F0004FEA3C00000A40EBC25028BF1CF0FF0FF2
:105200004FEA400CE6D018BFBCF17F4F38BF704763
:10521000EAE79CEA026F05D010EA5C0F08BF00F0D5
:105220000040704710B500F02CF900BF64FBBE3E93
:10523000401058BFC0F14040491058BFC1F1404133
:105240008142EFF30080704750EA010C00F11380B7
:105250001CF5000F58BFBCF5000F01D48842704701
:1052600007D710F5000F58BF11F5000F15D488426D
:105270007047894270471CF5000F04D5BCF5000F3C
:10528000F7D5814270474FF0807C1CEB400F38BF50
:105290001CEB410F01D28142704710B500F0F1F8CC
:1052A000922449004FF000504FF08051FFF7C0BFEB
:1052B00041000B0ED3F19E0208D950F400034FEACF
:1052C000032323FA02F048BF4042704710B500F0B4
:1052D000D8F800BF49922480002070476FF0004248
:1052E00082EA20007047000010F0004148BF4042B1
:1052F000B0FA80F310FA03F2C3F19D030BD051EA28
:10530000C35101EB1220530638BF704700F1010072
:1053100008BF20F00100704750EA010C00F1138033
:105320001CF5000F58BFBCF5000F01D48842704730
:1053300007D710F5000F58BF11F5000F15D488429C
:105340007047894270471CF5000F04D5BCF5000F6B
:10535000F7D5814270474FF0807C1CEB400F38BF7F
:105360001CEB410F01D28142704710B500F089F863
:10537000922449004FF000504FF08051FFF758BF82
:105380004FF47F0C1CEAD0121EBF1CEAD11392EA24
:105390000C0F93EA0C0F00F0478090EA010F48BF12
:1053A00042F480724FF0004C4CEA00204CEA01219C
:1053B00002EB0302A0FB0113A2F50002002918BFB3
:1053C00043F001035B0028BF4FEA330342EB224264
:1053D0005FEA132C4CEBC2502EBFBCEB436FB2F50F
:1053E0007C0F70474FEA036CBCF1004F08BF20F000
:1053F0000100B2F57C0F38BF70470BD582F0FF0279
:1054000012F5803FC8BF704700F1C040D8BF00F020
:105410000040704700F5000C5FEA4C0C48BF704735
:10542000B0F1C04000F073B890EA010F0CEAD1135C
:1054300048BF42F48072624538BF634504D280EAB7
:10544000010000F00040704710B500F01AF800BFEE
:105450008900013E00F007B800F009B85FEA410C8E
:105460005FEA1C6C08D080EA010000F050B85FEAE7
:10547000400C5FEA1C6CF6D14FF00040A0F58000B4
:1054800070470EF1020E2EF0030E5EF8044B24421C
:1054900004D44FEA4102B2F17F4F11D84FEA4003E2
:1054A000B3F17F4F0CD80ED14FEAD07CB2F17F4FD1
:1054B0000CEB4C0C0CF1020C08BF4CEBD17C04E063
:1054C0004FF0080C01E04FEAD17C0CEB4C0324FABE
:1054D00003F404F00704B4F1040C06D20EEB840CC0
:1054E000BDE810404CF0010C6047DFE80CF0070805
:1054F00002024FF00040A0F5800010BD08464200B7
:1055000018BFD2F1807288BF00F0004010BDFF21AB
:1055100041EAD050C005704751EA000C00F11380F9
:105520001CF5000F58BFBCF5000F01D48142704735
:1055300007D711F5000F58BF10F5000F15D48142A1
:105540007047894270471CF5000F04D5BCF5000F69
:10555000F7D5884270474FF0807C1CEB410F38BF75
:105560001CEB400F01D28842704780EA010081EABB
:10557000000180EA0100FFF7F8BE000090EA010F89
:1055800048BF81F000413FF5F8AD421A04D882F0DF
:105590000042A0EB020011444FEAD0524FF07F4C82
:1055A0001CEA410FA2EBD15318BF9CEA026F4AD00C
:1055B0004FF0004C4CEA00204CEA012121FA03FC98
:1055C000B0EB0C0C0FD412F0FE0F36D05FEA4C009B
:1055D0001DD5001240EBC25038BF70471CF03F0F82
:1055E00018BF70470BE0A2F101025FEA1C2040EBFC
:1055F000C25038BF70471CF07F0F18BF7047C3F10F
:105600002003994014BF401E20F00100704780081D
:105610004FEA122308BF7047B0FA80FCA2EB0C02DD
:10562000CCF1280C60FA0CF093EA122F04BF00EBC7
:10563000C25070474FEAC3707047130A5FEADC102C
:1056400008BF7047F6E79CEA026F04D010EA5C0FCF
:1056500008BF0020704710B5FFF713FF40DFF63E8C
:1056600081F0004070470CF00F03092B08BF0820A1
:1056700000F059800A2B0BD0082B18BF704708BFC9
:105680001CF0400F0AD04FF000004FF000017047AF
:105690001CF0400F18BF4FF0004070471CF0100F77
:1056A00008D020F0704300F07F4242EAD3014FEA75
:1056B0004370704700F0604021F07F4242EA0002F0
:1056C00001F07F4040EA727070474FF0FF0C4CF4DD
:1056D000E06C1CEA11531CBF9CEA030C9445C2BF4A
:1056E000DA4201EB02517047002B0DD0BCF1000FE4
:1056F0000FD0002A01F00041A4BF41F0E04141F089
:105700007F614FF00000704701F000414FF0000052
:10571000704750EA01334FF09B0C18BF4CF0806C7F
:105720007FF476A970471CF4801F11D01CF4E02F81
:1057300003D06FEACC31490070474FF04050EFF38F
:10574000008222F0704242EA000282F30088704731
:105750004FF00000704700004C5555555555A53F7A
:105760007751C1166CC156BF9015CB19A001FA3EF6
:10577000AD529C804F7E92BEC4B1B4BD9EEE213E20
:10578000D43888BEE9FAA8BD00004054FB21F93F97
:105790003163621A61B4D03D0000601A61B4D03D3B
:1057A0007370032E8A19A33B0000002E8A19A33BB5
:1057B000C14920259A837B390000000000000000C9
:1057C0006E83F9A22915444ED15727FCC0DD34F56C
:1057D000999562DB4190433CAB6351FE61C5BBDEF2
:1057E0003A6E24B7E0D24D42EA2E49061C92D10906
:1057F0001CEB1DFE3EA729B1F53582E88444BB2E83
:1058000026709CE9417E5FB439D69139F4395383CF
:105810008B5F849C3B28F9BDFF97F81F0F9805DE2E
:105820008B112FEF1F6D0A5ACF7E366DB709CB272C
:10583000663F464F2DEA5F9EC7BA27757BF1E5EBC1
:10584000F739073DEA92528AB15FFB6B085D8D1F05
:10585000A6F810111111813FD561C119A0012ABF0D
:105860007DFEB157E31DC73EEB9C2B8AE6E55ABE91
:105870007CD5CF5A3AD9E53D985800080000002061
:10588000DC0000006C01000874590008DC000020F6
:10589000240A000088010008000000000000000049
:1058A00000000000000000000000000000000000F8
:1058B00000000000000000000000000000A24A04F8
:1058C00000000000000000000102030406070809B0
:1058D0000000A041CDCCCC3D0000C84100000040FC
:1058E000000040400000D841000040400000D84186
:1058F000000040400000F0420000A0400000A04135
:105900000000004000000000000000000000000057
:105910000000000000000000000000000000000087
:105920000000000000000000000000000000000077
:105930000000000000000000000000000000000067
:105940000000000000000000000000000000000057
:105950000000000000000000000000000000000047
:1059600000000102030401020304060708090204FF
:045970000608000025
:0400000508000131BD
:00000001FF
