:020000040800F2
:10000000901C0020CD260008770200087902000825
:100010007D0200088102000885020008000000003F
:10002000000000000000000000000000890200083D
:100030008B02000800000000874F0008EB4A000810
:10004000E7260008E7260008E7260008E72600085C
:10005000E7260008E7260008E7260008E72600084C
:10006000E7260008E7260008E7260008E72600083C
:10007000E726000879260008E7260008E72600089A
:1000800035240008E7260008E7260008E7260008D0
:10009000E7260008E7260008E7260008E72600080C
:1000A000E7260008E7260008E7260008E7260008FC
:1000B000E7260008E7260008E7260008E7260008EC
:1000C000E7260008E7260008E7260008E7260008DC
:1000D000E7260008E7260008D5230008392600088F
:1000E000E7260008E7260008E7260008E7260008BC
:1000F000E7260008E7260008E7260008E7260008AC
:10010000E7260008E7260008E7260008E72600089B
:10011000E7260008E7260008E7260008E72600088B
:10012000E7260008E7260008E7260008E72600087B
:1001300000F002F800F090F80AA090E8000C824469
:100140008344AAF10107DA4501D100F085F8AFF246
:10015000090EBAE80F0013F0010F18BFFB1A43F0A5
:1001600001031847D0820000F0820000103A24BF3B
:1001700078C878C1FAD8520724BF30C830C144BF0C
:1001800004680C607047000000230024002500264E
:10019000103A28BF78C1FBD8520728BF30C148BFEA
:1001A0000B6070476E2905F0F281702905F07185AA
:1001B000662907F0CA87652907F0C787672907F00E
:1001C000C4876129AFF3008003681B0A28BF41F090
:1001D0008001692904F0AE87642904F0AB87752992
:1001E00004F0A8876F2905F0FF84782905F03D8584
:1001F000E92905F09984E42905F09684F52905F0AC
:100200009384EF2905F0FC84F82905F03C85036808
:10021000DB0928BF41F08001632905F008847329B8
:1002200005F00D84E32905F02B86F32905F03086CF
:10023000002070471FB505F08BFD04000020002151
:1002400006F0ACFF401C60600020002106F090FF2B
:10025000E0601FBD10B510BD05F0D2FE1146FFF7DE
:10026000E9FF04F005FE05F0F9FE03B4FFF7F2FF25
:1002700003BC01F0D5FF704700BFFEE700BFFEE7FB
:1002800000BFFEE700BFFEE7704770470CB50020D7
:10029000019000906C48006840F480306A49086022
:1002A00000BF6948006800F4003000900198401CCD
:1002B0000190009818B90198B0F5A06FF1D162488B
:1002C000006800F4003010B10120009001E000202F
:1002D00000900098012843D15C48006840F010006D
:1002E0005A4908600846006820F003000860084684
:1002F000006840F002000860534840685249486076
:100300000846406848600846406840F4806048609D
:100310000846406820F47C1048600846406840F475
:10032000E81048600846006840F08070086000BF30
:100330004548006800F000700028F9D04248406845
:1003400020F00300404948600846406840F0020041
:10035000486000BF3C48406800F00C000828F9D114
:100360000CBD10B5FFF792FF10BD10B53648006800
:1003700040F00100344908600846406834490840AC
:100380003149486008460068324908402E490860F3
:100390000846006820F4802008600846406820F481
:1003A000FE0048604FF41F008860FFF7DAFF4FF04F
:1003B00000602949086010BD10B50021002000220E
:1003C000214B5B6803F00C0121B1042906D00829F8
:1003D00028D107E0214B224C236027E01F4B204C03
:1003E000236023E0184B5B6803F47010164B5B68C6
:1003F00003F48032022303EB904022B9194B4343AC
:10040000174C23600DE0104B5B6803F4003323B1FD
:10041000144B4343124C236003E0104B4343104CF6
:10042000236003E00D4B0E4C236000BF00BF064B62
:100430005B68C3F303130C4CE15C094B1B68CB40B6
:10044000074C236010BD0000001002400020024055
:100450000000FFF8FFFFF6FE08ED00E000127A0052
:100460000000002000093D000400002030B589B0E4
:1004700005460C460121480302F0D2FC012111205F
:1004800002F0CEFC4FF47070ADF8200018208DF80B
:10049000230003208DF8220008A9FA4802F004FA8C
:1004A000ADF81850ADF814400020ADF81A00ADF8C2
:1004B000160005A9F44802F0EFFF7020ADF8040023
:1004C0000120ADF806000020ADF80A00ADF80C00E0
:1004D00001A9ED4803F01DF801A9EB4803F05BF812
:1004E00001A9E94803F0A4F801A9E74803F0EBF8F3
:1004F0000121E54803F038FB0821E34803F058FCEC
:100500000821E14803F05DFC0821DF4803F066FCA8
:100510000821DD4803F06BFC0121DB4803F018FCE7
:100520000121D94803F014FB0021D74803F0A8FDAE
:100530000021D54803F0A6FD0021D34803F0A4FD17
:100540000021D14803F0A2FD09B030BD30B589B01B
:1005500005460C460121042002F06FFC0121092010
:1005600002F05EFC4FF47070ADF8200018208DF89A
:10057000230003208DF8220008A9C44802F094F952
:10058000ADF81850ADF814400020ADF81A00ADF8E1
:10059000160005A9BE4802F07FFF7020ADF80400E8
:1005A0000120ADF806000020ADF80A00ADF80C00FF
:1005B00001A9B74802F0ADFF01A9B54802F0EBFF71
:1005C00001A9B34803F034F801A9B14803F07BF85E
:1005D0000121AF4803F0C8FA0821AD4803F0E8FB59
:1005E0000821AB4803F0EDFB0821A94803F0F6FB16
:1005F0000821A74803F0FBFB0121A54803F0A8FB55
:100600000121A34803F0A4FA0021A14803F038FD1A
:1006100000219F4803F036FD00219D4803F034FD82
:1006200000219B4803F032FD09B030BD00B587B012
:100630000121084602F0F4FB0121C80202F0F0FBA0
:100640000121042002F0ECFB4FF44070ADF81800DB
:1006500048208DF81B0003208DF81A0006A98D484C
:1006600002F022F9012211028A4802F0CEF9012299
:100670005102884802F0C9F944F62060ADF8100034
:100680000020ADF80C00ADF81200ADF80E0003A983
:10069000814802F001FF0A231A4603217E4803F035
:1006A0000AFB684603F037FA0820ADF808006946EF
:1006B000794803F084F90121774803F00FFD012206
:1006C0001146754803F05FFA002073492431088011
:1006D0000121714803F03CFA07B000BD00B587B0B6
:1006E00001216E4802F0B1F90121084602F098FBA1
:1006F0000121084602F0A1FB0121042002F090FB39
:100700000121082002F08CFB0121654802F09DF9CF
:100710004FF40040ADF8180004208DF81B000320B2
:100720008DF81A0006A95B4802F0BEF80122D10339
:10073000584802F06AF90820ADF8180004208DF836
:100740001B0003208DF81A0006A9504802F0ACF8EF
:10075000012208214D4802F058F94FF0804002F084
:10076000C7FD03A94FF0804002F096FE44F62060DA
:10077000ADF810000020ADF80C00ADF81200ADF897
:100780000E0003A94FF0804002F086FE00231A46B7
:1007900003214FF0804003F08EFA684603F0BBF966
:1007A0000620ADF8080069464FF0804003F007F9D5
:1007B0000121880703F092FC01221146900703F003
:1007C000E2F900204FF0804188840121880703F07E
:1007D000BFF907B000BD00B587B00121084602F09F
:1007E0001FFB0121022002F028FB0121042002F05E
:1007F00017FBC020ADF8180048208DF81B0003201F
:100800008DF81A0006A9234802F04EF80122402173
:10081000204802F0FAF8012280211E4802F0F5F883
:1008200044F62060ADF810000020ADF80C00ADF8E3
:100830001200ADF80E0003A91A4802F02DFE0A239B
:100840001A460321174803F036FA684603F063F9A5
:100850000820ADF808006946124803F0B0F80121FD
:10086000104803F03BFC012211460E4803F08BF9BF
:1008700000200C492431088001210A4803F068F95E
:1008800007B000BD0010014000340140000C0140E1
:100890000008004000080140002C01400002300028
:1008A000000318000004004000B587B0012108468D
:1008B00002F0B6FA0121082002F0BFFA012104205B
:1008C00002F0AEFA0320ADF8180048208DF81B00A6
:1008D00003208DF81A0006A9294801F0E5FF01223E
:1008E0001146274802F091F801220221244802F023
:1008F0008CF844F62060ADF810000020ADF80C0034
:10090000ADF81200ADF80E0003A91E4802F0C4FDB8
:100910000A231A4603211B4803F0CDF9684603F069
:10092000FAF80820ADF808006946164803F047F8C1
:100930000121144803F0D2FB01221146114803F0B3
:1009400022F900200F492431088001210D4803F0CD
:10095000FFF807B000BD10B5FFF768FEFFF7BEFE59
:10096000FFF739FF1D2140F2AF40FFF7EFFDFFF722
:100970009BFF1D2140F2AF40FFF778FD10BD000046
:1009800000080140000C00402DE9F0470446644295
:10099000002C08DBB4F5FA7F01DD4FF4FA74012076
:1009A000FB49087008E06442B4F5FA7F01DD4FF4BA
:1009B000FA740020F6490870F5480461204607F0F3
:1009C00005FA8246F34907F04DFA814607F052F8DE
:1009D00007460022F04B06F0F7FB054606F0FCFD4B
:1009E000EB494860BDE8F0872DE9F0470446002C4C
:1009F00008DBB4F5FA7F01DD4FF4FA740120E74912
:100A0000087008E06442B4F5FA7F01DD4FF4FA742F
:100A10000020E2490870E1480461204607F0D6F959
:100A20008246DC4907F01EFA814607F023F80746A4
:100A30000022D94B06F0C8FB054606F0CDFDD7498C
:100A40004860BDE8F0872DE9F0470446002C08DB3C
:100A5000B4F5FA7F01DD4FF4FA740120D049087033
:100A600008E06442B4F5FA7F01DD4FF4FA74002027
:100A7000CB490870CA480461204607F0A7F98246AE
:100A8000C44907F0EFF9814606F0F4FF074600225B
:100A9000C14B06F099FB054606F09EFDC049486033
:100AA000BDE8F0872DE9F0470446002C08DBB4F5DB
:100AB000FA7F01DD4FF4FA740120BA49087008E0AA
:100AC0006442B4F5FA7F01DD4FF4FA740020B549B1
:100AD0000870B4480461204607F078F98246AD49B1
:100AE00007F0C0F9814606F0C5FF07460022AA4B71
:100AF00006F06AFB054606F06FFDAA494860BDE8AE
:100B0000F08770B504460D465DB14FF49661A64876
:100B100003F0BAFAC4F5966081B2A34803F0B6FABE
:100B20000AE0C4F5966081B29F4803F0ADFA4FF435
:100B300096619D4803F0AAFA70BD70B504460D4653
:100B40005DB14FF49661984803F09AFAC4F5966047
:100B500081B2954803F096FA0AE0C4F5966081B236
:100B6000914803F08DFA4FF496618F4803F08AFAAA
:100B700070BD70B504460D465DB14FF496618B486B
:100B800003F082FAC4F5966081B2884803F07EFAD9
:100B90000AE0C4F5966081B2844803F075FA4FF418
:100BA0009661824803F072FA70BD70B504460D4636
:100BB0005DB14FF496617D4803F062FAC4F596602A
:100BC00081B27A4803F05EFA0AE0C4F5966081B219
:100BD000764803F055FA4FF49661744803F052FAE0
:100BE00070BD6B48806810F5966F02DA70486849EE
:100BF000886067488068B0F5966F03DD4FF49660B3
:100C0000634988606548806810F5966F02DA684825
:100C10006249886061488068B0F5966F03DD4FF4E3
:100C200096605E4988605E48806810F5966F02DACB
:100C30005F485B4988605A488068B0F5966F03DD6D
:100C40004FF49660564988605648806810F5966F54
:100C500002DA57485349886052488068B0F5966F69
:100C600003DD4FF496604F49886070472DE9F047E7
:100C700005460C46601B07F0A9F84E4908610A4674
:100C80001169506807F0EEF880464A4A51691069C8
:100C900007F0E6F9814647480168484607F0E2F860
:100CA0000746414606F012FF064642488169304633
:100CB00006F00CFF3F4988610846006948610CB99D
:100CC000002088613B4988693B4907F097F903D2C6
:100CD00039483849886108E036498869002107F0B9
:100CE0008DF802D20020334988613249886907F0C3
:100CF00051F8BDE8F0870146002901DA002000E044
:100D0000084670472DE9F04705460C46601B07F082
:100D10005DF82A4908610A461169506807F0A2F88F
:100D20008046264A5169106907F09AF9814623489E
:100D30000168484607F096F80746414606F0C6FEA9
:100D400006461E488169304606F0C0FE1B49886190
:100D50000846006948610CB9002088611749886914
:100D6000154907F04BF903D213481449886108E08C
:100D700012498869002107F041F802D200200F498A
:100D800088610E49886907F005F8BDE8F087000022
:100D9000A800002037BEEF3D0000E03FC00000206B
:100DA000D8000020F000002000080040003401407E
:100DB00050FBFFFF74010020000096445801002002
:100DC0002DE9F04705460C46601B06F0FFFFFE4983
:100DD00008610A461169506807F044F88046FA4AEB
:100DE0005169106907F03CF98146F74801684846A7
:100DF00007F038F80746414606F068FE0646F24816
:100E00008169304606F062FEEF4988610846006954
:100E100048610CB900208861EB498869EB4907F00B
:100E2000EDF803D2E948E849886108E0E6498869B5
:100E3000002106F0E3FF02D20020E3498861E24985
:100E4000886906F0A7FFBDE8F0872DE9F047054661
:100E50000C46601B06F0BAFFDD4908610A461169BD
:100E6000506806F0FFFF8046D94A5169106907F0C3
:100E7000F7F88146D6480168484606F0F3FF074672
:100E8000414606F023FE0646D1488169304606F009
:100E90001DFECF4988610846006948610CB90020F1
:100EA0008861CB498869C94907F0A8F803D2C748C7
:100EB000C749886108E0C6498869002106F09EFF9D
:100EC00002D20020C2498861C149886906F062FFE8
:100ED000BDE8F08770B50025BE48007D00B3002155
:100EE000BD4803F0CDF80021BB4803F0CBF800214A
:100EF000B94803F0C9F80021B74803F0C7F800214A
:100F0000B64803F0BDF80021B44803F0BBF8002157
:100F1000B24803F0B9F80021B04803F0B7F870BD4B
:100F2000AF48B0F90440AF4A5168002C01DB2246BB
:100F300000E062421046FFF788FF0646FFF7DBFE3F
:100F4000A8498860A648B0F90040A74A5168002C1B
:100F500001DB224600E062421046FFF731FF064601
:100F6000FFF7C9FEA04988609D48B0F908409F4A34
:100F70005168002C01DB224600E062421046FFF778
:100F8000C1FE0646FFF7B7FE984988609448B0F95D
:100F900002400A465168002C01DB224600E0624212
:100FA0001046FFF763FE0646FFF7A5FE90498860EE
:100FB000FFF717FE8B4A11789068FFF7F6FD8A4A13
:100FC00011789068FFF7D5FD884A11789068FFF78F
:100FD000B4FD874A11789068FFF793FD00BF9EE744
:100FE00084487B49086084484860824876490860A4
:100FF000814848607F48814908607F4848607D4853
:101000007F4908607C48486070472DE9F0470446F6
:101010000D46281B06F0DAFE7A490860084601688A
:101020007948006806F052FD774908607748016802
:101030007448006807F014F8804675480168404617
:1010400006F010FF0646704801687248006806F016
:1010500009FF80466B4801686F48006806F002FF90
:101060008146414606F032FD0746314606F02EFD28
:101070006A49086063480068644908606748006816
:1010800006F088FEBDE8F0872DE9F0410446002116
:10109000206806F0B3FE03D2206880F00040206094
:1010A0000021606806F0AAFE03D2606880F000406C
:1010B00060600021A06806F0A1FE03D2A06880F065
:1010C0000040A0600021E06806F098FE03D2E068CE
:1010D00080F00040E0602069E0612169206A06F04C
:1010E000F5FC20620021E06806F020FE13D0E168E4
:1010F000206A06F083FF02D2E06820620BE0E0681D
:1011000080F000452846216A06F078FF03D2E068A7
:1011100080F000402062A169206906F0A1FF6062B2
:101120002069A061616AA06806F09CFE0646216AFB
:10113000606806F097FE0746E169206806F092FEB7
:101140008046394606F0C2FC0546314606F0BEFC34
:101150006061BDE8F0812DE9F04F93B005460E4681
:1011600014469946684205B2604204B29D2104FBD0
:1011700001F006F060FACDE91001484606F05BFA8E
:10118000CDE9080105F0A4FF07468846304606F081
:1011900052FA82463A46434606F078FACDE90C0107
:1011A000484606F048FACDE9080105F043FF074636
:1011B0008846284606F03FFA82463A46434606F0FD
:1011C00065FACDE90A012BE03C01002000009644BD
:1011D000200100200801002000340140002C0140C3
:1011E000D8010020A8000020C0000020D800002066
:1011F000F00000200000F0420000404058010020B4
:10120000740100203800002040000020440000202D
:1012100034000020300000202C0000203C00002082
:10122000DDE90C2305F0D0FFCDE90E01DDE9102347
:1012300005F0CAFF934A03C29D2104FB01F006F0AA
:10124000FAF9CDE91001484606F0F5F9824605F0B5
:10125000F1FECDE900018C488C4905F039FF0746C5
:10126000DDE9002306F012FACDE90401484606F054
:10127000E2F9824605F02CFF0746884682488349FA
:1012800005F0D8FE81F000413A464346CDE9000121
:1012900006F0FCF9CDE90201DDE9042306F000FBCC
:1012A000CDE90801304606F0C6F9CDE90601DDE9D1
:1012B000082306F0EBF9CDE90C01484606F0BBF92E
:1012C000074605F005FFCDE900016F48704905F0BC
:1012D000FFFE8246DDE9002306F0D8F9CDE90401DE
:1012E000484606F0A8F9074605F0A4FE82468B465C
:1012F0006548664905F09EFE81F0004152465B4616
:10130000CDE9000106F0C2F9CDE90201DDE90423CF
:1013100005F05AFFCDE90801284606F08CF9CDE921
:101320000601DDE9082306F0B1F9CDE90A01DDE99E
:101330000C2305F049FFCDE90E01DDE9102305F08E
:1013400043FF544A03C29D2104FB01F006F073F9E8
:10135000CDE91001484606F06EF9824605F06AFEB6
:10136000CDE9000148484A4905F064FE0746DDE939
:10137000002306F08BF9CDE90401484606F05BF93D
:10138000CDE9000105F0A4FE074688463E484049E5
:1013900005F09EFE81F0004182463A46434606F043
:1013A00075F9CDE90201DDE9042305F00DFFCDE972
:1013B0000801304606F03FF9CDE90601DDE90823D2
:1013C00006F064F9CDE90C01484606F034F9CDE9A0
:1013D000000105F07DFE074688462B482C4905F0A4
:1013E00029FE82463A46434606F050F9CDE904010B
:1013F000484606F020F9074605F01CFECDE900013D
:101400002148234905F064FE81F000418246DDE970
:10141000002306F03BF9CDE90201DDE9042305F0E4
:10142000D3FECDE90801284606F005F9CDE906010D
:10143000DDE9082306F02AF9CDE90A01DDE90C23EC
:1014400005F0C2FECDE90E01DDE9102305F0BCFE7A
:10145000114A03C20B4903C906F0BEF80746FFF75D
:1014600093FA0C4903C906F0B7F80746FFF7BCFA30
:10147000094903C906F0B0F80746FFF7E4FA13B0CC
:10148000BDE8F08F48000020A138DB3752C1F03FA3
:1014900052C1E03F500000205800002070B50025E8
:1014A00000244DF6ED60FD490880FD4840788870C5
:1014B000FB488078C870FA484088000A0871F848EC
:1014C000007A4871F6480079887100BF06E0F54857
:1014D000015DE01DF14A1154601CC4B2F04800796E
:1014E000A042F4DC002405E0EC48005D284405B28D
:1014F000601CC4B2EA484078801EA042F4DCE84890
:101500004078801EE54A1554C5F30721E448407829
:10151000401E1154E2484178104600F084FE70BD30
:1015200010B50024E0480078401CDF4908700846E8
:10153000007806287ED2DFE800F0A3031F354B6158
:101540004DF6ED60D5490880232088700020C870D2
:10155000F0200871002048711A208871D348408813
:10156000D0490880D14880884880D048C088888089
:10157000CE480089C88084E01D21D02000F024FEE0
:1015800000B2C84908811F21D02000F01DFE00B222
:10159000C44948812121D02000F016FE00B2C14983
:1015A00088816EE03221A62000F00EFE00B2BD4917
:1015B000C8813421A62000F007FE00B2B949088294
:1015C0003621A62000F000FE00B2B649488258E05D
:1015D00000211A2000F00BFE00B2B24988820221DD
:1015E0001A2000F004FE00B2AE49C88204211A207D
:1015F00000F0FDFD00B2AB49088342E00020AC4999
:1016000008700DE0A748AA490978415CA84800780D
:10161000C01DA24A1154A6480078401CA449087075
:101620009E488079A24909788842EBDC0020A049D5
:1016300008700BE024E099489D490978405C2044FB
:1016400004B29B480078401C994908709348807800
:10165000801E974909788842EDDC90488078801E8A
:101660008E4A1454C4F3072110468078401E11544A
:101670001046817800F0D7FD00208B49087000E00B
:1016800000BF00BF10BD10B500228A48B0F90000AD
:10169000894B98427DD187488078814B5870854826
:1016A000C078844B1B7900EB03207D4B5880814828
:1016B000407918727F488079187118460079092896
:1016C0003BD2DFE800F03A050A3A163A223A2E00F9
:1016D0007848C079794B188030E0002106E0C81DB9
:1016E000744B185C754B5854481CC1B20229F6DB88
:1016F00024E0002106E0C81D6E4B185C6F4B585467
:10170000481CC1B20429F6DB18E0002106E0C81D20
:10171000684B185C694B5854481CC1B20629F6DB6B
:101720000CE0002106E0C81D624B185C634B585466
:10173000481CC1B20829F6DB00E000BF00BF5848D2
:101740004078801E5B4B1B5C55484078401E594CCE
:10175000205C03EB002000B2514BD880002105E053
:101760005448405C104482B2481CC1B24C48407896
:10177000801E8842F4DC4A48B0F90600904204D149
:101780000120474B187010BD03E00020444B187037
:10179000F9E70020F7E710B5FFF775FF00B910BDB6
:1017A0003F484088092877D007DC76D2DFE800F090
:1017B0001C202526272B2C30380048F20102811AE4
:1017C00090427DD009DC0A287BD00B287AD00C28E7
:1017D00079D0B0F5004F60D1D4E0012974D002294E
:1017E00073D00329F7D1DEE043202E490880E9E0D9
:1017F00040F207102B490880E4E0E3E0E2E0382003
:1018000028490880DEE0DDE00B2026490880D9E089
:101810002648008923490880244880884880D1E0F0
:101820001F480079062804D00C2818D012287DD132
:101830005BE01D21D02000F0C7FC00B219490880F0
:101840001F21D02000F0C0FC00B2164948802121A1
:10185000D02000F0B9FC00B21249888088E01D2138
:10186000D02000F0B1FC00B20E4908801F21D0202A
:1018700000F0AAFC00B20B4948802121D02000F0E2
:10188000A3FC00B2074988803221A62000F09CFC0E
:1018900000B20449C88019E06CE092E09C0300208B
:1018A000900100209A01002061000020D801002052
:1018B0006000002000040020EDDEFFFFB8010020E2
:1018C00061E058E05CE05CE06BE06BE03421A62076
:1018D00000F07AFC00B23F4908813621A62000F0D2
:1018E00073FC00B23B49488142E01D21D02000F04A
:1018F0006BFC00B2374908801F21D02000F064FC47
:1019000000B2344948802121D02000F05DFC00B2B3
:10191000304988803221A62000F056FC00B22D49C3
:10192000C8803421A62000F04FFC00E01FE000B288
:10193000284908813621A62000F046FC00B225493E
:10194000488100211A2000F052FC00B22149888110
:1019500002211A2000F04BFC00B21E49C88104216C
:101960001A2000F044FC00B21A49088200E000BFCF
:1019700000BF27E026E01848007D1649087021E0E6
:1019800020E01FE01EE00020134908751349B1F95B
:101990000000FEF7F9FF1149B1F90200FFF724F842
:1019A00010E00FE00EE000200B4908750B4BB3F977
:1019B0000420B3F90210B3F900000023FFF7CBFBBA
:1019C00000E0ECE600BF0648007A08B1FFF766FDCC
:1019D00000BFE4E69A01002008010020B8010020C1
:1019E0009001002010B5E64A128812B2E54B5A81E8
:1019F0001A46116AB2F90A30B2F9142040F2712481
:101A0000624303EB4210421A12B2DE4B1A8013E01B
:101A1000DC4A928A521E12B2DA4B9A821A46B2F904
:101A20000A30B2F9142040F27124624303EB4210F1
:101A3000421A12B2D34B1A80D24AB2F9002042F2B3
:101A400010739A42E4DC13E0CE4A928A521C12B21E
:101A5000CC4B9A821A46B2F90A30B2F9142040F2FD
:101A60007124624303EB4210421A12B2C54B1A8032
:101A7000C44AB2F90020C44B9A42E5DBC14A106265
:101A800010BD10B54FF08042928C12B2BD4B9A81BE
:101A90001A46516AB2F90C30B2F9162040F271249C
:101AA000624303EB4210421A12B2B64B5A8013E063
:101AB000B44AD28A521E12B2B24BDA821A46B2F934
:101AC0000C30B2F9162040F27124624303EB42104D
:101AD000421A12B2AB4B5A80AA4AB2F9022042F221
:101AE00010739A42E4DC13E0A64AD28A521C12B266
:101AF000A44BDA821A46B2F90C30B2F9162040F241
:101B00007124624303EB4210421A12B29D4B5A8079
:101B10009C4AB2F902209C4B9A42E5DB994A5062FA
:101B200010BD10B5994A128812B2964BDA811A4646
:101B3000916AB2F90E30B2F9182040F27124624372
:101B400003EB4210421A12B28E4B9A8013E08D4A78
:101B5000128B521E12B28B4B1A831A46B2F90E30F8
:101B6000B2F9182040F27124624303EB4210421A8A
:101B700012B2844B9A80834AB2F9042042F2107365
:101B80009A42E4DC13E07F4A128B521C12B27D4B66
:101B90001A831A46B2F90E30B2F9182040F27124B5
:101BA000624303EB4210421A12B2764B9A80754A96
:101BB000B2F90420744B9A42E5DB724A906210BD80
:101BC00010B5734A128812B26E4B1A821A46D16A45
:101BD000B2F91030B2F91A2040F27124624303EBDB
:101BE0004210421A12B2674BDA8013E0654A528BF8
:101BF000521E12B2634B5A831A46B2F91030B2F930
:101C00001A2040F27124624303EB4210421A12B2CE
:101C10005C4BDA805B4AB2F9062042F210739A42BA
:101C2000E4DC13E0574A528B521C12B2554B5A83D4
:101C30001A46B2F91030B2F91A2040F27124624308
:101C400003EB4210421A12B24E4BDA804D4AB2F9FF
:101C500006204D4B9A42E5DB4A4AD06210BD10B5D2
:101C60004C4A128812B2474B5A821A46116BB2F98B
:101C70001230B2F91C2040F27124624303EB42108F
:101C8000421A12B23F4B1A8113E03E4A928B521E07
:101C900012B23C4B9A831A46B2F91230B2F91C20A8
:101CA00040F27124624303EB4210421A12B2354BE8
:101CB0001A81344AB2F9082042F210739A42E4DCE5
:101CC00013E0304A928B521C12B22E4B9A831A4662
:101CD000B2F91230B2F91C2040F27124624303EBD6
:101CE0004210421A12B2274B1A81264AB2F9082032
:101CF000254B9A42E5DB234A106310BD70B5FFF710
:101D000071FEFFF7BEFEFFF70CFFFFF7A8FF1D49AE
:101D1000B1F9040006F05AF805461F4905F044FFE2
:101D2000044606F037F81D49C8601649B1F90000AD
:101D300006F04CF80546184905F036FF044606F053
:101D400029F81749C8600F49B1F9080006F03EF8B4
:101D50000546114905F028FF044606F01BF8114915
:101D6000C8600849B1F9020006F030F805460A4992
:101D700005F01AFF044606F00DF80B49C86070BD67
:101D8000242C0140D8010020F0D8FFFF240400409B
:101D900024080040240C004037BEEF3DA80000207E
:101DA000C0000020D8000020F000002008B501216C
:101DB000082001F035F82020ADF8000003208DF850
:101DC000020014208DF803006946DD4800F06CFD28
:101DD0000121DC4800F039FE1020ADF8000003209E
:101DE0008DF8020014208DF803006946D44800F0F5
:101DF0005BFD08BD002100BF48E000BF00BF00BF81
:101E000000BF00BF00BF00BF00BF00BF00BF00BFDA
:101E100000BF00BF00BF00BF00BF00BF00BF00BFCA
:101E200000BF00BF00BF00BF00BF00BF00BF00BFBA
:101E300000BF00BF00BF00BF00BF00BF00BF00BFAA
:101E400000BF00BF00BF00BF00BF00BF00BF00BF9A
:101E500000BF00BF00BF00BF00BF00BF00BF00BF8A
:101E600000BF00BF00BF00BF00BF00BF00BF00BF7A
:101E700000BF00BF00BF00BF00BF00BF00BF00BF6A
:101E800000BF00BF00BF00BF00BF491C8142B4D3E8
:101E9000704700B52020AA49103108601020086062
:101EA0000220FFF7A7FFA6480830006808B9012004
:101EB00000E0002000F0200008B1002000BD20203C
:101EC0009F49143108600220FFF794FF9C480830B6
:101ED000006800F0200008B10020EFE720209849BA
:101EE000143108600220FFF785FF0120E6E700B506
:101EF00010209349143108600220FFF77BFF202057
:101F00008F49143108600220FFF774FF10208C49BC
:101F1000103108600220FFF76DFF20208849103142
:101F200008600220FFF766FF00BD00B5102084495D
:101F3000143108600220FFF75DFF20208049143132
:101F400008600220FFF756FF10207D49103108601D
:101F50000220FFF74FFF102079491431086002205A
:101F6000FFF748FF00BD00B5102075491431086027
:101F70000220FFF73FFF2020714910310860022046
:101F8000FFF738FF10206E49103108600220FFF77C
:101F900031FF10206A49143108600220FFF72AFF40
:101FA00000BD00B510206649143108600220FFF71B
:101FB00021FF20206249103108600220FFF71AFF3C
:101FC00010205F49103108600220FFF713FF5C48C2
:101FD0000830006800F0200040B11020584914314A
:101FE00008600220FFF706FF002000BD10205449C2
:101FF000143108600220FFF7FDFE0120F5E710B55F
:10200000034608241EE010204D49143108600220C8
:10201000FFF7F0FE03F0800020B120204849103186
:10202000086003E020204649143108605806030E7A
:102030000220FFF7DFFE1020414910310860022026
:10204000FFF7D8FE2000A4F10101CCB2DBD11020B3
:102050003B491431086010BD10B50824002320202E
:1020600037491031086017E05806030E1020344934
:10207000143108600220FFF7BDFE102030491031F6
:1020800008600220FFF7B6FE2D480830006800F017
:10209000200008B143F001032000A4F10101CCB2FB
:1020A000E2D11020264914310860184610BD70B5E1
:1020B00006460C461546FFF7ECFE08B9002070BD39
:1020C0003046FFF79CFFFFF76CFF18B9FFF70FFFD3
:1020D0000020F4E72046FFF792FFFFF762FF284653
:1020E000FFF78DFFFFF75DFFFFF701FF0120E6E738
:1020F00070B504460D46FFF7CCFE08B9002070BD50
:102100002046FFF77CFFFFF74CFF18B9FFF7EFFE03
:102110000020F4E72846FFF772FFFFF742FFFFF7C2
:10212000B8FE611CC8B2FFF76AFFFFF73AFFFFF77E
:1021300093FF0646FFF717FFFFF7D9FE3046DEE7AD
:10214000000C01400002300010B5FFF72FFE012205
:102150000B211A20FFF7ABFF402220211A20FFF7A6
:10216000A6FF012221211A20FFF7A1FF0D2209213C
:102170001A20FFF79CFF0B223121A620FFF797FFC3
:1021800008222D21A620FFF792FF80222E21A620D3
:10219000FFF78DFF80223E21D020FFF788FF072226
:1021A0001521D020FFF783FF1E221621D020FFF734
:1021B0007EFF00221721D020FFF779FF00223E2169
:1021C000D020FFF774FF10BD2DE9F04105460C4605
:1021D00021462846FFF78CFF0646601CC1B2284600
:1021E000FFF786FF074607EB0620BDE8F0812DE9E3
:1021F000F04105460C4621462846FFF779FF074681
:10220000601CC1B22846FFF773FF064607EB0620A5
:10221000BDE8F08110B54FF4A06000F077FA10BD72
:1022200000BF7047704770B505460C460021F8485E
:1022300002F039F8C82C01D9002070BD2246294689
:10224000F44803F07DF82146F14802F041F80121FD
:10225000EF4802F028F80120EFE700B58BB001212C
:10226000084600F0D0FDEA48143801F04FFFE84876
:1022700001F04CFFE8480090E848019000200290EF
:10228000C820039000200490802005900020069034
:10229000079008904FF44050099000200A9069463A
:1022A000DB48143801F0D4FF0121D948143801F07B
:1022B000FAFFD9480090D7480190102002900920D9
:1022C0000390002004908020059000200690079045
:1022D00008904FF48050099000200A906946CC483D
:1022E00001F0B6FF01224021CB48001F00F0FCFEA8
:1022F00001228021C848001F00F0F6FE0BB000BD8F
:1023000008B510208DF8000000208DF80100012094
:102310008DF802008DF80300684600F0FCF92620D5
:102320008DF8000000208DF8010002208DF80200D9
:1023300001208DF80300684600F0EDF908BD10B5E6
:1023400086B004460121480400F077FD01210520F4
:1023500000F066FD0420ADF8140018208DF8170079
:1023600003208DF8160005A9AD4800F09DFA08205D
:10237000ADF8140004208DF8170005A9A84800F056
:1023800093FA01940020ADF80800ADF80A00ADF80A
:102390000C00ADF810000C20ADF80E0001A99E480D
:1023A000001F00F0E4FDFFF7ABFFFFF756FF01222F
:1023B00040F224419848001F00F071FE0121964828
:1023C000001F00F060FE40219348001F00F043FF13
:1023D00006B010BD70B502F01AFC40F224418E48E0
:1023E000001F00F041FF10B38B48001F0088C4B2EB
:1023F00089480088C4B200218548143801F053FF91
:102400008348143801F066FF05462A46834985480B
:1024100002F096FFFFF7BFF9C8217D48143801F09C
:1024200057FF01217A48143801F03DFF00BF02F048
:10243000FDFB70BD10B502F0EAFB4FF4001001F097
:102440004DFF18B14FF4001001F07BFF02F0EEFBDE
:1024500010BD70B505460C4600216D48643801F08A
:1024600022FFC82C01D9002070BD224629466E48A3
:1024700002F066FF21466648643801F029FF012119
:102480006348643801F00FFF0120EDE700B58BB021
:102490000121084600F0B7FC5D48643801F036FEC3
:1024A0005B48503801F032FE60480090604801906F
:1024B00000200290C8200390002004908020059006
:1024C00000200690079008904FF44050099000209B
:1024D0000A9069464E48503801F0BAFE01214C4836
:1024E000503801F0E0FE514800904F480190102014
:1024F0000290092003900020049080200590002085
:102500000690079008904FF48050099000200A90A0
:1025100069463F48643801F09BFE01224021434850
:10252000001F00F0E1FD012280214048001F00F063
:10253000DBFD0BB000BD08B50D208DF800000020BC
:102540008DF8010001208DF802008DF80300684627
:1025500000F0E1F827208DF8000000208DF8010040
:1025600002208DF8020001208DF80300684600F07B
:10257000D2F808BD10B586B004460121880400F0E9
:102580005CFC0121092000F04BFC4FF48060ADF8A9
:10259000140018208DF8170003208DF8160005A9E7
:1025A000244800F081F94FF40060ADF814000420D5
:1025B0008DF8170005A91F4800F076F90194002056
:1025C000ADF80800ADF80A00ADF80C00ADF8100049
:1025D0000C20ADF80E0001A91448001F00F0C7FC44
:1025E000FFF7A9FFFFF752FF012240F224410F48F5
:1025F000001F00F054FD01210C48001F00F043FDB6
:1026000040210A48001F00F026FE06B010BD000061
:1026100080000240D4020020044400400C0200204C
:1026200000080140000400202C0500200448004060
:1026300064040020000C014010B502F0E8FA40F2FA
:1026400024411F4800F010FE98B11D480088C4B214
:102650001B48001D0088C4B200211A4801F023FE67
:10266000C821184801F034FE0121164801F01BFE74
:1026700000BF02F0DBFA10BD10B502F0C8FA4FF44B
:10268000007001F02BFE18B14FF4007001F059FEFC
:1026900002F0CCFA10BD0FB438B505A80090322175
:1026A0000948009B049A02F0F5FC044600200090C3
:1026B000E1B20548FFF7CDFE38BC5DF814FB000021
:1026C0000048004030000240F405002009488047DF
:1026D00009480047FEE7FEE7FEE7FEE7FEE7FEE704
:1026E000FEE7FEE7FEE7FEE704480549054A064B1C
:1026F000704700006B0300083101000890160020AD
:10270000901C0020901800209018002031490143AF
:10271000314A1160704770B5002100230F22C47840
:1027200004B32D4C246804F4E064C4F5E064210A89
:10273000C1F10403CA40447804FA03F184781440D8
:1027400021430901254C0678A155047804F01F05A2
:102750000124AC4005786D11AD0005F1E025C5F808
:10276000004109E0047804F01F050124AC401C4D31
:102770000678761145F8264070BD1A4A0A40024391
:10278000154B1B1F1A60704739B1134A121D12688E
:102790000243114B1B1D1A6006E00F4A121D1268FE
:1027A00082430D4B1B1D1A607047042808D14FF05F
:1027B000E021096941F004014FF0E022116107E0D6
:1027C0004FF0E021096921F004014FF0E02211618E
:1027D000704700000000FA050CED00E000E400E0A6
:1027E00080E100E080FFFF1F10B50446CC48844222
:1027F00008D10121042000F02DFB0021042000F06D
:1028000029FB46E0C748844208D10121082000F096
:1028100021FB0021082000F01DFB3AE0C248844261
:1028200008D10121102000F015FB0021102000F03C
:1028300011FB2EE0BD48844208D10121202000F088
:1028400009FB0021202000F005FB22E0B84884426B
:1028500008D10121402000F0FDFA0021402000F0C5
:10286000F9FA16E0B348844208D10121802000F033
:10287000F1FA0021802000F0EDFA0AE0AE4884422F
:1028800007D10121801500F0E5FA0021A01500F024
:10289000E1FA10BD10B50121084600F0DBFA002175
:1028A000012000F0D7FA10BD2DE9F04102460025C5
:1028B0000026002000230024002791F803C00CF01C
:1028C0000F0591F803C00CF0100CBCF1000F03D001
:1028D00091F802C04CEA050591F800C0BCF1000F68
:1028E00031D0146800202BE04FF0010C0CFA00F3FB
:1028F000B1F800C00CEA03069E4220D183004FF0DD
:102900000F0C0CFA03F7BC4305FA03FC4CEA040471
:1029100091F803C0BCF1280F06D14FF0010C0CFA5E
:1029200000FCC2F814C00AE091F803C0BCF1480FE3
:1029300005D14FF0010C0CFA00FCC2F810C0401C8D
:102940000828D1D31460B1F800C0BCF1FF0F34DD0A
:10295000546800202EE000F1080C4FF0010808FA3E
:102960000CF3B1F800C00CEA03069E4221D18300AB
:102970004FF00F0C0CFA03F7BC4305FA03FC4CEACA
:10298000040491F803C0BCF1280F05D100F1080C34
:1029900008FA0CF8C2F8148091F803C0BCF1480F93
:1029A00007D100F1080C4FF0010808FA0CF8C2F842
:1029B0001080401C0828CED35460BDE8F0814FF64B
:1029C000FF710180022181700421C17070470246AD
:1029D000002093680B400BB1012000E000207047FD
:1029E0000146886880B2704702460020D3680B40D9
:1029F0000BB1012000E0002070470146C86880B29A
:102A0000704701617047416170470AB1016100E0A0
:102A100041617047C16070474FF480320A43826160
:102A20008161826182698269704702460020434B5E
:102A300018684FF68073184040EA021008433F4B75
:102A4000186070473E49C8617047F0B50A460023D8
:102A500000240021002500F00046B6F1004F02D10D
:102A6000364EF16901E0354E7168C0F3034583B21B
:102A700000F44016B6F5401F08D121F070612F4ECA
:102A8000766826F070662D4F7E6012E000F48016A6
:102A9000B6F5801F06D1032606FA05F4A14341F0DE
:102AA000706106E0460D360103FA06F6B14341F0C7
:102AB000706122B1460D360103FA06F6314300F08B
:102AC0000046B6F1004F02D11C4EF16101E01B4EF1
:102AD0007160F0BD30B500228B071C0F0F2303FA85
:102AE00004F2164B08338C1053F824309343134CE4
:102AF00008348D1044F8253023468C1053F82430C8
:102B00008C07240F00FA04F423430C4C08348D1076
:102B100044F8253030BD0A49DC31086070470000B8
:102B200000080140000C0140001001400014014069
:102B300000180140001C014000200140000001403D
:102B400000002042DF48006840F00100DD490860D5
:102B500008464068DC490840DA4948600846006891
:102B6000DA490840D74908600846006820F4802008
:102B700008600846406820F4FE0048604FF41F00DB
:102B800088607047CF49096821F48031CD4A1160CF
:102B90001146096821F480211160B0F5803F03D00F
:102BA000B0F5802F0ED106E0C649096841F48031A6
:102BB000C44A116007E0C349096841F4A021C14A31
:102BC000116000E000BF00BF704710B50146002251
:102BD000002300204A11012A02D1BA4C236806E0E2
:102BE000022A02D1B74C236A01E0B64C636A01F0B5
:102BF0001F02012494401C400CB1012000E0002081
:102C000010BD38B5002000900024002500BF312001
:102C1000FFF7DBFF05460098401C00900098B0F5D8
:102C2000A06F01D0002DF2D03120FFF7CEFF08B108
:102C3000012400E00024204638BD01460020A14ABE
:102C4000106820F0F80040EAC10010607047A04909
:102C500008607047024600209A4B586820F47C10A8
:102C600042EA01031843974B586070479849086639
:102C7000704701460020934A506820F00300084343
:102C8000506070478F48406800F00C007047014664
:102C900000208C4A506820F0F000084350607047D4
:102CA00001460020874A506820F4E06008435060E5
:102CB000704701460020834A506820F4605040EA83
:102CC000C1005060704729B17E4A527A02437D4B61
:102CD0005A7204E07B4A527A82437A4B5A727047A6
:102CE0007B49D8310860704701460020754A50681A
:102CF00020F440400843506070470021714A203260
:102D00001170704A82F82010012802D004280AD1DC
:102D100004E001216B4A2032117005E00521694A67
:102D20002032117000E000BF00BF704769490860A1
:102D300070476449096A0143624A116270476549F4
:102D400044390860704730B5002100220024002378
:102D50005C4D6D6805F00C0121B1042905D00829EE
:102D600023D105E05C4D056022E05B4D05601FE06E
:102D7000544D6D6805F47012524D6D6805F4803441
:102D8000022505EB92421CB9544D554305600BE0FA
:102D90004C4D6D6805F400351DB1504D554305602F
:102DA00002E04D4D5543056002E04B4D056000BF0C
:102DB00000BF444D6D6805F0F0010909484D6B5C9A
:102DC0000568DD4045603F4D6D6805F4E061090A26
:102DD000434D6B5C4568DD4085603A4D6D6805F498
:102DE0006051C90A3E4D6B5C4568DD40C560354D9C
:102DF0006D6805F44041890B3A4D6B5CC568B5FBC5
:102E0000F3F5056130BD29B12E4A526902432D4BBD
:102E10005A6104E02B4A526982432A4B5A61704737
:102E200029B1284A92690243264B9A6104E0254A57
:102E300092698243234B9A61704729B1214AD26932
:102E40000243204BDA6104E01E4AD26982431D4BE3
:102E5000DA61704729B11B4AD2680243194BDA6024
:102E600004E0184AD2688243164BDA60704729B1F1
:102E7000144A12690243134B1A6104E0114A1269A1
:102E80008243104B1A6170471249403908607047FD
:102E90000F49C86470470B49C87170470948406AB8
:102EA00040F0807007494862704701460020054A9B
:102EB00092680A400AB1012000E0002070470149F1
:102EC00088727047001002400000FFF8FFFFF6FE16
:102ED000000042428004424200127A0000093D0094
:102EE000680000207800002010B50446FB488442AA
:102EF00009D101218803FFF7ADFF00214FF4804085
:102F0000FFF7A8FF32E0F648844209D101214804C6
:102F1000FFF7ADFF00214FF40030FFF7A8FF25E0D9
:102F2000F048844209D101218804FFF7A0FF002165
:102F30004FF48020FFF79BFF18E0EB48844209D153
:102F40000121C804FFF793FF00214FF40020FFF791
:102F50008EFF0BE0E548844208D101210805FFF708
:102F600086FF00214FF48010FFF781FF10BD2DE98F
:102F7000F04786B005460E460024A24600BFA14693
:102F80000027B08900B100BF2F462C8A4CF6FF7095
:102F90000440F08804432C82AC894EF6F3100440C0
:102FA000B08831890843718908430443AC81AC8AF5
:102FB0004FF6FF400440B0890443AC8201A8FFF7FC
:102FC000C2FEC648874202D1DDF810A001E0DDF85C
:102FD0000CA0A88900F4004040B10AEBCA0000EB45
:102FE0000A1031684900B0FBF1F807E00AEBCA00AB
:102FF00000EB0A1031688900B0FBF1F86420B8FBDF
:10300000F0F004012009642101FB1089A88900F473
:10301000004040B1322000EBC900B0FBF1F000F0FD
:103020000700044308E0322000EB09106421B0FBE4
:10303000F1F000F00F0004432C8106B0BDE8F087EA
:103040004FF41651016000218180C18001810C2163
:10305000418100218181704710B502460020108A0D
:103060004FF2FF0318400B884C8823438C8823437E
:10307000CC8823431843108210BD00210180418079
:103080008180C180704721B1828942F400528281DF
:1030900004E082894DF6FF731A4082817047F0B5D3
:1030A0000346002400260025002040F66A17B94296
:1030B00000D100BF1846C1F3421401F01F060127DA
:1030C00007FA06F5012C01D10C3004E0022C01D1E5
:1030D000103000E014301AB107682F43076002E097
:1030E0000768AF430760F0BD1AB1838A0B43838240
:1030F00002E0838A8B4383827047028A4FF6F07323
:103100001A400282028A0A430282704782894FF281
:10311000FF731A40828182890A438281704721B1FC
:10312000828942F00202828104E082894FF6FD73B7
:103130001A4082817047028A4FF6DF731A4002827A
:10314000028A0A430282704721B1028A42F4804215
:10315000028204E0028A4BF6FF731A400282704733
:10316000C1F308028280704701468888C0F30800D6
:103170007047818941F0010181817047028BD2B291
:103180000283028B42EA012202837047028B02F41F
:103190007F420283028B0A430283704721B1828AF5
:1031A00042F02002828204E0828A4FF6DF731A40E6
:1031B0008282704721B1828A42F01002828204E04A
:1031C000828A4FF6EF731A408282704721B1828A59
:1031D00042F00802828204E0828A4FF6F7731A40B6
:1031E0008282704721B1828942F40042828103E0E9
:1031F0008289C2F30E028281704721B1828A42F431
:103200000062828204E0828A4FF2FF731A40828257
:103210007047828A4FF6FB731A408282828A0A4381
:103220008282704721B1828A42F00202828204E0E7
:10323000828A4FF6FD731A40828270470246002050
:10324000B1F5007F00D100BF13880B400BB1012006
:1032500000E00020704701F40072B2F5007F00D159
:1032600000BFCA430280704770B5024600240023A5
:103270000025002040F66A16B14200D100BFC1F31C
:10328000421501F01F03012606FA03F3012D02D1B6
:103290009689334006E0022D02D1168A334001E0C0
:1032A000968A33400C12012606FA04F4168834403C
:1032B00013B10CB1012000E0002070BD10B5002258
:1032C000002340F66A14A14200D100BF0A12012473
:1032D0009440A3B2DC43048010BD000000380140DC
:1032E0000044004000480040004C004000500040B6
:1032F00010B50446FE48844208D10121C014FFF7EE
:10330000A9FD0021E014FFF7A5FDC4E0B4F1804F52
:1033100008D101210846FFF7AAFD00210120FFF78F
:10332000A6FDB8E0F348844208D101210220FFF74E
:103330009EFD00210220FFF79AFDACE0EE4884429A
:1033400008D101210420FFF792FD00210420FFF79E
:103350008EFDA0E0E948844208D101210820FFF752
:1033600086FD00210820FFF782FD94E0E4488442B6
:1033700008D101211020FFF77AFD00211020FFF76E
:1033800076FD88E0DF48844208D101212020FFF744
:103390006EFD00212020FFF76AFD7CE0DA488442C0
:1033A00008D101214014FFF755FD00216014FFF7FB
:1033B00051FD70E0D548844209D10121C804FFF7CE
:1033C00049FD00214FF40020FFF744FD63E0D048A1
:1033D000844209D101210805FFF73CFD00214FF48B
:1033E0008010FFF737FD56E0CA48844209D1012119
:1033F0004805FFF72FFD00214FF40010FFF72AFDCD
:1034000049E0C548844208D101214020FFF72FFD43
:1034100000214020FFF72BFD3DE0C048844208D149
:1034200001218020FFF723FD00218020FFF71FFDF1
:1034300031E0BB48844208D101218015FFF717FD18
:103440000021A015FFF713FD25E0B648844209D1FD
:1034500001210804FFF7FEFC00214FF48030FFF744
:10346000F9FC18E0B048844209D101214804FFF773
:10347000F1FC00214FF40030FFF7ECFC0BE0AB480F
:10348000844208D101218804FFF7E4FC00214FF4B5
:103490008020FFF7DFFC10BD00220288944B984289
:1034A0000ED0994B98420BD0B0F1804F08D0914B81
:1034B000984205D0904B984202D0904B984204D14C
:1034C0004FF68F731A404B881A438D4B984207D0A2
:1034D0008C4B984204D04FF6FF431A40CB881A43D6
:1034E00002808B8883850B880385814B98420BD0A3
:1034F000854B984208D08B4B984205D08A4B984216
:1035000002D08A4B984201D10B7A03860123838231
:10351000704770B5002400220023058C4FF6FE761C
:1035200035400584028C8388048B4FF68F752C40C0
:10353000B51E2C400D882C43751E2A400D892A4348
:103540004D882A436A4DA8420BD06F4DA84208D03F
:10355000744DA84205D0744DA84202D0734DA842C4
:1035600013D14FF6F7752A404D892A434FF6FB7564
:103570002A408D882A434FF6FF652B404FF6FF55B2
:103580002B408D892B43CD892B4383800483CD88A9
:103590008586028470BD70B5002400220023058C4E
:1035A0004FF6EF7635400584028C8388048B48F60D
:1035B000FF752C404FF6FF452C400D884FF6FF76E7
:1035C00006EA05252C434FF6DF752A400D8906EAE9
:1035D00005152A434D8806EA05152A43444DA8429D
:1035E00002D0494DA8421DD14FF67F752A404D8922
:1035F0004FF6FF7606EA05152A434FF6BF752A40B7
:103600008D8806EA05152A434FF6FF352B404FF209
:10361000FF752B408D8906EA85052B43CD8906EA87
:1036200085052B4383800483CD880587028470BD84
:1036300070B5002400220023058C4FF6FF6635404C
:103640000584028C8388848B4FF68F752C404FF64F
:10365000FC752C400D882C434FF6FF552A400D89F0
:103660004FF6FF7606EA05252A434D8806EA05252A
:103670002A431F4DA84202D0234DA8421DD14FF22C
:10368000FF752A404D894FF6FF7606EA05252A4345
:103690004FF6FF352A408D8806EA05252A434EF667
:1036A000FF752B404DF6FF752B408D8906EA0515F9
:1036B0002B43CD8906EA05152B4383808483CD886F
:1036C0008587028470BD70B5002200230024058C1C
:1036D0004EF6FF7635400584038C8488828B48F64D
:1036E000FF752A404FF6FF452A400D8820E0000074
:1036F000002C01400004004000080040000C004085
:10370000001000400014004000340140004C014013
:10371000005001400054014000180040001C0040CF
:1037200000200040004001400044014000480140AA
:103730004FF6FF7606EA05252A434DF6FF752B4026
:103740000D8906EA05352B434D8806EA05352B43DE
:10375000FA4DA84202D0FA4DA84208D14BF6FF75A7
:103760002C408D894FF6FF7606EA85152C43848020
:103770008283CD88A0F84050038470BD828B4FF2C5
:10378000FF331A408283828B4FF6FF7303EA0123D3
:103790001A4382837047F0B50C461546002200217B
:1037A0000026078C4EF6FF7C07EA0C070784828B05
:1037B000018C4FF6FF7707EA043640F6FF473A40A0
:1037C0004FF6FF7707EA05273A434FF6FF7707EAF8
:1037D00003373A43D94FB8420ED0D94FB8420BD035
:1037E000B0F1804F08D0D74FB84205D0D64FB8427D
:1037F00002D0D64FB84206D14DF6FF77394046F495
:103800008057394305E047F6FF57394044F4805765
:10381000394382830184F0BD828B4FF6F3731A40E3
:103820008283828B0A4382837047F0B50C4615462B
:10383000002200210026078C4FF6FF6C07EA0C07D8
:103840000784828B018C4FF6FF7707EA04264FF638
:103850000C773A404FF6FF7707EA03172F433A43B6
:10386000B64FB8420ED0B64FB8420BD0B0F1804F31
:1038700008D0B44FB84205D0B34FB84202D0B34FCE
:10388000B84206D14FF6FF57394046F480773943A6
:1038900005E04FF2FF57394044F480773943828383
:1038A0000184F0BD028B4FF2FF331A400283028B7A
:1038B0004FF6FF7303EA01231A4302837047F0B502
:1038C0000C461546002200210026078C4FF6EF7C9F
:1038D00007EA0C070784028B018C4FF6FF7707EA93
:1038E000041640F6FF473A404FF6FF7707EA0337E2
:1038F0003A434FF6FF7707EA05273A438F4FB8421E
:103900000ED08F4FB8420BD0B0F1804F08D08D4F02
:10391000B84205D08C4FB84202D08C4FB84206D185
:103920004FF6DF77394046F01007394305E04FF690
:103930005F77394044F01007394302830184F0BDBA
:10394000028B4FF6F3731A400283028B0A43028301
:103950007047F0B50C46154600220021068C4FF644
:10396000FE773E400684028B018C4FF60C76324087
:103970007E1C06EA03162E433243704EB0420ED030
:103980006F4EB0420BD0B0F1804F08D06D4EB042B8
:1039900005D06D4EB04202D06C4EB04206D14FF60B
:1039A000FD76314044F00106314305E04FF6F576EF
:1039B000314044F00106314302830184F0BD70B50B
:1039C00005460C465D4885420ED05D4885420BD0C9
:1039D000B5F1804F08D05B48854205D05A488542F2
:1039E00002D05A48854200D100E000BF208850B97B
:1039F0002389A28861882846FFF7ABFFE188284623
:103A0000FFF79EFF25E0208804280AD12389A28899
:103A100061882846FFF753FFE1882846FFF742FFF9
:103A200017E0208808280AD12389A28861882846BF
:103A3000FFF7FBFEE1882846FFF7EEFE09E0238949
:103A4000A28861882846FFF7A6FEE1882846FFF78E
:103A500095FE70BD2DE9F04105460C460026012774
:103A6000608808B9022600E00026A088012801D15C
:103A7000022700E001272088A0B92389A288618855
:103A80002846FFF766FFE1882846FFF759FF23899C
:103A90003A4631462846FFF712FFE1882846FFF7ED
:103AA00001FF13E02389A28861882846FFF707FFFA
:103AB000E1882846FFF7F6FE23893A463146284634
:103AC000FFF747FFE1882846FFF73AFFBDE8F0819E
:103AD0000A884B881A438B881A43CB881A430B8970
:103AE0001A434B891A438B891A43A0F84420704724
:103AF0004FF6FF71818000210180C18041800172F9
:103B000070470021018041808180C1800181418115
:103B10008181C18170470021018041800121818024
:103B20000021C18001817047002101804180818096
:103B3000C18001814181818170470000002C0140DA
:103B4000003401400004004000080040000C004028
:103B500021B1028842F00102028004E002884FF69F
:103B6000FE731A400280704731B1B0F8442042F42D
:103B70000042A0F8442005E0B0F84420C2F30E0251
:103B8000A0F8442070471AB183890B43838102E077
:103B900083898B43838170478182704741EA0203A6
:103BA000A0F8483070471AB183890B43838102E043
:103BB00083898B438381704701894FF6F8721140E6
:103BC000018170470A46002101894FF68F73194021
:103BD00011430181704730B504460D462946204601
:103BE000FFF7F0FF208940F00700208130BD2DE96C
:103BF000F04104460D4616461F46602D06D13B4651
:103C0000012231462046FFF75AFE05E03B460122DD
:103C100031462046FFF79DFE29462046FFF7D2FF9A
:103C2000208940F007002081BDE8F08130B50C46C6
:103C300000210189C9B24FF6FF7505EA0325154336
:103C400025432943018130BD2DE9F04105460E464B
:103C500017469846002443463A4631462846FFF721
:103C6000E5FF2C894FF6F870044044F007044FF646
:103C70008F70044044F070042C81BDE8F081F0B5F1
:103C800004460D4616461F463B4632462946204608
:103C9000FFF7CCFF208940F480402081F0BD0185F2
:103CA000828270470A46002101884FF68F731940BF
:103CB000114301807047F0B50C4615461E460021A1
:103CC000002200230189028B038C4FF6F8773940DC
:103CD00021434FF6FC473A4040F201173A434FF672
:103CE000DD773B404FF6FF7707EA06172F433B434C
:103CF000018102830384F0BD0A460021018B4FF647
:103D00008F7319401143018370470A460021018BCC
:103D100048F6FF7319404FF6FF7303EA0223194375
:103D2000018370470A460021818B4FF68F7319403B
:103D30001143818370470A460021818B48F6FF7347
:103D400019404FF6FF7303EA02231943818370473A
:103D500021B1028842F08002028004E002884FF61E
:103D60007F731A400280704721B1828842F00402BA
:103D7000828004E082884FF6FB731A40828070478D
:103D800021B1828842F00802828004E082884FF6E6
:103D9000F7731A408280704721B1828842F0010295
:103DA000828004E082884FF6FE731A40828070475A
:103DB0000A460021018B4FF6F77319401143018326
:103DC00070470A460021018B4FF2FF7319404FF6EE
:103DD000FF7303EA02231943018370470A46002157
:103DE000818B4FF6F77319401143818370470A4660
:103DF0000021818B4FF2FF7319404FF6FF7303EAE6
:103E000002231943818370470A460021018B4FF634
:103E1000FB7319401143018370470A460021018B4F
:103E20004FF6FF3319404FF6FF7303EA022319439D
:103E3000018370470A460021818B4FF6FB731940BE
:103E40001143818370470A460021818B4FF6FF336F
:103E500019404FF6FF7303EA022319438183704729
:103E60000A460021018B4FF67F73194011430183ED
:103E700070470A460021018BC1F30E014FF6FF7314
:103E800003EA02231943018370470A460021818B0C
:103E90004FF67F7319401143818370470A46002112
:103EA000818BC1F30E014FF6FF7303EA022319431E
:103EB000818370470A460021018C4FF6FD7319403B
:103EC0001143018470470A460021018C4FF6F773B5
:103ED00019401143018470470A460021018C4FF6B6
:103EE000DF7319404FF6FF7303EA0213194301848D
:103EF00070470A460021018C4FF67F7319404FF638
:103F0000FF7303EA02131943018470470A46002134
:103F1000018C4FF6FF5319404FF6FF7303EA02235B
:103F20001943018470470A460021018C4FF2FF7348
:103F300019404FF6FF7303EA0223194301847047C7
:103F40000A460021018C4DF6FF7319404FF6FF73AE
:103F500003EA023319430184704730B5002301247A
:103F60008C40A3B2048C9C430484048C02FA01F5B7
:103F7000ADB22C43048430BD30B5002304248C4002
:103F8000A3B2048C9C430484048C02FA01F5ADB204
:103F90002C43048430BD70B503460020002418462D
:103FA000183001258D40ACB21D8CA5431D8409B18C
:103FB000082909D100EB6100056825F0700505604E
:103FC0000568154305600EE00D1FC5F34E05284436
:103FD000056825F4E045056005684FF6FF7606EABA
:103FE00002263543056070BD21B1028842F002020D
:103FF000028004E002884FF6FD731A400280704789
:1040000021B1028842F00402028004E002884FF6E7
:10401000FB731A400280704721B1828842F080020F
:10402000828004E082884FF67F731A408280704756
:1040300002884FF6F7731A40028002880A43028012
:10404000704782884FF68F731A40828082880A43B5
:104050008280704702894FF6F8731A400281028904
:104060000A430281704702894FF67F731A4002812A
:1040700002890A43028170478184704781857047B5
:10408000818670470187704781877047A0F840108C
:10409000704702884FF6FF431A40028002880A43A5
:1040A000028070470146888E70470146088F70472E
:1040B0000146888F70470146B1F8400070470146BD
:1040C000888C70470146088D704702460020138A8D
:1040D0000B400BB1012000E000207047CA43028270
:1040E000704730B50246002000230024158A05EAF7
:1040F0000103958905EA010413B10CB1012000E028
:10410000002030BDCA4302827047000001684FF6AC
:10411000FE72114001600021016041608160C16058
:104120008D49884208D18C490839496841F00F010E
:10413000894A083A51608AE087491431884208D197
:1041400085490839496841F0F001834A083A5160CD
:104150007DE081492831884208D17F490839496882
:1041600041F470617C4A083A516070E07A493C3110
:10417000884208D178490839496841F47041764A43
:10418000083A516063E074495031884208D172495D
:104190000839496841F470216F4A083A516056E085
:1041A0006D496431884208D16B490839496841F446
:1041B0007001694A083A516049E06749783188429C
:1041C00008D165490839496841F07061624A083A86
:1041D00051603CE06149884206D1011F096841F005
:1041E0000F01021F116032E05C491431884208D18E
:1041F0005A49091F096841F0F001584A121F11601D
:1042000025E056492831884208D15449091F0968D8
:1042100041F47061514A121F116018E04F493C315E
:10422000884208D14D49091F096841F470414B4A41
:10423000121F11600BE049495031884207D14749AC
:10424000091F096841F47021444A121F1160704728
:1042500010B50022026847F6F0739A430C6A8B6827
:1042600023430C6923434C6923438C692343CC6962
:1042700023434C6A23438C6A23431A430260CB686E
:1042800043600B6883604B68C36010BD0021016010
:1042900041608160C160016141618161C161016210
:1042A00041628162704721B1026842F001020260FE
:1042B00004E002684FF6FE731A40026070471AB1BC
:1042C00003680B43036002E003688B43036070479D
:1042D000416070470146486880B27047014600203F
:1042E000002201F080531BB11C4B083B1A6802E00E
:1042F000194B083B1A6802EA01030BB1012000E0E8
:104300000020704700F0805119B11449091F08605E
:1043100002E0114908394860704701460020002238
:1043200001F080531BB10D4B083B1A6802E00A4BA9
:10433000083B1A6802EA01030BB1012000E00020EB
:10434000704700F0805119B10449091F086002E06C
:1043500001490839486070470800024008040240DB
:1043600010B5024608464FF080730360031F1846DD
:104370001A606FF00104031F18461C604FF01234DE
:10438000031F18461C604FF00334031F18461C60BF
:104390004FF00234031F18461C606410031F1846B8
:1043A0001C600024031F18461C604FF01134031FCB
:1043B00018461C604FF01034031F18461C604FF065
:1043C0000934031F18461C604FF00834031F1846B9
:1043D0001C604FF00734031F18461C604FF0063472
:1043E000031F18461C604FF00534031F18461C605D
:1043F0004FF00434031F18461C6010BD10B504466E
:1044000000F0AEFD0020F9490861F9480068C008D5
:10441000F849B0FBF1F060434FF0E0214861002023
:10442000F549096808704FF0E021886103200861B0
:1044300000F098FD10BD01B500F092FD4FF47A71C7
:10444000009848434900B0FBF1F0401CEB49096873
:10445000C86200F0E6FD00F085FD00BFE748006897
:10446000C06A0028FAD108BD10B5E04800780128DC
:104470001DD100F075FDDD488078002815DDDB4892
:104480008078401ED94988700846807850B908461F
:10449000407820B900F066FD00F0C3FD07E000F0B1
:1044A00061FD04E000F05EFD01E000F05BFD10BD89
:1044B00070B505460E4600F053FDD04800684068D0
:1044C000A84218D1C948407878BBC848807860BBFA
:1044D000CA480068008900EB800101EBC000C849B0
:1044E00001EB800080F82A60C6480068C349086074
:1044F00000F097FD19E0012414E004EB840000EBC8
:10450000C400BF4901EB80004068A84208D104EB19
:10451000840000EBC40001EB800080F82A6003E017
:10452000601CC4B2102CE8DB00BF00F01BFD70BDA6
:1045300010B5AE48007801280FD100F011FDAB484E
:10454000407840B9A9488078FF2804D2A7488078ED
:10455000401CA649887000F005FD10BD8AB02FE10F
:10456000FFF7E6FFA848007801287DDDA64800781F
:10457000401EA549491C085C2F2875D1481E0078AB
:10458000801E085C2F28F8D10020491E08709FA1CA
:104590009D48401C00F0CEFE8146CDF800900124DD
:1045A0000AE0B9F1000F05D098A1002000F0C2FE8A
:1045B0004DF82400601CC4B20A2CF2DB94A10098D0
:1045C00000F004FF0028D8D192A1019800F0FEFE6F
:1045D00010B901209149487091A1019800F0F6FEB0
:1045E00010B902208D4948708FA1019800F0EEFEAD
:1045F00010B90320894948708BA1029800F0E6FEAB
:1046000010B90120854988708AA1029800F0DEFE69
:1046100010B902208149887080484078012804D070
:1046200002282DD003282AD155E07C488078012823
:1046300002D0022822D100E020E001241BE004EB9C
:10464000840202EBC4026E4B03EB820202F10A0108
:10465000039800F0BBFE60B904EB840101EBC401D8
:10466000674A02EB810100E0A4E048680121FFF7FE
:104670001FFF601CC4B2102CE1DB00BF00BF98E03C
:1046800066488078012802D0022822D100E020E08C
:1046900001241AE004EB840202EBC402584B03EB42
:1046A000820202F10A01039800F090FE58B904EB6F
:1046B000840101EBC401524A02EB810148680221E6
:1046C000FFF7F6FE03E0601CC4B2102CE2DB00BF73
:1046D00000BF00BF6DE059A000F0F6FC434801693F
:1046E00065A000F0F1FC6BA000F0EEFC012450E0AE
:1046F000012C1CD104EB840000EBC400404901EB09
:104700008000006B4FF47A71484338490969B0FB67
:10471000F1FA504602F0A6FF07460022624B02F073
:1047200003FE05462A460B4660A000F0CDFC04EBD4
:10473000840000EBC400324901EB8000807A30B382
:10474000012C24DD04EB840000EBC40001EB8000AD
:10475000006B4FF47A71484324490969B0FBF1FAC0
:10476000504602F07FFF054600224F4B02F0DCFD71
:1047700007460B4604EB840000EBC400204A02EB22
:10478000800000F10A013A464FA000F09DFC601C39
:10479000C4B2102CACDB51A000F096FC1F4880780E
:1047A000012802D0022802D100E000E000BF00BFD3
:1047B00000BF00BFFFF758FE4FF47A70FFF73BFED3
:1047C000CEE610B500F0CCFB5249AFF26F20FFF7F8
:1047D000C7FD0B4948630121094880F85E10AFF21C
:1047E0008321816300F0BEFB10BD0000DC080020C7
:1047F0000000002040420F007C00002090000020BC
:10480000F008002094000020B80800202F000000CD
:10481000636D64006F70656E0000000098000020FA
:10482000636C6F73650000007461736B6D616E6122
:10483000676500007461736B000000002A2A2A2A51
:104840002A2A2A2A2A2A2A2A2A2A2A2A2A2A2AC82A
:10485000CECEF1B9DCC0EDC6F72A2A2A2A2A2A2AA6
:104860002A2A2A2A2A2A2A2A2A2A2A2A2A2A2A20B2
:10487000200D0D0A0000000020205461736B546964
:104880006D65536C696365436F756E743A2025647A
:10489000200D0A002020435055D5BCD3C3C2CAA363
:1048A000BA0D0D0A000000000000244020205461D1
:1048B000736B5F4D616E616765203A2025302E3144
:1048C000662525200D0A000020202573203A20258A
:1048D000302E31662525200D0A0000002A2A2A2ABA
:1048E0002A2A2A2A2A2A2A2A2A2A2A2A2A2A2A2A28
:1048F0002A2A2A2A2A2A2A2A2A2A2A2A2A2A2A2A18
:104900002A2A2A2A2A2A2A2A2A2A2A2A2A2A2A2011
:10491000200D0A006408002000BFFEE710B500F07B
:104920001FFBF749AFF20F00FFF71AFDF5490860CA
:10493000012081F82A00AFF21F00486000F012FB4E
:1049400010BD10B500F00CFB002404E00020EE497F
:1049500041F82400641C082CF8D3002404E0002152
:10496000E94820300155641C082CF8D3002404E0E9
:104970000021E54828300155641C082CF8D3002498
:1049800005E0E249E048303040F82410641C082C6F
:10499000F7D3002433E0002004EB840101EBC401D1
:1049A000D84A42F8210004EB840101EBC40102EB78
:1049B0008101486004EB840101EBC40102EB810139
:1049C000088104EB840101EBC40102EB81018872D0
:1049D00004EB840101EBC40102EB8101C86204EB2A
:1049E000840101EBC40102EB8101086304EB840143
:1049F00001EBC40102EB810181F82A00641C102C38
:104A0000C9D30020C2490861C2490870C049C872B0
:104A100001208872FFF782FFFFF7D3FE0020BC4918
:104A20000881BD480068BD490860B648BA490860B9
:104A30003430BB4908600120B54908704FF4FA6072
:104A4000FFF7DCFC00F08EFA10BD2DE9F0470546BB
:104A50000F469046994600F083FA022401E0601C5C
:104A600084B204EB840000EBC400A64951F8200096
:104A70000028F4D100260FE0287800B90EE015F8E0
:104A8000011B04EB840000EBC4009E4A02EB800093
:104A90000A308155701C86B2202EEDDB00BF4146E6
:104AA0003846FFF75DFC04EB840101EBC401954A35
:104AB00042F8210004EB840000EBC400114601EB36
:104AC000800080F82A9004EB840000EBC40001EB26
:104AD0008000476004EB840000EBC40001EB800021
:104AE000048100F03FFABDE8F08710B500F038FA15
:104AF0000821102001F074FE00F034FA10BD10B54A
:104B00000246012114E001EB810303EBC1037D4C5C
:104B100004EB83035B68934208D101EB810303EB51
:104B2000C10304EB830393F82A0003E04B1CD9B2C2
:104B30001029E8DB00BF10BD70B5054600F010FA83
:104B4000754800684068A84225D0012420E004EBA5
:104B5000840000EBC4006B4901EB80004068A84270
:104B600014D16D480068007A6949C87204EB84006A
:104B700000EBC400634901EB800067490860002036
:104B80004FF0E021886100F04CFA03E0601CC4B2F1
:104B9000102CDCDB00BF00F0E5F970BD70B50546F8
:104BA00000F0DEF95C4800684068A8422CD001247F
:104BB00027E004EB840000EBC400524901EB8000C5
:104BC0004068A8421BD152480481008900EB800153
:104BD00001EBC0004B4901EB80005149086004EB38
:104BE000840000EBC400474901EB80004A4908609B
:104BF00000204FF0E021886100F013FA03E0601C10
:104C0000C4B2102CD5DB00BF00F0ACF970BD10B5FC
:104C100000F0A6F93E484078FF2804DA3C48407886
:104C2000401C3B49487000F09DF910BD10B500F0E4
:104C300097F937484078002804DD35484078401E11
:104C40003349487000F08EF910BD10B5FFF7DFFF53
:104C5000FFF76EFCFFF708FCFFF7E8FF10BD01222D
:104C6000294920310A54704700BF27492031095C87
:104C70000029FAD00022244920310A54704710B587
:104C80000446FFF755FC2448006800892549095D62
:104C9000884203D100211C4828300155FFF7E4FB6E
:104CA00010BD10B5044600BF17482830005D01282C
:104CB000FAD0FFF73DFC0121134828300155164872
:104CC0000068007A17490855FFF7CEFB10BD0E4A61
:104CD000303242F820107047014600BF0A4A303295
:104CE00052F821201268094B1B689A42F6D0064AF6
:104CF000303252F82100054B42F821307047000055
:104D000064060020F00800206808002080000020D1
:104D1000DC080020B8080020900000208C00002053
:104D200094000020840000202848006970474FF05C
:104D3000E02080697047F0B503464FF0E0267569C2
:104D4000366926F002064FF0E0273E61204E3668B5
:104D5000F608204FB6FBF7F606FB03F400224FF0EF
:104D6000E026B16910E04FF0E026B06988420BD030
:104D7000884202D20E1A324402E02E1A0E44324405
:104D80000146A24200D300E0EDE700BF4FF0E0266D
:104D9000366946F002064FF0E0273E61F0BD4FF461
:104DA0007A7141434FF4FA62B1FBF2F1491C0A4AAD
:104DB0001268D16200BF08490968C96A0129FAD896
:104DC0000021054A1268D16270470000DC0800200B
:104DD0000000002040420F009000002010E04148F9
:104DE000007828B10020404908703E49087004E06E
:104DF0003D480078401C3C4908700120FFF71BFB30
:104E0000EDE786B01AE0394800693849C968384A80
:104E10001269374BDB68CDE90132CDE90310354823
:104E2000006900903348C36833480269C16833A001
:104E3000FDF731FC4FF4FA70FFF7FDFAE3E704E009
:104E4000FCF76EFB0520FFF7F6FAF9E708E0FFF73D
:104E50006FFBFCF73FF8FFF707FB0A20FFF7EBFAC1
:104E6000F5E704E0FCF74AFF0A20FFF7E4FAF9E768
:104E700010B5FDF7CFF94FF4E130FDF760FA4FF4CC
:104E8000E130FDF777FBFBF766FDFDF75DF9FCF719
:104E9000A7F8FFF756FD0123224AAFF2390122A0FD
:104EA000FFF7D3FD0123224AAFF25F0121A0FFF7F4
:104EB000CCFD0123214AAFF2790121A0FFF7C5FD06
:104EC0000123214AAFF2C50120A0FFF7BEFD012357
:104ED000204AAFF2F70120A0FFF7B7FD00F044F839
:104EE000002010BD90010020A0000020F000002054
:104EF000D8000020C0000020A80000204C3A256403
:104F000020203A256409523A256420203A25640974
:104F1000543A2564093A256409463A2564093A2534
:104F2000640A00002C0E00205461736B31000000F5
:104F30002C1000205461736B320000002C120020F2
:104F40005461736B330000002C1400205461736BA8
:104F5000340000002C1600205461736B35000000F3
:104F600072B6704762B6704772B645484FF0FF019F
:104F700001704FF0000484F30988424C4FF08055D3
:104F8000256062B6FEE772B6EFF3098010B3A0F1B8
:104F90002000046000F10400056000F104000660D8
:104FA00000F10400076000F10400C0F8008000F187
:104FB0000400C0F8009000F10400C0F800A000F167
:104FC0000400C0F800B000F10400A0F120002E4958
:104FD000096808602C482D490A6802601068046856
:104FE00000F10400056800F10400066800F1040007
:104FF000076800F10400D0F8008000F10400D0F848
:10500000009000F10400D0F800A000F10400D0F8F6
:1050100000B000F1040080F309884EF0040E62B67F
:10502000704730B4174C4FF08055256030BC704746
:1050300072B6EFF30980A0F12000046000F10400D3
:10504000056000F10400066000F10400076000F153
:105050000400C0F8008000F10400C0F8009000F1E6
:105060000400C0F800A000F10400C0F800B000F196
:105070000400A0F12000FFF7E8FD0349096808607B
:1050800022ED00E004ED00E08C0000209000002004
:10509000704700007CB51D4616460C00009001D0FC
:1050A0002044401E074B7B442A4669460190304607
:1050B00000F093FC05461CB10020694600F0A0FCFE
:1050C00028467CBD610900000FB4044910B503AA4D
:1050D000029800F0B9FC10BC5DF814FB64000020DD
:1050E00070B50C460546012A05D02878800600D503
:1050F000EA69002302E0012305E05B1C934202D22F
:10510000E05C0028F9D1A869E618C01AA861286AED
:1051100018442862284600F0A8F904E0D5E90121E6
:1051200014F8010B9047B442F8D3284600F0B3F9C5
:1051300070BD00002DE9F041064600241068752975
:10514000314616A510D000F0B7F9002802DA404227
:1051500013A507E031688A0701D512A502E04907C7
:1051600004D511A5012401E000F0AFF900210A22C5
:1051700006F1240709E0B0FBF2FCB0FBF2F302FBFE
:105180001C00303078541846491C0028F3D12346BF
:105190002A463046BDE8F04100F0A0B9000000000A
:1051A0002D0000002B000000200000002DE9F05F22
:1051B000894604464FF0000ADFF874B1FB44C0F89A
:1051C00020A02046E1688847002874D0252806D012
:1051D000D4E901219047206A401C2062F1E70026B3
:1051E0005F462046E16888472028054607DB312DC9
:1051F00005D2781910F8200C08B10643F1E7B00782
:1052000001D526F00406C4F81CA00027C4F818A095
:105210002A2D09D0284601F005FF38B304EB870892
:10522000303DC8F8185019E059F8041B204604EB2B
:1052300087029161E1688847012F054618D1E0692E
:10524000002820DA26F020061DE0D8F8180000EB30
:10525000800005EB40003038C8F818002046E168AF
:105260008847054601F0DEFE0028EED1012F0AD066
:105270002E2D08D12046E16888477F1C0546022F65
:1052800046F02006C4DBA069002803DA404246F05D
:105290000106A061F00701D026F010066C2D0BD09E
:1052A000682D09D04C2D39D06A2D35D0742D35D0CC
:1052B0007A2D33D016E038E0E1682F462046884743
:1052C000B842054609D16C2F26D04FF48060E168C2
:1052D000064320468847054604E06C2F1AD04FF459
:1052E000807006430DB3A5F14100192802D820357E
:1052F00046F400664A462946204626604E46FAF79E
:1053000051FF80B101280BD0F61D26F0070000F1F7
:10531000080956E74020E4E78020D8E70020D6E7D8
:1053200006F104094DE7284652E7206ABDE8F09FE0
:105330007E300000014A00F0B7BC0000A40000204D
:10534000032A40F2308010F0030C00F0158011F8B1
:10535000013BBCF1020F624498BF11F801CB00F889
:10536000013B38BF11F8013BA2F1040298BF00F8DD
:1053700001CB38BF00F8013B11F0030300F0B68405
:10538000083AC0F0088051F8043B083A51F804CBC1
:10539000A0E80810F5E7121D5CBF51F8043B40F887
:1053A000043BAFF30080D20724BF11F8013B11F892
:1053B00001CB48BF11F8012B24BF00F8013B00F8D6
:1053C00001CB48BF00F8012B704700004FF0013CB3
:1053D00050F8042B51F8043B9A4221D1A2EB0C0364
:1053E000934313EACC1317D150F8042B51F8043B24
:1053F0009A4215D1A2EB0C03934313EACC130BD1C1
:1054000050F8042B51F8043B9A4209D1A2EB0C034B
:10541000934313EACC13DBD04FF00000704700BF7A
:10542000D01A01BAB1FA81F101F0180122FA01F0A3
:10543000CB40C1F12001DBB2C0B2C01A2CFA01F39B
:10544000D11A914311EAC311E6D1704770477047F2
:105450007047704710B500F07FFC006810BD10B5B4
:10546000044600F079FC046010BD70B504468569FF
:105470000068C10601D5302600E02026C00707D00D
:1054800070BDD4E9012130469047206A401C20625B
:105490006D1EF6D570BD70B5044685690078C007ED
:1054A00007D170BDD4E9012120209047206A401C1B
:1054B00020626D1EF6D570BD09684A0501D540B25F
:1054C0007047C905FCD500B2704709684A0501D587
:1054D000C0B27047C905FCD580B270472DE9F047CE
:1054E0000D4699469246044600F124080168880654
:1054F00004D5E06921F01001216000E00120A842FC
:1055000001DD471B00E00027A1697A1902EB0900C1
:10551000081AA0612078C00602D42046FFF7A5FF34
:10552000002608E0D4E901211AF806009047206A15
:10553000401C761C20624E45F4DB2078C0060AD55C
:105540002046FFF792FF06E0D4E901213020904782
:10555000206A401C2062381EA7F10107F4DC07E036
:10556000D4E9012118F805009047206A401C206208
:10557000281EA5F10105F3DC2046FFF78CFF2078FB
:10558000000602D50220BDE8F0870120FBE7116884
:105590000268006A530501D508700AE0D30501D5F9
:1055A000088006E0130603D5C217C1E9000200E037
:1055B00008600120704770472DE9FF4F0C461E46DA
:1055C0004FF0FF378BB0D2E90001DDF860800A9020
:1055D0008A46C1F30A5505B93D46002108464FF0F9
:1055E0000000BAF1000F00F4400005DA00EB800083
:1055F0004FF4400101EA50004FEA9059B9F1010F10
:1056000000DDB9460A9850EA4A000ED044F6105020
:10561000A5F2FF3545432F14B8F1000F1ED0754297
:10562000291E1EDDC9F100021CE0B8F1010F4FF088
:10563000000001D0302103E0F24305E02154401C7A
:10564000B042FBDB30460022002121540B99C1F807
:105650000880C1E900200FB0BDE8F08FBD1B6D1CB4
:10566000DEE74A4600DA694206A800F015FC06AB00
:1056700093E8070003AB83E8070050460A9900F05F
:10568000F3FC8DE80700A0F500501F380090039848
:10569000002D09DD42F21F014A46084403A9039088
:1056A000684600F052FF08E0A0F500504A461F3857
:1056B00003A90390684600F05CFF8DE80700000432
:1056C000000C03D04FF0FF30410800E01046B8F165
:1056D000000F03D00022009215461EE0751E05D46F
:1056E00000F03EFB303262556D1EF9D5B346012203
:1056F000084302D000227F1C04E02078302801D12A
:1057000000227F1E002A099786D01DE0112D07DA9E
:1057100000F026FB303262556D1C50EA0102F5D1D3
:10572000084302D00098C8B10EE00021681E05E0D1
:10573000235C625C63542254401E491C8142F7DBA7
:10574000AB46A81B401E0990002004F80B000B98E4
:10575000099AC0F80880C0E9002B7CE711264FF0B9
:10576000000859E72DE9F04F88460446D21D22F083
:10577000070191B0D1E90001CDE90A0101F01EF95C
:1057800002460B98C00F01D02D2007E0206881074A
:1057900001D52B2002E0202101EAC000032A099054
:1057A00001D0072A05DB03464146204600F01EFBD8
:1057B0000BE12078800601D5E06900E00620B8F111
:1057C000650F814606D0B8F1660F18D0B8F1670FA3
:1057D00070D131E00020B9F1110F009001DB1123ED
:1057E00001E009F101030AAA01A90CA8FFF7E4FEF0
:1057F000DDE90C70002609F10105834647E0012030
:105800004B4600904FF000470AAA01A90CA8FFF7E9
:10581000D3FEDDE90DB00C995D46002610B909F103
:1058200001000D18B9EB050003D4C0F1FF3609F1F2
:105830000105A5EB09002BE0B9F1010F01DA4FF0EA
:1058400001090020B9F1110F0090484601DD112334
:1058500000E003460AAA01A90CA8FFF7ADFEDDE9A6
:105860000C704D4600268346207800070AD4AB45CD
:1058700000DA5D4601A8012D04DD411911F8011C73
:10588000302907D04F4502DA17F1040F04DA01205E
:1058900082460FE06D1EEEE7002F02DCED1B3E445A
:1058A00003E0781CA84200DD7D1CB81B00F1010A52
:1058B0004FF000472078000703D4AA4501DB4FF0E2
:1058C000FF3A0021B7F1004F0DF143088DF8431066
:1058D00024D002202B23002F01DA7F422D230A211E
:1058E000021EA0F1010000DC5FB197FBF1FC97FB09
:1058F000F1F201FB1C7C17460CF1300C08F801CDCD
:10590000EEE7A8F1010003702188090501D54521C2
:1059100000E06521A0F1010800F8011C09980FA919
:10592000A1EB0807FF1D00B10120411901EBEA704E
:10593000A1693844081A401EA0612078C00602D42C
:105940002046FFF792FD099828B1D4E9012190473C
:10595000206A401C20622078C00622D52046FFF72E
:1059600084FD1EE0002E04DBB34502DD01A8805D4E
:1059700000E03020D4E901219047206A401C2062D9
:10598000761CAAF101005FEA000A0AD100F0E0F9F2
:10599000C0680168405CD4E901219047206A401C3E
:1059A0002062281EA5F10105DCDC07E0D4E9012115
:1059B00018F8010B9047206A401C2062381EA7F19E
:1059C0000107F3DC2046FFF766FD032011B043E634
:1059D00001694A1C02610878704700B58FB0CDE9B3
:1059E00001310021059105497944CDE903101146A3
:1059F0006846FFF7DBFB0FB000BD0000E5FFFFFFCF
:105A00000A6802F8010B0A607047D1E900239A4244
:105A100002D2531C0B601070704710B5436913B16C
:105A2000AFF3008001E0FFF75BFB012010BD1278AF
:105A300000F124010A7000224A700122EDE711688A
:105A40004FF0FF32E9E70000074B70B50D467B448D
:105A5000FFF7C3FF0446284600F08CFA10B14FF060
:105A6000FF3070BD204670BDD3C7FFFF2DE9FF5F3B
:105A700015468A460446DFF8AC80F8440027D8E98A
:105A800000103E46CDE9001010E03AF816106A46C4
:105A900002A800F073FA411C07D02178890603D5CB
:105AA000E269391891420DD80744761C20788006A7
:105AB00002D5E069B84205DDAE42E6DB3AF81600F1
:105AC0000028E2D1A069C01BA0612046FFF7CDFCF1
:105AD000D8E90010CDE90010002017E03AF81810BE
