:020000040800F2
:10000000C01C00204D2E000877020008790200086D
:100010007D0200088102000885020008000000003F
:10002000000000000000000000000000890200083D
:100030008B020008000000009F5B0008BB56000810
:10004000672E0008672E0008672E0008672E00083C
:10005000672E0008672E0008672E0008672E00082C
:10006000672E0008672E0008672E0008672E00081C
:10007000672E0008F92D0008672E0008672E00087B
:10008000B52B0008672E0008672E0008672E0008B1
:10009000672E0008672E0008672E0008672E0008EC
:1000A000672E0008672E0008672E0008672E0008DC
:1000B000672E0008672E0008672E0008672E0008CC
:1000C000672E0008672E0008672E0008672E0008BC
:1000D000672E0008672E0008552B0008B92D000870
:1000E000672E0008672E0008672E0008672E00089C
:1000F000672E0008672E0008672E0008672E00088C
:10010000672E0008672E0008672E0008672E00087B
:10011000672E0008672E0008672E0008672E00086B
:10012000672E0008672E0008672E0008672E00085B
:1001300000F002F800F090F80AA090E8000C824469
:100140008344AAF10107DA4501D100F085F8AFF246
:10015000090EBAE80F0013F0010F18BFFB1A43F0A5
:1001600001031847488F0000688F0000103A24BF31
:1001700078C878C1FAD8520724BF30C830C144BF0C
:1001800004680C607047000000230024002500264E
:10019000103A28BF78C1FBD8520728BF30C148BFEA
:1001A0000B6070476E2905F0FE87702906F07D838D
:1001B000662908F00486652908F00186672908F099
:1001C000FE856129AFF3008003681B0A28BF41F058
:1001D0008001692905F0BA85642905F0B78575297C
:1001E00005F0B4856F2906F00B83782906F0498362
:1001F000E92906F0A582E42906F0A282F52906F095
:100200009F82EF2906F00883F82906F048830368E7
:10021000DB0928BF41F08001632906F014827329AD
:1002200006F01982E32906F03784F32906F03C84AE
:10023000002070471FB506F097FB04000020002146
:1002400007F0B8FD401C60600020002107F09CFD15
:10025000E0601FBD10B510BD06F0DEFC1146FFF7D3
:10026000E9FF05F007FC06F005FD03B4FFF7F2FF18
:1002700003BC02F095FB704700BFFEE700BFFEE73E
:1002800000BFFEE700BFFEE7704770470CB50020D7
:10029000019000906C48006840F480306A49086022
:1002A00000BF6948006800F4003000900198401CCD
:1002B0000190009818B90198B0F5A06FF1D162488B
:1002C000006800F4003010B10120009001E000202F
:1002D00000900098012843D15C48006840F010006D
:1002E0005A4908600846006820F003000860084684
:1002F000006840F002000860534840685249486076
:100300000846406848600846406840F4806048609D
:100310000846406820F47C1048600846406840F475
:10032000E81048600846006840F08070086000BF30
:100330004548006800F000700028F9D04248406845
:1003400020F00300404948600846406840F0020041
:10035000486000BF3C48406800F00C000828F9D114
:100360000CBD10B5FFF792FF10BD10B53648006800
:1003700040F00100344908600846406834490840AC
:100380003149486008460068324908402E490860F3
:100390000846006820F4802008600846406820F481
:1003A000FE0048604FF41F008860FFF7DAFF4FF04F
:1003B00000602949086010BD10B50021002000220E
:1003C000214B5B6803F00C0121B1042906D00829F8
:1003D00028D107E0214B224C236027E01F4B204C03
:1003E000236023E0184B5B6803F47010164B5B68C6
:1003F00003F48032022303EB904022B9194B4343AC
:10040000174C23600DE0104B5B6803F4003323B1FD
:10041000144B4343124C236003E0104B4343104CF6
:10042000236003E00D4B0E4C236000BF00BF064B62
:100430005B68C3F303130C4CE15C094B1B68CB40B6
:10044000074C236010BD0000001002400020024055
:100450000000FFF8FFFFF6FE08ED00E000127A0052
:100460000000002000093D000400002030B589B0E4
:1004700005460C460121480303F092F801211120A2
:1004800003F08EF84FF47070ADF8200018208DF84E
:10049000230003208DF8220008A9FA4802F0C4FDC9
:1004A000ADF81850ADF814400020ADF81A00ADF8C2
:1004B000160005A9F44803F0AFFB7020ADF8040066
:1004C0000120ADF806000020ADF80A00ADF80C00E0
:1004D00001A9ED4803F0DDFB01A9EB4803F01BFC8B
:1004E00001A9E94803F064FC01A9E74803F0ABFC6B
:1004F0000121E54803F0F8FE0821E34804F018F86C
:100500000821E14804F01DF80821DF4804F026F82E
:100510000821DD4804F02BF80121DB4803F0D8FF67
:100520000121D94803F0D4FE0021D74804F068F92E
:100530000021D54804F066F90021D34804F064F99D
:100540000021D14804F062F909B030BD30B589B05E
:1005500005460C460121042003F02FF80121092053
:1005600003F01EF84FF47070ADF8200018208DF8DD
:10057000230003208DF8220008A9C44802F054FD8E
:10058000ADF81850ADF814400020ADF81A00ADF8E1
:10059000160005A9BE4803F03FFB7020ADF804002B
:1005A0000120ADF806000020ADF80A00ADF80C00FF
:1005B00001A9B74803F06DFB01A9B54803F0ABFBF7
:1005C00001A9B34803F0F4FB01A9B14803F03BFCD7
:1005D0000121AF4803F088FE0821AD4803F0A8FFD1
:1005E0000821AB4803F0ADFF0821A94803F0B6FF8E
:1005F0000821A74803F0BBFF0121A54803F068FFCD
:100600000121A34803F064FE0021A14804F0F8F89A
:1006100000219F4804F0F6F800219D4804F0F4F80A
:1006200000219B4804F0F2F809B030BD00B587B056
:100630000121084602F0B4FF0121C80202F0B0FF18
:100640000121042002F0ACFF4FF44070ADF8180017
:1006500048208DF81B0003208DF81A0006A98D484C
:1006600002F0E2FC012211028A4802F08EFD012212
:100670005102884802F089FD44F62060ADF8100070
:100680000020ADF80C00ADF81200ADF80E0003A983
:10069000814803F0C1FA0A231A4603217E4803F079
:1006A000CAFE684603F0F7FD0820ADF80800694669
:1006B000794803F044FD0121774804F0CFF8012286
:1006C0001146754803F01FFE00207349243108804D
:1006D0000121714803F0FCFD07B000BD00B587B0F3
:1006E00001216E4802F071FD0121084602F058FF19
:1006F0000121084602F061FF0121042002F050FFB1
:100700000121082002F04CFF0121654802F05DFD47
:100710004FF40040ADF8180004208DF81B000320B2
:100720008DF81A0006A95B4802F07EFC0122D10375
:10073000584802F02AFD0820ADF8180004208DF872
:100740001B0003208DF81A0006A9504802F06CFC2B
:10075000012208214D4802F018FD4FF0804003F0BF
:1007600087F903A94FF0804003F056FA44F6206061
:10077000ADF810000020ADF80C00ADF81200ADF897
:100780000E0003A94FF0804003F046FA00231A46FA
:1007900003214FF0804003F04EFE684603F07BFDDE
:1007A0000620ADF8080069464FF0804003F0C7FC12
:1007B0000121880704F052F801221146900703F046
:1007C000A2FD00204FF0804188840121880703F0BA
:1007D0007FFD07B000BD00B587B00121084602F0DB
:1007E000DFFE0121022002F0E8FE0121042002F0D8
:1007F000D7FEC020ADF8180048208DF81B0003205C
:100800008DF81A0006A9234802F00EFC01224021AF
:10081000204802F0BAFC012280211E4802F0B5FCFB
:1008200044F62060ADF810000020ADF80C00ADF8E3
:100830001200ADF80E0003A91A4803F0EDF90A23DF
:100840001A460321174803F0F6FD684603F023FD1E
:100850000820ADF808006946124803F070FC012139
:10086000104803F0FBFF012211460E4803F04BFD38
:1008700000200C492431088001210A4803F028FD9A
:1008800007B000BD0010014000340140000C0140E1
:100890000008004000080140002C01400002300028
:1008A000000318000004004000B587B0012108468D
:1008B00002F076FE0121082002F07FFE01210420D3
:1008C00002F06EFE0320ADF8180048208DF81B00E2
:1008D00003208DF81A0006A9294802F0A5FB012281
:1008E0001146274802F051FC01220221244802F05F
:1008F0004CFC44F62060ADF810000020ADF80C0070
:10090000ADF81200ADF80E0003A91E4803F084F9FB
:100910000A231A4603211B4803F08DFD684603F0A5
:10092000BAFC0820ADF808006946164803F007FC39
:100930000121144803F092FF01221146114803F0EF
:10094000E2FC00200F492431088001210D4803F00A
:10095000BFFC07B000BD10B5FFF768FEFFF7BEFE95
:10096000FFF739FF1D2140F2AF40FFF7EFFDFFF722
:100970009BFF1D2140F2AF40FFF778FD10BD000046
:1009800000080140000C00402DE9F0470446002C0F
:1009900008DBB4F5FA7F01DD4FF4FA740120FD495C
:1009A000087008E06442B4F5FA7F01DD4FF4FA7490
:1009B0000020F849087020B2F649C881204608F0A6
:1009C0003FF88246F44908F087F8814607F08CFE2C
:1009D00007460022F14B07F003FA054607F008FC32
:1009E000EC494860BDE8F0872DE9F0470446002C4B
:1009F00008DBB4F5FA7F01DD4FF4FA740120E84911
:100A0000087008E06442B4F5FA7F01DD4FF4FA742F
:100A10000020E349087020B2E149C881204608F06F
:100A20000FF88246DC4908F057F8814607F05CFE73
:100A300007460022D94B07F0D3F9054607F0D8FB4B
:100A4000D7494860BDE8F0872DE9F0470446002CFF
:100A500008DBB4F5FA7F01DD4FF4FA740120D149C7
:100A6000087008E06442B4F5FA7F01DD4FF4FA74CF
:100A70000020CC49087020B2CA49C881204607F03E
:100A8000DFFF8246C44908F027F8814607F02CFEB4
:100A900007460022C14B07F0A3F9054607F0A8FB63
:100AA000C0494860BDE8F0872DE9F0470446002CB6
:100AB00008DBB4F5FA7F01DD4FF4FA740120BA497E
:100AC000087008E06442B4F5FA7F01DD4FF4FA746F
:100AD0000020B549087020B2B349C881204607F00C
:100AE000AFFF8246AC4907F0F7FF814607F0FCFDF7
:100AF00007460022A94B07F073F9054607F078FB7B
:100B0000A9494860BDE8F08770B504460D465DB15F
:100B10004FF49661A54803F077FEC4F5966081B264
:100B2000A24803F073FE0AE0C4F5966081B29F48C4
:100B300003F06AFE4FF496619C4803F067FE70BDB7
:100B400070B504460D465DB14FF49661974803F0C9
:100B500057FEC4F5966081B2944803F053FE0AE054
:100B6000C4F5966081B2914803F04AFE4FF4966155
:100B70008E4803F047FE70BD70B504460D465DB16A
:100B80004FF496618A4803F03FFEC4F5966081B247
:100B9000874803F03BFE0AE0C4F5966081B28448C2
:100BA00003F032FE4FF49661814803F02FFE70BDD2
:100BB00070B504460D465DB14FF496617C4803F074
:100BC0001FFEC4F5966081B2794803F01BFE0AE06F
:100BD000C4F5966081B2764803F012FE4FF4966138
:100BE000734803F00FFE70BD6A48806810F5966F79
:100BF00002DA70486749886066488068B0F5966F89
:100C000003DD4FF49660634988606548806810F59D
:100C1000966F02DA67486249886061488068B0F57B
:100C2000966F03DD4FF496605D4988605D4880688B
:100C300010F5966F02DA5F485A4988605948806813
:100C4000B0F5966F03DD4FF49660564988605648BC
:100C5000806810F5966F02DA56485349886052480A
:100C60008068B0F5966F03DD4FF496604E4988605A
:100C700070472DE9F04705460C46601B07F0E0FE83
:100C80004D4908610A461169506807F025FF804602
:100C9000494A5169106908F01DF8814646480168C3
:100CA000484607F019FF0746414607F049FD06464A
:100CB00041488169304607F043FD3F498861084655
:100CC000006948610CB9002088613B4988693B494B
:100CD00007F0CEFF03D239483749886108E036492A
:100CE0008869002107F0C4FE02D2002032498861E1
:100CF0003149886907F088FEBDE8F0870146002980
:100D000001DA002000E0084670472DE9F04705466B
:100D10000C46601B07F094FE294908610A461169D8
:100D2000506807F0D9FE8046254A5169106907F0DE
:100D3000D1FF814622480168484607F0CDFE0746AC
:100D4000414607F0FDFC06461D488169304607F024
:100D5000F7FC1B4988610846006948610CB900200E
:100D6000886117498869154907F082FF03D2134843
:100D70001349886108E012498869002107F078FE6C
:100D800002D200200E4988610D49886907F03CFEB7
:100D9000BDE8F087C000002037BEEF3D0000E03F17
:100DA000D4000020E8000020FC00002000080040E3
:100DB0000034014050FBFFFF780100200000964402
:100DC0005C0100202DE9F04705460C46601B07F04A
:100DD00037FEFE4908610A461169506807F07CFE3B
:100DE0008046FA4A5169106907F074FF8146F74856
:100DF0000168484607F070FE0746414607F0A0FC30
:100E00000646F2488169304607F09AFCEF4988614E
:100E10000846006948610CB900208861EB4988697F
:100E2000EB4907F025FF03D2E948E849886108E06B
:100E3000E6498869002107F01BFE02D20020E34941
:100E40008861E249886907F0DFFDBDE8F0872DE998
:100E5000F04705460C46601B07F0F2FDDD490861CE
:100E60000A461169506807F037FE8046D94A516931
:100E7000106907F02FFF8146D6480168484607F001
:100E80002BFE0746414607F05BFC0646D1488169C8
:100E9000304607F055FCCF49886108460069486133
:100EA0000CB900208861CB498869C94907F0E0FE88
:100EB00003D2C748C749886108E0C649886900214C
:100EC00007F0D6FD02D20020C2498861C149886975
:100ED00007F09AFDBDE8F08770B50025BE48007C9C
:100EE00000F0010058B9BD48C08948BBBC48C08962
:100EF00030BBBC48C08918BBBB48C08900BB0021BF
:100F0000BA4803F07DFC0021B84803F07BFC0021C7
:100F1000B64803F079FC0021B44803F077FC0021C7
:100F2000B34803F06DFC0021B14803F06BFC0021D5
:100F3000AF4803F069FC0021AD4803F067FC70BDC9
:100F4000AC48B0F90440A54A5168002C01DB2246A8
:100F500000E062421046FFF77AFF0646FFF7CEFE3A
:100F60009E498860A348B0F900409D4A5168002C12
:100F700001DB224600E062421046FFF723FF0646EF
:100F8000FFF7BCFE964988609A48B0F90840954A38
:100F90005168002C01DB224600E062421046FFF758
:100FA000B4FE0646FFF7AAFE8E4988609148B0F964
:100FB00002400A465168002C01DB224600E06242F2
:100FC0001046FFF756FE0646FFF798FE86498860F2
:100FD000FFF70AFE814A11789068FFF7E9FD804A21
:100FE00011789068FFF7C8FD7E4A11789068FFF786
:100FF000A7FD7D4A11789068FFF786FD00BF9EE748
:101000007D48744908607D4848607B486F490860A6
:101010007A48486078487A49086078484860764855
:10102000784908607548486070472DE9F0470446E4
:101030000D46281B07F004FD734908600846016847
:101040007248006807F07CFB7049086070480168CE
:101050006D48006807F03EFE80466E4801684046D5
:1010600007F03AFD0646694801686B48006807F0DA
:1010700033FD8046644801686848006807F02CFD2D
:101080008146414607F05CFB0746314607F058FBB6
:10109000634908605C4800685D4908606048006812
:1010A00007F0B2FCBDE8F0872DE9F04104460021CD
:1010B000206807F0DDFC03D2206880F0004020604B
:1010C0000021606807F0D4FC03D2606880F0004023
:1010D00060600021A06807F0CBFC03D2A06880F01C
:1010E0000040A0600021E06807F0C2FC03D2E06885
:1010F00080F00040E0602069E0612169206A07F02B
:101100001FFB20620021E06807F04AFC13D0E16871
:10111000206A07F0ADFD02D2E06820620BE0E068D3
:1011200080F000452846216A07F0A2FD03D2E0685E
:1011300080F000402062A169206907F0CBFD606269
:101140002069A061616AA06807F0C6FC0646216AB2
:10115000606807F0C1FC0746E169206807F0BCFC45
:101160008046394607F0ECFA0546314607F0E8FAC2
:101170006061BDE8F0812DE9F04F93B004460D4663
:1011800016469946604204B27042642190FBF1F722
:10119000384607F08AF8234A03C20022224B21492D
:1011A00003C907F0ADF8CDE91001484607F07DF816
:1011B000CDE9080106F098FD82468B46284607F0E7
:1011C00074F8074652465B4630E0000040010020BC
:1011D000000096442401002010010020C0000020DF
:1011E000D4000020E8000020FC0000200034014072
:1011F00000080040DC0100200000F04200004040F8
:101200005C01002078010020380000204000002010
:101210004400002034000020300000202C0000207A
:101220003C000020600000200070704007F068F86B
:10123000CDE90C01484607F038F8CDE9080106F081
:1012400005FD07468846204607F02FF882463A46B5
:10125000434607F055F8CDE90A01DDE90C2306F015
:10126000BFFDCDE90E01DDE9102306F0B9FD974A77
:1012700003C20022964B974903C907F041F8CDE914
:101280001001484607F011F8CDE9000106F0DEFC38
:1012900082468B469048914906F026FD0746524605
:1012A0005B4607F02DF8CDE90401484606F0FDFF46
:1012B000824606F019FD074688468748874906F0AA
:1012C000C5FC81F000413A464346CDE9000107F0F4
:1012D00017F8CDE90201DDE9042307F01BF9CDE998
:1012E0000801284606F0E1FFCDE90601DDE9082303
:1012F00007F006F8CDE90C01484606F0D6FFCDE927
:10130000000106F0F1FC074688467348744906F070
:10131000EBFC82463A46434606F0F2FFCDE9040173
:10132000484606F0C2FFCDE9000106F08FFC0746F3
:1013300088466948694906F089FC81F00041824687
:101340003A46434606F0DCFFCDE90201DDE904231D
:1013500006F046FDCDE90801204606F0A6FFCDE9DE
:101360000601DDE9082306F0CBFFCDE90A01DDE93E
:101370000C2306F035FDCDE90E01DDE9102306F062
:101380002FFD584A03C20022514B524903C906F0AF
:10139000B7FFCDE91001484606F087FFCDE900010F
:1013A00006F054FC82468B464B484D4906F04EFCF5
:1013B000074652465B4606F0A3FFCDE904014846C6
:1013C00006F073FF074606F08FFC82468B464248C4
:1013D000434906F089FC81F0004152465B46CDE965
:1013E000000106F08DFFCDE90201DDE9042306F0DE
:1013F000F7FCCDE90801284606F057FFCDE90601C4
:10140000DDE9082306F07CFFCDE90C01484606F033
:101410004CFFCDE9000106F067FC82468B462E4862
:101420002F4906F013FC074652465B4606F068FF5C
:10143000CDE90401484606F038FFCDE9000106F089
:1014400005FC074688462448254906F04DFC81F0F6
:10145000004182463A46434606F052FFCDE902017A
:10146000DDE9042306F0BCFCCDE90801204606F0C6
:101470001CFFCDE90601DDE9082306F041FFCDE9B7
:101480000A01DDE90C2306F0ABFCCDE90E01DDE934
:10149000102306F0A5FC144A03C20C4903C906F048
:1014A000A7FE0746FFF770FA0E4903C906F0A0FE33
:1014B0000746FFF799FA0C4903C906F099FE07465B
:1014C000FFF7C2FA13B0BDE8F08F0000480000201B
:1014D0000070704060000020A138DB3752C1F03F3F
:1014E00052C1E03F500000205800002070B5002598
:1014F00000244DF6ED60FE490880FE484078887073
:10150000FC488078C870FB484088000A0871F94898
:10151000007A4871F7480079887100BF06E0F64804
:10152000015DE01DF24A1154601CC4B2F14800791B
:10153000A042F4DC002405E0ED48005D284405B23B
:10154000601CC4B2EB484078801EA042F4DCE9483D
:101550004078801EE64A1554C5F30721E5484078D7
:10156000401E1154E3484178104601F01CFA70BD4A
:1015700010B50024E1480078401CE0490870084696
:10158000007806287ED2DFE800F0CA031F3F638997
:101590004DF6ED60D6490880232088700020C87081
:1015A000F0200871002048711A208871D4484088C2
:1015B000D1490880D24880884880D148C088888036
:1015C000CF480089C880ABE01D21D02000F024FF67
:1015D00000B2C94908811F21D02000F01DFF00B2D0
:1015E000C54948812121D02000F016FF00B2C24930
:1015F000888108460089C3490880BF4840894880DF
:10160000BD48808988808BE03221A62000F004FF4D
:1016100000B2B949C8813421A62000F0FDFE00B215
:10162000B54908823621A62000F0F6FE00B2B24984
:1016300048820846C089B349C880AF48008A81B251
:10164000B0480181AC48408A81B2AE48418167E030
:1016500000211A2000F0F3FE00B2A749888202217F
:101660001A2000F0ECFE00B2A349C88204211A201F
:1016700000F0E5FE00B2A04908830846808AA1492F
:10168000888100E04BE09C48C08A81B29D48C181BE
:101690009948008B81B29B48018241E000209A4921
:1016A00008700DE0944898490978415C96480078A4
:1016B000C01D8F4A115494480078401C924908700C
:1016C0008B488079904909788842EBDC00208E496C
:1016D00008700AE086488C490978405C204404B2CE
:1016E00089480078401C8849087081488078801EAD
:1016F000854909788842EDDC7D488078801E7C4AE7
:101700001454C4F3072110468078401E115410462B
:10171000817801F048F900207849087000E000BFA6
:1017200000BF10BD10B500227848B0F90000784B1A
:1017300098427DD1754880786E4B58707348C07858
:10174000724B1B7900EB03206A4B58806F4840793D
:1017500018726E48807918711846007909283BD2B2
:10176000DFE800F03A050A3A163A223A2E006748B6
:10177000C079684B188030E0002106E0C81D634B3B
:10178000185C644B5854481CC1B20229F6DB24E0B3
:10179000002106E0C81D5D4B185C5E4B5854481C88
:1017A000C1B20429F6DB18E0002106E0C81D574B42
:1017B000185C584B5854481CC1B20629F6DB0CE0A3
:1017C000002106E0C81D514B185C524B5854481C70
:1017D000C1B20829F6DB00E000BF00BF45484078F1
:1017E000801E4A4B1B5C43484078401E474C205C9F
:1017F00003EB002000B23F4BD880002105E04348B6
:10180000405C104482B2481CC1B23A484078801E05
:101810008842F4DC3748B0F90600904204D1012038
:10182000344B187010BD03E00020324B1870F9E7FC
:101830000020F7E72DE9F047FFF774FF08B9BDE88E
:10184000F0872C484088092870D007DC6FD2DFE889
:1018500000F01C20259AA8ACADB1BC0048F20102F2
:10186000811A90427ED009DC0A287CD00B287BD0DC
:101870000C287AD0B0F5004F59D145E1012975D037
:10188000022974D00329F7D1A6E143201A49088020
:10189000AEE140F2071018490880A9E11E49B1F9EC
:1018A0000C10642201FB02F006F0FFFC06461B4A06
:1018B0001B4B06F045FB044606F09AFC00B20E49AD
:1018C00008801849B1F90C10642201FB02F006F0FF
:1018D000ECFC0646114A124B06F032FB044606F0B9
:1018E00087FC00B2044948800F49B1F90C101FE091
:1018F000C4030020940100209E0100206900002004
:10190000DC010020100200206800002028040020D4
:10191000EDDEFFFFBC010020E8000020EC3EB61B1E
:10192000934F6A40FC000020C0000020DCE05EE134
:10193000642201FB02F006F0B8FC0646B04AB14B47
:1019400006F0FEFA044606F053FC00B2AE49888069
:10195000AE49B1F90C10642201FB02F006F0A5FCBF
:10196000064605E021E1C0E0C4E0C8E032E132E132
:10197000A34AA44B06F0E4FA044606F039FC00B290
:10198000A149C88034E1A24880899F490880A148C4
:1019900080894880A048808988809C488089C88048
:1019A00026E138209849088022E121E10B20964960
:1019B00008801DE199488088934908809748C0882D
:1019C000488096480089888012E195480079062869
:1019D00004D00C2818D012287ED140E01D21D02040
:1019E00000F01AFD00B2884908801F21D02000F0C5
:1019F00013FD00B2844948802121D02000F00CFD65
:101A000000B2814988806DE01D21D02000F004FDE6
:101A100000B27D4908801F21D02000F0FDFC00B2FB
:101A2000794948802121D02000F0F6FC00B27649A7
:101A300088803221A62000F0EFFC00B27249C880F5
:101A40003421A62000F0E8FC00B26F49088136215D
:101A5000A62000F0E1FC00B26B49488142E01D2164
:101A6000D02000F0D9FC00B2674908801F21D020A7
:101A700000F0D2FC00B2644948802121D02000F05F
:101A8000CBFC00B2604988803221A62000F0C4FC63
:101A900000B25D49C8803421A62000F0BDFC00B230
:101AA000594908813621A62000F0B6FC00B25649FB
:101AB000488100211A2000F0C2FC00B252498881FE
:101AC00002211A2000F0BBFC00B24F49C88104215A
:101AD0001A2000F0B4FC00E003E000B24A4908829A
:101AE00000E000BF00BF83E082E04E48008A464924
:101AF00008807DE04FF480704349088078E04948D1
:101B0000807C4149087073E04748B0F900006421C7
:101B100090FBF1F9484606F0C8FB0746384A394BB6
:101B200006F0EEFB054606F063FB0446FEF78CFF6D
:101B30003D48B0F90200642190FBF1F9484606F0F7
:101B4000B4FB07462E4A2F4B06F0DAFB054606F09B
:101B50004FFB0446FEF7A8FF3348B0F904006421A8
:101B600090FBF1F9484606F0A0FB0746244A254BB6
:101B700006F0C6FB054606F03BFB0446FEF704FFF5
:101B80002948B0F90600642190FBF1F9484606F0B7
:101B90008CFB07461A4A1B4B06F0B2FB054606F0C3
:101BA00027FB0446FEF720FF22E01F49B1F90000A1
:101BB000FEF74AFF1C49B1F90200FEF775FF1A490A
:101BC000B1F90400FEF7E0FE1749B1F90600FEF78F
:101BD0000BFF0DE00CE00BE0134BB3F90420B3F95D
:101BE0000210B3F900000023FFF7C5FA00E026E673
:101BF00000BF0B48007A08B1FFF778FC00BF1EE673
:101C0000EC3EB61B934F6A409E010020D40000209A
:101C1000E8000020FC000020C0000020DC010020C3
:101C20009401002010010020BC01002010B5E84AFA
:101C3000128812B2E74B5A811A46116AB2F90A3079
:101C4000B2F9142040F27124624303EB4210421AAD
:101C500012B2E04B1A8013E0DE4A928A521E12B290
:101C6000DC4B9A821A46B2F90A30B2F9142040F2DB
:101C70007124624303EB4210421A12B2D54B1A8010
:101C8000D44AB2F9002042F210739A42E4DC13E025
:101C9000D04A928A521C12B2CE4B9A821A46B2F99C
:101CA0000A30B2F9142040F27124624303EB42106F
:101CB000421A12B2C74B1A80C64AB2F90020C64B6C
:101CC0009A42E5DBC34A106210BD10B54FF0804266
:101CD000928C12B2BF4B9A811A46516AB2F90C30FB
:101CE000B2F9162040F27124624303EB4210421A0B
:101CF00012B2B84B5A8013E0B64AD28A521E12B2C0
:101D0000B44BDA821A46B2F90C30B2F9162040F21E
:101D10007124624303EB4210421A12B2AD4B5A8057
:101D2000AC4AB2F9022042F210739A42E4DC13E0AA
:101D3000A84AD28A521C12B2A64BDA821A46B2F9CB
:101D40000C30B2F9162040F27124624303EB4210CA
:101D5000421A12B29F4B5A809E4AB2F902209E4B01
:101D60009A42E5DB9B4A506210BD10B59B4A12882F
:101D700012B2984BDA811A46916AB2F90E30B2F972
:101D8000182040F27124624303EB4210421A12B24F
:101D9000904B9A8013E08F4A128B521E12B28D4BD9
:101DA0001A831A46B2F90E30B2F9182040F27124A3
:101DB000624303EB4210421A12B2864B9A80854A64
:101DC000B2F9042042F210739A42E4DC13E0814A33
:101DD000128B521C12B27F4B1A831A46B2F90E3084
:101DE000B2F9182040F27124624303EB4210421A08
:101DF00012B2784B9A80774AB2F90420764B9A4215
:101E0000E5DB744A906210BD10B5754A128812B2B3
:101E1000704B1A821A46D16AB2F91030B2F91A2000
:101E200040F27124624303EB4210421A12B2694B32
:101E3000DA8013E0674A528B521E12B2654B5A8306
:101E40001A46B2F91030B2F91A2040F271246243F6
:101E500003EB4210421A12B25E4BDA805D4AB2F9CD
:101E6000062042F210739A42E4DC13E0594A528B86
:101E7000521C12B2574B5A831A46B2F91030B2F9BB
:101E80001A2040F27124624303EB4210421A12B24C
:101E9000504BDA804F4AB2F906204F4B9A42E5DBAD
:101EA0004C4AD06210BD10B54E4A128812B2494B4E
:101EB0005A821A46116BB2F91230B2F91C2040F264
:101EC0007124624303EB4210421A12B2414B1A8151
:101ED00013E0404A928B521E12B23E4B9A831A462E
:101EE000B2F91230B2F91C2040F27124624303EBC4
:101EF0004210421A12B2374B1A81364AB2F9082000
:101F000042F210739A42E4DC13E0324A928B521C84
:101F100012B2304B9A831A46B2F91230B2F91C2031
:101F200040F27124624303EB4210421A12B2294B71
:101F30001A81284AB2F90820274B9A42E5DB254A44
:101F4000106310BD70B5FFF771FEFFF7BEFEFFF71F
:101F50000CFFFFF7A8FF1F49B1F9040006F070FD60
:101F60000546214906F05AFC044606F04DFD00B234
:101F70001E4988811749B1F9000006F061FD054648
:101F8000194906F04BFC044606F03EFD00B2184924
:101F900088811049B1F9080006F052FD0546124942
:101FA00006F03CFC044606F02FFD00B21149888182
:101FB0000849B1F9020006F043FD05460A4906F05A
:101FC0002DFC044606F020FD00B20B49888170BD4F
:101FD000242C0140DC010020F0D8FFFF2404004045
:101FE00024080040240C004037BEEF3DC000002014
:101FF000D4000020E8000020FC00002008B50121EA
:10200000082001F0CDFA2020ADF8000003208DF863
:10201000020014208DF803006946DD4801F004F841
:102020000121DC4801F0D1F81020ADF800000320B8
:102030008DF8020014208DF803006946D44800F0A2
:10204000F3FF08BD002100BF48E000BF00BF00BF94
:1020500000BF00BF00BF00BF00BF00BF00BF00BF88
:1020600000BF00BF00BF00BF00BF00BF00BF00BF78
:1020700000BF00BF00BF00BF00BF00BF00BF00BF68
:1020800000BF00BF00BF00BF00BF00BF00BF00BF58
:1020900000BF00BF00BF00BF00BF00BF00BF00BF48
:1020A00000BF00BF00BF00BF00BF00BF00BF00BF38
:1020B00000BF00BF00BF00BF00BF00BF00BF00BF28
:1020C00000BF00BF00BF00BF00BF00BF00BF00BF18
:1020D00000BF00BF00BF00BF00BF491C8142B4D396
:1020E000704700B52020AA49103108601020086010
:1020F0000220FFF7A7FFA6480830006808B90120B2
:1021000000E0002000F0200008B1002000BD2020E9
:102110009F49143108600220FFF794FF9C48083063
:10212000006800F0200008B10020EFE72020984967
:10213000143108600220FFF785FF0120E6E700B5B3
:1021400010209349143108600220FFF77BFF202004
:102150008F49143108600220FFF774FF10208C496A
:10216000103108600220FFF76DFF202088491031F0
:1021700008600220FFF766FF00BD00B5102084490B
:10218000143108600220FFF75DFF202080491431E0
:1021900008600220FFF756FF10207D4910310860CB
:1021A0000220FFF74FFF1020794914310860022008
:1021B000FFF748FF00BD00B51020754914310860D5
:1021C0000220FFF73FFF20207149103108600220F4
:1021D000FFF738FF10206E49103108600220FFF72A
:1021E00031FF10206A49143108600220FFF72AFFEE
:1021F00000BD00B510206649143108600220FFF7C9
:1022000021FF20206249103108600220FFF71AFFE9
:1022100010205F49103108600220FFF713FF5C486F
:102220000830006800F0200040B1102058491431F7
:1022300008600220FFF706FF002000BD102054496F
:10224000143108600220FFF7FDFE0120F5E710B50C
:10225000034608241EE010204D4914310860022076
:10226000FFF7F0FE03F0800020B120204849103134
:10227000086003E020204649143108605806030E28
:102280000220FFF7DFFE10204149103108600220D4
:10229000FFF7D8FE2000A4F10101CCB2DBD1102061
:1022A0003B491431086010BD10B5082400232020DC
:1022B00037491031086017E05806030E10203449E2
:1022C000143108600220FFF7BDFE102030491031A4
:1022D00008600220FFF7B6FE2D480830006800F0C5
:1022E000200008B143F001032000A4F10101CCB2A9
:1022F000E2D11020264914310860184610BD70B58F
:1023000006460C461546FFF7ECFE08B9002070BDE6
:102310003046FFF79CFFFFF76CFF18B9FFF70FFF80
:102320000020F4E72046FFF792FFFFF762FF284600
:10233000FFF78DFFFFF75DFFFFF701FF0120E6E7E5
:1023400070B504460D46FFF7CCFE08B9002070BDFD
:102350002046FFF77CFFFFF74CFF18B9FFF7EFFEB1
:102360000020F4E72846FFF772FFFFF742FFFFF770
:10237000B8FE611CC8B2FFF76AFFFFF73AFFFFF72C
:1023800093FF0646FFF717FFFFF7D9FE3046DEE75B
:10239000000C01400002300010B5FFF72FFE0122B3
:1023A0000B211A20FFF7ABFF402220211A20FFF754
:1023B000A6FF012221211A20FFF7A1FF0D220921EA
:1023C0001A20FFF79CFF0B223121A620FFF797FF71
:1023D00008222D21A620FFF792FF80222E21A62081
:1023E000FFF78DFF80223E21D020FFF788FF0722D4
:1023F0001521D020FFF783FF1E221621D020FFF7E2
:102400007EFF00221721D020FFF779FF00223E2116
:10241000D020FFF774FF10BD2DE9F04105460C46B2
:1024200021462846FFF78CFF0646601CC1B22846AD
:10243000FFF786FF074607EB0620BDE8F0812DE990
:10244000F04105460C4621462846FFF779FF07462E
:10245000601CC1B22846FFF773FF064607EB062053
:10246000BDE8F08100B587B001214FF4047001F0A0
:1024700097F84FF4004000F0F7FF0420ADF8040097
:1024800000208DF8070001A9494800F0CDFD49481A
:1024900002F0FCF9002002908DF80C008DF80D0080
:1024A0004FF4602004900020059001208DF8180062
:1024B00002A9404802F011FA01213E4802F039FA1F
:1024C0003C4802F058FA00BF3A4802F059FA002896
:1024D000FAD1384802F05EFA00BF364802F05FFADF
:1024E0000028FAD107B000BD10B504460723012229
:1024F0002146304802F089FA01212E4802F059FAAB
:1025000000BF02212B4802F0C5FB0028F9D0294862
:1025100002F0E2FA10BD2DE9F04107460C46002515
:10252000002608E03846FFF7DFFF0544052003F0EA
:102530001EFA701CC6B2A642F4DBB5FBF4F080B202
:10254000BDE8F0812DE9F0470C20FFF7CDFF1A49D7
:10255000096808441849086018480078401C174961
:1025600008700846007805281FD113480068052127
:10257000B0FBF1F0104908600846006805F0ACFEB9
:1025800006464FF066320E4B05F0BAFE04460022B6
:102590000C4B05F0D5FC804605F05AFE0A498874BC
:1025A00000200549086005490870BDE8F087000073
:1025B00000100140002401406C0000207000002049
:1025C00066660A400000B040100100200020E0498B
:1025D0000882704770B5002500244DF6ED60DD4996
:1025E00008800B2088700A20C8700020087148718C
:1025F0000220887100BF06E0D748015DE01DD54A82
:102600001154601CC4B2022CF6DB002405E0D14852
:10261000005D284405B2601CC4B2CE488078801E9C
:10262000A042F4DCCB488078801ECA4A1554C5F31A
:10263000072110468078401E11541046817800F022
:10264000B2F970BD10B5C5480078401CC349087088
:10265000C348B0F90E00C249B1F90C10401A142851
:1026600009DCBF48B0F90E00BD49B1F90C10401AA1
:1026700010F1140F05DABB480078401CB949087006
:1026800011E0B848007832280ADDB148007C20F01B
:102690000200801CAE4908740020B249087002E0B4
:1026A0000020B0490870B048B0F90E00AE49B1F949
:1026B0000C10401A142809DCAB48B0F90E00AA49E6
:1026C000B1F90C10401A10F1140F05DAA748007880
:1026D000401CA649087011E0A448007832280ADDA1
:1026E0009B48007C20F00400001D994908740020DC
:1026F0009E49087002E000209C4908709C48B0F98F
:102700000E009B49B1F90C10401A142809DC9848B6
:10271000B0F90E009649B1F90C10401A10F1140FDF
:1027200005DA94480078401C9249087011E09148FD
:10273000007832280ADD8648007C20F00800083046
:102740008349087400208B49087002E00020894901
:1027500008708948B0F90E008749B1F90C10401A89
:10276000142809DC8448B0F90E008349B1F90C1033
:10277000401A10F1140F05DA80480078401C7F4998
:10278000087011E07D48007832280ADD7048007C2E
:1027900020F0100010306E4908740020774908704E
:1027A00002E0002075490870754800887449498A1C
:1027B00088420FD172484188808A81420AD170488C
:1027C0008188C08A814205D16E480078401C6D49DD
:1027D000087011E06B48007832280ADD5C48007C04
:1027E00020F0200020305A49087400206549087004
:1027F00002E00020634908700020634908700EE081
:102800005F486149097830F8111012305E4A127839
:1028100020F812105C480078401C5B4908705A4848
:1028200000780328ECDB5648C0885549098B88425C
:102830000FD153480189408B81420AD150484189C8
:10284000808B814205D151480078401C4F49087067
:1028500011E04E48007832280ADD3D48007C20F027
:10286000400040303A49087400204849087002E0AE
:102870000020464908700020434908700FE0404896
:10288000801D4149097830F8111012303E4A127803
:1028900020F812103C480078401C3B4908703A4828
:1028A00000780328EBDB364880893549C98B88429C
:1028B0000FD13348C189008C81420AD13048018A46
:1028C000408C814205D132480078401C3049087064
:1028D00011E02E48007832280ADD00202C490870CB
:1028E0001B48007C20F0800080301949087402E009
:1028F0000020274908700020234908700FE0204875
:102900000C302149097830F8111012301E4A127823
:1029100020F812101C480078401C1B4908701A4807
:1029200000780328EBDB0A48008A78B10B4800786E
:102930000A280BDD0020094908700548008A06496D
:102940000880FFF747FE00200149088210BD000003
:1029500010010020C40300209E010020720000200E
:10296000E800002073000020FC000020740000201C
:10297000C000002075000020D40000207600002058
:102980001002002077000020710000207800002055
:102990007900002010B54FF4A06000F077FA10BD68
:1029A00000BF7047704770B505460C460021F848D7
:1029B00002F061FAC82C01D9002070BD22462946D8
:1029C000F44803F0C9FA2146F14802F069FA0121FE
:1029D000EF4802F050FA0120EFE700B58BB001217B
:1029E000084600F0D0FDEA48143802F077F9E848CC
:1029F00002F074F9E8480090E84801900020029045
:102A0000C8200390002004908020059000200690AC
:102A1000079008904FF44050099000200A906946B2
:102A2000DB48143802F0FCF90121D948143802F0CF
:102A300022FAD9480090D74801901020029009202E
:102A400003900020049080200590002006900790BD
:102A500008904FF48050099000200A906946CC48B5
:102A600002F0DEF901224021CB48001F00F0FCFEFD
:102A700001228021C848001F00F0F6FE0BB000BD07
:102A800008B510208DF8000000208DF8010001200D
:102A90008DF802008DF80300684600F0FCF926204E
:102AA0008DF8000000208DF8010002208DF8020052
:102AB00001208DF80300684600F0EDF908BD10B55F
:102AC00086B004460121480400F077FD012105206D
:102AD00000F066FD0420ADF8140018208DF81700F2
:102AE00003208DF8160005A9AD4800F09DFA0820D6
:102AF000ADF8140004208DF8170005A9A84800F0CF
:102B000093FA01940020ADF80800ADF80A00ADF882
:102B10000C00ADF810000C20ADF80E0001A99E4885
:102B2000001F00F0E4FDFFF7ABFFFFF756FF0122A7
:102B300040F224419848001F00F071FE01219648A0
:102B4000001F00F060FE40219348001F00F043FF8B
:102B500006B010BD70B502F042FE40F224418E482E
:102B6000001F00F041FF10B38B48001F0088C4B263
:102B700089480088C4B200218548143802F07BF9E6
:102B80008348143802F08EF905462A468349854861
:102B900003F0E2F9FEF74EFEC8217D48143802F03A
:102BA0007FF901217A48143802F065F900BF02F07C
:102BB00025FE70BD10B502F012FE4FF4001002F0B9
:102BC00075F918B14FF4001002F0A3F902F016FEE7
:102BD00010BD70B505460C4600216D48643802F002
:102BE0004AF9C82C01D9002070BD224629466E48FA
:102BF00003F0B2F921466648643802F051F9012128
:102C00006348643802F037F90120EDE700B58BB076
:102C10000121084600F0B7FC5D48643802F05EF818
:102C20005B48503802F05AF86048009060480190C4
:102C300000200290C820039000200490802005907E
:102C400000200690079008904FF440500990002013
:102C50000A9069464E48503802F0E2F801214C488B
:102C6000503802F008F9514800904F480190102068
:102C700002900920039000200490802005900020FD
:102C80000690079008904FF48050099000200A9019
:102C900069463F48643802F0C3F8012240214348A6
:102CA000001F00F0E1FD012280214048001F00F0DC
:102CB000DBFD0BB000BD08B50D208DF80000002035
:102CC0008DF8010001208DF802008DF803006846A0
:102CD00000F0E1F827208DF8000000208DF80100B9
:102CE00002208DF8020001208DF80300684600F0F4
:102CF000D2F808BD10B586B004460121880400F062
:102D00005CFC0121092000F04BFC4FF48060ADF821
:102D1000140018208DF8170003208DF8160005A95F
:102D2000244800F081F94FF40060ADF8140004204D
:102D30008DF8170005A91F4800F076F901940020CE
:102D4000ADF80800ADF80A00ADF80C00ADF81000C1
:102D50000C20ADF80E0001A91448001F00F0C7FCBC
:102D6000FFF7A9FFFFF752FF012240F224410F486D
:102D7000001F00F054FD01210C48001F00F043FD2E
:102D800040210A48001F00F026FE06B010BD0000DA
:102D900080000240FC020020044400403402002075
:102DA0000008014028040020540500200448004089
:102DB0008C040020000C014010B502F010FD40F220
:102DC00024411F4800F010FE98B11D480088C4B28D
:102DD0001B48001D0088C4B200211A4802F04BF8BD
:102DE000C821184802F05CF80121164802F043F8A7
:102DF00000BF02F003FD10BD10B502F0F0FC4FF46F
:102E0000007002F053F818B14FF4007002F081F82E
:102E100002F0F4FC10BD0FB438B505A800903C21B9
:102E20000948009B049A02F041FF044600200090EC
:102E3000E1B20548FFF7CDFE38BC5DF814FB000099
:102E400000480040300002401C060020094880472E
:102E500009480047FEE7FEE7FEE7FEE7FEE7FEE77C
:102E6000FEE7FEE7FEE7FEE704480549054A064B94
:102E7000704700006B03000831010008C0160020F5
:102E8000C01C0020C0180020C01800203149014398
:102E9000314A1160704770B5002100230F22C478B9
:102EA00004B32D4C246804F4E064C4F5E064210A02
:102EB000C1F10403CA40447804FA03F18478144051
:102EC00021430901254C0678A155047804F01F051B
:102ED0000124AC4005786D11AD0005F1E025C5F881
:102EE000004109E0047804F01F050124AC401C4DAA
:102EF0000678761145F8264070BD1A4A0A4002430A
:102F0000154B1B1F1A60704739B1134A121D126806
:102F10000243114B1B1D1A6006E00F4A121D126876
:102F200082430D4B1B1D1A607047042808D14FF0D7
:102F3000E021096941F004014FF0E022116107E04E
:102F40004FF0E021096921F004014FF0E022116106
:102F5000704700000000FA050CED00E000E400E01E
:102F600080E100E080FFFF1F10B50446CC4884429A
:102F700008D10121042000F02DFB0021042000F0E5
:102F800029FB46E0C748844208D10121082000F00F
:102F900021FB0021082000F01DFB3AE0C2488442DA
:102FA00008D10121102000F015FB0021102000F0B5
:102FB00011FB2EE0BD48844208D10121202000F001
:102FC00009FB0021202000F005FB22E0B8488442E4
:102FD00008D10121402000F0FDFA0021402000F03E
:102FE000F9FA16E0B348844208D10121802000F0AC
:102FF000F1FA0021802000F0EDFA0AE0AE488442A8
:1030000007D10121801500F0E5FA0021A01500F09C
:10301000E1FA10BD10B50121084600F0DBFA0021ED
:10302000012000F0D7FA10BD2DE9F041024600253D
:103030000026002000230024002791F803C00CF094
:103040000F0591F803C00CF0100CBCF1000F03D079
:1030500091F802C04CEA050591F800C0BCF1000FE0
:1030600031D0146800202BE04FF0010C0CFA00F373
:10307000B1F800C00CEA03069E4220D183004FF055
:103080000F0C0CFA03F7BC4305FA03FC4CEA0404EA
:1030900091F803C0BCF1280F06D14FF0010C0CFAD7
:1030A00000FCC2F814C00AE091F803C0BCF1480F5C
:1030B00005D14FF0010C0CFA00FCC2F810C0401C06
:1030C0000828D1D31460B1F800C0BCF1FF0F34DD83
:1030D000546800202EE000F1080C4FF0010808FAB7
:1030E0000CF3B1F800C00CEA03069E4221D1830024
:1030F0004FF00F0C0CFA03F7BC4305FA03FC4CEA43
:10310000040491F803C0BCF1280F05D100F1080CAC
:1031100008FA0CF8C2F8148091F803C0BCF1480F0B
:1031200007D100F1080C4FF0010808FA0CF8C2F8BA
:103130001080401C0828CED35460BDE8F0814FF6C3
:10314000FF710180022181700421C1707047024625
:10315000002093680B400BB1012000E00020704775
:103160000146886880B2704702460020D3680B4051
:103170000BB1012000E0002070470146C86880B212
:10318000704701617047416170470AB1016100E019
:1031900041617047C16070474FF480320A438261D9
:1031A0008161826182698269704702460020434BD7
:1031B00018684FF68073184040EA021008433F4BEE
:1031C000186070473E49C8617047F0B50A46002351
:1031D00000240021002500F00046B6F1004F02D186
:1031E000364EF16901E0354E7168C0F3034583B294
:1031F00000F44016B6F5401F08D121F070612F4E43
:10320000766826F070662D4F7E6012E000F480161E
:10321000B6F5801F06D1032606FA05F4A14341F056
:10322000706106E0460D360103FA06F6B14341F03F
:10323000706122B1460D360103FA06F6314300F003
:103240000046B6F1004F02D11C4EF16101E01B4E69
:103250007160F0BD30B500228B071C0F0F2303FAFD
:1032600004F2164B08338C1053F824309343134C5C
:1032700008348D1044F8253023468C1053F8243040
:103280008C07240F00FA04F423430C4C08348D10EF
:1032900044F8253030BD0A49DC3108607047000031
:1032A00000080140000C01400010014000140140E2
:1032B00000180140001C01400020014000000140B6
:1032C00000002042DF48006840F00100DD4908604E
:1032D00008464068DC490840DA494860084600680A
:1032E000DA490840D74908600846006820F4802081
:1032F00008600846406820F4FE0048604FF41F0054
:1033000088607047CF49096821F48031CD4A116047
:103310001146096821F480211160B0F5803F03D087
:10332000B0F5802F0ED106E0C649096841F480311E
:10333000C44A116007E0C349096841F4A021C14AA9
:10334000116000E000BF00BF704710B501460022C9
:10335000002300204A11012A02D1BA4C236806E05A
:10336000022A02D1B74C236A01E0B64C636A01F02D
:103370001F02012494401C400CB1012000E00020F9
:1033800010BD38B5002000900024002500BF31207A
:10339000FFF7DBFF05460098401C00900098B0F551
:1033A000A06F01D0002DF2D03120FFF7CEFF08B181
:1033B000012400E00024204638BD01460020A14A37
:1033C000106820F0F80040EAC10010607047A04982
:1033D00008607047024600209A4B586820F47C1021
:1033E00042EA01031843974B5860704798490866B2
:1033F000704701460020934A506820F003000843BC
:10340000506070478F48406800F00C0070470146DC
:1034100000208C4A506820F0F0000843506070474C
:1034200001460020874A506820F4E060084350605D
:10343000704701460020834A506820F4605040EAFB
:10344000C1005060704729B17E4A527A02437D4BD9
:103450005A7204E07B4A527A82437A4B5A7270471E
:103460007B49D8310860704701460020754A506892
:1034700020F440400843506070470021714A2032D8
:103480001170704A82F82010012802D004280AD155
:1034900004E001216B4A2032117005E00521694AE0
:1034A0002032117000E000BF00BF7047694908601A
:1034B00070476449096A0143624A1162704765496D
:1034C00044390860704730B50021002200240023F1
:1034D0005C4D6D6805F00C0121B1042905D0082967
:1034E00023D105E05C4D056022E05B4D05601FE0E7
:1034F000544D6D6805F47012524D6D6805F48034BA
:10350000022505EB92421CB9544D554305600BE072
:103510004C4D6D6805F400351DB1504D55430560A7
:1035200002E04D4D5543056002E04B4D056000BF84
:1035300000BF444D6D6805F0F0010909484D6B5C12
:103540000568DD4045603F4D6D6805F4E061090A9E
:10355000434D6B5C4568DD4085603A4D6D6805F410
:103560006051C90A3E4D6B5C4568DD40C560354D14
:103570006D6805F44041890B3A4D6B5CC568B5FB3D
:10358000F3F5056130BD29B12E4A526902432D4B36
:103590005A6104E02B4A526982432A4B5A617047B0
:1035A00029B1284A92690243264B9A6104E0254AD0
:1035B00092698243234B9A61704729B1214AD269AB
:1035C0000243204BDA6104E01E4AD26982431D4B5C
:1035D000DA61704729B11B4AD2680243194BDA609D
:1035E00004E0184AD2688243164BDA60704729B16A
:1035F000144A12690243134B1A6104E0114A12691A
:103600008243104B1A617047124940390860704775
:103610000F49C86470470B49C87170470948406A30
:1036200040F0807007494862704701460020054A13
:1036300092680A400AB1012000E000207047014969
:1036400088727047001002400000FFF8FFFFF6FE8E
:10365000000042428004424200127A0000093D000C
:10366000800000209000002010B50446FB488442F2
:1036700009D101218803FFF7ADFF00214FF48040FD
:10368000FFF7A8FF32E0F648844209D1012148043F
:10369000FFF7ADFF00214FF40030FFF7A8FF25E052
:1036A000F048844209D101218804FFF7A0FF0021DE
:1036B0004FF48020FFF79BFF18E0EB48844209D1CC
:1036C0000121C804FFF793FF00214FF40020FFF70A
:1036D0008EFF0BE0E548844208D101210805FFF781
:1036E00086FF00214FF48010FFF781FF10BD2DE908
:1036F000F04786B005460E460024A24600BFA1460C
:103700000027B08900B100BF2F462C8A4CF6FF700D
:103710000440F08804432C82AC894EF6F310044038
:10372000B08831890843718908430443AC81AC8A6D
:103730004FF6FF400440B0890443AC8201A8FFF774
:10374000C2FEC648874202D1DDF810A001E0DDF8D4
:103750000CA0A88900F4004040B10AEBCA0000EBBD
:103760000A1031684900B0FBF1F807E00AEBCA0023
:1037700000EB0A1031688900B0FBF1F86420B8FB57
:10378000F0F004012009642101FB1089A88900F4EC
:10379000004040B1322000EBC900B0FBF1F000F076
:1037A0000700044308E0322000EB09106421B0FB5D
:1037B000F1F000F00F0004432C8106B0BDE8F08763
:1037C0004FF41651016000218180C18001810C21DC
:1037D000418100218181704710B502460020108A86
:1037E0004FF2FF0318400B884C8823438C882343F7
:1037F000CC8823431843108210BD002101804180F2
:103800008180C180704721B1828942F40052828157
:1038100004E082894DF6FF731A4082817047F0B54B
:103820000346002400260025002040F66A17B9420E
:1038300000D100BF1846C1F3421401F01F06012752
:1038400007FA06F5012C01D10C3004E0022C01D15D
:10385000103000E014301AB107682F43076002E00F
:103860000768AF430760F0BD1AB1838A0B438382B8
:1038700002E0838A8B4383827047028A4FF6F0739B
:103880001A400282028A0A430282704782894FF2FA
:10389000FF731A40828182890A438281704721B175
:1038A000828942F00202828104E082894FF6FD7330
:1038B0001A4082817047028A4FF6DF731A400282F3
:1038C000028A0A430282704721B1028A42F480428E
:1038D000028204E0028A4BF6FF731A4002827047AC
:1038E000C1F308028280704701468888C0F308004F
:1038F0007047818941F0010181817047028BD2B20A
:103900000283028B42EA012202837047028B02F497
:103910007F420283028B0A430283704721B1828A6D
:1039200042F02002828204E0828A4FF6DF731A405E
:103930008282704721B1828A42F01002828204E0C2
:10394000828A4FF6EF731A408282704721B1828AD1
:1039500042F00802828204E0828A4FF6F7731A402E
:103960008282704721B1828942F40042828103E061
:103970008289C2F30E028281704721B1828A42F4A9
:103980000062828204E0828A4FF2FF731A408282D0
:103990007047828A4FF6FB731A408282828A0A43FA
:1039A0008282704721B1828A42F00202828204E060
:1039B000828A4FF6FD731A408282704702460020C9
:1039C000B1F5007F00D100BF13880B400BB101207F
:1039D00000E00020704701F40072B2F5007F00D1D2
:1039E00000BFCA430280704770B50246002400231E
:1039F0000025002040F66A16B14200D100BFC1F395
:103A0000421501F01F03012606FA03F3012D02D12E
:103A10009689334006E0022D02D1168A334001E038
:103A2000968A33400C12012606FA04F416883440B4
:103A300013B10CB1012000E0002070BD10B50022D0
:103A4000002340F66A14A14200D100BF0A120124EB
:103A50009440A3B2DC43048010BD00000038014054
:103A60000044004000480040004C0040005000402E
:103A700010B50446FE48844208D10121C014FFF766
:103A8000A9FD0021E014FFF7A5FDC4E0B4F1804FCB
:103A900008D101210846FFF7AAFD00210120FFF708
:103AA000A6FDB8E0F348844208D101210220FFF7C7
:103AB0009EFD00210220FFF79AFDACE0EE48844213
:103AC00008D101210420FFF792FD00210420FFF717
:103AD0008EFDA0E0E948844208D101210820FFF7CB
:103AE00086FD00210820FFF782FD94E0E44884422F
:103AF00008D101211020FFF77AFD00211020FFF7E7
:103B000076FD88E0DF48844208D101212020FFF7BC
:103B10006EFD00212020FFF76AFD7CE0DA48844238
:103B200008D101214014FFF755FD00216014FFF773
:103B300051FD70E0D548844209D10121C804FFF746
:103B400049FD00214FF40020FFF744FD63E0D04819
:103B5000844209D101210805FFF73CFD00214FF403
:103B60008010FFF737FD56E0CA48844209D1012191
:103B70004805FFF72FFD00214FF40010FFF72AFD45
:103B800049E0C548844208D101214020FFF72FFDBC
:103B900000214020FFF72BFD3DE0C048844208D1C2
:103BA00001218020FFF723FD00218020FFF71FFD6A
:103BB00031E0BB48844208D101218015FFF717FD91
:103BC0000021A015FFF713FD25E0B648844209D176
:103BD00001210804FFF7FEFC00214FF48030FFF7BD
:103BE000F9FC18E0B048844209D101214804FFF7EC
:103BF000F1FC00214FF40030FFF7ECFC0BE0AB4888
:103C0000844208D101218804FFF7E4FC00214FF42D
:103C10008020FFF7DFFC10BD00220288944B984201
:103C20000ED0994B98420BD0B0F1804F08D0914BF9
:103C3000984205D0904B984202D0904B984204D1C4
:103C40004FF68F731A404B881A438D4B984207D01A
:103C50008C4B984204D04FF6FF431A40CB881A434E
:103C600002808B8883850B880385814B98420BD01B
:103C7000854B984208D08B4B984205D08A4B98428E
:103C800002D08A4B984201D10B7A038601238382AA
:103C9000704770B5002400220023058C4FF6FE7695
:103CA00035400584028C8388048B4FF68F752C4039
:103CB000B51E2C400D882C43751E2A400D892A43C1
:103CC0004D882A436A4DA8420BD06F4DA84208D0B8
:103CD000744DA84205D0744DA84202D0734DA8423D
:103CE00013D14FF6F7752A404D892A434FF6FB75DD
:103CF0002A408D882A434FF6FF652B404FF6FF552B
:103D00002B408D892B43CD892B4383800483CD8821
:103D10008586028470BD70B5002400220023058CC6
:103D20004FF6EF7635400584028C8388048B48F685
:103D3000FF752C404FF6FF452C400D884FF6FF765F
:103D400006EA05252C434FF6DF752A400D8906EA61
:103D500005152A434D8806EA05152A43444DA84215
:103D600002D0494DA8421DD14FF67F752A404D899A
:103D70004FF6FF7606EA05152A434FF6BF752A402F
:103D80008D8806EA05152A434FF6FF352B404FF282
:103D9000FF752B408D8906EA85052B43CD8906EA00
:103DA00085052B4383800483CD880587028470BDFD
:103DB00070B5002400220023058C4FF6FF663540C5
:103DC0000584028C8388848B4FF68F752C404FF6C8
:103DD000FC752C400D882C434FF6FF552A400D8969
:103DE0004FF6FF7606EA05252A434D8806EA0525A3
:103DF0002A431F4DA84202D0234DA8421DD14FF2A5
:103E0000FF752A404D894FF6FF7606EA05252A43BD
:103E10004FF6FF352A408D8806EA05252A434EF6DF
:103E2000FF752B404DF6FF752B408D8906EA051571
:103E30002B43CD8906EA05152B4383808483CD88E7
:103E40008587028470BD70B5002200230024058C94
:103E50004EF6FF7635400584038C8488828B48F6C5
:103E6000FF752A404FF6FF452A400D8820E00000EC
:103E7000002C01400004004000080040000C0040FD
:103E8000001000400014004000340140004C01408C
:103E9000005001400054014000180040001C004048
:103EA0000020004000400140004401400048014023
:103EB0004FF6FF7606EA05252A434DF6FF752B409F
:103EC0000D8906EA05352B434D8806EA05352B4357
:103ED000FA4DA84202D0FA4DA84208D14BF6FF7520
:103EE0002C408D894FF6FF7606EA85152C43848099
:103EF0008283CD88A0F84050038470BD828B4FF23E
:103F0000FF331A408283828B4FF6FF7303EA01234B
:103F10001A4382837047F0B50C46154600220021F3
:103F20000026078C4EF6FF7C07EA0C070784828B7D
:103F3000018C4FF6FF7707EA043640F6FF473A4018
:103F40004FF6FF7707EA05273A434FF6FF7707EA70
:103F500003373A43D94FB8420ED0D94FB8420BD0AD
:103F6000B0F1804F08D0D74FB84205D0D64FB842F5
:103F700002D0D64FB84206D14DF6FF77394046F40D
:103F80008057394305E047F6FF57394044F48057DE
:103F9000394382830184F0BD828B4FF6F3731A405C
:103FA0008283828B0A4382837047F0B50C461546A4
:103FB000002200210026078C4FF6FF6C07EA0C0751
:103FC0000784828B018C4FF6FF7707EA04264FF6B1
:103FD0000C773A404FF6FF7707EA03172F433A432F
:103FE000B64FB8420ED0B64FB8420BD0B0F1804FAA
:103FF00008D0B44FB84205D0B34FB84202D0B34F47
:10400000B84206D14FF6FF57394046F4807739431E
:1040100005E04FF2FF57394044F4807739438283FB
:104020000184F0BD028B4FF2FF331A400283028BF2
:104030004FF6FF7303EA01231A4302837047F0B57A
:104040000C461546002200210026078C4FF6EF7C17
:1040500007EA0C070784028B018C4FF6FF7707EA0B
:10406000041640F6FF473A404FF6FF7707EA03375A
:104070003A434FF6FF7707EA05273A438F4FB84296
:104080000ED08F4FB8420BD0B0F1804F08D08D4F7B
:10409000B84205D08C4FB84202D08C4FB84206D1FE
:1040A0004FF6DF77394046F01007394305E04FF609
:1040B0005F77394044F01007394302830184F0BD33
:1040C000028B4FF6F3731A400283028B0A4302837A
:1040D0007047F0B50C46154600220021068C4FF6BD
:1040E000FE773E400684028B018C4FF60C76324000
:1040F0007E1C06EA03162E433243704EB0420ED0A9
:104100006F4EB0420BD0B0F1804F08D06D4EB04230
:1041100005D06D4EB04202D06C4EB04206D14FF683
:10412000FD76314044F00106314305E04FF6F57667
:10413000314044F00106314302830184F0BD70B583
:1041400005460C465D4885420ED05D4885420BD041
:10415000B5F1804F08D05B48854205D05A4885426A
:1041600002D05A48854200D100E000BF208850B9F3
:104170002389A28861882846FFF7ABFFE18828469B
:10418000FFF79EFF25E0208804280AD12389A28812
:1041900061882846FFF753FFE1882846FFF742FF72
:1041A00017E0208808280AD12389A2886188284638
:1041B000FFF7FBFEE1882846FFF7EEFE09E02389C2
:1041C000A28861882846FFF7A6FEE1882846FFF707
:1041D00095FE70BD2DE9F04105460C4600260127ED
:1041E000608808B9022600E00026A088012801D1D5
:1041F000022700E001272088A0B92389A2886188CE
:104200002846FFF766FFE1882846FFF759FF238914
:104210003A4631462846FFF712FFE1882846FFF765
:1042200001FF13E02389A28861882846FFF707FF72
:10423000E1882846FFF7F6FE23893A4631462846AC
:10424000FFF747FFE1882846FFF73AFFBDE8F08116
:104250000A884B881A438B881A43CB881A430B89E8
:104260001A434B891A438B891A43A0F8442070479C
:104270004FF6FF71818000210180C1804180017271
:1042800070470021018041808180C180018141818E
:104290008181C1817047002101804180012181809D
:1042A0000021C1800181704700210180418081800F
:1042B000C18001814181818170470000002C014053
:1042C000003401400004004000080040000C0040A1
:1042D00021B1028842F00102028004E002884FF618
:1042E000FE731A400280704731B1B0F8442042F4A6
:1042F0000042A0F8442005E0B0F84420C2F30E02CA
:10430000A0F8442070471AB183890B43838102E0EF
:1043100083898B43838170478182704741EA02031E
:10432000A0F8483070471AB183890B43838102E0BB
:1043300083898B438381704701894FF6F87211405E
:10434000018170470A46002101894FF68F73194099
:1043500011430181704730B504460D462946204679
:10436000FFF7F0FF208940F00700208130BD2DE9E4
:10437000F04104460D4616461F46602D06D13B46C9
:10438000012231462046FFF75AFE05E03B46012256
:1043900031462046FFF79DFE29462046FFF7D2FF13
:1043A000208940F007002081BDE8F08130B50C463F
:1043B00000210189C9B24FF6FF7505EA03251543AF
:1043C00025432943018130BD2DE9F04105460E46C4
:1043D00017469846002443463A4631462846FFF79A
:1043E000E5FF2C894FF6F870044044F007044FF6BF
:1043F0008F70044044F070042C81BDE8F081F0B56A
:1044000004460D4616461F463B4632462946204680
:10441000FFF7CCFF208940F480402081F0BD01856A
:10442000828270470A46002101884FF68F73194037
:10443000114301807047F0B50C4615461E46002119
:10444000002200230189028B038C4FF6F877394054
:1044500021434FF6FC473A4040F201173A434FF6EA
:10446000DD773B404FF6FF7707EA06172F433B43C4
:10447000018102830384F0BD0A460021018B4FF6BF
:104480008F7319401143018370470A460021018B45
:1044900048F6FF7319404FF6FF7303EA02231943EE
:1044A000018370470A460021818B4FF68F731940B4
:1044B0001143818370470A460021818B48F6FF73C0
:1044C00019404FF6FF7303EA0223194381837047B3
:1044D00021B1028842F08002028004E002884FF697
:1044E0007F731A400280704721B1828842F0040233
:1044F000828004E082884FF6FB731A408280704706
:1045000021B1828842F00802828004E082884FF65E
:10451000F7731A408280704721B1828842F001020D
:10452000828004E082884FF6FE731A4082807047D2
:104530000A460021018B4FF6F7731940114301839E
:1045400070470A460021018B4FF2FF7319404FF666
:10455000FF7303EA02231943018370470A460021CF
:10456000818B4FF6F77319401143818370470A46D8
:104570000021818B4FF2FF7319404FF6FF7303EA5E
:1045800002231943818370470A460021018B4FF6AD
:10459000FB7319401143018370470A460021018BC8
:1045A0004FF6FF3319404FF6FF7303EA0223194316
:1045B000018370470A460021818B4FF6FB73194037
:1045C0001143818370470A460021818B4FF6FF33E8
:1045D00019404FF6FF7303EA0223194381837047A2
:1045E0000A460021018B4FF67F7319401143018366
:1045F00070470A460021018BC1F30E014FF6FF738D
:1046000003EA02231943018370470A460021818B84
:104610004FF67F7319401143818370470A4600218A
:10462000818BC1F30E014FF6FF7303EA0223194396
:10463000818370470A460021018C4FF6FD731940B3
:104640001143018470470A460021018C4FF6F7732D
:1046500019401143018470470A460021018C4FF62E
:10466000DF7319404FF6FF7303EA02131943018405
:1046700070470A460021018C4FF67F7319404FF6B0
:10468000FF7303EA02131943018470470A460021AD
:10469000018C4FF6FF5319404FF6FF7303EA0223D4
:1046A0001943018470470A460021018C4FF2FF73C1
:1046B00019404FF6FF7303EA022319430184704740
:1046C0000A460021018C4DF6FF7319404FF6FF7327
:1046D00003EA023319430184704730B500230124F3
:1046E0008C40A3B2048C9C430484048C02FA01F530
:1046F000ADB22C43048430BD30B5002304248C407B
:10470000A3B2048C9C430484048C02FA01F5ADB27C
:104710002C43048430BD70B50346002000241846A5
:10472000183001258D40ACB21D8CA5431D8409B104
:10473000082909D100EB6100056825F070050560C6
:104740000568154305600EE00D1FC5F34E052844AE
:10475000056825F4E045056005684FF6FF7606EA32
:1047600002263543056070BD21B1028842F0020285
:10477000028004E002884FF6FD731A400280704701
:1047800021B1028842F00402028004E002884FF660
:10479000FB731A400280704721B1828842F0800288
:1047A000828004E082884FF67F731A4082807047CF
:1047B00002884FF6F7731A40028002880A4302808B
:1047C000704782884FF68F731A40828082880A432E
:1047D0008280704702894FF6F8731A40028102897D
:1047E0000A430281704702894FF67F731A400281A3
:1047F00002890A430281704781847047818570472E
:10480000818670470187704781877047A0F8401004
:10481000704702884FF6FF431A40028002880A431D
:10482000028070470146888E70470146088F7047A6
:104830000146888F70470146B1F840007047014635
:10484000888C70470146088D704702460020138A05
:104850000B400BB1012000E000207047CA430282E8
:10486000704730B50246002000230024158A05EA6F
:104870000103958905EA010413B10CB1012000E0A0
:10488000002030BDCA4302827047000010B50446C4
:10489000FA48844208D101214015FEF79BFE002111
:1048A0006015FEF797FE17E0F548844208D1012114
:1048B0000015FEF78FFE00212015FEF78BFE0BE0A2
:1048C000F048844208D10121C803FEF783FE00218D
:1048D0004FF40040FEF77EFE10BD30B502460020CA
:1048E00000235068E84C20400D790C6844EA052408
:1048F000204350609068E54C2040D1E902542C439D
:104900004D7944EA450420439060D06A20F4700059
:104910000C7C641EE4B2234340EA0350D06230BDF5
:1049200000210160017141718160C1600121017448
:10493000704721B1826842F00102826003E0826820
:1049400022F001028260704721B1826842F48072D5
:10495000826003E0826822F480728260704710B542
:104960000023CBB21AB144681C43446002E044689F
:104970009C43446010BD816841F00801816070472C
:10498000014600208A6802F008020AB1012000E016
:1049900000207047816841F0040181607047014642
:1049A00000208A6802F004020AB1012000E0002021
:1049B000704721B1826842F4A002826003E08268FD
:1049C00022F4A00282607047014600208A6802F447
:1049D00080020AB1012000E00020704710B50A46AD
:1049E00000210023416821F46041531E41EA433114
:1049F000416010BD21B1426842F40062426003E0B0
:104A0000426822F4006242607047F0B504460D46E9
:104A100000200021092D11DDE068A5F10A0606EB52
:104A20004607072606FA07F18843A5F10A0606EBB2
:104A3000460603FA06F10843E0600CE0206905EB46
:104A40004507072606FA07F1884305EB450603FAF2
:104A500006F108432061072A0FDA606B561E06EB49
:104A600086071F2606FA07F18843561E06EB8606C0
:104A700005FA06F10843606322E00D2A0FDA206B85
:104A8000D61F06EB86071F2606FA07F18843D61FB6
:104A900006EB860605FA06F10843206310E0E06A9B
:104AA000A2F10D0606EB86071F2606FA07F18843DA
:104AB000A2F10D0606EB860605FA06F10843E06250
:104AC000F0BD21B1826842F48012826003E0826806
:104AD00022F48012826070470146C86C80B2704731
:104AE00066484C300068704721B1426842F48062E9
:104AF000426003E0426822F480624260704721B164
:104B0000426842F48052426003E0426822F48052DC
:104B1000426070470A460021816821F4E041114358
:104B20008160704721B1826842F40042826003E0F4
:104B3000826822F400428260704721B1826842F4A8
:104B40000212826003E0826822F4021282607047DF
:104B5000014600208A6802F400120AB1012000E038
:104B600000207047F0B504461546002000220026BC
:104B7000092911DDE068A1F10A0707EB470C0727B7
:104B800007FA0CF29043A1F10A0707EB470703FA73
:104B900007F21043E0600CE0206901EB410C0727AD
:104BA00007FA0CF2904301EB410703FA07F21043B6
:104BB0002061A06BC0F30156EF1C06F1010CA7EBBE
:104BC0000C0707EB870C1F2707FA0CF29043EF1C2A
:104BD00006F1010CA7EB0C0707EB870701FA07F2B8
:104BE0001043A063F0BD10B50A4600210023816B7D
:104BF00021F44011531E41EA0351816310BD08B5F1
:104C0000002300930090009B0B440093009B1A60CC
:104C100008BD08B5024600200090009201F128006E
:104C2000009B184400900098006880B208BD0A46B6
:104C300000214168164B19401143416070474162A1
:104C4000826270470A460021416821F01F0111432A
:104C50004160704740B109490831096841F40001D9
:104C6000064A0832116007E004490831096821F456
:104C70000001024A08321160704700000024014020
:104C800000280140003C0140FFFEF0FFFDF7F1FF6E
:104C9000FFFD3FFF0246002013680B400BB10120CF
:104CA00000E000207047CA430260704770B50246BA
:104CB0000020002300240B125568CEB205EA06043A
:104CC00015681D4015B10CB1012000E0002070BD39
:104CD00000220A12D34303607047000001684FF6B8
:104CE000FE72114001600021016041608160C1607D
:104CF0008D49884208D18C490839496841F00F0133
:104D0000894A083A51608AE087491431884208D1BB
:104D100085490839496841F0F001834A083A5160F1
:104D20007DE081492831884208D17F4908394968A6
:104D300041F470617C4A083A516070E07A493C3134
:104D4000884208D178490839496841F47041764A67
:104D5000083A516063E074495031884208D1724981
:104D60000839496841F470216F4A083A516056E0A9
:104D70006D496431884208D16B490839496841F46A
:104D80007001694A083A516049E0674978318842C0
:104D900008D165490839496841F07061624A083AAA
:104DA00051603CE06149884206D1011F096841F029
:104DB0000F01021F116032E05C491431884208D1B2
:104DC0005A49091F096841F0F001584A121F116041
:104DD00025E056492831884208D15449091F0968FD
:104DE00041F47061514A121F116018E04F493C3183
:104DF000884208D14D49091F096841F470414B4A66
:104E0000121F11600BE049495031884207D14749D0
:104E1000091F096841F47021444A121F116070474C
:104E200010B50022026847F6F0739A430C6A8B684B
:104E300023430C6923434C6923438C692343CC6986
:104E400023434C6A23438C6A23431A430260CB6892
:104E500043600B6883604B68C36010BD0021016034
:104E600041608160C160016141618161C161016234
:104E700041628162704721B1026842F00102026022
:104E800004E002684FF6FE731A40026070471AB1E0
:104E900003680B43036002E003688B4303607047C1
:104EA000416070470146486880B270470146002063
:104EB000002201F080531BB11C4B083B1A6802E032
:104EC000194B083B1A6802EA01030BB1012000E00C
:104ED0000020704700F0805119B11449091F086083
:104EE00002E011490839486070470146002000225D
:104EF00001F080531BB10D4B083B1A6802E00A4BCE
:104F0000083B1A6802EA01030BB1012000E000200F
:104F1000704700F0805119B10449091F086002E090
:104F200001490839486070470800024008040240FF
:104F300010B5024608464FF080730360031F184601
:104F40001A606FF00104031F18461C604FF0123402
:104F5000031F18461C604FF00334031F18461C60E3
:104F60004FF00234031F18461C606410031F1846DC
:104F70001C600024031F18461C604FF01134031FEF
:104F800018461C604FF01034031F18461C604FF089
:104F90000934031F18461C604FF00834031F1846DD
:104FA0001C604FF00734031F18461C604FF0063496
:104FB000031F18461C604FF00534031F18461C6081
:104FC0004FF00434031F18461C6010BD10B5044692
:104FD00000F0D2FD0020F9490861F9480068C008D6
:104FE000F849B0FBF1F060434FF0E0214861002048
:104FF000F549096808704FF0E021886103200861D5
:1050000000F0BCFD10BD01B500F0B6FD4FF47A71A3
:10501000009848434900B0FBF1F0401CEB49096897
:10502000C86200F00AFE00F0A9FD00BFE748006872
:10503000C06A0028FAD108BD10B5E0480078012800
:105040001DD100F099FDDD488078002815DDDB4892
:105050008078401ED94988700846807850B9084643
:10506000407820B900F08AFD00F0E7FD07E000F08D
:1050700085FD04E000F082FD01E000F07FFD10BD41
:1050800070B505460E4600F077FDD04800684068D0
:10509000A84218D1C948407878BBC848807860BB1E
:1050A000CA480068008900EB800101EBC000C849D4
:1050B00001EB800080F82A60C6480068C349086098
:1050C00000F0BBFD19E0012414E004EB840000EBC8
:1050D000C400BF4901EB80004068A84208D104EB3E
:1050E000840000EBC40001EB800080F82A6003E03C
:1050F000601CC4B2102CE8DB00BF00F03FFD70BDA7
:1051000010B5AE48007801280FD100F035FDAB484E
:10511000407840B9A9488078FF2804D2A748807811
:10512000401CA649887000F029FD10BD8AB02FE10F
:10513000FFF7E6FFA848007801287DDDA648007843
:10514000401EA549491C085C2F2875D1481E0078CF
:10515000801E085C2F28F8D10020491E08709FA1EE
:105160009D48401C00F0F2FE8146CDF800900124DD
:105170000AE0B9F1000F05D098A1002000F0E6FE8A
:105180004DF82400601CC4B20A2CF2DB94A10098F4
:1051900000F028FF0028D8D192A1019800F022FF4A
:1051A00010B901209149487091A1019800F01AFFAF
:1051B00010B902208D4948708FA1019800F012FFAC
:1051C00010B90320894948708BA1029800F00AFFAA
:1051D00010B90120854988708AA1029800F002FF69
:1051E00010B902208149887080484078012804D095
:1051F00002282DD003282AD155E07C488078012848
:1052000002D0022822D100E020E001241BE004EBC0
:10521000840202EBC4026E4B03EB820202F10A012C
:10522000039800F0DFFE60B904EB840101EBC401D8
:10523000674A02EB810100E0A4E048680121FFF722
:105240001FFF601CC4B2102CE1DB00BF00BF98E060
:1052500066488078012802D0022822D100E020E0B0
:1052600001241AE004EB840202EBC402584B03EB66
:10527000820202F10A01039800F0B4FE58B904EB6F
:10528000840101EBC401524A02EB8101486802210A
:10529000FFF7F6FE03E0601CC4B2102CE2DB00BF97
:1052A00000BF00BF6DE059A000F01AFD434801693E
:1052B00065A000F015FD6BA000F012FD012450E088
:1052C000012C1CD104EB840000EBC400404901EB2D
:1052D0008000006B4FF47A71484338490969B0FB8C
:1052E000F1FA504602F0F8FF07460022624B02F046
:1052F00027FE05462A460B4660A000F0F1FC04EBB1
:10530000840000EBC400324901EB8000807A30B3A6
:10531000012C24DD04EB840000EBC40001EB8000D1
:10532000006B4FF47A71484324490969B0FBF1FAE4
:10533000504602F0D1FF054600224F4B02F000FE1E
:1053400007460B4604EB840000EBC400204A02EB46
:10535000800000F10A013A464FA000F0C1FC601C39
:10536000C4B2102CACDB51A000F0BAFC1F4880780E
:10537000012802D0022802D100E000E000BF00BFF7
:1053800000BF00BFFFF758FE4FF47A70FFF73BFEF7
:10539000CEE610B500F0F0FB5249AFF26F20FFF7F8
:1053A000C7FD0B4948630121094880F85E10AFF240
:1053B0008321816300F0E2FB10BD00000C09002096
:1053C0000000002040420F0094000020A8000020B0
:1053D00020090020AC000020E80800202F00000079
:1053E000636D64006F70656E00000000B000002007
:1053F000636C6F73650000007461736B6D616E6147
:10540000676500007461736B000000002A2A2A2A75
:105410002A2A2A2A2A2A2A2A2A2A2A2A2A2A2AC84E
:10542000CECEF1B9DCC0EDC6F72A2A2A2A2A2A2ACA
:105430002A2A2A2A2A2A2A2A2A2A2A2A2A2A2A20D6
:10544000200D0D0A0000000020205461736B546988
:105450006D65536C696365436F756E743A2025649E
:10546000200D0A002020435055D5BCD3C3C2CAA387
:10547000BA0D0D0A000000000000244020205461F5
:10548000736B5F4D616E616765203A2025302E3168
:10549000662525200D0A000020202573203A2025AE
:1054A000302E31662525200D0A0000002A2A2A2ADE
:1054B0002A2A2A2A2A2A2A2A2A2A2A2A2A2A2A2A4C
:1054C0002A2A2A2A2A2A2A2A2A2A2A2A2A2A2A2A3C
:1054D0002A2A2A2A2A2A2A2A2A2A2A2A2A2A2A2036
:1054E000200D0A009408002000BFFEE710B500F070
:1054F00043FBF749AFF20F00FFF71AFDF5490860CB
:10550000012081F82A00AFF21F00486000F036FB4E
:1055100010BD10B500F030FB002404E00020EE497F
:1055200041F82400641C082CF8D3002404E0002176
:10553000E94820300155641C082CF8D3002404E00D
:105540000021E54828300155641C082CF8D30024BC
:1055500005E0E249E048303040F82410641C082C93
:10556000F7D3002433E0002004EB840101EBC401F5
:10557000D84A42F8210004EB840101EBC40102EB9C
:105580008101486004EB840101EBC40102EB81015D
:10559000088104EB840101EBC40102EB81018872F4
:1055A00004EB840101EBC40102EB8101C86204EB4E
:1055B000840101EBC40102EB8101086304EB840167
:1055C00001EBC40102EB810181F82A00641C102C5C
:1055D000C9D30020C2490861C2490870C049C872D5
:1055E00001208872FFF782FFFFF7D3FE0020BC493D
:1055F0000881BD480068BD490860B648BA490860DE
:105600003430BB4908600120B54908704FF4FA6096
:10561000FFF7DCFC00F0B2FA10BD2DE9F0470546BB
:105620000F469046994600F0A7FA022401E0601C5C
:1056300084B204EB840000EBC400A64951F82000BA
:105640000028F4D100260FE0287800B90EE015F804
:10565000011B04EB840000EBC4009E4A02EB8000B7
:105660000A308155701C86B2202EEDDB00BF41460A
:105670003846FFF75DFC04EB840101EBC401954A59
:1056800042F8210004EB840000EBC400114601EB5A
:10569000800080F82A9004EB840000EBC40001EB4A
:1056A0008000476004EB840000EBC40001EB800045
:1056B000048100F063FABDE8F08710B500F05CFAF1
:1056C0000821102001F098FE00F058FA10BD10B526
:1056D0000246012114E001EB810303EBC1037D4C81
:1056E00004EB83035B68934208D101EB810303EB76
:1056F000C10304EB830393F82A0003E04B1CD9B2E7
:105700001029E8DB00BF10BD70B5054600F034FA83
:10571000754800684068A84225D0012420E004EBC9
:10572000840000EBC4006B4901EB80004068A84294
:1057300014D16D480068007A6949C87204EB84008E
:1057400000EBC400634901EB80006749086000205A
:105750004FF0E021886100F070FA03E0601CC4B2F1
:10576000102CDCDB00BF00F009FA70BD70B50546F7
:1057700000F002FA5C4800684068A8422CD001247E
:1057800027E004EB840000EBC400524901EB8000E9
:105790004068A8421BD152480481008900EB800177
:1057A00001EBC0004B4901EB80005149086004EB5C
:1057B000840000EBC400474901EB80004A490860BF
:1057C00000204FF0E021886100F037FA03E0601C10
:1057D000C4B2102CD5DB00BF00F0D0F970BD10B5FD
:1057E00000F0CAF93E484078FF2804DA3C48407887
:1057F000401C3B49487000F0C1F910BD10B500F0E5
:10580000BBF937484078002804DD35484078401E11
:105810003349487000F0B2F910BD10B5FFF7DFFF53
:10582000FFF76EFCFFF708FCFFF7E8FF10BD012251
:10583000294920310A54704700BF27492031095CAB
:105840000029FAD00022244920310A54704710B5AB
:105850000446FFF755FC2448006800892549095D86
:10586000884203D100211C4828300155FFF7E4FB92
:1058700010BD10B5044600BF17482830005D012850
:10588000FAD0FFF73DFC0121134828300155164896
:105890000068007A17490855FFF7CEFB10BD0E4A85
:1058A000303242F820107047014600BF0A4A3032B9
:1058B00052F821201268094B1B689A42F6D0064A1A
:1058C000303252F82100054B42F821307047000079
:1058D000940600202009002098080020980000204D
:1058E0000C090020E8080020A8000020A4000020E7
:1058F000AC0000209C0000202848006970474FF051
:10590000E02080697047F0B503464FF0E0267569E6
:10591000366926F002064FF0E0273E61204E3668D9
:10592000F608204FB6FBF7F606FB03F400224FF013
:10593000E026B16910E04FF0E026B06988420BD054
:10594000884202D20E1A324402E02E1A0E44324429
:105950000146A24200D300E0EDE700BF4FF0E02691
:10596000366946F002064FF0E0273E61F0BD4FF485
:105970007A7141434FF4FA62B1FBF2F1491C0A4AD1
:105980001268D16200BF08490968C96A0129FAD8BA
:105990000021054A1268D162704700000C090020FE
:1059A0000000002040420F00A80000201DE05048E9
:1059B000007828B100204F4908704D49087004E074
:1059C0004C480078401C4B4908704A48007802282F
:1059D00006DD4948007C20F00100401C464908745F
:1059E000FCF730FE6420FFF70EFBE0E786B027E00F
:1059F000FCF7A8FD4048807C4049B1F90E103F4AB1
:105A0000B2F90C203E4BB3F90E30CDE90232CDE9AC
:105A100004103B48B0F90C003A49B1F90E10CDE939
:105A200000103848B0F90C303748B0F90E20B0F902
:105A30000C1036A0FDF7EFF94FF4FA70FFF7E3FA18
:105A4000D6E704E0FBF794FD0520FFF7DCFAF9E761
:105A500008E0FFF755FBFBF73FFAFFF7EDFA0A20E6
:105A6000FFF7D1FAF5E704E0FCF76CFA0A20FFF73C
:105A7000CAFAF9E710B5FCF78DFF4FF4E130FDF7F6
:105A80001EF84FF4E130FDF735F9FAF764FFFCF743
:105A900083FCFBF7B5FAFCF7E5FCFCF797FDFFF795
:105AA00038FD0123254AAFF2410125A0FFF7B5FDDE
:105AB0000123254AAFF2670124A0FFF7AEFD0123C1
:105AC000244AAFF2810124A0FFF7A7FD0123244A55
:105AD000AFF2E70123A0FFF7A0FD0123234AAFF2B5
